{
  "_format": "hh-sol-artifact-1",
  "contractName": "GoldengNFT",
  "sourceName": "contracts/GoldengNFT.sol",
  "abi": [
    {
      "inputs": [
        {
          "internalType": "address",
          "name": "_feeWallet",
          "type": "address"
        },
        {
          "internalType": "uint256",
          "name": "_feeAmount",
          "type": "uint256"
        }
      ],
      "stateMutability": "nonpayable",
      "type": "constructor"
    },
    {
      "inputs": [
        {
          "internalType": "uint256",
          "name": "tokenId",
          "type": "uint256"
        }
      ],
      "name": "InvalidTokenId",
      "type": "error"
    },
    {
      "anonymous": false,
      "inputs": [
        {
          "indexed": true,
          "internalType": "address",
          "name": "owner",
          "type": "address"
        },
        {
          "indexed": true,
          "internalType": "address",
          "name": "approved",
          "type": "address"
        },
        {
          "indexed": true,
          "internalType": "uint256",
          "name": "tokenId",
          "type": "uint256"
        }
      ],
      "name": "Approval",
      "type": "event"
    },
    {
      "anonymous": false,
      "inputs": [
        {
          "indexed": true,
          "internalType": "address",
          "name": "owner",
          "type": "address"
        },
        {
          "indexed": true,
          "internalType": "address",
          "name": "operator",
          "type": "address"
        },
        {
          "indexed": false,
          "internalType": "bool",
          "name": "approved",
          "type": "bool"
        }
      ],
      "name": "ApprovalForAll",
      "type": "event"
    },
    {
      "anonymous": false,
      "inputs": [
        {
          "indexed": true,
          "internalType": "address",
          "name": "from",
          "type": "address"
        },
        {
          "indexed": true,
          "internalType": "address",
          "name": "to",
          "type": "address"
        },
        {
          "indexed": true,
          "internalType": "uint256",
          "name": "tokenId",
          "type": "uint256"
        }
      ],
      "name": "Transfer",
      "type": "event"
    },
    {
      "inputs": [
        {
          "internalType": "address",
          "name": "to",
          "type": "address"
        },
        {
          "internalType": "uint256",
          "name": "tokenId",
          "type": "uint256"
        }
      ],
      "name": "approve",
      "outputs": [],
      "stateMutability": "nonpayable",
      "type": "function"
    },
    {
      "inputs": [
        {
          "internalType": "address",
          "name": "owner",
          "type": "address"
        }
      ],
      "name": "balanceOf",
      "outputs": [
        {
          "internalType": "uint256",
          "name": "",
          "type": "uint256"
        }
      ],
      "stateMutability": "view",
      "type": "function"
    },
    {
      "inputs": [],
      "name": "counter",
      "outputs": [
        {
          "internalType": "uint256",
          "name": "",
          "type": "uint256"
        }
      ],
      "stateMutability": "view",
      "type": "function"
    },
    {
      "inputs": [],
      "name": "feeAmount",
      "outputs": [
        {
          "internalType": "uint256",
          "name": "",
          "type": "uint256"
        }
      ],
      "stateMutability": "view",
      "type": "function"
    },
    {
      "inputs": [],
      "name": "feeWallet",
      "outputs": [
        {
          "internalType": "address",
          "name": "",
          "type": "address"
        }
      ],
      "stateMutability": "view",
      "type": "function"
    },
    {
      "inputs": [
        {
          "internalType": "uint256",
          "name": "tokenId",
          "type": "uint256"
        }
      ],
      "name": "getApproved",
      "outputs": [
        {
          "internalType": "address",
          "name": "",
          "type": "address"
        }
      ],
      "stateMutability": "view",
      "type": "function"
    },
    {
      "inputs": [],
      "name": "getMintCount",
      "outputs": [
        {
          "internalType": "uint256",
          "name": "",
          "type": "uint256"
        }
      ],
      "stateMutability": "view",
      "type": "function"
    },
    {
      "inputs": [
        {
          "internalType": "address",
          "name": "owner",
          "type": "address"
        },
        {
          "internalType": "address",
          "name": "operator",
          "type": "address"
        }
      ],
      "name": "isApprovedForAll",
      "outputs": [
        {
          "internalType": "bool",
          "name": "",
          "type": "bool"
        }
      ],
      "stateMutability": "view",
      "type": "function"
    },
    {
      "inputs": [
        {
          "internalType": "address",
          "name": "_to",
          "type": "address"
        },
        {
          "internalType": "string",
          "name": "_uri",
          "type": "string"
        }
      ],
      "name": "mintTo",
      "outputs": [],
      "stateMutability": "payable",
      "type": "function"
    },
    {
      "inputs": [],
      "name": "name",
      "outputs": [
        {
          "internalType": "string",
          "name": "",
          "type": "string"
        }
      ],
      "stateMutability": "view",
      "type": "function"
    },
    {
      "inputs": [
        {
          "internalType": "uint256",
          "name": "tokenId",
          "type": "uint256"
        }
      ],
      "name": "ownerOf",
      "outputs": [
        {
          "internalType": "address",
          "name": "",
          "type": "address"
        }
      ],
      "stateMutability": "view",
      "type": "function"
    },
    {
      "inputs": [
        {
          "internalType": "address",
          "name": "from",
          "type": "address"
        },
        {
          "internalType": "address",
          "name": "to",
          "type": "address"
        },
        {
          "internalType": "uint256",
          "name": "tokenId",
          "type": "uint256"
        }
      ],
      "name": "safeTransferFrom",
      "outputs": [],
      "stateMutability": "nonpayable",
      "type": "function"
    },
    {
      "inputs": [
        {
          "internalType": "address",
          "name": "from",
          "type": "address"
        },
        {
          "internalType": "address",
          "name": "to",
          "type": "address"
        },
        {
          "internalType": "uint256",
          "name": "tokenId",
          "type": "uint256"
        },
        {
          "internalType": "bytes",
          "name": "data",
          "type": "bytes"
        }
      ],
      "name": "safeTransferFrom",
      "outputs": [],
      "stateMutability": "nonpayable",
      "type": "function"
    },
    {
      "inputs": [
        {
          "internalType": "address",
          "name": "operator",
          "type": "address"
        },
        {
          "internalType": "bool",
          "name": "approved",
          "type": "bool"
        }
      ],
      "name": "setApprovalForAll",
      "outputs": [],
      "stateMutability": "nonpayable",
      "type": "function"
    },
    {
      "inputs": [
        {
          "internalType": "bytes4",
          "name": "interfaceId",
          "type": "bytes4"
        }
      ],
      "name": "supportsInterface",
      "outputs": [
        {
          "internalType": "bool",
          "name": "",
          "type": "bool"
        }
      ],
      "stateMutability": "view",
      "type": "function"
    },
    {
      "inputs": [],
      "name": "symbol",
      "outputs": [
        {
          "internalType": "string",
          "name": "",
          "type": "string"
        }
      ],
      "stateMutability": "view",
      "type": "function"
    },
    {
      "inputs": [
        {
          "internalType": "uint256",
          "name": "tokenId",
          "type": "uint256"
        }
      ],
      "name": "tokenURI",
      "outputs": [
        {
          "internalType": "string",
          "name": "",
          "type": "string"
        }
      ],
      "stateMutability": "view",
      "type": "function"
    },
    {
      "inputs": [
        {
          "internalType": "address",
          "name": "from",
          "type": "address"
        },
        {
          "internalType": "address",
          "name": "to",
          "type": "address"
        },
        {
          "internalType": "uint256",
          "name": "tokenId",
          "type": "uint256"
        }
      ],
      "name": "transferFrom",
      "outputs": [],
      "stateMutability": "nonpayable",
      "type": "function"
    }
  ],
  "bytecode": "0x60806040523480156200001157600080fd5b5060405162002fe438038062002fe48339818101604052810190620000379190620001be565b6040518060400160405280600781526020017f476f6c64656e47000000000000000000000000000000000000000000000000008152506040518060400160405280600281526020017f47470000000000000000000000000000000000000000000000000000000000008152508160009081620000b4919062000475565b508060019081620000c6919062000475565b50505081600760006101000a81548173ffffffffffffffffffffffffffffffffffffffff021916908373ffffffffffffffffffffffffffffffffffffffff1602179055508060088190555050506200055c565b600080fd5b600073ffffffffffffffffffffffffffffffffffffffff82169050919050565b60006200014b826200011e565b9050919050565b6200015d816200013e565b81146200016957600080fd5b50565b6000815190506200017d8162000152565b92915050565b6000819050919050565b620001988162000183565b8114620001a457600080fd5b50565b600081519050620001b8816200018d565b92915050565b60008060408385031215620001d857620001d762000119565b5b6000620001e8858286016200016c565b9250506020620001fb85828601620001a7565b9150509250929050565b600081519050919050565b7f4e487b7100000000000000000000000000000000000000000000000000000000600052604160045260246000fd5b7f4e487b7100000000000000000000000000000000000000000000000000000000600052602260045260246000fd5b600060028204905060018216806200028757607f821691505b6020821081036200029d576200029c6200023f565b5b50919050565b60008190508160005260206000209050919050565b60006020601f8301049050919050565b600082821b905092915050565b600060088302620003077fffffffffffffffffffffffffffffffffffffffffffffffffffffffffffffffff82620002c8565b620003138683620002c8565b95508019841693508086168417925050509392505050565b6000819050919050565b600062000356620003506200034a8462000183565b6200032b565b62000183565b9050919050565b6000819050919050565b620003728362000335565b6200038a62000381826200035d565b848454620002d5565b825550505050565b600090565b620003a162000392565b620003ae81848462000367565b505050565b5b81811015620003d657620003ca60008262000397565b600181019050620003b4565b5050565b601f8211156200042557620003ef81620002a3565b620003fa84620002b8565b810160208510156200040a578190505b620004226200041985620002b8565b830182620003b3565b50505b505050565b600082821c905092915050565b60006200044a600019846008026200042a565b1980831691505092915050565b600062000465838362000437565b9150826002028217905092915050565b620004808262000205565b67ffffffffffffffff8111156200049c576200049b62000210565b5b620004a882546200026e565b620004b5828285620003da565b600060209050601f831160018114620004ed5760008415620004d8578287015190505b620004e4858262000457565b86555062000554565b601f198416620004fd86620002a3565b60005b82811015620005275784890151825560018201915060208501945060208101905062000500565b8683101562000547578489015162000543601f89168262000437565b8355505b6001600288020188555050505b505050505050565b612a78806200056c6000396000f3fe6080604052600436106101085760003560e01c806369e1540411610095578063a22cb46511610064578063a22cb4651461036f578063b88d4fde14610398578063c87b56dd146103c1578063e985e9c5146103fe578063f25f4b561461043b57610108565b806369e15404146102b157806370a08231146102dc5780638fc3b5491461031957806395d89b411461034457610108565b8063095ea7b3116100dc578063095ea7b3146101ce57806323b872dd146101f757806342842e0e1461022057806361bc221a146102495780636352211e1461027457610108565b806275a3171461010d57806301ffc9a71461012957806306fdde0314610166578063081812fc14610191575b600080fd5b61012760048036038101906101229190611abd565b610466565b005b34801561013557600080fd5b50610150600480360381019061014b9190611b71565b6105a9565b60405161015d9190611bb9565b60405180910390f35b34801561017257600080fd5b5061017b61068b565b6040516101889190611c53565b60405180910390f35b34801561019d57600080fd5b506101b860048036038101906101b39190611cab565b61071d565b6040516101c59190611ce7565b60405180910390f35b3480156101da57600080fd5b506101f560048036038101906101f09190611d02565b610763565b005b34801561020357600080fd5b5061021e60048036038101906102199190611d42565b61087a565b005b34801561022c57600080fd5b5061024760048036038101906102429190611d42565b6108da565b005b34801561025557600080fd5b5061025e6108fa565b60405161026b9190611da4565b60405180910390f35b34801561028057600080fd5b5061029b60048036038101906102969190611cab565b610900565b6040516102a89190611ce7565b60405180910390f35b3480156102bd57600080fd5b506102c6610986565b6040516102d39190611da4565b60405180910390f35b3480156102e857600080fd5b5061030360048036038101906102fe9190611dbf565b61098c565b6040516103109190611da4565b60405180910390f35b34801561032557600080fd5b5061032e610a43565b60405161033b9190611da4565b60405180910390f35b34801561035057600080fd5b50610359610a4d565b6040516103669190611c53565b60405180910390f35b34801561037b57600080fd5b5061039660048036038101906103919190611e18565b610adf565b005b3480156103a457600080fd5b506103bf60048036038101906103ba9190611ef9565b610af5565b005b3480156103cd57600080fd5b506103e860048036038101906103e39190611cab565b610b57565b6040516103f59190611c53565b60405180910390f35b34801561040a57600080fd5b5061042560048036038101906104209190611f7c565b610c46565b6040516104329190611bb9565b60405180910390f35b34801561044757600080fd5b50610450610cda565b60405161045d9190611ce7565b60405180910390f35b6008543410156104ab576040517f08c379a00000000000000000000000000000000000000000000000000000000081526004016104a290612008565b60405180910390fd5b600660008154809291906104be90612057565b91905055506104cf82600654610d00565b6104db60065482610d1e565b60085434111561053a573373ffffffffffffffffffffffffffffffffffffffff166108fc6008543461050d919061209f565b9081150290604051600060405180830381858888f19350505050158015610538573d6000803e3d6000fd5b505b600760009054906101000a900473ffffffffffffffffffffffffffffffffffffffff1673ffffffffffffffffffffffffffffffffffffffff166108fc6008549081150290604051600060405180830381858888f193505050501580156105a4573d6000803e3d6000fd5b505050565b60007f80ac58cd000000000000000000000000000000000000000000000000000000007bffffffffffffffffffffffffffffffffffffffffffffffffffffffff1916827bffffffffffffffffffffffffffffffffffffffffffffffffffffffff1916148061067457507f5b5e139f000000000000000000000000000000000000000000000000000000007bffffffffffffffffffffffffffffffffffffffffffffffffffffffff1916827bffffffffffffffffffffffffffffffffffffffffffffffffffffffff1916145b80610684575061068382610d8d565b5b9050919050565b60606000805461069a90612102565b80601f01602080910402602001604051908101604052809291908181526020018280546106c690612102565b80156107135780601f106106e857610100808354040283529160200191610713565b820191906000526020600020905b8154815290600101906020018083116106f657829003601f168201915b5050505050905090565b600061072882610df7565b6004600083815260200190815260200160002060009054906101000a900473ffffffffffffffffffffffffffffffffffffffff169050919050565b600061076e82610900565b90508073ffffffffffffffffffffffffffffffffffffffff168373ffffffffffffffffffffffffffffffffffffffff16036107de576040517f08c379a00000000000000000000000000000000000000000000000000000000081526004016107d5906121a5565b60405180910390fd5b8073ffffffffffffffffffffffffffffffffffffffff166107fd610e42565b73ffffffffffffffffffffffffffffffffffffffff16148061082c575061082b81610826610e42565b610c46565b5b61086b576040517f08c379a000000000000000000000000000000000000000000000000000000000815260040161086290612237565b60405180910390fd5b6108758383610e4a565b505050565b61088b610885610e42565b82610f03565b6108ca576040517f08c379a00000000000000000000000000000000000000000000000000000000081526004016108c1906122c9565b60405180910390fd5b6108d5838383610f98565b505050565b6108f583838360405180602001604052806000815250610af5565b505050565b60065481565b60008061090c83611291565b9050600073ffffffffffffffffffffffffffffffffffffffff168173ffffffffffffffffffffffffffffffffffffffff160361097d576040517f08c379a000000000000000000000000000000000000000000000000000000000815260040161097490612335565b60405180910390fd5b80915050919050565b60085481565b60008073ffffffffffffffffffffffffffffffffffffffff168273ffffffffffffffffffffffffffffffffffffffff16036109fc576040517f08c379a00000000000000000000000000000000000000000000000000000000081526004016109f3906123c7565b60405180910390fd5b600360008373ffffffffffffffffffffffffffffffffffffffff1673ffffffffffffffffffffffffffffffffffffffff168152602001908152602001600020549050919050565b6000600654905090565b606060018054610a5c90612102565b80601f0160208091040260200160405190810160405280929190818152602001828054610a8890612102565b8015610ad55780601f10610aaa57610100808354040283529160200191610ad5565b820191906000526020600020905b815481529060010190602001808311610ab857829003601f168201915b5050505050905090565b610af1610aea610e42565b83836112ce565b5050565b610b06610b00610e42565b83610f03565b610b45576040517f08c379a0000000000000000000000000000000000000000000000000000000008152600401610b3c906122c9565b60405180910390fd5b610b518484848461143a565b50505050565b6060610b6282611496565b610ba357816040517fed15e6cf000000000000000000000000000000000000000000000000000000008152600401610b9a9190611da4565b60405180910390fd5b600960008381526020019081526020016000208054610bc190612102565b80601f0160208091040260200160405190810160405280929190818152602001828054610bed90612102565b8015610c3a5780601f10610c0f57610100808354040283529160200191610c3a565b820191906000526020600020905b815481529060010190602001808311610c1d57829003601f168201915b50505050509050919050565b6000600560008473ffffffffffffffffffffffffffffffffffffffff1673ffffffffffffffffffffffffffffffffffffffff16815260200190815260200160002060008373ffffffffffffffffffffffffffffffffffffffff1673ffffffffffffffffffffffffffffffffffffffff16815260200190815260200160002060009054906101000a900460ff16905092915050565b600760009054906101000a900473ffffffffffffffffffffffffffffffffffffffff1681565b610d1a8282604051806020016040528060008152506114d7565b5050565b610d2782611496565b610d6857816040517fed15e6cf000000000000000000000000000000000000000000000000000000008152600401610d5f9190611da4565b60405180910390fd5b80600960008481526020019081526020016000209081610d889190612593565b505050565b60007f01ffc9a7000000000000000000000000000000000000000000000000000000007bffffffffffffffffffffffffffffffffffffffffffffffffffffffff1916827bffffffffffffffffffffffffffffffffffffffffffffffffffffffff1916149050919050565b610e0081611496565b610e3f576040517f08c379a0000000000000000000000000000000000000000000000000000000008152600401610e3690612335565b60405180910390fd5b50565b600033905090565b816004600083815260200190815260200160002060006101000a81548173ffffffffffffffffffffffffffffffffffffffff021916908373ffffffffffffffffffffffffffffffffffffffff160217905550808273ffffffffffffffffffffffffffffffffffffffff16610ebd83610900565b73ffffffffffffffffffffffffffffffffffffffff167f8c5be1e5ebec7d5bd14f71427d1e84f3dd0314c0f7b2291e5b200ac8c7c3b92560405160405180910390a45050565b600080610f0f83610900565b90508073ffffffffffffffffffffffffffffffffffffffff168473ffffffffffffffffffffffffffffffffffffffff161480610f515750610f508185610c46565b5b80610f8f57508373ffffffffffffffffffffffffffffffffffffffff16610f778461071d565b73ffffffffffffffffffffffffffffffffffffffff16145b91505092915050565b8273ffffffffffffffffffffffffffffffffffffffff16610fb882610900565b73ffffffffffffffffffffffffffffffffffffffff161461100e576040517f08c379a0000000000000000000000000000000000000000000000000000000008152600401611005906126d7565b60405180910390fd5b600073ffffffffffffffffffffffffffffffffffffffff168273ffffffffffffffffffffffffffffffffffffffff160361107d576040517f08c379a000000000000000000000000000000000000000000000000000000000815260040161107490612769565b60405180910390fd5b61108a8383836001611532565b8273ffffffffffffffffffffffffffffffffffffffff166110aa82610900565b73ffffffffffffffffffffffffffffffffffffffff1614611100576040517f08c379a00000000000000000000000000000000000000000000000000000000081526004016110f7906126d7565b60405180910390fd5b6004600082815260200190815260200160002060006101000a81549073ffffffffffffffffffffffffffffffffffffffff02191690556001600360008573ffffffffffffffffffffffffffffffffffffffff1673ffffffffffffffffffffffffffffffffffffffff168152602001908152602001600020600082825403925050819055506001600360008473ffffffffffffffffffffffffffffffffffffffff1673ffffffffffffffffffffffffffffffffffffffff16815260200190815260200160002060008282540192505081905550816002600083815260200190815260200160002060006101000a81548173ffffffffffffffffffffffffffffffffffffffff021916908373ffffffffffffffffffffffffffffffffffffffff160217905550808273ffffffffffffffffffffffffffffffffffffffff168473ffffffffffffffffffffffffffffffffffffffff167fddf252ad1be2c89b69c2b068fc378daa952ba7f163c4a11628f55a4df523b3ef60405160405180910390a461128c8383836001611538565b505050565b60006002600083815260200190815260200160002060009054906101000a900473ffffffffffffffffffffffffffffffffffffffff169050919050565b8173ffffffffffffffffffffffffffffffffffffffff168373ffffffffffffffffffffffffffffffffffffffff160361133c576040517f08c379a0000000000000000000000000000000000000000000000000000000008152600401611333906127d5565b60405180910390fd5b80600560008573ffffffffffffffffffffffffffffffffffffffff1673ffffffffffffffffffffffffffffffffffffffff16815260200190815260200160002060008473ffffffffffffffffffffffffffffffffffffffff1673ffffffffffffffffffffffffffffffffffffffff16815260200190815260200160002060006101000a81548160ff0219169083151502179055508173ffffffffffffffffffffffffffffffffffffffff168373ffffffffffffffffffffffffffffffffffffffff167f17307eab39ab6107e8899845ad3d59bd9653f200f220920489ca2b5937696c318360405161142d9190611bb9565b60405180910390a3505050565b611445848484610f98565b6114518484848461153e565b611490576040517f08c379a000000000000000000000000000000000000000000000000000000000815260040161148790612867565b60405180910390fd5b50505050565b60008073ffffffffffffffffffffffffffffffffffffffff166114b883611291565b73ffffffffffffffffffffffffffffffffffffffff1614159050919050565b6114e183836116c5565b6114ee600084848461153e565b61152d576040517f08c379a000000000000000000000000000000000000000000000000000000000815260040161152490612867565b60405180910390fd5b505050565b50505050565b50505050565b600061155f8473ffffffffffffffffffffffffffffffffffffffff166118e2565b156116b8578373ffffffffffffffffffffffffffffffffffffffff1663150b7a02611588610e42565b8786866040518563ffffffff1660e01b81526004016115aa94939291906128dc565b6020604051808303816000875af19250505080156115e657506040513d601f19601f820116820180604052508101906115e3919061293d565b60015b611668573d8060008114611616576040519150601f19603f3d011682016040523d82523d6000602084013e61161b565b606091505b506000815103611660576040517f08c379a000000000000000000000000000000000000000000000000000000000815260040161165790612867565b60405180910390fd5b805181602001fd5b63150b7a0260e01b7bffffffffffffffffffffffffffffffffffffffffffffffffffffffff1916817bffffffffffffffffffffffffffffffffffffffffffffffffffffffff1916149150506116bd565b600190505b949350505050565b600073ffffffffffffffffffffffffffffffffffffffff168273ffffffffffffffffffffffffffffffffffffffff1603611734576040517f08c379a000000000000000000000000000000000000000000000000000000000815260040161172b906129b6565b60405180910390fd5b61173d81611496565b1561177d576040517f08c379a000000000000000000000000000000000000000000000000000000000815260040161177490612a22565b60405180910390fd5b61178b600083836001611532565b61179481611496565b156117d4576040517f08c379a00000000000000000000000000000000000000000000000000000000081526004016117cb90612a22565b60405180910390fd5b6001600360008473ffffffffffffffffffffffffffffffffffffffff1673ffffffffffffffffffffffffffffffffffffffff16815260200190815260200160002060008282540192505081905550816002600083815260200190815260200160002060006101000a81548173ffffffffffffffffffffffffffffffffffffffff021916908373ffffffffffffffffffffffffffffffffffffffff160217905550808273ffffffffffffffffffffffffffffffffffffffff16600073ffffffffffffffffffffffffffffffffffffffff167fddf252ad1be2c89b69c2b068fc378daa952ba7f163c4a11628f55a4df523b3ef60405160405180910390a46118de600083836001611538565b5050565b6000808273ffffffffffffffffffffffffffffffffffffffff163b119050919050565b6000604051905090565b600080fd5b600080fd5b600073ffffffffffffffffffffffffffffffffffffffff82169050919050565b600061194482611919565b9050919050565b61195481611939565b811461195f57600080fd5b50565b6000813590506119718161194b565b92915050565b600080fd5b600080fd5b6000601f19601f8301169050919050565b7f4e487b7100000000000000000000000000000000000000000000000000000000600052604160045260246000fd5b6119ca82611981565b810181811067ffffffffffffffff821117156119e9576119e8611992565b5b80604052505050565b60006119fc611905565b9050611a0882826119c1565b919050565b600067ffffffffffffffff821115611a2857611a27611992565b5b611a3182611981565b9050602081019050919050565b82818337600083830152505050565b6000611a60611a5b84611a0d565b6119f2565b905082815260208101848484011115611a7c57611a7b61197c565b5b611a87848285611a3e565b509392505050565b600082601f830112611aa457611aa3611977565b5b8135611ab4848260208601611a4d565b91505092915050565b60008060408385031215611ad457611ad361190f565b5b6000611ae285828601611962565b925050602083013567ffffffffffffffff811115611b0357611b02611914565b5b611b0f85828601611a8f565b9150509250929050565b60007fffffffff0000000000000000000000000000000000000000000000000000000082169050919050565b611b4e81611b19565b8114611b5957600080fd5b50565b600081359050611b6b81611b45565b92915050565b600060208284031215611b8757611b8661190f565b5b6000611b9584828501611b5c565b91505092915050565b60008115159050919050565b611bb381611b9e565b82525050565b6000602082019050611bce6000830184611baa565b92915050565b600081519050919050565b600082825260208201905092915050565b60005b83811015611c0e578082015181840152602081019050611bf3565b60008484015250505050565b6000611c2582611bd4565b611c2f8185611bdf565b9350611c3f818560208601611bf0565b611c4881611981565b840191505092915050565b60006020820190508181036000830152611c6d8184611c1a565b905092915050565b6000819050919050565b611c8881611c75565b8114611c9357600080fd5b50565b600081359050611ca581611c7f565b92915050565b600060208284031215611cc157611cc061190f565b5b6000611ccf84828501611c96565b91505092915050565b611ce181611939565b82525050565b6000602082019050611cfc6000830184611cd8565b92915050565b60008060408385031215611d1957611d1861190f565b5b6000611d2785828601611962565b9250506020611d3885828601611c96565b9150509250929050565b600080600060608486031215611d5b57611d5a61190f565b5b6000611d6986828701611962565b9350506020611d7a86828701611962565b9250506040611d8b86828701611c96565b9150509250925092565b611d9e81611c75565b82525050565b6000602082019050611db96000830184611d95565b92915050565b600060208284031215611dd557611dd461190f565b5b6000611de384828501611962565b91505092915050565b611df581611b9e565b8114611e0057600080fd5b50565b600081359050611e1281611dec565b92915050565b60008060408385031215611e2f57611e2e61190f565b5b6000611e3d85828601611962565b9250506020611e4e85828601611e03565b9150509250929050565b600067ffffffffffffffff821115611e7357611e72611992565b5b611e7c82611981565b9050602081019050919050565b6000611e9c611e9784611e58565b6119f2565b905082815260208101848484011115611eb857611eb761197c565b5b611ec3848285611a3e565b509392505050565b600082601f830112611ee057611edf611977565b5b8135611ef0848260208601611e89565b91505092915050565b60008060008060808587031215611f1357611f1261190f565b5b6000611f2187828801611962565b9450506020611f3287828801611962565b9350506040611f4387828801611c96565b925050606085013567ffffffffffffffff811115611f6457611f63611914565b5b611f7087828801611ecb565b91505092959194509250565b60008060408385031215611f9357611f9261190f565b5b6000611fa185828601611962565b9250506020611fb285828601611962565b9150509250929050565b7f496e73756666696369656e742066656500000000000000000000000000000000600082015250565b6000611ff2601083611bdf565b9150611ffd82611fbc565b602082019050919050565b6000602082019050818103600083015261202181611fe5565b9050919050565b7f4e487b7100000000000000000000000000000000000000000000000000000000600052601160045260246000fd5b600061206282611c75565b91507fffffffffffffffffffffffffffffffffffffffffffffffffffffffffffffffff820361209457612093612028565b5b600182019050919050565b60006120aa82611c75565b91506120b583611c75565b92508282039050818111156120cd576120cc612028565b5b92915050565b7f4e487b7100000000000000000000000000000000000000000000000000000000600052602260045260246000fd5b6000600282049050600182168061211a57607f821691505b60208210810361212d5761212c6120d3565b5b50919050565b7f4552433732313a20617070726f76616c20746f2063757272656e74206f776e6560008201527f7200000000000000000000000000000000000000000000000000000000000000602082015250565b600061218f602183611bdf565b915061219a82612133565b604082019050919050565b600060208201905081810360008301526121be81612182565b9050919050565b7f4552433732313a20617070726f76652063616c6c6572206973206e6f7420746f60008201527f6b656e206f776e6572206f7220617070726f76656420666f7220616c6c000000602082015250565b6000612221603d83611bdf565b915061222c826121c5565b604082019050919050565b6000602082019050818103600083015261225081612214565b9050919050565b7f4552433732313a2063616c6c6572206973206e6f7420746f6b656e206f776e6560008201527f72206f7220617070726f76656400000000000000000000000000000000000000602082015250565b60006122b3602d83611bdf565b91506122be82612257565b604082019050919050565b600060208201905081810360008301526122e2816122a6565b9050919050565b7f4552433732313a20696e76616c696420746f6b656e2049440000000000000000600082015250565b600061231f601883611bdf565b915061232a826122e9565b602082019050919050565b6000602082019050818103600083015261234e81612312565b9050919050565b7f4552433732313a2061646472657373207a65726f206973206e6f74206120766160008201527f6c6964206f776e65720000000000000000000000000000000000000000000000602082015250565b60006123b1602983611bdf565b91506123bc82612355565b604082019050919050565b600060208201905081810360008301526123e0816123a4565b9050919050565b60008190508160005260206000209050919050565b60006020601f8301049050919050565b600082821b905092915050565b6000600883026124497fffffffffffffffffffffffffffffffffffffffffffffffffffffffffffffffff8261240c565b612453868361240c565b95508019841693508086168417925050509392505050565b6000819050919050565b600061249061248b61248684611c75565b61246b565b611c75565b9050919050565b6000819050919050565b6124aa83612475565b6124be6124b682612497565b848454612419565b825550505050565b600090565b6124d36124c6565b6124de8184846124a1565b505050565b5b81811015612502576124f76000826124cb565b6001810190506124e4565b5050565b601f82111561254757612518816123e7565b612521846123fc565b81016020851015612530578190505b61254461253c856123fc565b8301826124e3565b50505b505050565b600082821c905092915050565b600061256a6000198460080261254c565b1980831691505092915050565b60006125838383612559565b9150826002028217905092915050565b61259c82611bd4565b67ffffffffffffffff8111156125b5576125b4611992565b5b6125bf8254612102565b6125ca828285612506565b600060209050601f8311600181146125fd57600084156125eb578287015190505b6125f58582612577565b86555061265d565b601f19841661260b866123e7565b60005b828110156126335784890151825560018201915060208501945060208101905061260e565b86831015612650578489015161264c601f891682612559565b8355505b6001600288020188555050505b505050505050565b7f4552433732313a207472616e736665722066726f6d20696e636f72726563742060008201527f6f776e6572000000000000000000000000000000000000000000000000000000602082015250565b60006126c1602583611bdf565b91506126cc82612665565b604082019050919050565b600060208201905081810360008301526126f0816126b4565b9050919050565b7f4552433732313a207472616e7366657220746f20746865207a65726f2061646460008201527f7265737300000000000000000000000000000000000000000000000000000000602082015250565b6000612753602483611bdf565b915061275e826126f7565b604082019050919050565b6000602082019050818103600083015261278281612746565b9050919050565b7f4552433732313a20617070726f766520746f2063616c6c657200000000000000600082015250565b60006127bf601983611bdf565b91506127ca82612789565b602082019050919050565b600060208201905081810360008301526127ee816127b2565b9050919050565b7f4552433732313a207472616e7366657220746f206e6f6e20455243373231526560008201527f63656976657220696d706c656d656e7465720000000000000000000000000000602082015250565b6000612851603283611bdf565b915061285c826127f5565b604082019050919050565b6000602082019050818103600083015261288081612844565b9050919050565b600081519050919050565b600082825260208201905092915050565b60006128ae82612887565b6128b88185612892565b93506128c8818560208601611bf0565b6128d181611981565b840191505092915050565b60006080820190506128f16000830187611cd8565b6128fe6020830186611cd8565b61290b6040830185611d95565b818103606083015261291d81846128a3565b905095945050505050565b60008151905061293781611b45565b92915050565b6000602082840312156129535761295261190f565b5b600061296184828501612928565b91505092915050565b7f4552433732313a206d696e7420746f20746865207a65726f2061646472657373600082015250565b60006129a0602083611bdf565b91506129ab8261296a565b602082019050919050565b600060208201905081810360008301526129cf81612993565b9050919050565b7f4552433732313a20746f6b656e20616c7265616479206d696e74656400000000600082015250565b6000612a0c601c83611bdf565b9150612a17826129d6565b602082019050919050565b60006020820190508181036000830152612a3b816129ff565b905091905056fea2646970667358221220fd7dfd155d5a55a2492f7287d57813f7c1c03e80bd2b86e6230f10d7d3cf907864736f6c63430008180033",
  "linkReferences": {},
  "deployedLinkReferences": {}
}