{
  "_format": "hh-sol-artifact-1",
  "contractName": "GoldenStakingRewards",
  "sourceName": "contracts/GoldenStakingRewards.sol",
  "abi": [
    {
      "inputs": [
        {
          "internalType": "address",
          "name": "_rewardToken",
          "type": "address"
        },
        {
          "internalType": "address",
          "name": "_stakingToken",
          "type": "address"
        },
        {
          "internalType": "uint256",
          "name": "_rewardsDuration",
          "type": "uint256"
        },
        {
          "internalType": "uint256",
          "name": "_boostedTimePeriod",
          "type": "uint256"
        },
        {
          "internalType": "uint256",
          "name": "_boost",
          "type": "uint256"
        },
        {
          "internalType": "uint256",
          "name": "_decimals",
          "type": "uint256"
        }
      ],
      "stateMutability": "nonpayable",
      "type": "constructor"
    },
    {
      "anonymous": false,
      "inputs": [
        {
          "indexed": false,
          "internalType": "uint256",
          "name": "boost",
          "type": "uint256"
        }
      ],
      "name": "BoostUpdated",
      "type": "event"
    },
    {
      "anonymous": false,
      "inputs": [
        {
          "indexed": false,
          "internalType": "uint256",
          "name": "boostedTimePeriod",
          "type": "uint256"
        }
      ],
      "name": "BoostedTimePeriodUpdated",
      "type": "event"
    },
    {
      "anonymous": false,
      "inputs": [
        {
          "indexed": true,
          "internalType": "address",
          "name": "previousOwner",
          "type": "address"
        },
        {
          "indexed": true,
          "internalType": "address",
          "name": "newOwner",
          "type": "address"
        }
      ],
      "name": "OwnershipTransferred",
      "type": "event"
    },
    {
      "anonymous": false,
      "inputs": [
        {
          "indexed": false,
          "internalType": "address",
          "name": "account",
          "type": "address"
        }
      ],
      "name": "Paused",
      "type": "event"
    },
    {
      "anonymous": false,
      "inputs": [
        {
          "indexed": false,
          "internalType": "uint256",
          "name": "rewardAmount",
          "type": "uint256"
        }
      ],
      "name": "RewardAdded",
      "type": "event"
    },
    {
      "anonymous": false,
      "inputs": [
        {
          "indexed": false,
          "internalType": "uint256",
          "name": "rewardDuration",
          "type": "uint256"
        }
      ],
      "name": "RewardDurationUpdated",
      "type": "event"
    },
    {
      "anonymous": false,
      "inputs": [
        {
          "indexed": true,
          "internalType": "address",
          "name": "user",
          "type": "address"
        },
        {
          "indexed": false,
          "internalType": "uint256",
          "name": "reward",
          "type": "uint256"
        }
      ],
      "name": "RewardPaid",
      "type": "event"
    },
    {
      "anonymous": false,
      "inputs": [
        {
          "indexed": false,
          "internalType": "address",
          "name": "newRewardToken",
          "type": "address"
        }
      ],
      "name": "RewardTokenUpdated",
      "type": "event"
    },
    {
      "anonymous": false,
      "inputs": [
        {
          "indexed": true,
          "internalType": "address",
          "name": "user",
          "type": "address"
        },
        {
          "indexed": false,
          "internalType": "uint256",
          "name": "amount",
          "type": "uint256"
        }
      ],
      "name": "Staked",
      "type": "event"
    },
    {
      "anonymous": false,
      "inputs": [
        {
          "indexed": false,
          "internalType": "address",
          "name": "account",
          "type": "address"
        }
      ],
      "name": "Unpaused",
      "type": "event"
    },
    {
      "anonymous": false,
      "inputs": [
        {
          "indexed": true,
          "internalType": "address",
          "name": "user",
          "type": "address"
        },
        {
          "indexed": false,
          "internalType": "uint256",
          "name": "amount",
          "type": "uint256"
        }
      ],
      "name": "Unstaked",
      "type": "event"
    },
    {
      "inputs": [
        {
          "internalType": "address",
          "name": "account",
          "type": "address"
        }
      ],
      "name": "balanceOf",
      "outputs": [
        {
          "internalType": "uint256",
          "name": "",
          "type": "uint256"
        }
      ],
      "stateMutability": "view",
      "type": "function"
    },
    {
      "inputs": [],
      "name": "boost",
      "outputs": [
        {
          "internalType": "uint256",
          "name": "",
          "type": "uint256"
        }
      ],
      "stateMutability": "view",
      "type": "function"
    },
    {
      "inputs": [],
      "name": "boostedFinish",
      "outputs": [
        {
          "internalType": "uint256",
          "name": "",
          "type": "uint256"
        }
      ],
      "stateMutability": "view",
      "type": "function"
    },
    {
      "inputs": [],
      "name": "boostedTimePeriod",
      "outputs": [
        {
          "internalType": "uint256",
          "name": "",
          "type": "uint256"
        }
      ],
      "stateMutability": "view",
      "type": "function"
    },
    {
      "inputs": [],
      "name": "claim",
      "outputs": [],
      "stateMutability": "nonpayable",
      "type": "function"
    },
    {
      "inputs": [
        {
          "internalType": "address",
          "name": "account",
          "type": "address"
        }
      ],
      "name": "earned",
      "outputs": [
        {
          "internalType": "uint256",
          "name": "tokensEarned",
          "type": "uint256"
        }
      ],
      "stateMutability": "view",
      "type": "function"
    },
    {
      "inputs": [],
      "name": "exit",
      "outputs": [],
      "stateMutability": "nonpayable",
      "type": "function"
    },
    {
      "inputs": [],
      "name": "getBoostStakerCount",
      "outputs": [
        {
          "internalType": "uint256",
          "name": "",
          "type": "uint256"
        },
        {
          "internalType": "uint256",
          "name": "",
          "type": "uint256"
        }
      ],
      "stateMutability": "view",
      "type": "function"
    },
    {
      "inputs": [],
      "name": "getBoostedFinishTime",
      "outputs": [
        {
          "internalType": "uint256",
          "name": "",
          "type": "uint256"
        }
      ],
      "stateMutability": "view",
      "type": "function"
    },
    {
      "inputs": [],
      "name": "getPeriodFinishTime",
      "outputs": [
        {
          "internalType": "uint256",
          "name": "",
          "type": "uint256"
        }
      ],
      "stateMutability": "view",
      "type": "function"
    },
    {
      "inputs": [],
      "name": "getRewardTokenAddress",
      "outputs": [
        {
          "internalType": "address",
          "name": "",
          "type": "address"
        }
      ],
      "stateMutability": "view",
      "type": "function"
    },
    {
      "inputs": [],
      "name": "getTokenDecimals",
      "outputs": [
        {
          "internalType": "uint256",
          "name": "",
          "type": "uint256"
        }
      ],
      "stateMutability": "view",
      "type": "function"
    },
    {
      "inputs": [],
      "name": "lastTimeRewardApplicable",
      "outputs": [
        {
          "internalType": "uint256",
          "name": "",
          "type": "uint256"
        }
      ],
      "stateMutability": "view",
      "type": "function"
    },
    {
      "inputs": [],
      "name": "lastUpdateTime",
      "outputs": [
        {
          "internalType": "uint256",
          "name": "",
          "type": "uint256"
        }
      ],
      "stateMutability": "view",
      "type": "function"
    },
    {
      "inputs": [
        {
          "internalType": "uint256",
          "name": "rewardAmount",
          "type": "uint256"
        }
      ],
      "name": "notifyRewardAmount",
      "outputs": [],
      "stateMutability": "nonpayable",
      "type": "function"
    },
    {
      "inputs": [],
      "name": "owner",
      "outputs": [
        {
          "internalType": "address",
          "name": "",
          "type": "address"
        }
      ],
      "stateMutability": "view",
      "type": "function"
    },
    {
      "inputs": [],
      "name": "pause",
      "outputs": [],
      "stateMutability": "nonpayable",
      "type": "function"
    },
    {
      "inputs": [],
      "name": "paused",
      "outputs": [
        {
          "internalType": "bool",
          "name": "",
          "type": "bool"
        }
      ],
      "stateMutability": "view",
      "type": "function"
    },
    {
      "inputs": [],
      "name": "periodFinish",
      "outputs": [
        {
          "internalType": "uint256",
          "name": "",
          "type": "uint256"
        }
      ],
      "stateMutability": "view",
      "type": "function"
    },
    {
      "inputs": [
        {
          "internalType": "address",
          "name": "_account",
          "type": "address"
        }
      ],
      "name": "refreshReward",
      "outputs": [],
      "stateMutability": "nonpayable",
      "type": "function"
    },
    {
      "inputs": [],
      "name": "renounceOwnership",
      "outputs": [],
      "stateMutability": "nonpayable",
      "type": "function"
    },
    {
      "inputs": [],
      "name": "rewardDuration",
      "outputs": [
        {
          "internalType": "uint256",
          "name": "",
          "type": "uint256"
        }
      ],
      "stateMutability": "view",
      "type": "function"
    },
    {
      "inputs": [
        {
          "internalType": "address",
          "name": "",
          "type": "address"
        }
      ],
      "name": "rewardEarned",
      "outputs": [
        {
          "internalType": "uint256",
          "name": "",
          "type": "uint256"
        }
      ],
      "stateMutability": "view",
      "type": "function"
    },
    {
      "inputs": [],
      "name": "rewardPerToken",
      "outputs": [
        {
          "internalType": "uint256",
          "name": "perTokenRate",
          "type": "uint256"
        }
      ],
      "stateMutability": "view",
      "type": "function"
    },
    {
      "inputs": [],
      "name": "rewardPerTokenStored",
      "outputs": [
        {
          "internalType": "uint256",
          "name": "",
          "type": "uint256"
        }
      ],
      "stateMutability": "view",
      "type": "function"
    },
    {
      "inputs": [],
      "name": "rewardRate",
      "outputs": [
        {
          "internalType": "uint256",
          "name": "",
          "type": "uint256"
        }
      ],
      "stateMutability": "view",
      "type": "function"
    },
    {
      "inputs": [],
      "name": "rewardToken",
      "outputs": [
        {
          "internalType": "contract IGoldenExp",
          "name": "",
          "type": "address"
        }
      ],
      "stateMutability": "view",
      "type": "function"
    },
    {
      "inputs": [
        {
          "internalType": "uint256",
          "name": "amount",
          "type": "uint256"
        }
      ],
      "name": "stake",
      "outputs": [],
      "stateMutability": "nonpayable",
      "type": "function"
    },
    {
      "inputs": [],
      "name": "stakingToken",
      "outputs": [
        {
          "internalType": "contract IERC20",
          "name": "",
          "type": "address"
        }
      ],
      "stateMutability": "view",
      "type": "function"
    },
    {
      "inputs": [],
      "name": "tokenDecimals",
      "outputs": [
        {
          "internalType": "uint256",
          "name": "",
          "type": "uint256"
        }
      ],
      "stateMutability": "view",
      "type": "function"
    },
    {
      "inputs": [],
      "name": "totalSupply",
      "outputs": [
        {
          "internalType": "uint256",
          "name": "",
          "type": "uint256"
        }
      ],
      "stateMutability": "view",
      "type": "function"
    },
    {
      "inputs": [
        {
          "internalType": "address",
          "name": "newOwner",
          "type": "address"
        }
      ],
      "name": "transferOwnership",
      "outputs": [],
      "stateMutability": "nonpayable",
      "type": "function"
    },
    {
      "inputs": [],
      "name": "unpause",
      "outputs": [],
      "stateMutability": "nonpayable",
      "type": "function"
    },
    {
      "inputs": [
        {
          "internalType": "uint256",
          "name": "amount",
          "type": "uint256"
        }
      ],
      "name": "unstake",
      "outputs": [],
      "stateMutability": "nonpayable",
      "type": "function"
    },
    {
      "inputs": [
        {
          "internalType": "uint256",
          "name": "_boost",
          "type": "uint256"
        }
      ],
      "name": "updateBoost",
      "outputs": [],
      "stateMutability": "nonpayable",
      "type": "function"
    },
    {
      "inputs": [
        {
          "internalType": "uint256",
          "name": "_boostedTimePeriod",
          "type": "uint256"
        }
      ],
      "name": "updateBoostedTimePeriod",
      "outputs": [],
      "stateMutability": "nonpayable",
      "type": "function"
    },
    {
      "inputs": [
        {
          "internalType": "uint256",
          "name": "_rewardDuration",
          "type": "uint256"
        }
      ],
      "name": "updateRewardDuration",
      "outputs": [],
      "stateMutability": "nonpayable",
      "type": "function"
    },
    {
      "inputs": [
        {
          "internalType": "address",
          "name": "newRewardToken",
          "type": "address"
        }
      ],
      "name": "updateRewardToken",
      "outputs": [],
      "stateMutability": "nonpayable",
      "type": "function"
    },
    {
      "inputs": [
        {
          "internalType": "address",
          "name": "",
          "type": "address"
        }
      ],
      "name": "userRewardPerTokenPaid",
      "outputs": [
        {
          "internalType": "uint256",
          "name": "",
          "type": "uint256"
        }
      ],
      "stateMutability": "view",
      "type": "function"
    }
  ],
  "bytecode": "0x60806040523480156200001157600080fd5b5060405162003263380380620032638339818101604052810190620000379190620002a5565b60016000819055506200005f620000536200013260201b60201c565b6200013a60201b60201c565b6000600160146101000a81548160ff02191690831515021790555085600260006101000a81548173ffffffffffffffffffffffffffffffffffffffff021916908373ffffffffffffffffffffffffffffffffffffffff16021790555084600360006101000a81548173ffffffffffffffffffffffffffffffffffffffff021916908373ffffffffffffffffffffffffffffffffffffffff1602179055508360088190555082600b819055508160048190555080600a620001209190620004c4565b600c8190555050505050505062000515565b600033905090565b6000600160009054906101000a900473ffffffffffffffffffffffffffffffffffffffff16905081600160006101000a81548173ffffffffffffffffffffffffffffffffffffffff021916908373ffffffffffffffffffffffffffffffffffffffff1602179055508173ffffffffffffffffffffffffffffffffffffffff168173ffffffffffffffffffffffffffffffffffffffff167f8be0079c531659141344cd1fd0a4f28419497f9722a3daafe3b4186f6b6457e060405160405180910390a35050565b600080fd5b600073ffffffffffffffffffffffffffffffffffffffff82169050919050565b6000620002328262000205565b9050919050565b620002448162000225565b81146200025057600080fd5b50565b600081519050620002648162000239565b92915050565b6000819050919050565b6200027f816200026a565b81146200028b57600080fd5b50565b6000815190506200029f8162000274565b92915050565b60008060008060008060c08789031215620002c557620002c462000200565b5b6000620002d589828a0162000253565b9650506020620002e889828a0162000253565b9550506040620002fb89828a016200028e565b94505060606200030e89828a016200028e565b93505060806200032189828a016200028e565b92505060a06200033489828a016200028e565b9150509295509295509295565b7f4e487b7100000000000000000000000000000000000000000000000000000000600052601160045260246000fd5b60008160011c9050919050565b6000808291508390505b6001851115620003cf57808604811115620003a757620003a662000341565b5b6001851615620003b75780820291505b8081029050620003c78562000370565b945062000387565b94509492505050565b600082620003ea5760019050620004bd565b81620003fa5760009050620004bd565b81600181146200041357600281146200041e5762000454565b6001915050620004bd565b60ff84111562000433576200043262000341565b5b8360020a9150848211156200044d576200044c62000341565b5b50620004bd565b5060208310610133831016604e8410600b84101617156200048e5782820a90508381111562000488576200048762000341565b5b620004bd565b6200049d84848460016200037d565b92509050818404811115620004b757620004b662000341565b5b81810290505b9392505050565b6000620004d1826200026a565b9150620004de836200026a565b92506200050d7fffffffffffffffffffffffffffffffffffffffffffffffffffffffffffffffff8484620003d8565b905092915050565b612d3e80620005256000396000f3fe608060405234801561001057600080fd5b506004361061023c5760003560e01c80638da5cb5b1161013b578063c9b6b2b1116100b8578063f2fde38b1161007c578063f2fde38b14610616578063f520e7e514610632578063f7c618c114610650578063f8cf31cb1461066e578063fce67e0d1461068a5761023c565b8063c9b6b2b114610594578063cd3daf9d146105b2578063df136d65146105d0578063e9fad8ee146105ee578063ebe2b12b146105f85761023c565b8063ac2c5413116100ff578063ac2c5413146104fd578063ac8718221461051b578063bece8af21461053a578063c3e9230714610558578063c8f33c91146105765761023c565b80638da5cb5b1461046b57806399e117a014610489578063a66f42c0146104a7578063a694fc3a146104c5578063a81cc9ac146104e15761023c565b80633f4ba83a116101c957806372f702f31161018d57806372f702f3146103d75780637b0a47ee146103f557806380faa57d146104135780638456cb59146104315780638b8763471461043b5761023c565b80633f4ba83a1461036b5780634e71d92d146103755780635c975abb1461037f57806370a082311461039d578063715018a6146103cd5761023c565b806318160ddd1161021057806318160ddd146102d957806324f65ee7146102f75780632e17de78146103155780633b97e856146103315780633c6b16ab1461034f5761023c565b80628cc26214610241578063070a888f14610271578063169db4ab1461028d57806316ba6bf3146102a9575b600080fd5b61025b600480360381019061025691906121ae565b6106a6565b60405161026891906121f4565b60405180910390f35b61028b6004803603810190610286919061223b565b6107a7565b005b6102a760048036038101906102a2919061223b565b6107f0565b005b6102c360048036038101906102be91906121ae565b610839565b6040516102d091906121f4565b60405180910390f35b6102e1610851565b6040516102ee91906121f4565b60405180910390f35b6102ff61085b565b60405161030c91906121f4565b60405180910390f35b61032f600480360381019061032a919061223b565b610865565b005b610339610c6d565b60405161034691906121f4565b60405180910390f35b6103696004803603810190610364919061223b565b610c73565b005b610373610e84565b005b61037d610e96565b005b610387611118565b6040516103949190612283565b60405180910390f35b6103b760048036038101906103b291906121ae565b61112f565b6040516103c491906121f4565b60405180910390f35b6103d5611178565b005b6103df61118c565b6040516103ec91906122fd565b60405180910390f35b6103fd6111b2565b60405161040a91906121f4565b60405180910390f35b61041b6111b8565b60405161042891906121f4565b60405180910390f35b6104396111d0565b005b610455600480360381019061045091906121ae565b6111e2565b60405161046291906121f4565b60405180910390f35b6104736111fa565b6040516104809190612327565b60405180910390f35b610491611224565b60405161049e9190612327565b60405180910390f35b6104af61124e565b6040516104bc91906121f4565b60405180910390f35b6104df60048036038101906104da919061223b565b611254565b005b6104fb60048036038101906104f6919061223b565b611598565b005b6105056115e1565b60405161051291906121f4565b60405180910390f35b6105236115e7565b604051610531929190612342565b60405180910390f35b6105426115f8565b60405161054f91906121f4565b60405180910390f35b610560611602565b60405161056d91906121f4565b60405180910390f35b61057e61160c565b60405161058b91906121f4565b60405180910390f35b61059c611612565b6040516105a991906121f4565b60405180910390f35b6105ba611618565b6040516105c791906121f4565b60405180910390f35b6105d86117aa565b6040516105e591906121f4565b60405180910390f35b6105f66117b0565b005b610600611802565b60405161060d91906121f4565b60405180910390f35b610630600480360381019061062b91906121ae565b611808565b005b61063a61188b565b60405161064791906121f4565b60405180910390f35b610658611891565b604051610665919061238c565b60405180910390f35b610688600480360381019061068391906121ae565b6118b7565b005b6106a4600480360381019061069f91906121ae565b6119a9565b005b6000806106b1611618565b9050601160008473ffffffffffffffffffffffffffffffffffffffff1673ffffffffffffffffffffffffffffffffffffffff16815260200190815260200160002054600c54601060008673ffffffffffffffffffffffffffffffffffffffff1673ffffffffffffffffffffffffffffffffffffffff168152602001908152602001600020548361074191906123d6565b601260008773ffffffffffffffffffffffffffffffffffffffff1673ffffffffffffffffffffffffffffffffffffffff1681526020019081526020016000205461078b919061240a565b610795919061247b565b61079f91906124ac565b915050919050565b6107af611a91565b806008819055507ffeece2f615b2fecca6c26deadea49416a6ba6b52b2cd2613065fd6a787cf1240816040516107e591906121f4565b60405180910390a150565b6107f8611a91565b806004819055507fd70f5934cda3f49f14c8c57e9c866d50ca598643b5f3a27e31e8be098103b1df8160405161082e91906121f4565b60405180910390a150565b60116020528060005260406000206000915090505481565b6000600d54905090565b6000600c54905090565b61086d611b0f565b33610876611618565b600a819055506108846111b8565b600981905550600073ffffffffffffffffffffffffffffffffffffffff168173ffffffffffffffffffffffffffffffffffffffff1614610951576108c7816106a6565b601160008373ffffffffffffffffffffffffffffffffffffffff1673ffffffffffffffffffffffffffffffffffffffff16815260200190815260200160002081905550600a54601060008373ffffffffffffffffffffffffffffffffffffffff1673ffffffffffffffffffffffffffffffffffffffff168152602001908152602001600020819055505b60008211610994576040517f08c379a000000000000000000000000000000000000000000000000000000000815260040161098b9061253d565b60405180910390fd5b601260003373ffffffffffffffffffffffffffffffffffffffff1673ffffffffffffffffffffffffffffffffffffffff16815260200190815260200160002054821115610a16576040517f08c379a0000000000000000000000000000000000000000000000000000000008152600401610a0d906125a9565b60405180910390fd5b81600d54610a2491906123d6565b600d8190555081601260003373ffffffffffffffffffffffffffffffffffffffff1673ffffffffffffffffffffffffffffffffffffffff16815260200190815260200160002054610a7591906123d6565b601260003373ffffffffffffffffffffffffffffffffffffffff1673ffffffffffffffffffffffffffffffffffffffff16815260200190815260200160002081905550610b053383600360009054906101000a900473ffffffffffffffffffffffffffffffffffffffff1673ffffffffffffffffffffffffffffffffffffffff16611b5e9092919063ffffffff16565b3373ffffffffffffffffffffffffffffffffffffffff167f0f5bb82176feb1b5e747e28471aa92156a04d9f3ab9f45f28e2d704232b93f7583604051610b4b91906121f4565b60405180910390a26000601260003373ffffffffffffffffffffffffffffffffffffffff1673ffffffffffffffffffffffffffffffffffffffff16815260200190815260200160002054148015610beb5750600f60003373ffffffffffffffffffffffffffffffffffffffff1673ffffffffffffffffffffffffffffffffffffffff16815260200190815260200160002060009054906101000a900460ff165b15610c61576000600f60003373ffffffffffffffffffffffffffffffffffffffff1673ffffffffffffffffffffffffffffffffffffffff16815260200190815260200160002060006101000a81548160ff021916908315150217905550600e6000815480929190610c5b906125c9565b91905055505b50610c6a611be4565b50565b600c5481565b6000610c7d611618565b600a81905550610c8b6111b8565b600981905550600073ffffffffffffffffffffffffffffffffffffffff168173ffffffffffffffffffffffffffffffffffffffff1614610d5857610cce816106a6565b601160008373ffffffffffffffffffffffffffffffffffffffff1673ffffffffffffffffffffffffffffffffffffffff16815260200190815260200160002081905550600a54601060008373ffffffffffffffffffffffffffffffffffffffff1673ffffffffffffffffffffffffffffffffffffffff168152602001908152602001600020819055505b610d60611a91565b600060085411610da5576040517f08c379a0000000000000000000000000000000000000000000000000000000008152600401610d9c9061263e565b60405180910390fd5b6005544210610de857600b54600854610dbe91906124ac565b82610dc9919061247b565b600781905550600b5442610ddd91906124ac565b600681905550610e2e565b600042600554610df891906123d6565b9050600060075482610e0a919061240a565b90506008548185610e1b91906124ac565b610e25919061247b565b60078190555050505b4260098190555060085442610e4391906124ac565b6005819055507fde88a922e0d3b88b24e9623efeb464919c6bf9f66857a65e2bfcf2ce87a9433d82604051610e7891906121f4565b60405180910390a15050565b610e8c611a91565b610e94611bee565b565b610e9e611c51565b610ea6611b0f565b33610eaf611618565b600a81905550610ebd6111b8565b600981905550600073ffffffffffffffffffffffffffffffffffffffff168173ffffffffffffffffffffffffffffffffffffffff1614610f8a57610f00816106a6565b601160008373ffffffffffffffffffffffffffffffffffffffff1673ffffffffffffffffffffffffffffffffffffffff16815260200190815260200160002081905550600a54601060008373ffffffffffffffffffffffffffffffffffffffff1673ffffffffffffffffffffffffffffffffffffffff168152602001908152602001600020819055505b6000601160003373ffffffffffffffffffffffffffffffffffffffff1673ffffffffffffffffffffffffffffffffffffffff16815260200190815260200160002054905060008111156110be576000601160003373ffffffffffffffffffffffffffffffffffffffff1673ffffffffffffffffffffffffffffffffffffffff16815260200190815260200160002081905550600260009054906101000a900473ffffffffffffffffffffffffffffffffffffffff1673ffffffffffffffffffffffffffffffffffffffff166340c10f1933836040518363ffffffff1660e01b815260040161107992919061265e565b6020604051808303816000875af1158015611098573d6000803e3d6000fd5b505050506040513d601f19601f820116820180604052508101906110bc91906126b3565b505b3373ffffffffffffffffffffffffffffffffffffffff167fe2403640ba68fed3a2f88b7557551d1993f84b99bb10ff833f0cf8db0c5e04868260405161110491906121f4565b60405180910390a25050611116611be4565b565b6000600160149054906101000a900460ff16905090565b6000601260008373ffffffffffffffffffffffffffffffffffffffff1673ffffffffffffffffffffffffffffffffffffffff168152602001908152602001600020549050919050565b611180611a91565b61118a6000611c9b565b565b600360009054906101000a900473ffffffffffffffffffffffffffffffffffffffff1681565b60075481565b6000806111c742600554611d61565b90508091505090565b6111d8611a91565b6111e0611d7a565b565b60106020528060005260406000206000915090505481565b6000600160009054906101000a900473ffffffffffffffffffffffffffffffffffffffff16905090565b6000600260009054906101000a900473ffffffffffffffffffffffffffffffffffffffff16905090565b60045481565b61125c611c51565b611264611b0f565b3361126d611618565b600a8190555061127b6111b8565b600981905550600073ffffffffffffffffffffffffffffffffffffffff168173ffffffffffffffffffffffffffffffffffffffff1614611348576112be816106a6565b601160008373ffffffffffffffffffffffffffffffffffffffff1673ffffffffffffffffffffffffffffffffffffffff16815260200190815260200160002081905550600a54601060008373ffffffffffffffffffffffffffffffffffffffff1673ffffffffffffffffffffffffffffffffffffffff168152602001908152602001600020819055505b6000821161138b576040517f08c379a00000000000000000000000000000000000000000000000000000000081526004016113829061272c565b60405180910390fd5b81600d5461139991906124ac565b600d8190555081601260003373ffffffffffffffffffffffffffffffffffffffff1673ffffffffffffffffffffffffffffffffffffffff168152602001908152602001600020546113ea91906124ac565b601260003373ffffffffffffffffffffffffffffffffffffffff1673ffffffffffffffffffffffffffffffffffffffff1681526020019081526020016000208190555061147c333084600360009054906101000a900473ffffffffffffffffffffffffffffffffffffffff1673ffffffffffffffffffffffffffffffffffffffff16611ddc909392919063ffffffff16565b3373ffffffffffffffffffffffffffffffffffffffff167f9e71bc8eea02a63969f509818f2dafb9254532904319f9dbda79b67bd34a5f3d836040516114c291906121f4565b60405180910390a2600f60003373ffffffffffffffffffffffffffffffffffffffff1673ffffffffffffffffffffffffffffffffffffffff16815260200190815260200160002060009054906101000a900460ff1661158c576001600f60003373ffffffffffffffffffffffffffffffffffffffff1673ffffffffffffffffffffffffffffffffffffffff16815260200190815260200160002060006101000a81548160ff021916908315150217905550600e60008154809291906115869061274c565b91905055505b50611595611be4565b50565b6115a0611a91565b80600b819055507ff93a50a66d32c098d21788f6934787a8162146b63c21bdd9b52e0e89ad28ee6d816040516115d691906121f4565b60405180910390a150565b60065481565b600080600454600e54915091509091565b6000600554905090565b6000600654905090565b60095481565b600b5481565b600080600d540361162d57600a5490506117a7565b60006116376111b8565b90506000600954821161164b57600061165a565b6009548261165991906123d6565b5b90506006544210156116b157600d54600c546004546007548461167d919061240a565b611687919061240a565b611691919061240a565b61169b919061247b565b600a546116a891906124ac565b925050506117a7565b600654600954101561176d57600060065483116116cf5760006116de565b600654836116dd91906123d6565b5b9050600d54600c54600754836116f4919061240a565b6116fe919061240a565b611708919061247b565b600d54600c5460045460075460095460065461172491906123d6565b61172e919061240a565b611738919061240a565b611742919061240a565b61174c919061247b565b600a5461175991906124ac565b61176391906124ac565b93505050506117a7565b600d54600c5460075483611781919061240a565b61178b919061240a565b611795919061247b565b600a546117a291906124ac565b925050505b90565b600a5481565b6117f8601260003373ffffffffffffffffffffffffffffffffffffffff1673ffffffffffffffffffffffffffffffffffffffff16815260200190815260200160002054610865565b611800610e96565b565b60055481565b611810611a91565b600073ffffffffffffffffffffffffffffffffffffffff168173ffffffffffffffffffffffffffffffffffffffff160361187f576040517f08c379a000000000000000000000000000000000000000000000000000000000815260040161187690612806565b60405180910390fd5b61188881611c9b565b50565b60085481565b600260009054906101000a900473ffffffffffffffffffffffffffffffffffffffff1681565b6118bf611a91565b600073ffffffffffffffffffffffffffffffffffffffff168173ffffffffffffffffffffffffffffffffffffffff160361192e576040517f08c379a000000000000000000000000000000000000000000000000000000000815260040161192590612872565b60405180910390fd5b80600260006101000a81548173ffffffffffffffffffffffffffffffffffffffff021916908373ffffffffffffffffffffffffffffffffffffffff1602179055507fa5289ba11778999f4dfb9415023783188d42bbb5db0612cbfbe55999069612a08160405161199e9190612327565b60405180910390a150565b806119b2611618565b600a819055506119c06111b8565b600981905550600073ffffffffffffffffffffffffffffffffffffffff168173ffffffffffffffffffffffffffffffffffffffff1614611a8d57611a03816106a6565b601160008373ffffffffffffffffffffffffffffffffffffffff1673ffffffffffffffffffffffffffffffffffffffff16815260200190815260200160002081905550600a54601060008373ffffffffffffffffffffffffffffffffffffffff1673ffffffffffffffffffffffffffffffffffffffff168152602001908152602001600020819055505b5050565b611a99611e65565b73ffffffffffffffffffffffffffffffffffffffff16611ab76111fa565b73ffffffffffffffffffffffffffffffffffffffff1614611b0d576040517f08c379a0000000000000000000000000000000000000000000000000000000008152600401611b04906128de565b60405180910390fd5b565b600260005403611b54576040517f08c379a0000000000000000000000000000000000000000000000000000000008152600401611b4b9061294a565b60405180910390fd5b6002600081905550565b611bdf8363a9059cbb60e01b8484604051602401611b7d92919061265e565b604051602081830303815290604052907bffffffffffffffffffffffffffffffffffffffffffffffffffffffff19166020820180517bffffffffffffffffffffffffffffffffffffffffffffffffffffffff8381831617835250505050611e6d565b505050565b6001600081905550565b611bf6611f35565b6000600160146101000a81548160ff0219169083151502179055507f5db9ee0a495bf2e6ff9c91a7834c1ba4fdd244a5e8aa4e537bd38aeae4b073aa611c3a611e65565b604051611c479190612327565b60405180910390a1565b611c59611118565b15611c99576040517f08c379a0000000000000000000000000000000000000000000000000000000008152600401611c90906129b6565b60405180910390fd5b565b6000600160009054906101000a900473ffffffffffffffffffffffffffffffffffffffff16905081600160006101000a81548173ffffffffffffffffffffffffffffffffffffffff021916908373ffffffffffffffffffffffffffffffffffffffff1602179055508173ffffffffffffffffffffffffffffffffffffffff168173ffffffffffffffffffffffffffffffffffffffff167f8be0079c531659141344cd1fd0a4f28419497f9722a3daafe3b4186f6b6457e060405160405180910390a35050565b6000818310611d705781611d72565b825b905092915050565b611d82611c51565b60018060146101000a81548160ff0219169083151502179055507f62e78cea01bee320cd4e420270b5ea74000d11b0c9f74754ebdbfc544b05a258611dc5611e65565b604051611dd29190612327565b60405180910390a1565b611e5f846323b872dd60e01b858585604051602401611dfd939291906129d6565b604051602081830303815290604052907bffffffffffffffffffffffffffffffffffffffffffffffffffffffff19166020820180517bffffffffffffffffffffffffffffffffffffffffffffffffffffffff8381831617835250505050611e6d565b50505050565b600033905090565b6000611ecf826040518060400160405280602081526020017f5361666545524332303a206c6f772d6c6576656c2063616c6c206661696c65648152508573ffffffffffffffffffffffffffffffffffffffff16611f7e9092919063ffffffff16565b9050600081511480611ef1575080806020019051810190611ef091906126b3565b5b611f30576040517f08c379a0000000000000000000000000000000000000000000000000000000008152600401611f2790612a7f565b60405180910390fd5b505050565b611f3d611118565b611f7c576040517f08c379a0000000000000000000000000000000000000000000000000000000008152600401611f7390612aeb565b60405180910390fd5b565b6060611f8d8484600085611f96565b90509392505050565b606082471015611fdb576040517f08c379a0000000000000000000000000000000000000000000000000000000008152600401611fd290612b7d565b60405180910390fd5b6000808673ffffffffffffffffffffffffffffffffffffffff1685876040516120049190612c0e565b60006040518083038185875af1925050503d8060008114612041576040519150601f19603f3d011682016040523d82523d6000602084013e612046565b606091505b509150915061205787838387612063565b92505050949350505050565b606083156120c55760008351036120bd5761207d856120d8565b6120bc576040517f08c379a00000000000000000000000000000000000000000000000000000000081526004016120b390612c71565b60405180910390fd5b5b8290506120d0565b6120cf83836120fb565b5b949350505050565b6000808273ffffffffffffffffffffffffffffffffffffffff163b119050919050565b60008251111561210e5781518083602001fd5b806040517f08c379a00000000000000000000000000000000000000000000000000000000081526004016121429190612ce6565b60405180910390fd5b600080fd5b600073ffffffffffffffffffffffffffffffffffffffff82169050919050565b600061217b82612150565b9050919050565b61218b81612170565b811461219657600080fd5b50565b6000813590506121a881612182565b92915050565b6000602082840312156121c4576121c361214b565b5b60006121d284828501612199565b91505092915050565b6000819050919050565b6121ee816121db565b82525050565b600060208201905061220960008301846121e5565b92915050565b612218816121db565b811461222357600080fd5b50565b6000813590506122358161220f565b92915050565b6000602082840312156122515761225061214b565b5b600061225f84828501612226565b91505092915050565b60008115159050919050565b61227d81612268565b82525050565b60006020820190506122986000830184612274565b92915050565b6000819050919050565b60006122c36122be6122b984612150565b61229e565b612150565b9050919050565b60006122d5826122a8565b9050919050565b60006122e7826122ca565b9050919050565b6122f7816122dc565b82525050565b600060208201905061231260008301846122ee565b92915050565b61232181612170565b82525050565b600060208201905061233c6000830184612318565b92915050565b600060408201905061235760008301856121e5565b61236460208301846121e5565b9392505050565b6000612376826122ca565b9050919050565b6123868161236b565b82525050565b60006020820190506123a1600083018461237d565b92915050565b7f4e487b7100000000000000000000000000000000000000000000000000000000600052601160045260246000fd5b60006123e1826121db565b91506123ec836121db565b9250828203905081811115612404576124036123a7565b5b92915050565b6000612415826121db565b9150612420836121db565b925082820261242e816121db565b91508282048414831517612445576124446123a7565b5b5092915050565b7f4e487b7100000000000000000000000000000000000000000000000000000000600052601260045260246000fd5b6000612486826121db565b9150612491836121db565b9250826124a1576124a061244c565b5b828204905092915050565b60006124b7826121db565b91506124c2836121db565b92508282019050808211156124da576124d96123a7565b5b92915050565b600082825260208201905092915050565b7f43616e6e6f742077697468647261772030000000000000000000000000000000600082015250565b60006125276011836124e0565b9150612532826124f1565b602082019050919050565b600060208201905081810360008301526125568161251a565b9050919050565b7f496e737566666963656e742062616c616e636500000000000000000000000000600082015250565b60006125936013836124e0565b915061259e8261255d565b602082019050919050565b600060208201905081810360008301526125c281612586565b9050919050565b60006125d4826121db565b9150600082036125e7576125e66123a7565b5b600182039050919050565b7f7265776172644475726174696f6e5f4552524f52000000000000000000000000600082015250565b60006126286014836124e0565b9150612633826125f2565b602082019050919050565b600060208201905081810360008301526126578161261b565b9050919050565b60006040820190506126736000830185612318565b61268060208301846121e5565b9392505050565b61269081612268565b811461269b57600080fd5b50565b6000815190506126ad81612687565b92915050565b6000602082840312156126c9576126c861214b565b5b60006126d78482850161269e565b91505092915050565b7f43616e6e6f74207374616b652030000000000000000000000000000000000000600082015250565b6000612716600e836124e0565b9150612721826126e0565b602082019050919050565b6000602082019050818103600083015261274581612709565b9050919050565b6000612757826121db565b91507fffffffffffffffffffffffffffffffffffffffffffffffffffffffffffffffff8203612789576127886123a7565b5b600182019050919050565b7f4f776e61626c653a206e6577206f776e657220697320746865207a65726f206160008201527f6464726573730000000000000000000000000000000000000000000000000000602082015250565b60006127f06026836124e0565b91506127fb82612794565b604082019050919050565b6000602082019050818103600083015261281f816127e3565b9050919050565b7f496e76616c696420746f6b656e20616464726573730000000000000000000000600082015250565b600061285c6015836124e0565b915061286782612826565b602082019050919050565b6000602082019050818103600083015261288b8161284f565b9050919050565b7f4f776e61626c653a2063616c6c6572206973206e6f7420746865206f776e6572600082015250565b60006128c86020836124e0565b91506128d382612892565b602082019050919050565b600060208201905081810360008301526128f7816128bb565b9050919050565b7f5265656e7472616e637947756172643a207265656e7472616e742063616c6c00600082015250565b6000612934601f836124e0565b915061293f826128fe565b602082019050919050565b6000602082019050818103600083015261296381612927565b9050919050565b7f5061757361626c653a2070617573656400000000000000000000000000000000600082015250565b60006129a06010836124e0565b91506129ab8261296a565b602082019050919050565b600060208201905081810360008301526129cf81612993565b9050919050565b60006060820190506129eb6000830186612318565b6129f86020830185612318565b612a0560408301846121e5565b949350505050565b7f5361666545524332303a204552433230206f7065726174696f6e20646964206e60008201527f6f74207375636365656400000000000000000000000000000000000000000000602082015250565b6000612a69602a836124e0565b9150612a7482612a0d565b604082019050919050565b60006020820190508181036000830152612a9881612a5c565b9050919050565b7f5061757361626c653a206e6f7420706175736564000000000000000000000000600082015250565b6000612ad56014836124e0565b9150612ae082612a9f565b602082019050919050565b60006020820190508181036000830152612b0481612ac8565b9050919050565b7f416464726573733a20696e73756666696369656e742062616c616e636520666f60008201527f722063616c6c0000000000000000000000000000000000000000000000000000602082015250565b6000612b676026836124e0565b9150612b7282612b0b565b604082019050919050565b60006020820190508181036000830152612b9681612b5a565b9050919050565b600081519050919050565b600081905092915050565b60005b83811015612bd1578082015181840152602081019050612bb6565b60008484015250505050565b6000612be882612b9d565b612bf28185612ba8565b9350612c02818560208601612bb3565b80840191505092915050565b6000612c1a8284612bdd565b915081905092915050565b7f416464726573733a2063616c6c20746f206e6f6e2d636f6e7472616374000000600082015250565b6000612c5b601d836124e0565b9150612c6682612c25565b602082019050919050565b60006020820190508181036000830152612c8a81612c4e565b9050919050565b600081519050919050565b6000601f19601f8301169050919050565b6000612cb882612c91565b612cc281856124e0565b9350612cd2818560208601612bb3565b612cdb81612c9c565b840191505092915050565b60006020820190508181036000830152612d008184612cad565b90509291505056fea2646970667358221220bcd100ff83c303485d38b7cdb3adf8b906530820c6d7515a728394a8ca06b56264736f6c63430008130033",
  "linkReferences": {},
  "deployedLinkReferences": {}
}