{
  "_format": "hh-sol-artifact-1",
  "contractName": "GoldenExp",
  "sourceName": "contracts/GoldenExp.sol",
  "abi": [
    {
      "inputs": [],
      "stateMutability": "nonpayable",
      "type": "constructor"
    },
    {
      "inputs": [],
      "name": "InvalidShortString",
      "type": "error"
    },
    {
      "inputs": [
        {
          "internalType": "string",
          "name": "str",
          "type": "string"
        }
      ],
      "name": "StringTooLong",
      "type": "error"
    },
    {
      "anonymous": false,
      "inputs": [
        {
          "indexed": true,
          "internalType": "address",
          "name": "owner",
          "type": "address"
        },
        {
          "indexed": true,
          "internalType": "address",
          "name": "spender",
          "type": "address"
        },
        {
          "indexed": false,
          "internalType": "uint256",
          "name": "value",
          "type": "uint256"
        }
      ],
      "name": "Approval",
      "type": "event"
    },
    {
      "anonymous": false,
      "inputs": [
        {
          "indexed": true,
          "internalType": "address",
          "name": "delegator",
          "type": "address"
        },
        {
          "indexed": true,
          "internalType": "address",
          "name": "fromDelegate",
          "type": "address"
        },
        {
          "indexed": true,
          "internalType": "address",
          "name": "toDelegate",
          "type": "address"
        }
      ],
      "name": "DelegateChanged",
      "type": "event"
    },
    {
      "anonymous": false,
      "inputs": [
        {
          "indexed": true,
          "internalType": "address",
          "name": "delegate",
          "type": "address"
        },
        {
          "indexed": false,
          "internalType": "uint256",
          "name": "previousBalance",
          "type": "uint256"
        },
        {
          "indexed": false,
          "internalType": "uint256",
          "name": "newBalance",
          "type": "uint256"
        }
      ],
      "name": "DelegateVotesChanged",
      "type": "event"
    },
    {
      "anonymous": false,
      "inputs": [],
      "name": "EIP712DomainChanged",
      "type": "event"
    },
    {
      "anonymous": false,
      "inputs": [
        {
          "indexed": false,
          "internalType": "address",
          "name": "newGov",
          "type": "address"
        }
      ],
      "name": "GovernanceAuthorityTransfer",
      "type": "event"
    },
    {
      "anonymous": false,
      "inputs": [
        {
          "indexed": true,
          "internalType": "address",
          "name": "from",
          "type": "address"
        },
        {
          "indexed": true,
          "internalType": "address",
          "name": "to",
          "type": "address"
        },
        {
          "indexed": false,
          "internalType": "uint256",
          "name": "value",
          "type": "uint256"
        }
      ],
      "name": "Transfer",
      "type": "event"
    },
    {
      "inputs": [],
      "name": "CLOCK_MODE",
      "outputs": [
        {
          "internalType": "string",
          "name": "",
          "type": "string"
        }
      ],
      "stateMutability": "view",
      "type": "function"
    },
    {
      "inputs": [],
      "name": "DOMAIN_SEPARATOR",
      "outputs": [
        {
          "internalType": "bytes32",
          "name": "",
          "type": "bytes32"
        }
      ],
      "stateMutability": "view",
      "type": "function"
    },
    {
      "inputs": [
        {
          "internalType": "address",
          "name": "",
          "type": "address"
        }
      ],
      "name": "GoldenExpMinter",
      "outputs": [
        {
          "internalType": "bool",
          "name": "",
          "type": "bool"
        }
      ],
      "stateMutability": "view",
      "type": "function"
    },
    {
      "inputs": [
        {
          "internalType": "address",
          "name": "owner",
          "type": "address"
        },
        {
          "internalType": "address",
          "name": "spender",
          "type": "address"
        }
      ],
      "name": "allowance",
      "outputs": [
        {
          "internalType": "uint256",
          "name": "",
          "type": "uint256"
        }
      ],
      "stateMutability": "view",
      "type": "function"
    },
    {
      "inputs": [
        {
          "internalType": "address",
          "name": "spender",
          "type": "address"
        },
        {
          "internalType": "uint256",
          "name": "amount",
          "type": "uint256"
        }
      ],
      "name": "approve",
      "outputs": [
        {
          "internalType": "bool",
          "name": "",
          "type": "bool"
        }
      ],
      "stateMutability": "nonpayable",
      "type": "function"
    },
    {
      "inputs": [
        {
          "internalType": "address",
          "name": "account",
          "type": "address"
        }
      ],
      "name": "balanceOf",
      "outputs": [
        {
          "internalType": "uint256",
          "name": "",
          "type": "uint256"
        }
      ],
      "stateMutability": "view",
      "type": "function"
    },
    {
      "inputs": [
        {
          "internalType": "address",
          "name": "user",
          "type": "address"
        },
        {
          "internalType": "uint256",
          "name": "amount",
          "type": "uint256"
        }
      ],
      "name": "burn",
      "outputs": [
        {
          "internalType": "bool",
          "name": "",
          "type": "bool"
        }
      ],
      "stateMutability": "nonpayable",
      "type": "function"
    },
    {
      "inputs": [
        {
          "internalType": "address",
          "name": "account",
          "type": "address"
        },
        {
          "internalType": "uint32",
          "name": "pos",
          "type": "uint32"
        }
      ],
      "name": "checkpoints",
      "outputs": [
        {
          "components": [
            {
              "internalType": "uint32",
              "name": "fromBlock",
              "type": "uint32"
            },
            {
              "internalType": "uint224",
              "name": "votes",
              "type": "uint224"
            }
          ],
          "internalType": "struct ERC20Votes.Checkpoint",
          "name": "",
          "type": "tuple"
        }
      ],
      "stateMutability": "view",
      "type": "function"
    },
    {
      "inputs": [],
      "name": "clock",
      "outputs": [
        {
          "internalType": "uint48",
          "name": "",
          "type": "uint48"
        }
      ],
      "stateMutability": "view",
      "type": "function"
    },
    {
      "inputs": [],
      "name": "decimals",
      "outputs": [
        {
          "internalType": "uint8",
          "name": "",
          "type": "uint8"
        }
      ],
      "stateMutability": "view",
      "type": "function"
    },
    {
      "inputs": [
        {
          "internalType": "address",
          "name": "spender",
          "type": "address"
        },
        {
          "internalType": "uint256",
          "name": "subtractedValue",
          "type": "uint256"
        }
      ],
      "name": "decreaseAllowance",
      "outputs": [
        {
          "internalType": "bool",
          "name": "",
          "type": "bool"
        }
      ],
      "stateMutability": "nonpayable",
      "type": "function"
    },
    {
      "inputs": [
        {
          "internalType": "address",
          "name": "delegatee",
          "type": "address"
        }
      ],
      "name": "delegate",
      "outputs": [],
      "stateMutability": "nonpayable",
      "type": "function"
    },
    {
      "inputs": [
        {
          "internalType": "address",
          "name": "delegatee",
          "type": "address"
        },
        {
          "internalType": "uint256",
          "name": "nonce",
          "type": "uint256"
        },
        {
          "internalType": "uint256",
          "name": "expiry",
          "type": "uint256"
        },
        {
          "internalType": "uint8",
          "name": "v",
          "type": "uint8"
        },
        {
          "internalType": "bytes32",
          "name": "r",
          "type": "bytes32"
        },
        {
          "internalType": "bytes32",
          "name": "s",
          "type": "bytes32"
        }
      ],
      "name": "delegateBySig",
      "outputs": [],
      "stateMutability": "nonpayable",
      "type": "function"
    },
    {
      "inputs": [
        {
          "internalType": "address",
          "name": "account",
          "type": "address"
        }
      ],
      "name": "delegates",
      "outputs": [
        {
          "internalType": "address",
          "name": "",
          "type": "address"
        }
      ],
      "stateMutability": "view",
      "type": "function"
    },
    {
      "inputs": [],
      "name": "eip712Domain",
      "outputs": [
        {
          "internalType": "bytes1",
          "name": "fields",
          "type": "bytes1"
        },
        {
          "internalType": "string",
          "name": "name",
          "type": "string"
        },
        {
          "internalType": "string",
          "name": "version",
          "type": "string"
        },
        {
          "internalType": "uint256",
          "name": "chainId",
          "type": "uint256"
        },
        {
          "internalType": "address",
          "name": "verifyingContract",
          "type": "address"
        },
        {
          "internalType": "bytes32",
          "name": "salt",
          "type": "bytes32"
        },
        {
          "internalType": "uint256[]",
          "name": "extensions",
          "type": "uint256[]"
        }
      ],
      "stateMutability": "view",
      "type": "function"
    },
    {
      "inputs": [
        {
          "internalType": "uint256",
          "name": "timepoint",
          "type": "uint256"
        }
      ],
      "name": "getPastTotalSupply",
      "outputs": [
        {
          "internalType": "uint256",
          "name": "",
          "type": "uint256"
        }
      ],
      "stateMutability": "view",
      "type": "function"
    },
    {
      "inputs": [
        {
          "internalType": "address",
          "name": "account",
          "type": "address"
        },
        {
          "internalType": "uint256",
          "name": "timepoint",
          "type": "uint256"
        }
      ],
      "name": "getPastVotes",
      "outputs": [
        {
          "internalType": "uint256",
          "name": "",
          "type": "uint256"
        }
      ],
      "stateMutability": "view",
      "type": "function"
    },
    {
      "inputs": [
        {
          "internalType": "address",
          "name": "account",
          "type": "address"
        }
      ],
      "name": "getVotes",
      "outputs": [
        {
          "internalType": "uint256",
          "name": "",
          "type": "uint256"
        }
      ],
      "stateMutability": "view",
      "type": "function"
    },
    {
      "inputs": [],
      "name": "gov",
      "outputs": [
        {
          "internalType": "address",
          "name": "",
          "type": "address"
        }
      ],
      "stateMutability": "view",
      "type": "function"
    },
    {
      "inputs": [
        {
          "internalType": "address",
          "name": "spender",
          "type": "address"
        },
        {
          "internalType": "uint256",
          "name": "addedValue",
          "type": "uint256"
        }
      ],
      "name": "increaseAllowance",
      "outputs": [
        {
          "internalType": "bool",
          "name": "",
          "type": "bool"
        }
      ],
      "stateMutability": "nonpayable",
      "type": "function"
    },
    {
      "inputs": [
        {
          "internalType": "address",
          "name": "user",
          "type": "address"
        },
        {
          "internalType": "uint256",
          "name": "amount",
          "type": "uint256"
        }
      ],
      "name": "mint",
      "outputs": [
        {
          "internalType": "bool",
          "name": "",
          "type": "bool"
        }
      ],
      "stateMutability": "nonpayable",
      "type": "function"
    },
    {
      "inputs": [],
      "name": "name",
      "outputs": [
        {
          "internalType": "string",
          "name": "",
          "type": "string"
        }
      ],
      "stateMutability": "view",
      "type": "function"
    },
    {
      "inputs": [
        {
          "internalType": "address",
          "name": "owner",
          "type": "address"
        }
      ],
      "name": "nonces",
      "outputs": [
        {
          "internalType": "uint256",
          "name": "",
          "type": "uint256"
        }
      ],
      "stateMutability": "view",
      "type": "function"
    },
    {
      "inputs": [
        {
          "internalType": "address",
          "name": "account",
          "type": "address"
        }
      ],
      "name": "numCheckpoints",
      "outputs": [
        {
          "internalType": "uint32",
          "name": "",
          "type": "uint32"
        }
      ],
      "stateMutability": "view",
      "type": "function"
    },
    {
      "inputs": [
        {
          "internalType": "address",
          "name": "owner",
          "type": "address"
        },
        {
          "internalType": "address",
          "name": "spender",
          "type": "address"
        },
        {
          "internalType": "uint256",
          "name": "value",
          "type": "uint256"
        },
        {
          "internalType": "uint256",
          "name": "deadline",
          "type": "uint256"
        },
        {
          "internalType": "uint8",
          "name": "v",
          "type": "uint8"
        },
        {
          "internalType": "bytes32",
          "name": "r",
          "type": "bytes32"
        },
        {
          "internalType": "bytes32",
          "name": "s",
          "type": "bytes32"
        }
      ],
      "name": "permit",
      "outputs": [],
      "stateMutability": "nonpayable",
      "type": "function"
    },
    {
      "inputs": [
        {
          "internalType": "address",
          "name": "_gov",
          "type": "address"
        }
      ],
      "name": "setGov",
      "outputs": [],
      "stateMutability": "nonpayable",
      "type": "function"
    },
    {
      "inputs": [
        {
          "internalType": "address[]",
          "name": "_contracts",
          "type": "address[]"
        },
        {
          "internalType": "bool[]",
          "name": "_bools",
          "type": "bool[]"
        }
      ],
      "name": "setMinter",
      "outputs": [],
      "stateMutability": "nonpayable",
      "type": "function"
    },
    {
      "inputs": [],
      "name": "symbol",
      "outputs": [
        {
          "internalType": "string",
          "name": "",
          "type": "string"
        }
      ],
      "stateMutability": "view",
      "type": "function"
    },
    {
      "inputs": [],
      "name": "totalMinted",
      "outputs": [
        {
          "internalType": "uint256",
          "name": "",
          "type": "uint256"
        }
      ],
      "stateMutability": "view",
      "type": "function"
    },
    {
      "inputs": [],
      "name": "totalSupply",
      "outputs": [
        {
          "internalType": "uint256",
          "name": "",
          "type": "uint256"
        }
      ],
      "stateMutability": "view",
      "type": "function"
    },
    {
      "inputs": [
        {
          "internalType": "address",
          "name": "to",
          "type": "address"
        },
        {
          "internalType": "uint256",
          "name": "amount",
          "type": "uint256"
        }
      ],
      "name": "transfer",
      "outputs": [
        {
          "internalType": "bool",
          "name": "",
          "type": "bool"
        }
      ],
      "stateMutability": "nonpayable",
      "type": "function"
    },
    {
      "inputs": [
        {
          "internalType": "address",
          "name": "from",
          "type": "address"
        },
        {
          "internalType": "address",
          "name": "to",
          "type": "address"
        },
        {
          "internalType": "uint256",
          "name": "amount",
          "type": "uint256"
        }
      ],
      "name": "transferFrom",
      "outputs": [
        {
          "internalType": "bool",
          "name": "",
          "type": "bool"
        }
      ],
      "stateMutability": "nonpayable",
      "type": "function"
    }
  ],
  "bytecode": "0x6101606040523480156200001257600080fd5b506040518060400160405280600981526020017f476f6c64656e4578700000000000000000000000000000000000000000000000815250806040518060400160405280600181526020017f31000000000000000000000000000000000000000000000000000000000000008152506040518060400160405280600981526020017f476f6c64656e45787000000000000000000000000000000000000000000000008152506040518060400160405280600881526020017f474f4c44454e58500000000000000000000000000000000000000000000000008152508160039081620000fd9190620005b0565b5080600490816200010f9190620005b0565b505050620001286005836200020a60201b90919060201c565b6101208181525050620001466006826200020a60201b90919060201c565b6101408181525050818051906020012060e08181525050808051906020012061010081815250504660a08181525050620001856200026260201b60201c565b608081815250503073ffffffffffffffffffffffffffffffffffffffff1660c08173ffffffffffffffffffffffffffffffffffffffff168152505050505033600c60006101000a81548173ffffffffffffffffffffffffffffffffffffffff021916908373ffffffffffffffffffffffffffffffffffffffff160217905550620008ba565b600060208351101562000230576200022883620002bf60201b60201c565b90506200025c565b8262000242836200032c60201b60201c565b6000019081620002539190620005b0565b5060ff60001b90505b92915050565b60007f8b73c3c69bb8fe3d512ecc4cf759cc79239f7b179b0ffacaa9a75d522b39400f60e051610100514630604051602001620002a495949392919062000708565b60405160208183030381529060405280519060200120905090565b600080829050601f815111156200030f57826040517f305a27a9000000000000000000000000000000000000000000000000000000008152600401620003069190620007f4565b60405180910390fd5b8051816200031d906200084a565b60001c1760001b915050919050565b6000819050919050565b600081519050919050565b7f4e487b7100000000000000000000000000000000000000000000000000000000600052604160045260246000fd5b7f4e487b7100000000000000000000000000000000000000000000000000000000600052602260045260246000fd5b60006002820490506001821680620003b857607f821691505b602082108103620003ce57620003cd62000370565b5b50919050565b60008190508160005260206000209050919050565b60006020601f8301049050919050565b600082821b905092915050565b600060088302620004387fffffffffffffffffffffffffffffffffffffffffffffffffffffffffffffffff82620003f9565b620004448683620003f9565b95508019841693508086168417925050509392505050565b6000819050919050565b6000819050919050565b6000620004916200048b62000485846200045c565b62000466565b6200045c565b9050919050565b6000819050919050565b620004ad8362000470565b620004c5620004bc8262000498565b84845462000406565b825550505050565b600090565b620004dc620004cd565b620004e9818484620004a2565b505050565b5b81811015620005115762000505600082620004d2565b600181019050620004ef565b5050565b601f82111562000560576200052a81620003d4565b6200053584620003e9565b8101602085101562000545578190505b6200055d6200055485620003e9565b830182620004ee565b50505b505050565b600082821c905092915050565b6000620005856000198460080262000565565b1980831691505092915050565b6000620005a0838362000572565b9150826002028217905092915050565b620005bb8262000336565b67ffffffffffffffff811115620005d757620005d662000341565b5b620005e382546200039f565b620005f082828562000515565b600060209050601f83116001811462000628576000841562000613578287015190505b6200061f858262000592565b8655506200068f565b601f1984166200063886620003d4565b60005b8281101562000662578489015182556001820191506020850194506020810190506200063b565b868310156200068257848901516200067e601f89168262000572565b8355505b6001600288020188555050505b505050505050565b6000819050919050565b620006ac8162000697565b82525050565b620006bd816200045c565b82525050565b600073ffffffffffffffffffffffffffffffffffffffff82169050919050565b6000620006f082620006c3565b9050919050565b6200070281620006e3565b82525050565b600060a0820190506200071f6000830188620006a1565b6200072e6020830187620006a1565b6200073d6040830186620006a1565b6200074c6060830185620006b2565b6200075b6080830184620006f7565b9695505050505050565b600082825260208201905092915050565b60005b838110156200079657808201518184015260208101905062000779565b60008484015250505050565b6000601f19601f8301169050919050565b6000620007c08262000336565b620007cc818562000765565b9350620007de81856020860162000776565b620007e981620007a2565b840191505092915050565b60006020820190508181036000830152620008108184620007b3565b905092915050565b600081519050919050565b6000819050602082019050919050565b600062000841825162000697565b80915050919050565b6000620008578262000818565b82620008638462000823565b9050620008708162000833565b92506020821015620008b357620008ae7fffffffffffffffffffffffffffffffffffffffffffffffffffffffffffffffff83602003600802620003f9565b831692505b5050919050565b60805160a05160c05160e0516101005161012051610140516146f8620009156000396000610c7a01526000610c4601526000611fe801526000611fc7015260006119d901526000611a2f01526000611a5801526146f86000f3fe608060405234801561001057600080fd5b50600436106101f05760003560e01c80637ecebe001161010f578063a2309ff8116100a2578063cfad57a211610071578063cfad57a21461064b578063d505accf14610667578063dd62ed3e14610683578063f1127ed8146106b3576101f0565b8063a2309ff8146105b1578063a457c2d7146105cf578063a9059cbb146105ff578063c3cda5201461062f576101f0565b806391ddadf4116100de57806391ddadf41461051557806395d89b41146105335780639ab24eb0146105515780639dc29fac14610581576101f0565b80637ecebe001461047557806384b0196e146104a55780638b5ba1d3146104c95780638e539e8c146104e5576101f0565b8063396685b811610187578063587cde1e11610156578063587cde1e146103c95780635c19a95c146103f95780636fcfff451461041557806370a0823114610445576101f0565b8063396685b81461031b5780633a46b1a81461034b57806340c10f191461037b5780634bf5d7e9146103ab576101f0565b806323b872dd116101c357806323b872dd1461027f578063313ce567146102af5780633644e515146102cd57806339509351146102eb576101f0565b806306fdde03146101f5578063095ea7b31461021357806312d43a511461024357806318160ddd14610261575b600080fd5b6101fd6106e3565b60405161020a9190612f7e565b60405180910390f35b61022d6004803603810190610228919061303e565b610775565b60405161023a9190613099565b60405180910390f35b61024b610798565b60405161025891906130c3565b60405180910390f35b6102696107be565b60405161027691906130ed565b60405180910390f35b61029960048036038101906102949190613108565b6107c8565b6040516102a69190613099565b60405180910390f35b6102b76107f7565b6040516102c49190613177565b60405180910390f35b6102d5610800565b6040516102e291906131ab565b60405180910390f35b6103056004803603810190610300919061303e565b61080f565b6040516103129190613099565b60405180910390f35b610335600480360381019061033091906131c6565b610846565b6040516103429190613099565b60405180910390f35b6103656004803603810190610360919061303e565b610866565b60405161037291906130ed565b60405180910390f35b6103956004803603810190610390919061303e565b610909565b6040516103a29190613099565b60405180910390f35b6103b3610a3c565b6040516103c09190612f7e565b60405180910390f35b6103e360048036038101906103de91906131c6565b610aca565b6040516103f091906130c3565b60405180910390f35b610413600480360381019061040e91906131c6565b610b33565b005b61042f600480360381019061042a91906131c6565b610b47565b60405161043c9190613212565b60405180910390f35b61045f600480360381019061045a91906131c6565b610b9b565b60405161046c91906130ed565b60405180910390f35b61048f600480360381019061048a91906131c6565b610be3565b60405161049c91906130ed565b60405180910390f35b6104ad610c33565b6040516104c09796959493929190613326565b60405180910390f35b6104e360048036038101906104de9190613465565b610d35565b005b6104ff60048036038101906104fa91906134e6565b610e92565b60405161050c91906130ed565b60405180910390f35b61051d610ef7565b60405161052a9190613534565b60405180910390f35b61053b610f07565b6040516105489190612f7e565b60405180910390f35b61056b600480360381019061056691906131c6565b610f99565b60405161057891906130ed565b60405180910390f35b61059b6004803603810190610596919061303e565b6110a1565b6040516105a89190613099565b60405180910390f35b6105b96111b5565b6040516105c691906130ed565b60405180910390f35b6105e960048036038101906105e4919061303e565b6111bb565b6040516105f69190613099565b60405180910390f35b6106196004803603810190610614919061303e565b611232565b6040516106269190613099565b60405180910390f35b610649600480360381019061064491906135a7565b611255565b005b610665600480360381019061066091906131c6565b611359565b005b610681600480360381019061067c9190613634565b611464565b005b61069d600480360381019061069891906136d6565b6115a6565b6040516106aa91906130ed565b60405180910390f35b6106cd60048036038101906106c89190613742565b61162d565b6040516106da91906137f7565b60405180910390f35b6060600380546106f290613841565b80601f016020809104026020016040519081016040528092919081815260200182805461071e90613841565b801561076b5780601f106107405761010080835404028352916020019161076b565b820191906000526020600020905b81548152906001019060200180831161074e57829003601f168201915b5050505050905090565b60008061078061173d565b905061078d818585611745565b600191505092915050565b600c60009054906101000a900473ffffffffffffffffffffffffffffffffffffffff1681565b6000600254905090565b6000806107d361173d565b90506107e085828561190e565b6107eb85858561199a565b60019150509392505050565b60006012905090565b600061080a6119d5565b905090565b60008061081a61173d565b905061083b81858561082c85896115a6565b61083691906138a1565b611745565b600191505092915050565b600d6020528060005260406000206000915054906101000a900460ff1681565b6000610870610ef7565b65ffffffffffff1682106108b9576040517f08c379a00000000000000000000000000000000000000000000000000000000081526004016108b090613921565b60405180910390fd5b610901600a60008573ffffffffffffffffffffffffffffffffffffffff1673ffffffffffffffffffffffffffffffffffffffff16815260200190815260200160002083611a8c565b905092915050565b600060011515600d60003373ffffffffffffffffffffffffffffffffffffffff1673ffffffffffffffffffffffffffffffffffffffff16815260200190815260200160002060009054906101000a900460ff1615151461099e576040517f08c379a00000000000000000000000000000000000000000000000000000000081526004016109959061398d565b60405180910390fd5b60008290503373ffffffffffffffffffffffffffffffffffffffff1663fce67e0d856040518263ffffffff1660e01b81526004016109dc91906130c3565b600060405180830381600087803b1580156109f657600080fd5b505af1158015610a0a573d6000803e3d6000fd5b50505050610a188482611bd4565b80600e6000828254610a2a91906138a1565b92505081905550600191505092915050565b606043610a47610ef7565b65ffffffffffff1614610a8f576040517f08c379a0000000000000000000000000000000000000000000000000000000008152600401610a86906139f9565b60405180910390fd5b6040518060400160405280601d81526020017f6d6f64653d626c6f636b6e756d6265722666726f6d3d64656661756c74000000815250905090565b6000600960008373ffffffffffffffffffffffffffffffffffffffff1673ffffffffffffffffffffffffffffffffffffffff16815260200190815260200160002060009054906101000a900473ffffffffffffffffffffffffffffffffffffffff169050919050565b610b44610b3e61173d565b82611c61565b50565b6000610b94600a60008473ffffffffffffffffffffffffffffffffffffffff1673ffffffffffffffffffffffffffffffffffffffff16815260200190815260200160002080549050611d7b565b9050919050565b60008060008373ffffffffffffffffffffffffffffffffffffffff1673ffffffffffffffffffffffffffffffffffffffff168152602001908152602001600020549050919050565b6000610c2c600760008473ffffffffffffffffffffffffffffffffffffffff1673ffffffffffffffffffffffffffffffffffffffff168152602001908152602001600020611dce565b9050919050565b600060608060008060006060610c7360057f0000000000000000000000000000000000000000000000000000000000000000611ddc90919063ffffffff16565b610ca760067f0000000000000000000000000000000000000000000000000000000000000000611ddc90919063ffffffff16565b46306000801b600067ffffffffffffffff811115610cc857610cc7613a19565b5b604051908082528060200260200182016040528015610cf65781602001602082028036833780820191505090505b507f0f00000000000000000000000000000000000000000000000000000000000000959493929190965096509650965096509650965090919293949596565b600c60009054906101000a900473ffffffffffffffffffffffffffffffffffffffff1673ffffffffffffffffffffffffffffffffffffffff163373ffffffffffffffffffffffffffffffffffffffff1614610dc5576040517f08c379a0000000000000000000000000000000000000000000000000000000008152600401610dbc90613a94565b60405180910390fd5b60005b84849050811015610e8b57828282818110610de657610de5613ab4565b5b9050602002016020810190610dfb9190613b0f565b600d6000878785818110610e1257610e11613ab4565b5b9050602002016020810190610e2791906131c6565b73ffffffffffffffffffffffffffffffffffffffff1673ffffffffffffffffffffffffffffffffffffffff16815260200190815260200160002060006101000a81548160ff0219169083151502179055508080610e8390613b3c565b915050610dc8565b5050505050565b6000610e9c610ef7565b65ffffffffffff168210610ee5576040517f08c379a0000000000000000000000000000000000000000000000000000000008152600401610edc90613921565b60405180910390fd5b610ef0600b83611a8c565b9050919050565b6000610f0243611e8c565b905090565b606060048054610f1690613841565b80601f0160208091040260200160405190810160405280929190818152602001828054610f4290613841565b8015610f8f5780601f10610f6457610100808354040283529160200191610f8f565b820191906000526020600020905b815481529060010190602001808311610f7257829003601f168201915b5050505050905090565b600080600a60008473ffffffffffffffffffffffffffffffffffffffff1673ffffffffffffffffffffffffffffffffffffffff1681526020019081526020016000208054905090506000811461107857600a60008473ffffffffffffffffffffffffffffffffffffffff1673ffffffffffffffffffffffffffffffffffffffff168152602001908152602001600020600182038154811061103d5761103c613ab4565b5b9060005260206000200160000160049054906101000a90047bffffffffffffffffffffffffffffffffffffffffffffffffffffffff1661107b565b60005b7bffffffffffffffffffffffffffffffffffffffffffffffffffffffff16915050919050565b600060011515600d60003373ffffffffffffffffffffffffffffffffffffffff1673ffffffffffffffffffffffffffffffffffffffff16815260200190815260200160002060009054906101000a900460ff16151514611136576040517f08c379a000000000000000000000000000000000000000000000000000000000815260040161112d9061398d565b60405180910390fd5b3373ffffffffffffffffffffffffffffffffffffffff1663fce67e0d846040518263ffffffff1660e01b815260040161116f91906130c3565b600060405180830381600087803b15801561118957600080fd5b505af115801561119d573d6000803e3d6000fd5b505050506111ab8383611ee1565b6001905092915050565b600e5481565b6000806111c661173d565b905060006111d482866115a6565b905083811015611219576040517f08c379a000000000000000000000000000000000000000000000000000000000815260040161121090613bf6565b60405180910390fd5b6112268286868403611745565b60019250505092915050565b60008061123d61173d565b905061124a81858561199a565b600191505092915050565b83421115611298576040517f08c379a000000000000000000000000000000000000000000000000000000000815260040161128f90613c62565b60405180910390fd5b60006112fa6112f27fe48329057bfd03d55e49b547132e39cffd9c1820ad7b9d4c5307691425d15adf8989896040516020016112d79493929190613c82565b60405160208183030381529060405280519060200120611eff565b858585611f19565b905061130581611f44565b8614611346576040517f08c379a000000000000000000000000000000000000000000000000000000000815260040161133d90613d13565b60405180910390fd5b6113508188611c61565b50505050505050565b600c60009054906101000a900473ffffffffffffffffffffffffffffffffffffffff1673ffffffffffffffffffffffffffffffffffffffff163373ffffffffffffffffffffffffffffffffffffffff16146113e9576040517f08c379a00000000000000000000000000000000000000000000000000000000081526004016113e090613a94565b60405180910390fd5b80600c60006101000a81548173ffffffffffffffffffffffffffffffffffffffff021916908373ffffffffffffffffffffffffffffffffffffffff1602179055507f85314cee79a1d748bc922aee2e7514c754944bae54b9c5467dfd99629410fa9a8160405161145991906130c3565b60405180910390a150565b834211156114a7576040517f08c379a000000000000000000000000000000000000000000000000000000000815260040161149e90613d7f565b60405180910390fd5b60007f6e71edae12b1b97f4d1f60370fef10105fa2faae0126114a169c64845d6126c98888886114d68c611f44565b896040516020016114ec96959493929190613d9f565b604051602081830303815290604052805190602001209050600061150f82611eff565b9050600061151f82878787611f19565b90508973ffffffffffffffffffffffffffffffffffffffff168173ffffffffffffffffffffffffffffffffffffffff161461158f576040517f08c379a000000000000000000000000000000000000000000000000000000000815260040161158690613e4c565b60405180910390fd5b61159a8a8a8a611745565b50505050505050505050565b6000600160008473ffffffffffffffffffffffffffffffffffffffff1673ffffffffffffffffffffffffffffffffffffffff16815260200190815260200160002060008373ffffffffffffffffffffffffffffffffffffffff1673ffffffffffffffffffffffffffffffffffffffff16815260200190815260200160002054905092915050565b611635612eb0565b600a60008473ffffffffffffffffffffffffffffffffffffffff1673ffffffffffffffffffffffffffffffffffffffff1681526020019081526020016000208263ffffffff168154811061168c5761168b613ab4565b5b906000526020600020016040518060400160405290816000820160009054906101000a900463ffffffff1663ffffffff1663ffffffff1681526020016000820160049054906101000a90047bffffffffffffffffffffffffffffffffffffffffffffffffffffffff167bffffffffffffffffffffffffffffffffffffffffffffffffffffffff167bffffffffffffffffffffffffffffffffffffffffffffffffffffffff1681525050905092915050565b600033905090565b600073ffffffffffffffffffffffffffffffffffffffff168373ffffffffffffffffffffffffffffffffffffffff16036117b4576040517f08c379a00000000000000000000000000000000000000000000000000000000081526004016117ab90613ede565b60405180910390fd5b600073ffffffffffffffffffffffffffffffffffffffff168273ffffffffffffffffffffffffffffffffffffffff1603611823576040517f08c379a000000000000000000000000000000000000000000000000000000000815260040161181a90613f70565b60405180910390fd5b80600160008573ffffffffffffffffffffffffffffffffffffffff1673ffffffffffffffffffffffffffffffffffffffff16815260200190815260200160002060008473ffffffffffffffffffffffffffffffffffffffff1673ffffffffffffffffffffffffffffffffffffffff168152602001908152602001600020819055508173ffffffffffffffffffffffffffffffffffffffff168373ffffffffffffffffffffffffffffffffffffffff167f8c5be1e5ebec7d5bd14f71427d1e84f3dd0314c0f7b2291e5b200ac8c7c3b9258360405161190191906130ed565b60405180910390a3505050565b600061191a84846115a6565b90507fffffffffffffffffffffffffffffffffffffffffffffffffffffffffffffffff81146119945781811015611986576040517f08c379a000000000000000000000000000000000000000000000000000000000815260040161197d90613fdc565b60405180910390fd5b6119938484848403611745565b5b50505050565b6040517f08c379a00000000000000000000000000000000000000000000000000000000081526004016119cc9061398d565b60405180910390fd5b60007f000000000000000000000000000000000000000000000000000000000000000073ffffffffffffffffffffffffffffffffffffffff163073ffffffffffffffffffffffffffffffffffffffff16148015611a5157507f000000000000000000000000000000000000000000000000000000000000000046145b15611a7e577f00000000000000000000000000000000000000000000000000000000000000009050611a89565b611a86611fa2565b90505b90565b600080838054905090506000808290506005831115611b02576000611ab084612038565b84611abb9190613ffc565b905085611ac88883612131565b60000160009054906101000a900463ffffffff1663ffffffff161115611af057809150611b00565b600181611afd91906138a1565b92505b505b5b80821015611b62576000611b178383612146565b905085611b248883612131565b60000160009054906101000a900463ffffffff1663ffffffff161115611b4c57809150611b5c565b600181611b5991906138a1565b92505b50611b03565b60008114611ba857611b778660018303612131565b60000160049054906101000a90047bffffffffffffffffffffffffffffffffffffffffffffffffffffffff16611bab565b60005b7bffffffffffffffffffffffffffffffffffffffffffffffffffffffff16935050505092915050565b611bde828261216c565b611be66122c2565b7bffffffffffffffffffffffffffffffffffffffffffffffffffffffff16611c0c6107be565b1115611c4d576040517f08c379a0000000000000000000000000000000000000000000000000000000008152600401611c44906140a2565b60405180910390fd5b611c5b600b6122e6836122fc565b50505050565b6000611c6c83610aca565b90506000611c7984610b9b565b905082600960008673ffffffffffffffffffffffffffffffffffffffff1673ffffffffffffffffffffffffffffffffffffffff16815260200190815260200160002060006101000a81548173ffffffffffffffffffffffffffffffffffffffff021916908373ffffffffffffffffffffffffffffffffffffffff1602179055508273ffffffffffffffffffffffffffffffffffffffff168273ffffffffffffffffffffffffffffffffffffffff168573ffffffffffffffffffffffffffffffffffffffff167f3134e8a2e6d97e929a7e54011ea5485d7d196dd5f0ba4d4ef95803e8e3fc257f60405160405180910390a4611d758284836125d7565b50505050565b600063ffffffff8016821115611dc6576040517f08c379a0000000000000000000000000000000000000000000000000000000008152600401611dbd90614134565b60405180910390fd5b819050919050565b600081600001549050919050565b606060ff60001b8314611df957611df2836127d0565b9050611e86565b818054611e0590613841565b80601f0160208091040260200160405190810160405280929190818152602001828054611e3190613841565b8015611e7e5780601f10611e5357610100808354040283529160200191611e7e565b820191906000526020600020905b815481529060010190602001808311611e6157829003601f168201915b505050505090505b92915050565b600065ffffffffffff8016821115611ed9576040517f08c379a0000000000000000000000000000000000000000000000000000000008152600401611ed0906141c6565b60405180910390fd5b819050919050565b611eeb8282612844565b611ef9600b612a11836122fc565b50505050565b6000611f12611f0c6119d5565b83612a27565b9050919050565b6000806000611f2a87878787612a68565b91509150611f3781612b4a565b8192505050949350505050565b600080600760008473ffffffffffffffffffffffffffffffffffffffff1673ffffffffffffffffffffffffffffffffffffffff1681526020019081526020016000209050611f9181611dce565b9150611f9c81612cb0565b50919050565b60007f8b73c3c69bb8fe3d512ecc4cf759cc79239f7b179b0ffacaa9a75d522b39400f7f00000000000000000000000000000000000000000000000000000000000000007f0000000000000000000000000000000000000000000000000000000000000000463060405160200161201d9594939291906141e6565b60405160208183030381529060405280519060200120905090565b600080820361204a576000905061212c565b6000600161205784612cc6565b901c6001901b9050600181848161207157612070614239565b5b048201901c9050600181848161208a57612089614239565b5b048201901c905060018184816120a3576120a2614239565b5b048201901c905060018184816120bc576120bb614239565b5b048201901c905060018184816120d5576120d4614239565b5b048201901c905060018184816120ee576120ed614239565b5b048201901c9050600181848161210757612106614239565b5b048201901c90506121288182858161212257612121614239565b5b04612da7565b9150505b919050565b60008260005281602060002001905092915050565b600060028284186121579190614268565b82841661216491906138a1565b905092915050565b600073ffffffffffffffffffffffffffffffffffffffff168273ffffffffffffffffffffffffffffffffffffffff16036121db576040517f08c379a00000000000000000000000000000000000000000000000000000000081526004016121d2906142e5565b60405180910390fd5b6121e760008383612dc0565b80600260008282546121f991906138a1565b92505081905550806000808473ffffffffffffffffffffffffffffffffffffffff1673ffffffffffffffffffffffffffffffffffffffff168152602001908152602001600020600082825401925050819055508173ffffffffffffffffffffffffffffffffffffffff16600073ffffffffffffffffffffffffffffffffffffffff167fddf252ad1be2c89b69c2b068fc378daa952ba7f163c4a11628f55a4df523b3ef836040516122aa91906130ed565b60405180910390a36122be60008383612dc5565b5050565b60007bffffffffffffffffffffffffffffffffffffffffffffffffffffffff905090565b600081836122f491906138a1565b905092915050565b60008060008580549050905060008082146123c25761231e8760018403612131565b6040518060400160405290816000820160009054906101000a900463ffffffff1663ffffffff1663ffffffff1681526020016000820160049054906101000a90047bffffffffffffffffffffffffffffffffffffffffffffffffffffffff167bffffffffffffffffffffffffffffffffffffffffffffffffffffffff167bffffffffffffffffffffffffffffffffffffffffffffffffffffffff16815250506123fe565b6040518060400160405280600063ffffffff16815260200160007bffffffffffffffffffffffffffffffffffffffffffffffffffffffff168152505b905080602001517bffffffffffffffffffffffffffffffffffffffffffffffffffffffff16935061243384868863ffffffff16565b925060008211801561245d5750612448610ef7565b65ffffffffffff16816000015163ffffffff16145b156124ce5761246b83612df0565b6124788860018503612131565b60000160046101000a8154817bffffffffffffffffffffffffffffffffffffffffffffffffffffffff02191690837bffffffffffffffffffffffffffffffffffffffffffffffffffffffff1602179055506125cd565b8660405180604001604052806124f26124e5610ef7565b65ffffffffffff16611d7b565b63ffffffff16815260200161250686612df0565b7bffffffffffffffffffffffffffffffffffffffffffffffffffffffff168152509080600181540180825580915050600190039060005260206000200160009091909190915060008201518160000160006101000a81548163ffffffff021916908363ffffffff16021790555060208201518160000160046101000a8154817bffffffffffffffffffffffffffffffffffffffffffffffffffffffff02191690837bffffffffffffffffffffffffffffffffffffffffffffffffffffffff16021790555050505b5050935093915050565b8173ffffffffffffffffffffffffffffffffffffffff168373ffffffffffffffffffffffffffffffffffffffff16141580156126135750600081115b156127cb57600073ffffffffffffffffffffffffffffffffffffffff168373ffffffffffffffffffffffffffffffffffffffff16146126f15760008061269a600a60008773ffffffffffffffffffffffffffffffffffffffff1673ffffffffffffffffffffffffffffffffffffffff168152602001908152602001600020612a11856122fc565b915091508473ffffffffffffffffffffffffffffffffffffffff167fdec2bacdd2f05b59de34da9b523dff8be42e5e38e818c82fdb0bae774387a72483836040516126e6929190614305565b60405180910390a250505b600073ffffffffffffffffffffffffffffffffffffffff168273ffffffffffffffffffffffffffffffffffffffff16146127ca57600080612773600a60008673ffffffffffffffffffffffffffffffffffffffff1673ffffffffffffffffffffffffffffffffffffffff1681526020019081526020016000206122e6856122fc565b915091508373ffffffffffffffffffffffffffffffffffffffff167fdec2bacdd2f05b59de34da9b523dff8be42e5e38e818c82fdb0bae774387a72483836040516127bf929190614305565b60405180910390a250505b5b505050565b606060006127dd83612e5b565b90506000602067ffffffffffffffff8111156127fc576127fb613a19565b5b6040519080825280601f01601f19166020018201604052801561282e5781602001600182028036833780820191505090505b5090508181528360208201528092505050919050565b600073ffffffffffffffffffffffffffffffffffffffff168273ffffffffffffffffffffffffffffffffffffffff16036128b3576040517f08c379a00000000000000000000000000000000000000000000000000000000081526004016128aa906143a0565b60405180910390fd5b6128bf82600083612dc0565b60008060008473ffffffffffffffffffffffffffffffffffffffff1673ffffffffffffffffffffffffffffffffffffffff16815260200190815260200160002054905081811015612945576040517f08c379a000000000000000000000000000000000000000000000000000000000815260040161293c90614432565b60405180910390fd5b8181036000808573ffffffffffffffffffffffffffffffffffffffff1673ffffffffffffffffffffffffffffffffffffffff1681526020019081526020016000208190555081600260008282540392505081905550600073ffffffffffffffffffffffffffffffffffffffff168373ffffffffffffffffffffffffffffffffffffffff167fddf252ad1be2c89b69c2b068fc378daa952ba7f163c4a11628f55a4df523b3ef846040516129f891906130ed565b60405180910390a3612a0c83600084612dc5565b505050565b60008183612a1f9190613ffc565b905092915050565b60006040517f190100000000000000000000000000000000000000000000000000000000000081528360028201528260228201526042812091505092915050565b6000807f7fffffffffffffffffffffffffffffff5d576e7357a4501ddfe92f46681b20a08360001c1115612aa3576000600391509150612b41565b600060018787878760405160008152602001604052604051612ac89493929190614452565b6020604051602081039080840390855afa158015612aea573d6000803e3d6000fd5b505050602060405103519050600073ffffffffffffffffffffffffffffffffffffffff168173ffffffffffffffffffffffffffffffffffffffff1603612b3857600060019250925050612b41565b80600092509250505b94509492505050565b60006004811115612b5e57612b5d614497565b5b816004811115612b7157612b70614497565b5b0315612cad5760016004811115612b8b57612b8a614497565b5b816004811115612b9e57612b9d614497565b5b03612bde576040517f08c379a0000000000000000000000000000000000000000000000000000000008152600401612bd590614512565b60405180910390fd5b60026004811115612bf257612bf1614497565b5b816004811115612c0557612c04614497565b5b03612c45576040517f08c379a0000000000000000000000000000000000000000000000000000000008152600401612c3c9061457e565b60405180910390fd5b60036004811115612c5957612c58614497565b5b816004811115612c6c57612c6b614497565b5b03612cac576040517f08c379a0000000000000000000000000000000000000000000000000000000008152600401612ca390614610565b60405180910390fd5b5b50565b6001816000016000828254019250508190555050565b600080600090506000608084901c1115612ce857608083901c92506080810190505b6000604084901c1115612d0357604083901c92506040810190505b6000602084901c1115612d1e57602083901c92506020810190505b6000601084901c1115612d3957601083901c92506010810190505b6000600884901c1115612d5457600883901c92506008810190505b6000600484901c1115612d6f57600483901c92506004810190505b6000600284901c1115612d8a57600283901c92506002810190505b6000600184901c1115612d9e576001810190505b80915050919050565b6000818310612db65781612db8565b825b905092915050565b505050565b612dd0838383612eab565b612deb612ddc84610aca565b612de584610aca565b836125d7565b505050565b60007bffffffffffffffffffffffffffffffffffffffffffffffffffffffff8016821115612e53576040517f08c379a0000000000000000000000000000000000000000000000000000000008152600401612e4a906146a2565b60405180910390fd5b819050919050565b60008060ff8360001c169050601f811115612ea2576040517fb3512b0c00000000000000000000000000000000000000000000000000000000815260040160405180910390fd5b80915050919050565b505050565b6040518060400160405280600063ffffffff16815260200160007bffffffffffffffffffffffffffffffffffffffffffffffffffffffff1681525090565b600081519050919050565b600082825260208201905092915050565b60005b83811015612f28578082015181840152602081019050612f0d565b60008484015250505050565b6000601f19601f8301169050919050565b6000612f5082612eee565b612f5a8185612ef9565b9350612f6a818560208601612f0a565b612f7381612f34565b840191505092915050565b60006020820190508181036000830152612f988184612f45565b905092915050565b600080fd5b600080fd5b600073ffffffffffffffffffffffffffffffffffffffff82169050919050565b6000612fd582612faa565b9050919050565b612fe581612fca565b8114612ff057600080fd5b50565b60008135905061300281612fdc565b92915050565b6000819050919050565b61301b81613008565b811461302657600080fd5b50565b60008135905061303881613012565b92915050565b6000806040838503121561305557613054612fa0565b5b600061306385828601612ff3565b925050602061307485828601613029565b9150509250929050565b60008115159050919050565b6130938161307e565b82525050565b60006020820190506130ae600083018461308a565b92915050565b6130bd81612fca565b82525050565b60006020820190506130d860008301846130b4565b92915050565b6130e781613008565b82525050565b600060208201905061310260008301846130de565b92915050565b60008060006060848603121561312157613120612fa0565b5b600061312f86828701612ff3565b935050602061314086828701612ff3565b925050604061315186828701613029565b9150509250925092565b600060ff82169050919050565b6131718161315b565b82525050565b600060208201905061318c6000830184613168565b92915050565b6000819050919050565b6131a581613192565b82525050565b60006020820190506131c0600083018461319c565b92915050565b6000602082840312156131dc576131db612fa0565b5b60006131ea84828501612ff3565b91505092915050565b600063ffffffff82169050919050565b61320c816131f3565b82525050565b60006020820190506132276000830184613203565b92915050565b60007fff0000000000000000000000000000000000000000000000000000000000000082169050919050565b6132628161322d565b82525050565b600081519050919050565b600082825260208201905092915050565b6000819050602082019050919050565b61329d81613008565b82525050565b60006132af8383613294565b60208301905092915050565b6000602082019050919050565b60006132d382613268565b6132dd8185613273565b93506132e883613284565b8060005b8381101561331957815161330088826132a3565b975061330b836132bb565b9250506001810190506132ec565b5085935050505092915050565b600060e08201905061333b600083018a613259565b818103602083015261334d8189612f45565b905081810360408301526133618188612f45565b905061337060608301876130de565b61337d60808301866130b4565b61338a60a083018561319c565b81810360c083015261339c81846132c8565b905098975050505050505050565b600080fd5b600080fd5b600080fd5b60008083601f8401126133cf576133ce6133aa565b5b8235905067ffffffffffffffff8111156133ec576133eb6133af565b5b602083019150836020820283011115613408576134076133b4565b5b9250929050565b60008083601f840112613425576134246133aa565b5b8235905067ffffffffffffffff811115613442576134416133af565b5b60208301915083602082028301111561345e5761345d6133b4565b5b9250929050565b6000806000806040858703121561347f5761347e612fa0565b5b600085013567ffffffffffffffff81111561349d5761349c612fa5565b5b6134a9878288016133b9565b9450945050602085013567ffffffffffffffff8111156134cc576134cb612fa5565b5b6134d88782880161340f565b925092505092959194509250565b6000602082840312156134fc576134fb612fa0565b5b600061350a84828501613029565b91505092915050565b600065ffffffffffff82169050919050565b61352e81613513565b82525050565b60006020820190506135496000830184613525565b92915050565b6135588161315b565b811461356357600080fd5b50565b6000813590506135758161354f565b92915050565b61358481613192565b811461358f57600080fd5b50565b6000813590506135a18161357b565b92915050565b60008060008060008060c087890312156135c4576135c3612fa0565b5b60006135d289828a01612ff3565b96505060206135e389828a01613029565b95505060406135f489828a01613029565b945050606061360589828a01613566565b935050608061361689828a01613592565b92505060a061362789828a01613592565b9150509295509295509295565b600080600080600080600060e0888a03121561365357613652612fa0565b5b60006136618a828b01612ff3565b97505060206136728a828b01612ff3565b96505060406136838a828b01613029565b95505060606136948a828b01613029565b94505060806136a58a828b01613566565b93505060a06136b68a828b01613592565b92505060c06136c78a828b01613592565b91505092959891949750929550565b600080604083850312156136ed576136ec612fa0565b5b60006136fb85828601612ff3565b925050602061370c85828601612ff3565b9150509250929050565b61371f816131f3565b811461372a57600080fd5b50565b60008135905061373c81613716565b92915050565b6000806040838503121561375957613758612fa0565b5b600061376785828601612ff3565b92505060206137788582860161372d565b9150509250929050565b61378b816131f3565b82525050565b60007bffffffffffffffffffffffffffffffffffffffffffffffffffffffff82169050919050565b6137c281613791565b82525050565b6040820160008201516137de6000850182613782565b5060208201516137f160208501826137b9565b50505050565b600060408201905061380c60008301846137c8565b92915050565b7f4e487b7100000000000000000000000000000000000000000000000000000000600052602260045260246000fd5b6000600282049050600182168061385957607f821691505b60208210810361386c5761386b613812565b5b50919050565b7f4e487b7100000000000000000000000000000000000000000000000000000000600052601160045260246000fd5b60006138ac82613008565b91506138b783613008565b92508282019050808211156138cf576138ce613872565b5b92915050565b7f4552433230566f7465733a20667574757265206c6f6f6b757000000000000000600082015250565b600061390b601983612ef9565b9150613916826138d5565b602082019050919050565b6000602082019050818103600083015261393a816138fe565b9050919050565b7f6e6f7420617574686f72697a6564000000000000000000000000000000000000600082015250565b6000613977600e83612ef9565b915061398282613941565b602082019050919050565b600060208201905081810360008301526139a68161396a565b9050919050565b7f4552433230566f7465733a2062726f6b656e20636c6f636b206d6f6465000000600082015250565b60006139e3601d83612ef9565b91506139ee826139ad565b602082019050919050565b60006020820190508181036000830152613a12816139d6565b9050919050565b7f4e487b7100000000000000000000000000000000000000000000000000000000600052604160045260246000fd5b7f476f7665726e61626c653a20666f7262696464656e0000000000000000000000600082015250565b6000613a7e601583612ef9565b9150613a8982613a48565b602082019050919050565b60006020820190508181036000830152613aad81613a71565b9050919050565b7f4e487b7100000000000000000000000000000000000000000000000000000000600052603260045260246000fd5b613aec8161307e565b8114613af757600080fd5b50565b600081359050613b0981613ae3565b92915050565b600060208284031215613b2557613b24612fa0565b5b6000613b3384828501613afa565b91505092915050565b6000613b4782613008565b91507fffffffffffffffffffffffffffffffffffffffffffffffffffffffffffffffff8203613b7957613b78613872565b5b600182019050919050565b7f45524332303a2064656372656173656420616c6c6f77616e63652062656c6f7760008201527f207a65726f000000000000000000000000000000000000000000000000000000602082015250565b6000613be0602583612ef9565b9150613beb82613b84565b604082019050919050565b60006020820190508181036000830152613c0f81613bd3565b9050919050565b7f4552433230566f7465733a207369676e61747572652065787069726564000000600082015250565b6000613c4c601d83612ef9565b9150613c5782613c16565b602082019050919050565b60006020820190508181036000830152613c7b81613c3f565b9050919050565b6000608082019050613c97600083018761319c565b613ca460208301866130b4565b613cb160408301856130de565b613cbe60608301846130de565b95945050505050565b7f4552433230566f7465733a20696e76616c6964206e6f6e636500000000000000600082015250565b6000613cfd601983612ef9565b9150613d0882613cc7565b602082019050919050565b60006020820190508181036000830152613d2c81613cf0565b9050919050565b7f45524332305065726d69743a206578706972656420646561646c696e65000000600082015250565b6000613d69601d83612ef9565b9150613d7482613d33565b602082019050919050565b60006020820190508181036000830152613d9881613d5c565b9050919050565b600060c082019050613db4600083018961319c565b613dc160208301886130b4565b613dce60408301876130b4565b613ddb60608301866130de565b613de860808301856130de565b613df560a08301846130de565b979650505050505050565b7f45524332305065726d69743a20696e76616c6964207369676e61747572650000600082015250565b6000613e36601e83612ef9565b9150613e4182613e00565b602082019050919050565b60006020820190508181036000830152613e6581613e29565b9050919050565b7f45524332303a20617070726f76652066726f6d20746865207a65726f2061646460008201527f7265737300000000000000000000000000000000000000000000000000000000602082015250565b6000613ec8602483612ef9565b9150613ed382613e6c565b604082019050919050565b60006020820190508181036000830152613ef781613ebb565b9050919050565b7f45524332303a20617070726f766520746f20746865207a65726f20616464726560008201527f7373000000000000000000000000000000000000000000000000000000000000602082015250565b6000613f5a602283612ef9565b9150613f6582613efe565b604082019050919050565b60006020820190508181036000830152613f8981613f4d565b9050919050565b7f45524332303a20696e73756666696369656e7420616c6c6f77616e6365000000600082015250565b6000613fc6601d83612ef9565b9150613fd182613f90565b602082019050919050565b60006020820190508181036000830152613ff581613fb9565b9050919050565b600061400782613008565b915061401283613008565b925082820390508181111561402a57614029613872565b5b92915050565b7f4552433230566f7465733a20746f74616c20737570706c79207269736b73206f60008201527f766572666c6f77696e6720766f74657300000000000000000000000000000000602082015250565b600061408c603083612ef9565b915061409782614030565b604082019050919050565b600060208201905081810360008301526140bb8161407f565b9050919050565b7f53616665436173743a2076616c756520646f65736e27742066697420696e203360008201527f3220626974730000000000000000000000000000000000000000000000000000602082015250565b600061411e602683612ef9565b9150614129826140c2565b604082019050919050565b6000602082019050818103600083015261414d81614111565b9050919050565b7f53616665436173743a2076616c756520646f65736e27742066697420696e203460008201527f3820626974730000000000000000000000000000000000000000000000000000602082015250565b60006141b0602683612ef9565b91506141bb82614154565b604082019050919050565b600060208201905081810360008301526141df816141a3565b9050919050565b600060a0820190506141fb600083018861319c565b614208602083018761319c565b614215604083018661319c565b61422260608301856130de565b61422f60808301846130b4565b9695505050505050565b7f4e487b7100000000000000000000000000000000000000000000000000000000600052601260045260246000fd5b600061427382613008565b915061427e83613008565b92508261428e5761428d614239565b5b828204905092915050565b7f45524332303a206d696e7420746f20746865207a65726f206164647265737300600082015250565b60006142cf601f83612ef9565b91506142da82614299565b602082019050919050565b600060208201905081810360008301526142fe816142c2565b9050919050565b600060408201905061431a60008301856130de565b61432760208301846130de565b9392505050565b7f45524332303a206275726e2066726f6d20746865207a65726f2061646472657360008201527f7300000000000000000000000000000000000000000000000000000000000000602082015250565b600061438a602183612ef9565b91506143958261432e565b604082019050919050565b600060208201905081810360008301526143b98161437d565b9050919050565b7f45524332303a206275726e20616d6f756e7420657863656564732062616c616e60008201527f6365000000000000000000000000000000000000000000000000000000000000602082015250565b600061441c602283612ef9565b9150614427826143c0565b604082019050919050565b6000602082019050818103600083015261444b8161440f565b9050919050565b6000608082019050614467600083018761319c565b6144746020830186613168565b614481604083018561319c565b61448e606083018461319c565b95945050505050565b7f4e487b7100000000000000000000000000000000000000000000000000000000600052602160045260246000fd5b7f45434453413a20696e76616c6964207369676e61747572650000000000000000600082015250565b60006144fc601883612ef9565b9150614507826144c6565b602082019050919050565b6000602082019050818103600083015261452b816144ef565b9050919050565b7f45434453413a20696e76616c6964207369676e6174757265206c656e67746800600082015250565b6000614568601f83612ef9565b915061457382614532565b602082019050919050565b600060208201905081810360008301526145978161455b565b9050919050565b7f45434453413a20696e76616c6964207369676e6174757265202773272076616c60008201527f7565000000000000000000000000000000000000000000000000000000000000602082015250565b60006145fa602283612ef9565b91506146058261459e565b604082019050919050565b60006020820190508181036000830152614629816145ed565b9050919050565b7f53616665436173743a2076616c756520646f65736e27742066697420696e203260008201527f3234206269747300000000000000000000000000000000000000000000000000602082015250565b600061468c602783612ef9565b915061469782614630565b604082019050919050565b600060208201905081810360008301526146bb8161467f565b905091905056fea26469706673582212209043c743cfc561505f3ae67e4c08c5f1a9d335a4958113fe8710b6120250642e64736f6c63430008130033",
  "linkReferences": {},
  "deployedLinkReferences": {}
}