{
  "_format": "hh-sol-artifact-1",
  "contractName": "GoldenStakingRewards",
  "sourceName": "contracts/GoldenStakingRewards.sol",
  "abi": [
    {
      "inputs": [
        {
          "internalType": "address",
          "name": "_rewardToken",
          "type": "address"
        },
        {
          "internalType": "address",
          "name": "_stakingToken",
          "type": "address"
        },
        {
          "internalType": "uint256",
          "name": "_rewardsDuration",
          "type": "uint256"
        },
        {
          "internalType": "uint256",
          "name": "_boostedTimePeriod",
          "type": "uint256"
        },
        {
          "internalType": "uint256",
          "name": "_boost",
          "type": "uint256"
        }
      ],
      "stateMutability": "nonpayable",
      "type": "constructor"
    },
    {
      "anonymous": false,
      "inputs": [
        {
          "indexed": false,
          "internalType": "uint256",
          "name": "boost",
          "type": "uint256"
        }
      ],
      "name": "BoostUpdated",
      "type": "event"
    },
    {
      "anonymous": false,
      "inputs": [
        {
          "indexed": false,
          "internalType": "uint256",
          "name": "boostedTimePeriod",
          "type": "uint256"
        }
      ],
      "name": "BoostedTimePeriodUpdated",
      "type": "event"
    },
    {
      "anonymous": false,
      "inputs": [
        {
          "indexed": false,
          "internalType": "address",
          "name": "sender",
          "type": "address"
        }
      ],
      "name": "EmergencyWithdraw",
      "type": "event"
    },
    {
      "anonymous": false,
      "inputs": [
        {
          "indexed": true,
          "internalType": "address",
          "name": "previousOwner",
          "type": "address"
        },
        {
          "indexed": true,
          "internalType": "address",
          "name": "newOwner",
          "type": "address"
        }
      ],
      "name": "OwnershipTransferred",
      "type": "event"
    },
    {
      "anonymous": false,
      "inputs": [
        {
          "indexed": false,
          "internalType": "address",
          "name": "account",
          "type": "address"
        }
      ],
      "name": "Paused",
      "type": "event"
    },
    {
      "anonymous": false,
      "inputs": [
        {
          "indexed": false,
          "internalType": "uint256",
          "name": "rewardAmount",
          "type": "uint256"
        }
      ],
      "name": "RewardAdded",
      "type": "event"
    },
    {
      "anonymous": false,
      "inputs": [
        {
          "indexed": false,
          "internalType": "uint256",
          "name": "rewardDuration",
          "type": "uint256"
        }
      ],
      "name": "RewardDurationUpdated",
      "type": "event"
    },
    {
      "anonymous": false,
      "inputs": [
        {
          "indexed": true,
          "internalType": "address",
          "name": "user",
          "type": "address"
        },
        {
          "indexed": false,
          "internalType": "uint256",
          "name": "reward",
          "type": "uint256"
        }
      ],
      "name": "RewardPaid",
      "type": "event"
    },
    {
      "anonymous": false,
      "inputs": [
        {
          "indexed": true,
          "internalType": "address",
          "name": "user",
          "type": "address"
        },
        {
          "indexed": false,
          "internalType": "uint256",
          "name": "amount",
          "type": "uint256"
        }
      ],
      "name": "Staked",
      "type": "event"
    },
    {
      "anonymous": false,
      "inputs": [
        {
          "indexed": false,
          "internalType": "address",
          "name": "account",
          "type": "address"
        }
      ],
      "name": "Unpaused",
      "type": "event"
    },
    {
      "anonymous": false,
      "inputs": [
        {
          "indexed": true,
          "internalType": "address",
          "name": "user",
          "type": "address"
        },
        {
          "indexed": false,
          "internalType": "uint256",
          "name": "amount",
          "type": "uint256"
        }
      ],
      "name": "Unstaked",
      "type": "event"
    },
    {
      "inputs": [
        {
          "internalType": "address",
          "name": "account",
          "type": "address"
        }
      ],
      "name": "balanceOf",
      "outputs": [
        {
          "internalType": "uint256",
          "name": "",
          "type": "uint256"
        }
      ],
      "stateMutability": "view",
      "type": "function"
    },
    {
      "inputs": [],
      "name": "boost",
      "outputs": [
        {
          "internalType": "uint256",
          "name": "",
          "type": "uint256"
        }
      ],
      "stateMutability": "view",
      "type": "function"
    },
    {
      "inputs": [],
      "name": "boostedFinish",
      "outputs": [
        {
          "internalType": "uint256",
          "name": "",
          "type": "uint256"
        }
      ],
      "stateMutability": "view",
      "type": "function"
    },
    {
      "inputs": [],
      "name": "boostedTimePeriod",
      "outputs": [
        {
          "internalType": "uint256",
          "name": "",
          "type": "uint256"
        }
      ],
      "stateMutability": "view",
      "type": "function"
    },
    {
      "inputs": [],
      "name": "claim",
      "outputs": [],
      "stateMutability": "nonpayable",
      "type": "function"
    },
    {
      "inputs": [
        {
          "internalType": "address",
          "name": "account",
          "type": "address"
        }
      ],
      "name": "earned",
      "outputs": [
        {
          "internalType": "uint256",
          "name": "tokensEarned",
          "type": "uint256"
        }
      ],
      "stateMutability": "view",
      "type": "function"
    },
    {
      "inputs": [
        {
          "internalType": "address[]",
          "name": "tokens",
          "type": "address[]"
        },
        {
          "internalType": "bool",
          "name": "transferNative",
          "type": "bool"
        }
      ],
      "name": "emergencyWithdraw",
      "outputs": [
        {
          "internalType": "bool",
          "name": "",
          "type": "bool"
        }
      ],
      "stateMutability": "nonpayable",
      "type": "function"
    },
    {
      "inputs": [],
      "name": "exit",
      "outputs": [],
      "stateMutability": "nonpayable",
      "type": "function"
    },
    {
      "inputs": [],
      "name": "lastTimeRewardApplicable",
      "outputs": [
        {
          "internalType": "uint256",
          "name": "",
          "type": "uint256"
        }
      ],
      "stateMutability": "view",
      "type": "function"
    },
    {
      "inputs": [],
      "name": "lastUpdateTime",
      "outputs": [
        {
          "internalType": "uint256",
          "name": "",
          "type": "uint256"
        }
      ],
      "stateMutability": "view",
      "type": "function"
    },
    {
      "inputs": [
        {
          "internalType": "uint256",
          "name": "rewardAmount",
          "type": "uint256"
        }
      ],
      "name": "notifyRewardAmount",
      "outputs": [],
      "stateMutability": "nonpayable",
      "type": "function"
    },
    {
      "inputs": [],
      "name": "owner",
      "outputs": [
        {
          "internalType": "address",
          "name": "",
          "type": "address"
        }
      ],
      "stateMutability": "view",
      "type": "function"
    },
    {
      "inputs": [],
      "name": "pause",
      "outputs": [],
      "stateMutability": "nonpayable",
      "type": "function"
    },
    {
      "inputs": [],
      "name": "paused",
      "outputs": [
        {
          "internalType": "bool",
          "name": "",
          "type": "bool"
        }
      ],
      "stateMutability": "view",
      "type": "function"
    },
    {
      "inputs": [],
      "name": "periodFinish",
      "outputs": [
        {
          "internalType": "uint256",
          "name": "",
          "type": "uint256"
        }
      ],
      "stateMutability": "view",
      "type": "function"
    },
    {
      "inputs": [
        {
          "internalType": "address",
          "name": "_account",
          "type": "address"
        }
      ],
      "name": "refreshReward",
      "outputs": [],
      "stateMutability": "nonpayable",
      "type": "function"
    },
    {
      "inputs": [],
      "name": "renounceOwnership",
      "outputs": [],
      "stateMutability": "nonpayable",
      "type": "function"
    },
    {
      "inputs": [],
      "name": "rewardDuration",
      "outputs": [
        {
          "internalType": "uint256",
          "name": "",
          "type": "uint256"
        }
      ],
      "stateMutability": "view",
      "type": "function"
    },
    {
      "inputs": [
        {
          "internalType": "address",
          "name": "",
          "type": "address"
        }
      ],
      "name": "rewardEarned",
      "outputs": [
        {
          "internalType": "uint256",
          "name": "",
          "type": "uint256"
        }
      ],
      "stateMutability": "view",
      "type": "function"
    },
    {
      "inputs": [],
      "name": "rewardPerToken",
      "outputs": [
        {
          "internalType": "uint256",
          "name": "perTokenRate",
          "type": "uint256"
        }
      ],
      "stateMutability": "view",
      "type": "function"
    },
    {
      "inputs": [],
      "name": "rewardPerTokenStored",
      "outputs": [
        {
          "internalType": "uint256",
          "name": "",
          "type": "uint256"
        }
      ],
      "stateMutability": "view",
      "type": "function"
    },
    {
      "inputs": [],
      "name": "rewardRate",
      "outputs": [
        {
          "internalType": "uint256",
          "name": "",
          "type": "uint256"
        }
      ],
      "stateMutability": "view",
      "type": "function"
    },
    {
      "inputs": [],
      "name": "rewardToken",
      "outputs": [
        {
          "internalType": "contract IGoldenExp",
          "name": "",
          "type": "address"
        }
      ],
      "stateMutability": "view",
      "type": "function"
    },
    {
      "inputs": [
        {
          "internalType": "uint256",
          "name": "amount",
          "type": "uint256"
        }
      ],
      "name": "stake",
      "outputs": [],
      "stateMutability": "nonpayable",
      "type": "function"
    },
    {
      "inputs": [],
      "name": "stakingToken",
      "outputs": [
        {
          "internalType": "contract IERC20",
          "name": "",
          "type": "address"
        }
      ],
      "stateMutability": "view",
      "type": "function"
    },
    {
      "inputs": [],
      "name": "totalSupply",
      "outputs": [
        {
          "internalType": "uint256",
          "name": "",
          "type": "uint256"
        }
      ],
      "stateMutability": "view",
      "type": "function"
    },
    {
      "inputs": [
        {
          "internalType": "address",
          "name": "newOwner",
          "type": "address"
        }
      ],
      "name": "transferOwnership",
      "outputs": [],
      "stateMutability": "nonpayable",
      "type": "function"
    },
    {
      "inputs": [],
      "name": "unpause",
      "outputs": [],
      "stateMutability": "nonpayable",
      "type": "function"
    },
    {
      "inputs": [
        {
          "internalType": "uint256",
          "name": "amount",
          "type": "uint256"
        }
      ],
      "name": "unstake",
      "outputs": [],
      "stateMutability": "nonpayable",
      "type": "function"
    },
    {
      "inputs": [
        {
          "internalType": "uint256",
          "name": "_boost",
          "type": "uint256"
        }
      ],
      "name": "updateBoost",
      "outputs": [],
      "stateMutability": "nonpayable",
      "type": "function"
    },
    {
      "inputs": [
        {
          "internalType": "uint256",
          "name": "_boostedTimePeriod",
          "type": "uint256"
        }
      ],
      "name": "updateBoostedTimePeriod",
      "outputs": [],
      "stateMutability": "nonpayable",
      "type": "function"
    },
    {
      "inputs": [
        {
          "internalType": "uint256",
          "name": "_rewardDuration",
          "type": "uint256"
        }
      ],
      "name": "updateRewardDuration",
      "outputs": [],
      "stateMutability": "nonpayable",
      "type": "function"
    },
    {
      "inputs": [
        {
          "internalType": "address",
          "name": "",
          "type": "address"
        }
      ],
      "name": "userRewardPerTokenPaid",
      "outputs": [
        {
          "internalType": "uint256",
          "name": "",
          "type": "uint256"
        }
      ],
      "stateMutability": "view",
      "type": "function"
    }
  ],
  "bytecode": "0x60806040523480156200001157600080fd5b5060405162002e8c38038062002e8c83398181016040528101906200003791906200028f565b60016000819055506200005f620000536200011c60201b60201c565b6200012460201b60201c565b6000600160146101000a81548160ff02191690831515021790555084600260006101000a81548173ffffffffffffffffffffffffffffffffffffffff021916908373ffffffffffffffffffffffffffffffffffffffff16021790555083600360006101000a81548173ffffffffffffffffffffffffffffffffffffffff021916908373ffffffffffffffffffffffffffffffffffffffff1602179055508260088190555081600b8190555080600481905550505050505062000317565b600033905090565b6000600160009054906101000a900473ffffffffffffffffffffffffffffffffffffffff16905081600160006101000a81548173ffffffffffffffffffffffffffffffffffffffff021916908373ffffffffffffffffffffffffffffffffffffffff1602179055508173ffffffffffffffffffffffffffffffffffffffff168173ffffffffffffffffffffffffffffffffffffffff167f8be0079c531659141344cd1fd0a4f28419497f9722a3daafe3b4186f6b6457e060405160405180910390a35050565b600080fd5b600073ffffffffffffffffffffffffffffffffffffffff82169050919050565b60006200021c82620001ef565b9050919050565b6200022e816200020f565b81146200023a57600080fd5b50565b6000815190506200024e8162000223565b92915050565b6000819050919050565b620002698162000254565b81146200027557600080fd5b50565b60008151905062000289816200025e565b92915050565b600080600080600060a08688031215620002ae57620002ad620001ea565b5b6000620002be888289016200023d565b9550506020620002d1888289016200023d565b9450506040620002e48882890162000278565b9350506060620002f78882890162000278565b92505060806200030a8882890162000278565b9150509295509295909350565b612b6580620003276000396000f3fe608060405234801561001057600080fd5b50600436106101fa5760003560e01c80638456cb591161011a578063c9b6b2b1116100ad578063ebe2b12b1161007c578063ebe2b12b14610531578063f2fde38b1461054f578063f520e7e51461056b578063f7c618c114610589578063fce67e0d146105a7576101fa565b8063c9b6b2b1146104cd578063cd3daf9d146104eb578063df136d6514610509578063e9fad8ee14610527576101fa565b8063a694fc3a116100e9578063a694fc3a14610459578063a81cc9ac14610475578063ac2c541314610491578063c8f33c91146104af576101fa565b80638456cb59146103e35780638b876347146103ed5780638da5cb5b1461041d578063a66f42c01461043b576101fa565b80634e71d92d1161019257806372f702f31161016157806372f702f3146103595780637b0a47ee146103775780637c4b52cb1461039557806380faa57d146103c5576101fa565b80634e71d92d146102f75780635c975abb1461030157806370a082311461031f578063715018a61461034f576101fa565b806318160ddd116101ce57806318160ddd146102975780632e17de78146102b55780633c6b16ab146102d15780633f4ba83a146102ed576101fa565b80628cc262146101ff578063070a888f1461022f578063169db4ab1461024b57806316ba6bf314610267575b600080fd5b61021960048036038101906102149190611f48565b6105c3565b6040516102269190611f8e565b60405180910390f35b61024960048036038101906102449190611fd5565b6106ca565b005b61026560048036038101906102609190611fd5565b610713565b005b610281600480360381019061027c9190611f48565b61075c565b60405161028e9190611f8e565b60405180910390f35b61029f610774565b6040516102ac9190611f8e565b60405180910390f35b6102cf60048036038101906102ca9190611fd5565b61077e565b005b6102eb60048036038101906102e69190611fd5565b610a80565b005b6102f5610c91565b005b6102ff610ca3565b005b610309610f25565b604051610316919061201d565b60405180910390f35b61033960048036038101906103349190611f48565b610f3c565b6040516103469190611f8e565b60405180910390f35b610357610f85565b005b610361610f99565b60405161036e9190612097565b60405180910390f35b61037f610fbf565b60405161038c9190611f8e565b60405180910390f35b6103af60048036038101906103aa9190612143565b610fc5565b6040516103bc919061201d565b60405180910390f35b6103cd611155565b6040516103da9190611f8e565b60405180910390f35b6103eb61116d565b005b61040760048036038101906104029190611f48565b61117f565b6040516104149190611f8e565b60405180910390f35b610425611197565b60405161043291906121b2565b60405180910390f35b6104436111c1565b6040516104509190611f8e565b60405180910390f35b610473600480360381019061046e9190611fd5565b6111c7565b005b61048f600480360381019061048a9190611fd5565b611449565b005b610499611492565b6040516104a69190611f8e565b60405180910390f35b6104b7611498565b6040516104c49190611f8e565b60405180910390f35b6104d561149e565b6040516104e29190611f8e565b60405180910390f35b6104f36114a4565b6040516105009190611f8e565b60405180910390f35b610511611631565b60405161051e9190611f8e565b60405180910390f35b61052f611637565b005b610539611689565b6040516105469190611f8e565b60405180910390f35b61056960048036038101906105649190611f48565b61168f565b005b610573611712565b6040516105809190611f8e565b60405180910390f35b610591611718565b60405161059e91906121ee565b60405180910390f35b6105c160048036038101906105bc9190611f48565b61173e565b005b6000806105ce6114a4565b9050600e60008473ffffffffffffffffffffffffffffffffffffffff1673ffffffffffffffffffffffffffffffffffffffff16815260200190815260200160002054670de0b6b3a7640000600d60008673ffffffffffffffffffffffffffffffffffffffff1673ffffffffffffffffffffffffffffffffffffffff16815260200190815260200160002054836106649190612238565b600f60008773ffffffffffffffffffffffffffffffffffffffff1673ffffffffffffffffffffffffffffffffffffffff168152602001908152602001600020546106ae919061226c565b6106b891906122dd565b6106c2919061230e565b915050919050565b6106d2611826565b806008819055507ffeece2f615b2fecca6c26deadea49416a6ba6b52b2cd2613065fd6a787cf1240816040516107089190611f8e565b60405180910390a150565b61071b611826565b806004819055507fd70f5934cda3f49f14c8c57e9c866d50ca598643b5f3a27e31e8be098103b1df816040516107519190611f8e565b60405180910390a150565b600e6020528060005260406000206000915090505481565b6000600c54905090565b6107866118a4565b61078e6118ee565b336107976114a4565b600a819055506107a5611155565b600981905550600073ffffffffffffffffffffffffffffffffffffffff168173ffffffffffffffffffffffffffffffffffffffff1614610872576107e8816105c3565b600e60008373ffffffffffffffffffffffffffffffffffffffff1673ffffffffffffffffffffffffffffffffffffffff16815260200190815260200160002081905550600a54600d60008373ffffffffffffffffffffffffffffffffffffffff1673ffffffffffffffffffffffffffffffffffffffff168152602001908152602001600020819055505b600082116108b5576040517f08c379a00000000000000000000000000000000000000000000000000000000081526004016108ac9061239f565b60405180910390fd5b600f60003373ffffffffffffffffffffffffffffffffffffffff1673ffffffffffffffffffffffffffffffffffffffff16815260200190815260200160002054821115610937576040517f08c379a000000000000000000000000000000000000000000000000000000000815260040161092e9061240b565b60405180910390fd5b81600c546109459190612238565b600c8190555081600f60003373ffffffffffffffffffffffffffffffffffffffff1673ffffffffffffffffffffffffffffffffffffffff168152602001908152602001600020546109969190612238565b600f60003373ffffffffffffffffffffffffffffffffffffffff1673ffffffffffffffffffffffffffffffffffffffff16815260200190815260200160002081905550610a263383600360009054906101000a900473ffffffffffffffffffffffffffffffffffffffff1673ffffffffffffffffffffffffffffffffffffffff1661193d9092919063ffffffff16565b3373ffffffffffffffffffffffffffffffffffffffff167f0f5bb82176feb1b5e747e28471aa92156a04d9f3ab9f45f28e2d704232b93f7583604051610a6c9190611f8e565b60405180910390a250610a7d6119c3565b50565b6000610a8a6114a4565b600a81905550610a98611155565b600981905550600073ffffffffffffffffffffffffffffffffffffffff168173ffffffffffffffffffffffffffffffffffffffff1614610b6557610adb816105c3565b600e60008373ffffffffffffffffffffffffffffffffffffffff1673ffffffffffffffffffffffffffffffffffffffff16815260200190815260200160002081905550600a54600d60008373ffffffffffffffffffffffffffffffffffffffff1673ffffffffffffffffffffffffffffffffffffffff168152602001908152602001600020819055505b610b6d611826565b6005544210610bb057600b54600854610b86919061230e565b82610b9191906122dd565b600781905550600b5442610ba5919061230e565b600681905550610bf6565b600042600554610bc09190612238565b9050600060075482610bd2919061226c565b90506008548185610be3919061230e565b610bed91906122dd565b60078190555050505b600060075411610c3b576040517f08c379a0000000000000000000000000000000000000000000000000000000008152600401610c3290612477565b60405180910390fd5b4260098190555060085442610c50919061230e565b6005819055507fde88a922e0d3b88b24e9623efeb464919c6bf9f66857a65e2bfcf2ce87a9433d82604051610c859190611f8e565b60405180910390a15050565b610c99611826565b610ca16119cd565b565b610cab6118a4565b610cb36118ee565b33610cbc6114a4565b600a81905550610cca611155565b600981905550600073ffffffffffffffffffffffffffffffffffffffff168173ffffffffffffffffffffffffffffffffffffffff1614610d9757610d0d816105c3565b600e60008373ffffffffffffffffffffffffffffffffffffffff1673ffffffffffffffffffffffffffffffffffffffff16815260200190815260200160002081905550600a54600d60008373ffffffffffffffffffffffffffffffffffffffff1673ffffffffffffffffffffffffffffffffffffffff168152602001908152602001600020819055505b6000600e60003373ffffffffffffffffffffffffffffffffffffffff1673ffffffffffffffffffffffffffffffffffffffff1681526020019081526020016000205490506000811115610ecb576000600e60003373ffffffffffffffffffffffffffffffffffffffff1673ffffffffffffffffffffffffffffffffffffffff16815260200190815260200160002081905550600260009054906101000a900473ffffffffffffffffffffffffffffffffffffffff1673ffffffffffffffffffffffffffffffffffffffff166340c10f1933836040518363ffffffff1660e01b8152600401610e86929190612497565b6020604051808303816000875af1158015610ea5573d6000803e3d6000fd5b505050506040513d601f19601f82011682018060405250810190610ec991906124d5565b505b3373ffffffffffffffffffffffffffffffffffffffff167fe2403640ba68fed3a2f88b7557551d1993f84b99bb10ff833f0cf8db0c5e048682604051610f119190611f8e565b60405180910390a25050610f236119c3565b565b6000600160149054906101000a900460ff16905090565b6000600f60008373ffffffffffffffffffffffffffffffffffffffff1673ffffffffffffffffffffffffffffffffffffffff168152602001908152602001600020549050919050565b610f8d611826565b610f976000611a30565b565b600360009054906101000a900473ffffffffffffffffffffffffffffffffffffffff1681565b60075481565b6000610fcf611826565b811561101d573373ffffffffffffffffffffffffffffffffffffffff166108fc479081150290604051600060405180830381858888f1935050505015801561101b573d6000803e3d6000fd5b505b600080600090505b858590508110156111115785858281811061104357611042612502565b5b90506020020160208101906110589190611f48565b91506110fe338373ffffffffffffffffffffffffffffffffffffffff166370a08231306040518263ffffffff1660e01b815260040161109791906121b2565b602060405180830381865afa1580156110b4573d6000803e3d6000fd5b505050506040513d601f19601f820116820180604052508101906110d89190612546565b8473ffffffffffffffffffffffffffffffffffffffff1661193d9092919063ffffffff16565b808061110990612573565b915050611025565b507f5e7b34819cd91b239220bec92fcfd3c10da2214ba13e4e2b1f6c9cfdbd68a9a23360405161114191906121b2565b60405180910390a160019150509392505050565b60008061116442600554611af6565b90508091505090565b611175611826565b61117d611b0f565b565b600d6020528060005260406000206000915090505481565b6000600160009054906101000a900473ffffffffffffffffffffffffffffffffffffffff16905090565b60045481565b6111cf6118a4565b6111d76118ee565b336111e06114a4565b600a819055506111ee611155565b600981905550600073ffffffffffffffffffffffffffffffffffffffff168173ffffffffffffffffffffffffffffffffffffffff16146112bb57611231816105c3565b600e60008373ffffffffffffffffffffffffffffffffffffffff1673ffffffffffffffffffffffffffffffffffffffff16815260200190815260200160002081905550600a54600d60008373ffffffffffffffffffffffffffffffffffffffff1673ffffffffffffffffffffffffffffffffffffffff168152602001908152602001600020819055505b600082116112fe576040517f08c379a00000000000000000000000000000000000000000000000000000000081526004016112f590612607565b60405180910390fd5b81600c5461130c919061230e565b600c8190555081600f60003373ffffffffffffffffffffffffffffffffffffffff1673ffffffffffffffffffffffffffffffffffffffff1681526020019081526020016000205461135d919061230e565b600f60003373ffffffffffffffffffffffffffffffffffffffff1673ffffffffffffffffffffffffffffffffffffffff168152602001908152602001600020819055506113ef333084600360009054906101000a900473ffffffffffffffffffffffffffffffffffffffff1673ffffffffffffffffffffffffffffffffffffffff16611b71909392919063ffffffff16565b3373ffffffffffffffffffffffffffffffffffffffff167f9e71bc8eea02a63969f509818f2dafb9254532904319f9dbda79b67bd34a5f3d836040516114359190611f8e565b60405180910390a2506114466119c3565b50565b611451611826565b80600b819055507ff93a50a66d32c098d21788f6934787a8162146b63c21bdd9b52e0e89ad28ee6d816040516114879190611f8e565b60405180910390a150565b60065481565b60095481565b600b5481565b600080600c54036114b957600a54905061162e565b60065442101561152657600c54670de0b6b3a76400006004546007546114df919061226c565b6009546114ec919061226c565b6114f6919061226c565b61150091906122dd565b611508611155565b6115129190612238565b600a5461151f919061230e565b905061162e565b60065460095410156115dc57600c54670de0b6b3a764000060075460065461154e919061226c565b611558919061226c565b61156291906122dd565b61156a611155565b6115749190612238565b600c54670de0b6b3a7640000600454600754611590919061226c565b60095461159d919061226c565b6115a7919061226c565b6115b191906122dd565b6006546115be9190612238565b600a546115cb919061230e565b6115d5919061230e565b905061162e565b600c54670de0b6b3a76400006007546009546115f8919061226c565b611602919061226c565b61160c91906122dd565b611614611155565b61161e9190612238565b600a5461162b919061230e565b90505b90565b600a5481565b61167f600f60003373ffffffffffffffffffffffffffffffffffffffff1673ffffffffffffffffffffffffffffffffffffffff1681526020019081526020016000205461077e565b611687610ca3565b565b60055481565b611697611826565b600073ffffffffffffffffffffffffffffffffffffffff168173ffffffffffffffffffffffffffffffffffffffff1603611706576040517f08c379a00000000000000000000000000000000000000000000000000000000081526004016116fd90612699565b60405180910390fd5b61170f81611a30565b50565b60085481565b600260009054906101000a900473ffffffffffffffffffffffffffffffffffffffff1681565b806117476114a4565b600a81905550611755611155565b600981905550600073ffffffffffffffffffffffffffffffffffffffff168173ffffffffffffffffffffffffffffffffffffffff161461182257611798816105c3565b600e60008373ffffffffffffffffffffffffffffffffffffffff1673ffffffffffffffffffffffffffffffffffffffff16815260200190815260200160002081905550600a54600d60008373ffffffffffffffffffffffffffffffffffffffff1673ffffffffffffffffffffffffffffffffffffffff168152602001908152602001600020819055505b5050565b61182e611bfa565b73ffffffffffffffffffffffffffffffffffffffff1661184c611197565b73ffffffffffffffffffffffffffffffffffffffff16146118a2576040517f08c379a000000000000000000000000000000000000000000000000000000000815260040161189990612705565b60405180910390fd5b565b6118ac610f25565b156118ec576040517f08c379a00000000000000000000000000000000000000000000000000000000081526004016118e390612771565b60405180910390fd5b565b600260005403611933576040517f08c379a000000000000000000000000000000000000000000000000000000000815260040161192a906127dd565b60405180910390fd5b6002600081905550565b6119be8363a9059cbb60e01b848460405160240161195c929190612497565b604051602081830303815290604052907bffffffffffffffffffffffffffffffffffffffffffffffffffffffff19166020820180517bffffffffffffffffffffffffffffffffffffffffffffffffffffffff8381831617835250505050611c02565b505050565b6001600081905550565b6119d5611cca565b6000600160146101000a81548160ff0219169083151502179055507f5db9ee0a495bf2e6ff9c91a7834c1ba4fdd244a5e8aa4e537bd38aeae4b073aa611a19611bfa565b604051611a2691906121b2565b60405180910390a1565b6000600160009054906101000a900473ffffffffffffffffffffffffffffffffffffffff16905081600160006101000a81548173ffffffffffffffffffffffffffffffffffffffff021916908373ffffffffffffffffffffffffffffffffffffffff1602179055508173ffffffffffffffffffffffffffffffffffffffff168173ffffffffffffffffffffffffffffffffffffffff167f8be0079c531659141344cd1fd0a4f28419497f9722a3daafe3b4186f6b6457e060405160405180910390a35050565b6000818310611b055781611b07565b825b905092915050565b611b176118a4565b60018060146101000a81548160ff0219169083151502179055507f62e78cea01bee320cd4e420270b5ea74000d11b0c9f74754ebdbfc544b05a258611b5a611bfa565b604051611b6791906121b2565b60405180910390a1565b611bf4846323b872dd60e01b858585604051602401611b92939291906127fd565b604051602081830303815290604052907bffffffffffffffffffffffffffffffffffffffffffffffffffffffff19166020820180517bffffffffffffffffffffffffffffffffffffffffffffffffffffffff8381831617835250505050611c02565b50505050565b600033905090565b6000611c64826040518060400160405280602081526020017f5361666545524332303a206c6f772d6c6576656c2063616c6c206661696c65648152508573ffffffffffffffffffffffffffffffffffffffff16611d139092919063ffffffff16565b9050600081511480611c86575080806020019051810190611c8591906124d5565b5b611cc5576040517f08c379a0000000000000000000000000000000000000000000000000000000008152600401611cbc906128a6565b60405180910390fd5b505050565b611cd2610f25565b611d11576040517f08c379a0000000000000000000000000000000000000000000000000000000008152600401611d0890612912565b60405180910390fd5b565b6060611d228484600085611d2b565b90509392505050565b606082471015611d70576040517f08c379a0000000000000000000000000000000000000000000000000000000008152600401611d67906129a4565b60405180910390fd5b6000808673ffffffffffffffffffffffffffffffffffffffff168587604051611d999190612a35565b60006040518083038185875af1925050503d8060008114611dd6576040519150601f19603f3d011682016040523d82523d6000602084013e611ddb565b606091505b5091509150611dec87838387611df8565b92505050949350505050565b60608315611e5a576000835103611e5257611e1285611e6d565b611e51576040517f08c379a0000000000000000000000000000000000000000000000000000000008152600401611e4890612a98565b60405180910390fd5b5b829050611e65565b611e648383611e90565b5b949350505050565b6000808273ffffffffffffffffffffffffffffffffffffffff163b119050919050565b600082511115611ea35781518083602001fd5b806040517f08c379a0000000000000000000000000000000000000000000000000000000008152600401611ed79190612b0d565b60405180910390fd5b600080fd5b600080fd5b600073ffffffffffffffffffffffffffffffffffffffff82169050919050565b6000611f1582611eea565b9050919050565b611f2581611f0a565b8114611f3057600080fd5b50565b600081359050611f4281611f1c565b92915050565b600060208284031215611f5e57611f5d611ee0565b5b6000611f6c84828501611f33565b91505092915050565b6000819050919050565b611f8881611f75565b82525050565b6000602082019050611fa36000830184611f7f565b92915050565b611fb281611f75565b8114611fbd57600080fd5b50565b600081359050611fcf81611fa9565b92915050565b600060208284031215611feb57611fea611ee0565b5b6000611ff984828501611fc0565b91505092915050565b60008115159050919050565b61201781612002565b82525050565b6000602082019050612032600083018461200e565b92915050565b6000819050919050565b600061205d61205861205384611eea565b612038565b611eea565b9050919050565b600061206f82612042565b9050919050565b600061208182612064565b9050919050565b61209181612076565b82525050565b60006020820190506120ac6000830184612088565b92915050565b600080fd5b600080fd5b600080fd5b60008083601f8401126120d7576120d66120b2565b5b8235905067ffffffffffffffff8111156120f4576120f36120b7565b5b6020830191508360208202830111156121105761210f6120bc565b5b9250929050565b61212081612002565b811461212b57600080fd5b50565b60008135905061213d81612117565b92915050565b60008060006040848603121561215c5761215b611ee0565b5b600084013567ffffffffffffffff81111561217a57612179611ee5565b5b612186868287016120c1565b935093505060206121998682870161212e565b9150509250925092565b6121ac81611f0a565b82525050565b60006020820190506121c760008301846121a3565b92915050565b60006121d882612064565b9050919050565b6121e8816121cd565b82525050565b600060208201905061220360008301846121df565b92915050565b7f4e487b7100000000000000000000000000000000000000000000000000000000600052601160045260246000fd5b600061224382611f75565b915061224e83611f75565b925082820390508181111561226657612265612209565b5b92915050565b600061227782611f75565b915061228283611f75565b925082820261229081611f75565b915082820484148315176122a7576122a6612209565b5b5092915050565b7f4e487b7100000000000000000000000000000000000000000000000000000000600052601260045260246000fd5b60006122e882611f75565b91506122f383611f75565b925082612303576123026122ae565b5b828204905092915050565b600061231982611f75565b915061232483611f75565b925082820190508082111561233c5761233b612209565b5b92915050565b600082825260208201905092915050565b7f43616e6e6f742077697468647261772030000000000000000000000000000000600082015250565b6000612389601183612342565b915061239482612353565b602082019050919050565b600060208201905081810360008301526123b88161237c565b9050919050565b7f496e737566666963656e742062616c616e636500000000000000000000000000600082015250565b60006123f5601383612342565b9150612400826123bf565b602082019050919050565b60006020820190508181036000830152612424816123e8565b9050919050565b7f7265776172642072617465203d20300000000000000000000000000000000000600082015250565b6000612461600f83612342565b915061246c8261242b565b602082019050919050565b6000602082019050818103600083015261249081612454565b9050919050565b60006040820190506124ac60008301856121a3565b6124b96020830184611f7f565b9392505050565b6000815190506124cf81612117565b92915050565b6000602082840312156124eb576124ea611ee0565b5b60006124f9848285016124c0565b91505092915050565b7f4e487b7100000000000000000000000000000000000000000000000000000000600052603260045260246000fd5b60008151905061254081611fa9565b92915050565b60006020828403121561255c5761255b611ee0565b5b600061256a84828501612531565b91505092915050565b600061257e82611f75565b91507fffffffffffffffffffffffffffffffffffffffffffffffffffffffffffffffff82036125b0576125af612209565b5b600182019050919050565b7f43616e6e6f74207374616b652030000000000000000000000000000000000000600082015250565b60006125f1600e83612342565b91506125fc826125bb565b602082019050919050565b60006020820190508181036000830152612620816125e4565b9050919050565b7f4f776e61626c653a206e6577206f776e657220697320746865207a65726f206160008201527f6464726573730000000000000000000000000000000000000000000000000000602082015250565b6000612683602683612342565b915061268e82612627565b604082019050919050565b600060208201905081810360008301526126b281612676565b9050919050565b7f4f776e61626c653a2063616c6c6572206973206e6f7420746865206f776e6572600082015250565b60006126ef602083612342565b91506126fa826126b9565b602082019050919050565b6000602082019050818103600083015261271e816126e2565b9050919050565b7f5061757361626c653a2070617573656400000000000000000000000000000000600082015250565b600061275b601083612342565b915061276682612725565b602082019050919050565b6000602082019050818103600083015261278a8161274e565b9050919050565b7f5265656e7472616e637947756172643a207265656e7472616e742063616c6c00600082015250565b60006127c7601f83612342565b91506127d282612791565b602082019050919050565b600060208201905081810360008301526127f6816127ba565b9050919050565b600060608201905061281260008301866121a3565b61281f60208301856121a3565b61282c6040830184611f7f565b949350505050565b7f5361666545524332303a204552433230206f7065726174696f6e20646964206e60008201527f6f74207375636365656400000000000000000000000000000000000000000000602082015250565b6000612890602a83612342565b915061289b82612834565b604082019050919050565b600060208201905081810360008301526128bf81612883565b9050919050565b7f5061757361626c653a206e6f7420706175736564000000000000000000000000600082015250565b60006128fc601483612342565b9150612907826128c6565b602082019050919050565b6000602082019050818103600083015261292b816128ef565b9050919050565b7f416464726573733a20696e73756666696369656e742062616c616e636520666f60008201527f722063616c6c0000000000000000000000000000000000000000000000000000602082015250565b600061298e602683612342565b915061299982612932565b604082019050919050565b600060208201905081810360008301526129bd81612981565b9050919050565b600081519050919050565b600081905092915050565b60005b838110156129f85780820151818401526020810190506129dd565b60008484015250505050565b6000612a0f826129c4565b612a1981856129cf565b9350612a298185602086016129da565b80840191505092915050565b6000612a418284612a04565b915081905092915050565b7f416464726573733a2063616c6c20746f206e6f6e2d636f6e7472616374000000600082015250565b6000612a82601d83612342565b9150612a8d82612a4c565b602082019050919050565b60006020820190508181036000830152612ab181612a75565b9050919050565b600081519050919050565b6000601f19601f8301169050919050565b6000612adf82612ab8565b612ae98185612342565b9350612af98185602086016129da565b612b0281612ac3565b840191505092915050565b60006020820190508181036000830152612b278184612ad4565b90509291505056fea264697066735822122024aed648831ba7598453cfcebff8a1759a004f1b0b3cf6c794fd6dcc0164bdca64736f6c63430008130033",
  "linkReferences": {},
  "deployedLinkReferences": {}
}