{
  "_format": "hh-sol-artifact-1",
  "contractName": "GoldenExp",
  "sourceName": "contracts/GoldenExp.sol",
  "abi": [
    {
      "inputs": [
        {
          "internalType": "address",
          "name": "_fund",
          "type": "address"
        }
      ],
      "stateMutability": "nonpayable",
      "type": "constructor"
    },
    {
      "inputs": [],
      "name": "InvalidShortString",
      "type": "error"
    },
    {
      "inputs": [
        {
          "internalType": "string",
          "name": "str",
          "type": "string"
        }
      ],
      "name": "StringTooLong",
      "type": "error"
    },
    {
      "anonymous": false,
      "inputs": [
        {
          "indexed": true,
          "internalType": "address",
          "name": "owner",
          "type": "address"
        },
        {
          "indexed": true,
          "internalType": "address",
          "name": "spender",
          "type": "address"
        },
        {
          "indexed": false,
          "internalType": "uint256",
          "name": "value",
          "type": "uint256"
        }
      ],
      "name": "Approval",
      "type": "event"
    },
    {
      "anonymous": false,
      "inputs": [
        {
          "indexed": true,
          "internalType": "address",
          "name": "delegator",
          "type": "address"
        },
        {
          "indexed": true,
          "internalType": "address",
          "name": "fromDelegate",
          "type": "address"
        },
        {
          "indexed": true,
          "internalType": "address",
          "name": "toDelegate",
          "type": "address"
        }
      ],
      "name": "DelegateChanged",
      "type": "event"
    },
    {
      "anonymous": false,
      "inputs": [
        {
          "indexed": true,
          "internalType": "address",
          "name": "delegate",
          "type": "address"
        },
        {
          "indexed": false,
          "internalType": "uint256",
          "name": "previousBalance",
          "type": "uint256"
        },
        {
          "indexed": false,
          "internalType": "uint256",
          "name": "newBalance",
          "type": "uint256"
        }
      ],
      "name": "DelegateVotesChanged",
      "type": "event"
    },
    {
      "anonymous": false,
      "inputs": [],
      "name": "EIP712DomainChanged",
      "type": "event"
    },
    {
      "anonymous": false,
      "inputs": [
        {
          "indexed": false,
          "internalType": "address",
          "name": "newGov",
          "type": "address"
        }
      ],
      "name": "GovernanceAuthorityTransfer",
      "type": "event"
    },
    {
      "anonymous": false,
      "inputs": [
        {
          "indexed": true,
          "internalType": "address",
          "name": "from",
          "type": "address"
        },
        {
          "indexed": true,
          "internalType": "address",
          "name": "to",
          "type": "address"
        },
        {
          "indexed": false,
          "internalType": "uint256",
          "name": "value",
          "type": "uint256"
        }
      ],
      "name": "Transfer",
      "type": "event"
    },
    {
      "inputs": [],
      "name": "CLOCK_MODE",
      "outputs": [
        {
          "internalType": "string",
          "name": "",
          "type": "string"
        }
      ],
      "stateMutability": "view",
      "type": "function"
    },
    {
      "inputs": [],
      "name": "DOMAIN_SEPARATOR",
      "outputs": [
        {
          "internalType": "bytes32",
          "name": "",
          "type": "bytes32"
        }
      ],
      "stateMutability": "view",
      "type": "function"
    },
    {
      "inputs": [
        {
          "internalType": "address",
          "name": "",
          "type": "address"
        }
      ],
      "name": "GoldenExpMinter",
      "outputs": [
        {
          "internalType": "bool",
          "name": "",
          "type": "bool"
        }
      ],
      "stateMutability": "view",
      "type": "function"
    },
    {
      "inputs": [],
      "name": "GoldenStakingRewards",
      "outputs": [
        {
          "internalType": "address",
          "name": "",
          "type": "address"
        }
      ],
      "stateMutability": "view",
      "type": "function"
    },
    {
      "inputs": [
        {
          "internalType": "address",
          "name": "owner",
          "type": "address"
        },
        {
          "internalType": "address",
          "name": "spender",
          "type": "address"
        }
      ],
      "name": "allowance",
      "outputs": [
        {
          "internalType": "uint256",
          "name": "",
          "type": "uint256"
        }
      ],
      "stateMutability": "view",
      "type": "function"
    },
    {
      "inputs": [
        {
          "internalType": "address",
          "name": "spender",
          "type": "address"
        },
        {
          "internalType": "uint256",
          "name": "amount",
          "type": "uint256"
        }
      ],
      "name": "approve",
      "outputs": [
        {
          "internalType": "bool",
          "name": "",
          "type": "bool"
        }
      ],
      "stateMutability": "nonpayable",
      "type": "function"
    },
    {
      "inputs": [
        {
          "internalType": "address",
          "name": "account",
          "type": "address"
        }
      ],
      "name": "balanceOf",
      "outputs": [
        {
          "internalType": "uint256",
          "name": "",
          "type": "uint256"
        }
      ],
      "stateMutability": "view",
      "type": "function"
    },
    {
      "inputs": [
        {
          "internalType": "address",
          "name": "user",
          "type": "address"
        },
        {
          "internalType": "uint256",
          "name": "amount",
          "type": "uint256"
        }
      ],
      "name": "burn",
      "outputs": [
        {
          "internalType": "bool",
          "name": "",
          "type": "bool"
        }
      ],
      "stateMutability": "nonpayable",
      "type": "function"
    },
    {
      "inputs": [
        {
          "internalType": "address",
          "name": "account",
          "type": "address"
        },
        {
          "internalType": "uint32",
          "name": "pos",
          "type": "uint32"
        }
      ],
      "name": "checkpoints",
      "outputs": [
        {
          "components": [
            {
              "internalType": "uint32",
              "name": "fromBlock",
              "type": "uint32"
            },
            {
              "internalType": "uint224",
              "name": "votes",
              "type": "uint224"
            }
          ],
          "internalType": "struct ERC20Votes.Checkpoint",
          "name": "",
          "type": "tuple"
        }
      ],
      "stateMutability": "view",
      "type": "function"
    },
    {
      "inputs": [],
      "name": "clock",
      "outputs": [
        {
          "internalType": "uint48",
          "name": "",
          "type": "uint48"
        }
      ],
      "stateMutability": "view",
      "type": "function"
    },
    {
      "inputs": [],
      "name": "decimals",
      "outputs": [
        {
          "internalType": "uint8",
          "name": "",
          "type": "uint8"
        }
      ],
      "stateMutability": "view",
      "type": "function"
    },
    {
      "inputs": [
        {
          "internalType": "address",
          "name": "spender",
          "type": "address"
        },
        {
          "internalType": "uint256",
          "name": "subtractedValue",
          "type": "uint256"
        }
      ],
      "name": "decreaseAllowance",
      "outputs": [
        {
          "internalType": "bool",
          "name": "",
          "type": "bool"
        }
      ],
      "stateMutability": "nonpayable",
      "type": "function"
    },
    {
      "inputs": [
        {
          "internalType": "address",
          "name": "delegatee",
          "type": "address"
        }
      ],
      "name": "delegate",
      "outputs": [],
      "stateMutability": "nonpayable",
      "type": "function"
    },
    {
      "inputs": [
        {
          "internalType": "address",
          "name": "delegatee",
          "type": "address"
        },
        {
          "internalType": "uint256",
          "name": "nonce",
          "type": "uint256"
        },
        {
          "internalType": "uint256",
          "name": "expiry",
          "type": "uint256"
        },
        {
          "internalType": "uint8",
          "name": "v",
          "type": "uint8"
        },
        {
          "internalType": "bytes32",
          "name": "r",
          "type": "bytes32"
        },
        {
          "internalType": "bytes32",
          "name": "s",
          "type": "bytes32"
        }
      ],
      "name": "delegateBySig",
      "outputs": [],
      "stateMutability": "nonpayable",
      "type": "function"
    },
    {
      "inputs": [
        {
          "internalType": "address",
          "name": "account",
          "type": "address"
        }
      ],
      "name": "delegates",
      "outputs": [
        {
          "internalType": "address",
          "name": "",
          "type": "address"
        }
      ],
      "stateMutability": "view",
      "type": "function"
    },
    {
      "inputs": [],
      "name": "eip712Domain",
      "outputs": [
        {
          "internalType": "bytes1",
          "name": "fields",
          "type": "bytes1"
        },
        {
          "internalType": "string",
          "name": "name",
          "type": "string"
        },
        {
          "internalType": "string",
          "name": "version",
          "type": "string"
        },
        {
          "internalType": "uint256",
          "name": "chainId",
          "type": "uint256"
        },
        {
          "internalType": "address",
          "name": "verifyingContract",
          "type": "address"
        },
        {
          "internalType": "bytes32",
          "name": "salt",
          "type": "bytes32"
        },
        {
          "internalType": "uint256[]",
          "name": "extensions",
          "type": "uint256[]"
        }
      ],
      "stateMutability": "view",
      "type": "function"
    },
    {
      "inputs": [
        {
          "internalType": "uint256",
          "name": "timepoint",
          "type": "uint256"
        }
      ],
      "name": "getPastTotalSupply",
      "outputs": [
        {
          "internalType": "uint256",
          "name": "",
          "type": "uint256"
        }
      ],
      "stateMutability": "view",
      "type": "function"
    },
    {
      "inputs": [
        {
          "internalType": "address",
          "name": "account",
          "type": "address"
        },
        {
          "internalType": "uint256",
          "name": "timepoint",
          "type": "uint256"
        }
      ],
      "name": "getPastVotes",
      "outputs": [
        {
          "internalType": "uint256",
          "name": "",
          "type": "uint256"
        }
      ],
      "stateMutability": "view",
      "type": "function"
    },
    {
      "inputs": [
        {
          "internalType": "address",
          "name": "account",
          "type": "address"
        }
      ],
      "name": "getVotes",
      "outputs": [
        {
          "internalType": "uint256",
          "name": "",
          "type": "uint256"
        }
      ],
      "stateMutability": "view",
      "type": "function"
    },
    {
      "inputs": [],
      "name": "gov",
      "outputs": [
        {
          "internalType": "address",
          "name": "",
          "type": "address"
        }
      ],
      "stateMutability": "view",
      "type": "function"
    },
    {
      "inputs": [
        {
          "internalType": "address",
          "name": "spender",
          "type": "address"
        },
        {
          "internalType": "uint256",
          "name": "addedValue",
          "type": "uint256"
        }
      ],
      "name": "increaseAllowance",
      "outputs": [
        {
          "internalType": "bool",
          "name": "",
          "type": "bool"
        }
      ],
      "stateMutability": "nonpayable",
      "type": "function"
    },
    {
      "inputs": [
        {
          "internalType": "address",
          "name": "user",
          "type": "address"
        },
        {
          "internalType": "uint256",
          "name": "amount",
          "type": "uint256"
        }
      ],
      "name": "mint",
      "outputs": [
        {
          "internalType": "bool",
          "name": "",
          "type": "bool"
        }
      ],
      "stateMutability": "nonpayable",
      "type": "function"
    },
    {
      "inputs": [],
      "name": "name",
      "outputs": [
        {
          "internalType": "string",
          "name": "",
          "type": "string"
        }
      ],
      "stateMutability": "view",
      "type": "function"
    },
    {
      "inputs": [
        {
          "internalType": "address",
          "name": "owner",
          "type": "address"
        }
      ],
      "name": "nonces",
      "outputs": [
        {
          "internalType": "uint256",
          "name": "",
          "type": "uint256"
        }
      ],
      "stateMutability": "view",
      "type": "function"
    },
    {
      "inputs": [
        {
          "internalType": "address",
          "name": "account",
          "type": "address"
        }
      ],
      "name": "numCheckpoints",
      "outputs": [
        {
          "internalType": "uint32",
          "name": "",
          "type": "uint32"
        }
      ],
      "stateMutability": "view",
      "type": "function"
    },
    {
      "inputs": [
        {
          "internalType": "address",
          "name": "owner",
          "type": "address"
        },
        {
          "internalType": "address",
          "name": "spender",
          "type": "address"
        },
        {
          "internalType": "uint256",
          "name": "value",
          "type": "uint256"
        },
        {
          "internalType": "uint256",
          "name": "deadline",
          "type": "uint256"
        },
        {
          "internalType": "uint8",
          "name": "v",
          "type": "uint8"
        },
        {
          "internalType": "bytes32",
          "name": "r",
          "type": "bytes32"
        },
        {
          "internalType": "bytes32",
          "name": "s",
          "type": "bytes32"
        }
      ],
      "name": "permit",
      "outputs": [],
      "stateMutability": "nonpayable",
      "type": "function"
    },
    {
      "inputs": [
        {
          "internalType": "address",
          "name": "_gov",
          "type": "address"
        }
      ],
      "name": "setGov",
      "outputs": [],
      "stateMutability": "nonpayable",
      "type": "function"
    },
    {
      "inputs": [
        {
          "internalType": "address[]",
          "name": "_contracts",
          "type": "address[]"
        },
        {
          "internalType": "bool[]",
          "name": "_bools",
          "type": "bool[]"
        }
      ],
      "name": "setMinter",
      "outputs": [],
      "stateMutability": "nonpayable",
      "type": "function"
    },
    {
      "inputs": [],
      "name": "symbol",
      "outputs": [
        {
          "internalType": "string",
          "name": "",
          "type": "string"
        }
      ],
      "stateMutability": "view",
      "type": "function"
    },
    {
      "inputs": [],
      "name": "totalMinted",
      "outputs": [
        {
          "internalType": "uint256",
          "name": "",
          "type": "uint256"
        }
      ],
      "stateMutability": "view",
      "type": "function"
    },
    {
      "inputs": [],
      "name": "totalSupply",
      "outputs": [
        {
          "internalType": "uint256",
          "name": "",
          "type": "uint256"
        }
      ],
      "stateMutability": "view",
      "type": "function"
    },
    {
      "inputs": [
        {
          "internalType": "address",
          "name": "to",
          "type": "address"
        },
        {
          "internalType": "uint256",
          "name": "amount",
          "type": "uint256"
        }
      ],
      "name": "transfer",
      "outputs": [
        {
          "internalType": "bool",
          "name": "",
          "type": "bool"
        }
      ],
      "stateMutability": "nonpayable",
      "type": "function"
    },
    {
      "inputs": [
        {
          "internalType": "address",
          "name": "from",
          "type": "address"
        },
        {
          "internalType": "address",
          "name": "to",
          "type": "address"
        },
        {
          "internalType": "uint256",
          "name": "amount",
          "type": "uint256"
        }
      ],
      "name": "transferFrom",
      "outputs": [
        {
          "internalType": "bool",
          "name": "",
          "type": "bool"
        }
      ],
      "stateMutability": "nonpayable",
      "type": "function"
    }
  ],
  "bytecode": "0x6101806040526a320b5f925f6e288c800000600e553480156200002157600080fd5b506040516200531f3803806200531f83398181016040528101906200004791906200040a565b6040518060400160405280600981526020017f476f6c64656e4578700000000000000000000000000000000000000000000000815250806040518060400160405280600181526020017f31000000000000000000000000000000000000000000000000000000000000008152506040518060400160405280600981526020017f476f6c64656e45787000000000000000000000000000000000000000000000008152506040518060400160405280600881526020017f474f4c44454e58500000000000000000000000000000000000000000000000008152508160039081620001319190620006b6565b508060049081620001439190620006b6565b5050506200015c6005836200027460201b90919060201c565b61012081815250506200017a6006826200027460201b90919060201c565b6101408181525050818051906020012060e08181525050808051906020012061010081815250504660a08181525050620001b9620002cc60201b60201c565b608081815250503073ffffffffffffffffffffffffffffffffffffffff1660c08173ffffffffffffffffffffffffffffffffffffffff16815250505050508073ffffffffffffffffffffffffffffffffffffffff166101608173ffffffffffffffffffffffffffffffffffffffff168152505033600c60006101000a81548173ffffffffffffffffffffffffffffffffffffffff021916908373ffffffffffffffffffffffffffffffffffffffff160217905550506200098c565b60006020835110156200029a5762000292836200032960201b60201c565b9050620002c6565b82620002ac836200039660201b60201c565b6000019081620002bd9190620006b6565b5060ff60001b90505b92915050565b60007f8b73c3c69bb8fe3d512ecc4cf759cc79239f7b179b0ffacaa9a75d522b39400f60e0516101005146306040516020016200030e959493929190620007da565b60405160208183030381529060405280519060200120905090565b600080829050601f815111156200037957826040517f305a27a9000000000000000000000000000000000000000000000000000000008152600401620003709190620008c6565b60405180910390fd5b80518162000387906200091c565b60001c1760001b915050919050565b6000819050919050565b600080fd5b600073ffffffffffffffffffffffffffffffffffffffff82169050919050565b6000620003d282620003a5565b9050919050565b620003e481620003c5565b8114620003f057600080fd5b50565b6000815190506200040481620003d9565b92915050565b600060208284031215620004235762000422620003a0565b5b60006200043384828501620003f3565b91505092915050565b600081519050919050565b7f4e487b7100000000000000000000000000000000000000000000000000000000600052604160045260246000fd5b7f4e487b7100000000000000000000000000000000000000000000000000000000600052602260045260246000fd5b60006002820490506001821680620004be57607f821691505b602082108103620004d457620004d362000476565b5b50919050565b60008190508160005260206000209050919050565b60006020601f8301049050919050565b600082821b905092915050565b6000600883026200053e7fffffffffffffffffffffffffffffffffffffffffffffffffffffffffffffffff82620004ff565b6200054a8683620004ff565b95508019841693508086168417925050509392505050565b6000819050919050565b6000819050919050565b600062000597620005916200058b8462000562565b6200056c565b62000562565b9050919050565b6000819050919050565b620005b38362000576565b620005cb620005c2826200059e565b8484546200050c565b825550505050565b600090565b620005e2620005d3565b620005ef818484620005a8565b505050565b5b8181101562000617576200060b600082620005d8565b600181019050620005f5565b5050565b601f82111562000666576200063081620004da565b6200063b84620004ef565b810160208510156200064b578190505b620006636200065a85620004ef565b830182620005f4565b50505b505050565b600082821c905092915050565b60006200068b600019846008026200066b565b1980831691505092915050565b6000620006a6838362000678565b9150826002028217905092915050565b620006c1826200043c565b67ffffffffffffffff811115620006dd57620006dc62000447565b5b620006e98254620004a5565b620006f68282856200061b565b600060209050601f8311600181146200072e576000841562000719578287015190505b62000725858262000698565b86555062000795565b601f1984166200073e86620004da565b60005b82811015620007685784890151825560018201915060208501945060208101905062000741565b8683101562000788578489015162000784601f89168262000678565b8355505b6001600288020188555050505b505050505050565b6000819050919050565b620007b2816200079d565b82525050565b620007c38162000562565b82525050565b620007d481620003c5565b82525050565b600060a082019050620007f16000830188620007a7565b620008006020830187620007a7565b6200080f6040830186620007a7565b6200081e6060830185620007b8565b6200082d6080830184620007c9565b9695505050505050565b600082825260208201905092915050565b60005b83811015620008685780820151818401526020810190506200084b565b60008484015250505050565b6000601f19601f8301169050919050565b600062000892826200043c565b6200089e818562000837565b9350620008b081856020860162000848565b620008bb8162000874565b840191505092915050565b60006020820190508181036000830152620008e2818462000885565b905092915050565b600081519050919050565b6000819050602082019050919050565b60006200091382516200079d565b80915050919050565b60006200092982620008ea565b826200093584620008f5565b9050620009428162000905565b925060208210156200098557620009807fffffffffffffffffffffffffffffffffffffffffffffffffffffffffffffffff83602003600802620004ff565b831692505b5050919050565b60805160a05160c05160e0516101005161012051610140516101605161490362000a1c600039600081816107f30152818161095a01528181610a4801528181610a9b015281816111e6015281816112cf015261132201526000610dbb01526000610d87015260006121f3015260006121d201526000611be401526000611c3a01526000611c6301526149036000f3fe608060405234801561001057600080fd5b50600436106101fb5760003560e01c806370a082311161011a5780639dc29fac116100ad578063c3cda5201161007c578063c3cda52014610658578063cfad57a214610674578063d505accf14610690578063dd62ed3e146106ac578063f1127ed8146106dc576101fb565b80639dc29fac146105aa578063a2309ff8146105da578063a457c2d7146105f8578063a9059cbb14610628576101fb565b80638e539e8c116100e95780638e539e8c1461050e57806391ddadf41461053e57806395d89b411461055c5780639ab24eb01461057a576101fb565b806370a082311461046e5780637ecebe001461049e57806384b0196e146104ce5780638b5ba1d3146104f2576101fb565b806339509351116101925780634bf5d7e9116101615780634bf5d7e9146103d4578063587cde1e146103f25780635c19a95c146104225780636fcfff451461043e576101fb565b80633950935114610314578063396685b8146103445780633a46b1a81461037457806340c10f19146103a4576101fb565b80631f509ee3116101ce5780631f509ee31461028a57806323b872dd146102a8578063313ce567146102d85780633644e515146102f6576101fb565b806306fdde0314610200578063095ea7b31461021e57806312d43a511461024e57806318160ddd1461026c575b600080fd5b61020861070c565b6040516102159190613189565b60405180910390f35b61023860048036038101906102339190613249565b61079e565b60405161024591906132a4565b60405180910390f35b6102566107c1565b60405161026391906132ce565b60405180910390f35b6102746107e7565b60405161028191906132f8565b60405180910390f35b6102926107f1565b60405161029f91906132ce565b60405180910390f35b6102c260048036038101906102bd9190613313565b610815565b6040516102cf91906132a4565b60405180910390f35b6102e0610844565b6040516102ed9190613382565b60405180910390f35b6102fe61084d565b60405161030b91906133b6565b60405180910390f35b61032e60048036038101906103299190613249565b61085c565b60405161033b91906132a4565b60405180910390f35b61035e600480360381019061035991906133d1565b610893565b60405161036b91906132a4565b60405180910390f35b61038e60048036038101906103899190613249565b6108b3565b60405161039b91906132f8565b60405180910390f35b6103be60048036038101906103b99190613249565b610956565b6040516103cb91906132a4565b60405180910390f35b6103dc610b7d565b6040516103e99190613189565b60405180910390f35b61040c600480360381019061040791906133d1565b610c0b565b60405161041991906132ce565b60405180910390f35b61043c600480360381019061043791906133d1565b610c74565b005b610458600480360381019061045391906133d1565b610c88565b604051610465919061341d565b60405180910390f35b610488600480360381019061048391906133d1565b610cdc565b60405161049591906132f8565b60405180910390f35b6104b860048036038101906104b391906133d1565b610d24565b6040516104c591906132f8565b60405180910390f35b6104d6610d74565b6040516104e99796959493929190613531565b60405180910390f35b61050c60048036038101906105079190613670565b610e76565b005b610528600480360381019061052391906136f1565b610fd3565b60405161053591906132f8565b60405180910390f35b610546611038565b604051610553919061373f565b60405180910390f35b610564611048565b6040516105719190613189565b60405180910390f35b610594600480360381019061058f91906133d1565b6110da565b6040516105a191906132f8565b60405180910390f35b6105c460048036038101906105bf9190613249565b6111e2565b6040516105d191906132a4565b60405180910390f35b6105e26113c0565b6040516105ef91906132f8565b60405180910390f35b610612600480360381019061060d9190613249565b6113c6565b60405161061f91906132a4565b60405180910390f35b610642600480360381019061063d9190613249565b61143d565b60405161064f91906132a4565b60405180910390f35b610672600480360381019061066d91906137b2565b611460565b005b61068e600480360381019061068991906133d1565b611564565b005b6106aa60048036038101906106a5919061383f565b61166f565b005b6106c660048036038101906106c191906138e1565b6117b1565b6040516106d391906132f8565b60405180910390f35b6106f660048036038101906106f1919061394d565b611838565b6040516107039190613a02565b60405180910390f35b60606003805461071b90613a4c565b80601f016020809104026020016040519081016040528092919081815260200182805461074790613a4c565b80156107945780601f1061076957610100808354040283529160200191610794565b820191906000526020600020905b81548152906001019060200180831161077757829003601f168201915b5050505050905090565b6000806107a9611948565b90506107b6818585611950565b600191505092915050565b600c60009054906101000a900473ffffffffffffffffffffffffffffffffffffffff1681565b6000600254905090565b7f000000000000000000000000000000000000000000000000000000000000000081565b600080610820611948565b905061082d858285611b19565b610838858585611ba5565b60019150509392505050565b60006012905090565b6000610857611be0565b905090565b600080610867611948565b905061088881858561087985896117b1565b6108839190613aac565b611950565b600191505092915050565b600d6020528060005260406000206000915054906101000a900460ff1681565b60006108bd611038565b65ffffffffffff168210610906576040517f08c379a00000000000000000000000000000000000000000000000000000000081526004016108fd90613b2c565b60405180910390fd5b61094e600a60008573ffffffffffffffffffffffffffffffffffffffff1673ffffffffffffffffffffffffffffffffffffffff16815260200190815260200160002083611c97565b905092915050565b60007f000000000000000000000000000000000000000000000000000000000000000073ffffffffffffffffffffffffffffffffffffffff163373ffffffffffffffffffffffffffffffffffffffff161480610a02575060011515600d60003373ffffffffffffffffffffffffffffffffffffffff1673ffffffffffffffffffffffffffffffffffffffff16815260200190815260200160002060009054906101000a900460ff161515145b610a41576040517f08c379a0000000000000000000000000000000000000000000000000000000008152600401610a3890613b98565b60405180910390fd5b60008290507f000000000000000000000000000000000000000000000000000000000000000073ffffffffffffffffffffffffffffffffffffffff163373ffffffffffffffffffffffffffffffffffffffff1614610b68577f000000000000000000000000000000000000000000000000000000000000000073ffffffffffffffffffffffffffffffffffffffff1663fce67e0d856040518263ffffffff1660e01b8152600401610af291906132ce565b600060405180830381600087803b158015610b0c57600080fd5b505af1158015610b20573d6000803e3d6000fd5b50505050600e5481600f54610b359190613aac565b1115610b4e57600f54600e54610b4b9190613bb8565b90505b80600f6000828254610b609190613aac565b925050819055505b610b728482611ddf565b600191505092915050565b606043610b88611038565b65ffffffffffff1614610bd0576040517f08c379a0000000000000000000000000000000000000000000000000000000008152600401610bc790613c38565b60405180910390fd5b6040518060400160405280601d81526020017f6d6f64653d626c6f636b6e756d6265722666726f6d3d64656661756c74000000815250905090565b6000600960008373ffffffffffffffffffffffffffffffffffffffff1673ffffffffffffffffffffffffffffffffffffffff16815260200190815260200160002060009054906101000a900473ffffffffffffffffffffffffffffffffffffffff169050919050565b610c85610c7f611948565b82611e6c565b50565b6000610cd5600a60008473ffffffffffffffffffffffffffffffffffffffff1673ffffffffffffffffffffffffffffffffffffffff16815260200190815260200160002080549050611f86565b9050919050565b60008060008373ffffffffffffffffffffffffffffffffffffffff1673ffffffffffffffffffffffffffffffffffffffff168152602001908152602001600020549050919050565b6000610d6d600760008473ffffffffffffffffffffffffffffffffffffffff1673ffffffffffffffffffffffffffffffffffffffff168152602001908152602001600020611fd9565b9050919050565b600060608060008060006060610db460057f0000000000000000000000000000000000000000000000000000000000000000611fe790919063ffffffff16565b610de860067f0000000000000000000000000000000000000000000000000000000000000000611fe790919063ffffffff16565b46306000801b600067ffffffffffffffff811115610e0957610e08613c58565b5b604051908082528060200260200182016040528015610e375781602001602082028036833780820191505090505b507f0f00000000000000000000000000000000000000000000000000000000000000959493929190965096509650965096509650965090919293949596565b600c60009054906101000a900473ffffffffffffffffffffffffffffffffffffffff1673ffffffffffffffffffffffffffffffffffffffff163373ffffffffffffffffffffffffffffffffffffffff1614610f06576040517f08c379a0000000000000000000000000000000000000000000000000000000008152600401610efd90613cd3565b60405180910390fd5b60005b84849050811015610fcc57828282818110610f2757610f26613cf3565b5b9050602002016020810190610f3c9190613d4e565b600d6000878785818110610f5357610f52613cf3565b5b9050602002016020810190610f6891906133d1565b73ffffffffffffffffffffffffffffffffffffffff1673ffffffffffffffffffffffffffffffffffffffff16815260200190815260200160002060006101000a81548160ff0219169083151502179055508080610fc490613d7b565b915050610f09565b5050505050565b6000610fdd611038565b65ffffffffffff168210611026576040517f08c379a000000000000000000000000000000000000000000000000000000000815260040161101d90613b2c565b60405180910390fd5b611031600b83611c97565b9050919050565b600061104343612097565b905090565b60606004805461105790613a4c565b80601f016020809104026020016040519081016040528092919081815260200182805461108390613a4c565b80156110d05780601f106110a5576101008083540402835291602001916110d0565b820191906000526020600020905b8154815290600101906020018083116110b357829003601f168201915b5050505050905090565b600080600a60008473ffffffffffffffffffffffffffffffffffffffff1673ffffffffffffffffffffffffffffffffffffffff168152602001908152602001600020805490509050600081146111b957600a60008473ffffffffffffffffffffffffffffffffffffffff1673ffffffffffffffffffffffffffffffffffffffff168152602001908152602001600020600182038154811061117e5761117d613cf3565b5b9060005260206000200160000160049054906101000a90047bffffffffffffffffffffffffffffffffffffffffffffffffffffffff166111bc565b60005b7bffffffffffffffffffffffffffffffffffffffffffffffffffffffff16915050919050565b60007f000000000000000000000000000000000000000000000000000000000000000073ffffffffffffffffffffffffffffffffffffffff163373ffffffffffffffffffffffffffffffffffffffff16148061128e575060011515600d60003373ffffffffffffffffffffffffffffffffffffffff1673ffffffffffffffffffffffffffffffffffffffff16815260200190815260200160002060009054906101000a900460ff161515145b6112cd576040517f08c379a00000000000000000000000000000000000000000000000000000000081526004016112c490613b98565b60405180910390fd5b7f000000000000000000000000000000000000000000000000000000000000000073ffffffffffffffffffffffffffffffffffffffff163373ffffffffffffffffffffffffffffffffffffffff16146113ac577f000000000000000000000000000000000000000000000000000000000000000073ffffffffffffffffffffffffffffffffffffffff1663fce67e0d846040518263ffffffff1660e01b815260040161137991906132ce565b600060405180830381600087803b15801561139357600080fd5b505af11580156113a7573d6000803e3d6000fd5b505050505b6113b683836120ec565b6001905092915050565b600f5481565b6000806113d1611948565b905060006113df82866117b1565b905083811015611424576040517f08c379a000000000000000000000000000000000000000000000000000000000815260040161141b90613e35565b60405180910390fd5b6114318286868403611950565b60019250505092915050565b600080611448611948565b9050611455818585611ba5565b600191505092915050565b834211156114a3576040517f08c379a000000000000000000000000000000000000000000000000000000000815260040161149a90613ea1565b60405180910390fd5b60006115056114fd7fe48329057bfd03d55e49b547132e39cffd9c1820ad7b9d4c5307691425d15adf8989896040516020016114e29493929190613ec1565b6040516020818303038152906040528051906020012061210a565b858585612124565b90506115108161214f565b8614611551576040517f08c379a000000000000000000000000000000000000000000000000000000000815260040161154890613f52565b60405180910390fd5b61155b8188611e6c565b50505050505050565b600c60009054906101000a900473ffffffffffffffffffffffffffffffffffffffff1673ffffffffffffffffffffffffffffffffffffffff163373ffffffffffffffffffffffffffffffffffffffff16146115f4576040517f08c379a00000000000000000000000000000000000000000000000000000000081526004016115eb90613cd3565b60405180910390fd5b80600c60006101000a81548173ffffffffffffffffffffffffffffffffffffffff021916908373ffffffffffffffffffffffffffffffffffffffff1602179055507f85314cee79a1d748bc922aee2e7514c754944bae54b9c5467dfd99629410fa9a8160405161166491906132ce565b60405180910390a150565b834211156116b2576040517f08c379a00000000000000000000000000000000000000000000000000000000081526004016116a990613fbe565b60405180910390fd5b60007f6e71edae12b1b97f4d1f60370fef10105fa2faae0126114a169c64845d6126c98888886116e18c61214f565b896040516020016116f796959493929190613fde565b604051602081830303815290604052805190602001209050600061171a8261210a565b9050600061172a82878787612124565b90508973ffffffffffffffffffffffffffffffffffffffff168173ffffffffffffffffffffffffffffffffffffffff161461179a576040517f08c379a00000000000000000000000000000000000000000000000000000000081526004016117919061408b565b60405180910390fd5b6117a58a8a8a611950565b50505050505050505050565b6000600160008473ffffffffffffffffffffffffffffffffffffffff1673ffffffffffffffffffffffffffffffffffffffff16815260200190815260200160002060008373ffffffffffffffffffffffffffffffffffffffff1673ffffffffffffffffffffffffffffffffffffffff16815260200190815260200160002054905092915050565b6118406130bb565b600a60008473ffffffffffffffffffffffffffffffffffffffff1673ffffffffffffffffffffffffffffffffffffffff1681526020019081526020016000208263ffffffff168154811061189757611896613cf3565b5b906000526020600020016040518060400160405290816000820160009054906101000a900463ffffffff1663ffffffff1663ffffffff1681526020016000820160049054906101000a90047bffffffffffffffffffffffffffffffffffffffffffffffffffffffff167bffffffffffffffffffffffffffffffffffffffffffffffffffffffff167bffffffffffffffffffffffffffffffffffffffffffffffffffffffff1681525050905092915050565b600033905090565b600073ffffffffffffffffffffffffffffffffffffffff168373ffffffffffffffffffffffffffffffffffffffff16036119bf576040517f08c379a00000000000000000000000000000000000000000000000000000000081526004016119b69061411d565b60405180910390fd5b600073ffffffffffffffffffffffffffffffffffffffff168273ffffffffffffffffffffffffffffffffffffffff1603611a2e576040517f08c379a0000000000000000000000000000000000000000000000000000000008152600401611a25906141af565b60405180910390fd5b80600160008573ffffffffffffffffffffffffffffffffffffffff1673ffffffffffffffffffffffffffffffffffffffff16815260200190815260200160002060008473ffffffffffffffffffffffffffffffffffffffff1673ffffffffffffffffffffffffffffffffffffffff168152602001908152602001600020819055508173ffffffffffffffffffffffffffffffffffffffff168373ffffffffffffffffffffffffffffffffffffffff167f8c5be1e5ebec7d5bd14f71427d1e84f3dd0314c0f7b2291e5b200ac8c7c3b92583604051611b0c91906132f8565b60405180910390a3505050565b6000611b2584846117b1565b90507fffffffffffffffffffffffffffffffffffffffffffffffffffffffffffffffff8114611b9f5781811015611b91576040517f08c379a0000000000000000000000000000000000000000000000000000000008152600401611b889061421b565b60405180910390fd5b611b9e8484848403611950565b5b50505050565b6040517f08c379a0000000000000000000000000000000000000000000000000000000008152600401611bd790613b98565b60405180910390fd5b60007f000000000000000000000000000000000000000000000000000000000000000073ffffffffffffffffffffffffffffffffffffffff163073ffffffffffffffffffffffffffffffffffffffff16148015611c5c57507f000000000000000000000000000000000000000000000000000000000000000046145b15611c89577f00000000000000000000000000000000000000000000000000000000000000009050611c94565b611c916121ad565b90505b90565b600080838054905090506000808290506005831115611d0d576000611cbb84612243565b84611cc69190613bb8565b905085611cd3888361233c565b60000160009054906101000a900463ffffffff1663ffffffff161115611cfb57809150611d0b565b600181611d089190613aac565b92505b505b5b80821015611d6d576000611d228383612351565b905085611d2f888361233c565b60000160009054906101000a900463ffffffff1663ffffffff161115611d5757809150611d67565b600181611d649190613aac565b92505b50611d0e565b60008114611db357611d82866001830361233c565b60000160049054906101000a90047bffffffffffffffffffffffffffffffffffffffffffffffffffffffff16611db6565b60005b7bffffffffffffffffffffffffffffffffffffffffffffffffffffffff16935050505092915050565b611de98282612377565b611df16124cd565b7bffffffffffffffffffffffffffffffffffffffffffffffffffffffff16611e176107e7565b1115611e58576040517f08c379a0000000000000000000000000000000000000000000000000000000008152600401611e4f906142ad565b60405180910390fd5b611e66600b6124f183612507565b50505050565b6000611e7783610c0b565b90506000611e8484610cdc565b905082600960008673ffffffffffffffffffffffffffffffffffffffff1673ffffffffffffffffffffffffffffffffffffffff16815260200190815260200160002060006101000a81548173ffffffffffffffffffffffffffffffffffffffff021916908373ffffffffffffffffffffffffffffffffffffffff1602179055508273ffffffffffffffffffffffffffffffffffffffff168273ffffffffffffffffffffffffffffffffffffffff168573ffffffffffffffffffffffffffffffffffffffff167f3134e8a2e6d97e929a7e54011ea5485d7d196dd5f0ba4d4ef95803e8e3fc257f60405160405180910390a4611f808284836127e2565b50505050565b600063ffffffff8016821115611fd1576040517f08c379a0000000000000000000000000000000000000000000000000000000008152600401611fc89061433f565b60405180910390fd5b819050919050565b600081600001549050919050565b606060ff60001b831461200457611ffd836129db565b9050612091565b81805461201090613a4c565b80601f016020809104026020016040519081016040528092919081815260200182805461203c90613a4c565b80156120895780601f1061205e57610100808354040283529160200191612089565b820191906000526020600020905b81548152906001019060200180831161206c57829003601f168201915b505050505090505b92915050565b600065ffffffffffff80168211156120e4576040517f08c379a00000000000000000000000000000000000000000000000000000000081526004016120db906143d1565b60405180910390fd5b819050919050565b6120f68282612a4f565b612104600b612c1c83612507565b50505050565b600061211d612117611be0565b83612c32565b9050919050565b600080600061213587878787612c73565b9150915061214281612d55565b8192505050949350505050565b600080600760008473ffffffffffffffffffffffffffffffffffffffff1673ffffffffffffffffffffffffffffffffffffffff168152602001908152602001600020905061219c81611fd9565b91506121a781612ebb565b50919050565b60007f8b73c3c69bb8fe3d512ecc4cf759cc79239f7b179b0ffacaa9a75d522b39400f7f00000000000000000000000000000000000000000000000000000000000000007f000000000000000000000000000000000000000000000000000000000000000046306040516020016122289594939291906143f1565b60405160208183030381529060405280519060200120905090565b60008082036122555760009050612337565b6000600161226284612ed1565b901c6001901b9050600181848161227c5761227b614444565b5b048201901c9050600181848161229557612294614444565b5b048201901c905060018184816122ae576122ad614444565b5b048201901c905060018184816122c7576122c6614444565b5b048201901c905060018184816122e0576122df614444565b5b048201901c905060018184816122f9576122f8614444565b5b048201901c9050600181848161231257612311614444565b5b048201901c90506123338182858161232d5761232c614444565b5b04612fb2565b9150505b919050565b60008260005281602060002001905092915050565b600060028284186123629190614473565b82841661236f9190613aac565b905092915050565b600073ffffffffffffffffffffffffffffffffffffffff168273ffffffffffffffffffffffffffffffffffffffff16036123e6576040517f08c379a00000000000000000000000000000000000000000000000000000000081526004016123dd906144f0565b60405180910390fd5b6123f260008383612fcb565b80600260008282546124049190613aac565b92505081905550806000808473ffffffffffffffffffffffffffffffffffffffff1673ffffffffffffffffffffffffffffffffffffffff168152602001908152602001600020600082825401925050819055508173ffffffffffffffffffffffffffffffffffffffff16600073ffffffffffffffffffffffffffffffffffffffff167fddf252ad1be2c89b69c2b068fc378daa952ba7f163c4a11628f55a4df523b3ef836040516124b591906132f8565b60405180910390a36124c960008383612fd0565b5050565b60007bffffffffffffffffffffffffffffffffffffffffffffffffffffffff905090565b600081836124ff9190613aac565b905092915050565b60008060008580549050905060008082146125cd57612529876001840361233c565b6040518060400160405290816000820160009054906101000a900463ffffffff1663ffffffff1663ffffffff1681526020016000820160049054906101000a90047bffffffffffffffffffffffffffffffffffffffffffffffffffffffff167bffffffffffffffffffffffffffffffffffffffffffffffffffffffff167bffffffffffffffffffffffffffffffffffffffffffffffffffffffff1681525050612609565b6040518060400160405280600063ffffffff16815260200160007bffffffffffffffffffffffffffffffffffffffffffffffffffffffff168152505b905080602001517bffffffffffffffffffffffffffffffffffffffffffffffffffffffff16935061263e84868863ffffffff16565b92506000821180156126685750612653611038565b65ffffffffffff16816000015163ffffffff16145b156126d95761267683612ffb565b612683886001850361233c565b60000160046101000a8154817bffffffffffffffffffffffffffffffffffffffffffffffffffffffff02191690837bffffffffffffffffffffffffffffffffffffffffffffffffffffffff1602179055506127d8565b8660405180604001604052806126fd6126f0611038565b65ffffffffffff16611f86565b63ffffffff16815260200161271186612ffb565b7bffffffffffffffffffffffffffffffffffffffffffffffffffffffff168152509080600181540180825580915050600190039060005260206000200160009091909190915060008201518160000160006101000a81548163ffffffff021916908363ffffffff16021790555060208201518160000160046101000a8154817bffffffffffffffffffffffffffffffffffffffffffffffffffffffff02191690837bffffffffffffffffffffffffffffffffffffffffffffffffffffffff16021790555050505b5050935093915050565b8173ffffffffffffffffffffffffffffffffffffffff168373ffffffffffffffffffffffffffffffffffffffff161415801561281e5750600081115b156129d657600073ffffffffffffffffffffffffffffffffffffffff168373ffffffffffffffffffffffffffffffffffffffff16146128fc576000806128a5600a60008773ffffffffffffffffffffffffffffffffffffffff1673ffffffffffffffffffffffffffffffffffffffff168152602001908152602001600020612c1c85612507565b915091508473ffffffffffffffffffffffffffffffffffffffff167fdec2bacdd2f05b59de34da9b523dff8be42e5e38e818c82fdb0bae774387a72483836040516128f1929190614510565b60405180910390a250505b600073ffffffffffffffffffffffffffffffffffffffff168273ffffffffffffffffffffffffffffffffffffffff16146129d55760008061297e600a60008673ffffffffffffffffffffffffffffffffffffffff1673ffffffffffffffffffffffffffffffffffffffff1681526020019081526020016000206124f185612507565b915091508373ffffffffffffffffffffffffffffffffffffffff167fdec2bacdd2f05b59de34da9b523dff8be42e5e38e818c82fdb0bae774387a72483836040516129ca929190614510565b60405180910390a250505b5b505050565b606060006129e883613066565b90506000602067ffffffffffffffff811115612a0757612a06613c58565b5b6040519080825280601f01601f191660200182016040528015612a395781602001600182028036833780820191505090505b5090508181528360208201528092505050919050565b600073ffffffffffffffffffffffffffffffffffffffff168273ffffffffffffffffffffffffffffffffffffffff1603612abe576040517f08c379a0000000000000000000000000000000000000000000000000000000008152600401612ab5906145ab565b60405180910390fd5b612aca82600083612fcb565b60008060008473ffffffffffffffffffffffffffffffffffffffff1673ffffffffffffffffffffffffffffffffffffffff16815260200190815260200160002054905081811015612b50576040517f08c379a0000000000000000000000000000000000000000000000000000000008152600401612b479061463d565b60405180910390fd5b8181036000808573ffffffffffffffffffffffffffffffffffffffff1673ffffffffffffffffffffffffffffffffffffffff1681526020019081526020016000208190555081600260008282540392505081905550600073ffffffffffffffffffffffffffffffffffffffff168373ffffffffffffffffffffffffffffffffffffffff167fddf252ad1be2c89b69c2b068fc378daa952ba7f163c4a11628f55a4df523b3ef84604051612c0391906132f8565b60405180910390a3612c1783600084612fd0565b505050565b60008183612c2a9190613bb8565b905092915050565b60006040517f190100000000000000000000000000000000000000000000000000000000000081528360028201528260228201526042812091505092915050565b6000807f7fffffffffffffffffffffffffffffff5d576e7357a4501ddfe92f46681b20a08360001c1115612cae576000600391509150612d4c565b600060018787878760405160008152602001604052604051612cd3949392919061465d565b6020604051602081039080840390855afa158015612cf5573d6000803e3d6000fd5b505050602060405103519050600073ffffffffffffffffffffffffffffffffffffffff168173ffffffffffffffffffffffffffffffffffffffff1603612d4357600060019250925050612d4c565b80600092509250505b94509492505050565b60006004811115612d6957612d686146a2565b5b816004811115612d7c57612d7b6146a2565b5b0315612eb85760016004811115612d9657612d956146a2565b5b816004811115612da957612da86146a2565b5b03612de9576040517f08c379a0000000000000000000000000000000000000000000000000000000008152600401612de09061471d565b60405180910390fd5b60026004811115612dfd57612dfc6146a2565b5b816004811115612e1057612e0f6146a2565b5b03612e50576040517f08c379a0000000000000000000000000000000000000000000000000000000008152600401612e4790614789565b60405180910390fd5b60036004811115612e6457612e636146a2565b5b816004811115612e7757612e766146a2565b5b03612eb7576040517f08c379a0000000000000000000000000000000000000000000000000000000008152600401612eae9061481b565b60405180910390fd5b5b50565b6001816000016000828254019250508190555050565b600080600090506000608084901c1115612ef357608083901c92506080810190505b6000604084901c1115612f0e57604083901c92506040810190505b6000602084901c1115612f2957602083901c92506020810190505b6000601084901c1115612f4457601083901c92506010810190505b6000600884901c1115612f5f57600883901c92506008810190505b6000600484901c1115612f7a57600483901c92506004810190505b6000600284901c1115612f9557600283901c92506002810190505b6000600184901c1115612fa9576001810190505b80915050919050565b6000818310612fc15781612fc3565b825b905092915050565b505050565b612fdb8383836130b6565b612ff6612fe784610c0b565b612ff084610c0b565b836127e2565b505050565b60007bffffffffffffffffffffffffffffffffffffffffffffffffffffffff801682111561305e576040517f08c379a0000000000000000000000000000000000000000000000000000000008152600401613055906148ad565b60405180910390fd5b819050919050565b60008060ff8360001c169050601f8111156130ad576040517fb3512b0c00000000000000000000000000000000000000000000000000000000815260040160405180910390fd5b80915050919050565b505050565b6040518060400160405280600063ffffffff16815260200160007bffffffffffffffffffffffffffffffffffffffffffffffffffffffff1681525090565b600081519050919050565b600082825260208201905092915050565b60005b83811015613133578082015181840152602081019050613118565b60008484015250505050565b6000601f19601f8301169050919050565b600061315b826130f9565b6131658185613104565b9350613175818560208601613115565b61317e8161313f565b840191505092915050565b600060208201905081810360008301526131a38184613150565b905092915050565b600080fd5b600080fd5b600073ffffffffffffffffffffffffffffffffffffffff82169050919050565b60006131e0826131b5565b9050919050565b6131f0816131d5565b81146131fb57600080fd5b50565b60008135905061320d816131e7565b92915050565b6000819050919050565b61322681613213565b811461323157600080fd5b50565b6000813590506132438161321d565b92915050565b600080604083850312156132605761325f6131ab565b5b600061326e858286016131fe565b925050602061327f85828601613234565b9150509250929050565b60008115159050919050565b61329e81613289565b82525050565b60006020820190506132b96000830184613295565b92915050565b6132c8816131d5565b82525050565b60006020820190506132e360008301846132bf565b92915050565b6132f281613213565b82525050565b600060208201905061330d60008301846132e9565b92915050565b60008060006060848603121561332c5761332b6131ab565b5b600061333a868287016131fe565b935050602061334b868287016131fe565b925050604061335c86828701613234565b9150509250925092565b600060ff82169050919050565b61337c81613366565b82525050565b60006020820190506133976000830184613373565b92915050565b6000819050919050565b6133b08161339d565b82525050565b60006020820190506133cb60008301846133a7565b92915050565b6000602082840312156133e7576133e66131ab565b5b60006133f5848285016131fe565b91505092915050565b600063ffffffff82169050919050565b613417816133fe565b82525050565b6000602082019050613432600083018461340e565b92915050565b60007fff0000000000000000000000000000000000000000000000000000000000000082169050919050565b61346d81613438565b82525050565b600081519050919050565b600082825260208201905092915050565b6000819050602082019050919050565b6134a881613213565b82525050565b60006134ba838361349f565b60208301905092915050565b6000602082019050919050565b60006134de82613473565b6134e8818561347e565b93506134f38361348f565b8060005b8381101561352457815161350b88826134ae565b9750613516836134c6565b9250506001810190506134f7565b5085935050505092915050565b600060e082019050613546600083018a613464565b81810360208301526135588189613150565b9050818103604083015261356c8188613150565b905061357b60608301876132e9565b61358860808301866132bf565b61359560a08301856133a7565b81810360c08301526135a781846134d3565b905098975050505050505050565b600080fd5b600080fd5b600080fd5b60008083601f8401126135da576135d96135b5565b5b8235905067ffffffffffffffff8111156135f7576135f66135ba565b5b602083019150836020820283011115613613576136126135bf565b5b9250929050565b60008083601f8401126136305761362f6135b5565b5b8235905067ffffffffffffffff81111561364d5761364c6135ba565b5b602083019150836020820283011115613669576136686135bf565b5b9250929050565b6000806000806040858703121561368a576136896131ab565b5b600085013567ffffffffffffffff8111156136a8576136a76131b0565b5b6136b4878288016135c4565b9450945050602085013567ffffffffffffffff8111156136d7576136d66131b0565b5b6136e38782880161361a565b925092505092959194509250565b600060208284031215613707576137066131ab565b5b600061371584828501613234565b91505092915050565b600065ffffffffffff82169050919050565b6137398161371e565b82525050565b60006020820190506137546000830184613730565b92915050565b61376381613366565b811461376e57600080fd5b50565b6000813590506137808161375a565b92915050565b61378f8161339d565b811461379a57600080fd5b50565b6000813590506137ac81613786565b92915050565b60008060008060008060c087890312156137cf576137ce6131ab565b5b60006137dd89828a016131fe565b96505060206137ee89828a01613234565b95505060406137ff89828a01613234565b945050606061381089828a01613771565b935050608061382189828a0161379d565b92505060a061383289828a0161379d565b9150509295509295509295565b600080600080600080600060e0888a03121561385e5761385d6131ab565b5b600061386c8a828b016131fe565b975050602061387d8a828b016131fe565b965050604061388e8a828b01613234565b955050606061389f8a828b01613234565b94505060806138b08a828b01613771565b93505060a06138c18a828b0161379d565b92505060c06138d28a828b0161379d565b91505092959891949750929550565b600080604083850312156138f8576138f76131ab565b5b6000613906858286016131fe565b9250506020613917858286016131fe565b9150509250929050565b61392a816133fe565b811461393557600080fd5b50565b60008135905061394781613921565b92915050565b60008060408385031215613964576139636131ab565b5b6000613972858286016131fe565b925050602061398385828601613938565b9150509250929050565b613996816133fe565b82525050565b60007bffffffffffffffffffffffffffffffffffffffffffffffffffffffff82169050919050565b6139cd8161399c565b82525050565b6040820160008201516139e9600085018261398d565b5060208201516139fc60208501826139c4565b50505050565b6000604082019050613a1760008301846139d3565b92915050565b7f4e487b7100000000000000000000000000000000000000000000000000000000600052602260045260246000fd5b60006002820490506001821680613a6457607f821691505b602082108103613a7757613a76613a1d565b5b50919050565b7f4e487b7100000000000000000000000000000000000000000000000000000000600052601160045260246000fd5b6000613ab782613213565b9150613ac283613213565b9250828201905080821115613ada57613ad9613a7d565b5b92915050565b7f4552433230566f7465733a20667574757265206c6f6f6b757000000000000000600082015250565b6000613b16601983613104565b9150613b2182613ae0565b602082019050919050565b60006020820190508181036000830152613b4581613b09565b9050919050565b7f6e6f7420617574686f72697a6564000000000000000000000000000000000000600082015250565b6000613b82600e83613104565b9150613b8d82613b4c565b602082019050919050565b60006020820190508181036000830152613bb181613b75565b9050919050565b6000613bc382613213565b9150613bce83613213565b9250828203905081811115613be657613be5613a7d565b5b92915050565b7f4552433230566f7465733a2062726f6b656e20636c6f636b206d6f6465000000600082015250565b6000613c22601d83613104565b9150613c2d82613bec565b602082019050919050565b60006020820190508181036000830152613c5181613c15565b9050919050565b7f4e487b7100000000000000000000000000000000000000000000000000000000600052604160045260246000fd5b7f476f7665726e61626c653a20666f7262696464656e0000000000000000000000600082015250565b6000613cbd601583613104565b9150613cc882613c87565b602082019050919050565b60006020820190508181036000830152613cec81613cb0565b9050919050565b7f4e487b7100000000000000000000000000000000000000000000000000000000600052603260045260246000fd5b613d2b81613289565b8114613d3657600080fd5b50565b600081359050613d4881613d22565b92915050565b600060208284031215613d6457613d636131ab565b5b6000613d7284828501613d39565b91505092915050565b6000613d8682613213565b91507fffffffffffffffffffffffffffffffffffffffffffffffffffffffffffffffff8203613db857613db7613a7d565b5b600182019050919050565b7f45524332303a2064656372656173656420616c6c6f77616e63652062656c6f7760008201527f207a65726f000000000000000000000000000000000000000000000000000000602082015250565b6000613e1f602583613104565b9150613e2a82613dc3565b604082019050919050565b60006020820190508181036000830152613e4e81613e12565b9050919050565b7f4552433230566f7465733a207369676e61747572652065787069726564000000600082015250565b6000613e8b601d83613104565b9150613e9682613e55565b602082019050919050565b60006020820190508181036000830152613eba81613e7e565b9050919050565b6000608082019050613ed660008301876133a7565b613ee360208301866132bf565b613ef060408301856132e9565b613efd60608301846132e9565b95945050505050565b7f4552433230566f7465733a20696e76616c6964206e6f6e636500000000000000600082015250565b6000613f3c601983613104565b9150613f4782613f06565b602082019050919050565b60006020820190508181036000830152613f6b81613f2f565b9050919050565b7f45524332305065726d69743a206578706972656420646561646c696e65000000600082015250565b6000613fa8601d83613104565b9150613fb382613f72565b602082019050919050565b60006020820190508181036000830152613fd781613f9b565b9050919050565b600060c082019050613ff360008301896133a7565b61400060208301886132bf565b61400d60408301876132bf565b61401a60608301866132e9565b61402760808301856132e9565b61403460a08301846132e9565b979650505050505050565b7f45524332305065726d69743a20696e76616c6964207369676e61747572650000600082015250565b6000614075601e83613104565b91506140808261403f565b602082019050919050565b600060208201905081810360008301526140a481614068565b9050919050565b7f45524332303a20617070726f76652066726f6d20746865207a65726f2061646460008201527f7265737300000000000000000000000000000000000000000000000000000000602082015250565b6000614107602483613104565b9150614112826140ab565b604082019050919050565b60006020820190508181036000830152614136816140fa565b9050919050565b7f45524332303a20617070726f766520746f20746865207a65726f20616464726560008201527f7373000000000000000000000000000000000000000000000000000000000000602082015250565b6000614199602283613104565b91506141a48261413d565b604082019050919050565b600060208201905081810360008301526141c88161418c565b9050919050565b7f45524332303a20696e73756666696369656e7420616c6c6f77616e6365000000600082015250565b6000614205601d83613104565b9150614210826141cf565b602082019050919050565b60006020820190508181036000830152614234816141f8565b9050919050565b7f4552433230566f7465733a20746f74616c20737570706c79207269736b73206f60008201527f766572666c6f77696e6720766f74657300000000000000000000000000000000602082015250565b6000614297603083613104565b91506142a28261423b565b604082019050919050565b600060208201905081810360008301526142c68161428a565b9050919050565b7f53616665436173743a2076616c756520646f65736e27742066697420696e203360008201527f3220626974730000000000000000000000000000000000000000000000000000602082015250565b6000614329602683613104565b9150614334826142cd565b604082019050919050565b600060208201905081810360008301526143588161431c565b9050919050565b7f53616665436173743a2076616c756520646f65736e27742066697420696e203460008201527f3820626974730000000000000000000000000000000000000000000000000000602082015250565b60006143bb602683613104565b91506143c68261435f565b604082019050919050565b600060208201905081810360008301526143ea816143ae565b9050919050565b600060a08201905061440660008301886133a7565b61441360208301876133a7565b61442060408301866133a7565b61442d60608301856132e9565b61443a60808301846132bf565b9695505050505050565b7f4e487b7100000000000000000000000000000000000000000000000000000000600052601260045260246000fd5b600061447e82613213565b915061448983613213565b92508261449957614498614444565b5b828204905092915050565b7f45524332303a206d696e7420746f20746865207a65726f206164647265737300600082015250565b60006144da601f83613104565b91506144e5826144a4565b602082019050919050565b60006020820190508181036000830152614509816144cd565b9050919050565b600060408201905061452560008301856132e9565b61453260208301846132e9565b9392505050565b7f45524332303a206275726e2066726f6d20746865207a65726f2061646472657360008201527f7300000000000000000000000000000000000000000000000000000000000000602082015250565b6000614595602183613104565b91506145a082614539565b604082019050919050565b600060208201905081810360008301526145c481614588565b9050919050565b7f45524332303a206275726e20616d6f756e7420657863656564732062616c616e60008201527f6365000000000000000000000000000000000000000000000000000000000000602082015250565b6000614627602283613104565b9150614632826145cb565b604082019050919050565b600060208201905081810360008301526146568161461a565b9050919050565b600060808201905061467260008301876133a7565b61467f6020830186613373565b61468c60408301856133a7565b61469960608301846133a7565b95945050505050565b7f4e487b7100000000000000000000000000000000000000000000000000000000600052602160045260246000fd5b7f45434453413a20696e76616c6964207369676e61747572650000000000000000600082015250565b6000614707601883613104565b9150614712826146d1565b602082019050919050565b60006020820190508181036000830152614736816146fa565b9050919050565b7f45434453413a20696e76616c6964207369676e6174757265206c656e67746800600082015250565b6000614773601f83613104565b915061477e8261473d565b602082019050919050565b600060208201905081810360008301526147a281614766565b9050919050565b7f45434453413a20696e76616c6964207369676e6174757265202773272076616c60008201527f7565000000000000000000000000000000000000000000000000000000000000602082015250565b6000614805602283613104565b9150614810826147a9565b604082019050919050565b60006020820190508181036000830152614834816147f8565b9050919050565b7f53616665436173743a2076616c756520646f65736e27742066697420696e203260008201527f3234206269747300000000000000000000000000000000000000000000000000602082015250565b6000614897602783613104565b91506148a28261483b565b604082019050919050565b600060208201905081810360008301526148c68161488a565b905091905056fea2646970667358221220cea4d8460aad6e2d7c3730cb747a5513c3853dcdb23fdc8fcee9d62dafdf15ce64736f6c63430008130033",
  "linkReferences": {},
  "deployedLinkReferences": {}
}