{
  "_format": "hh-sol-artifact-1",
  "contractName": "GoldengNFT",
  "sourceName": "contracts/GoldengNFT.sol",
  "abi": [
    {
      "inputs": [
        {
          "internalType": "address",
          "name": "_feeWallet",
          "type": "address"
        },
        {
          "internalType": "uint256",
          "name": "_feeAmount",
          "type": "uint256"
        },
        {
          "internalType": "string",
          "name": "_baseTokenURI",
          "type": "string"
        },
        {
          "internalType": "uint256",
          "name": "_mintingStartTime",
          "type": "uint256"
        },
        {
          "internalType": "address",
          "name": "_vaultAddress",
          "type": "address"
        }
      ],
      "stateMutability": "nonpayable",
      "type": "constructor"
    },
    {
      "inputs": [],
      "name": "ArrayFull",
      "type": "error"
    },
    {
      "inputs": [
        {
          "internalType": "uint256",
          "name": "tokenId",
          "type": "uint256"
        }
      ],
      "name": "InvalidTokenId",
      "type": "error"
    },
    {
      "anonymous": false,
      "inputs": [
        {
          "indexed": true,
          "internalType": "address",
          "name": "owner",
          "type": "address"
        },
        {
          "indexed": true,
          "internalType": "address",
          "name": "approved",
          "type": "address"
        },
        {
          "indexed": true,
          "internalType": "uint256",
          "name": "tokenId",
          "type": "uint256"
        }
      ],
      "name": "Approval",
      "type": "event"
    },
    {
      "anonymous": false,
      "inputs": [
        {
          "indexed": true,
          "internalType": "address",
          "name": "owner",
          "type": "address"
        },
        {
          "indexed": true,
          "internalType": "address",
          "name": "operator",
          "type": "address"
        },
        {
          "indexed": false,
          "internalType": "bool",
          "name": "approved",
          "type": "bool"
        }
      ],
      "name": "ApprovalForAll",
      "type": "event"
    },
    {
      "anonymous": false,
      "inputs": [
        {
          "indexed": true,
          "internalType": "address",
          "name": "previousOwner",
          "type": "address"
        },
        {
          "indexed": true,
          "internalType": "address",
          "name": "newOwner",
          "type": "address"
        }
      ],
      "name": "OwnershipTransferred",
      "type": "event"
    },
    {
      "anonymous": false,
      "inputs": [
        {
          "indexed": true,
          "internalType": "address",
          "name": "from",
          "type": "address"
        },
        {
          "indexed": true,
          "internalType": "address",
          "name": "to",
          "type": "address"
        },
        {
          "indexed": true,
          "internalType": "uint256",
          "name": "tokenId",
          "type": "uint256"
        }
      ],
      "name": "Transfer",
      "type": "event"
    },
    {
      "inputs": [
        {
          "internalType": "address",
          "name": "to",
          "type": "address"
        },
        {
          "internalType": "uint256",
          "name": "tokenId",
          "type": "uint256"
        }
      ],
      "name": "approve",
      "outputs": [],
      "stateMutability": "nonpayable",
      "type": "function"
    },
    {
      "inputs": [
        {
          "internalType": "address",
          "name": "owner",
          "type": "address"
        }
      ],
      "name": "balanceOf",
      "outputs": [
        {
          "internalType": "uint256",
          "name": "",
          "type": "uint256"
        }
      ],
      "stateMutability": "view",
      "type": "function"
    },
    {
      "inputs": [],
      "name": "baseTokenURI",
      "outputs": [
        {
          "internalType": "string",
          "name": "",
          "type": "string"
        }
      ],
      "stateMutability": "view",
      "type": "function"
    },
    {
      "inputs": [],
      "name": "counter",
      "outputs": [
        {
          "internalType": "uint256",
          "name": "",
          "type": "uint256"
        }
      ],
      "stateMutability": "view",
      "type": "function"
    },
    {
      "inputs": [],
      "name": "feeAmount",
      "outputs": [
        {
          "internalType": "uint256",
          "name": "",
          "type": "uint256"
        }
      ],
      "stateMutability": "view",
      "type": "function"
    },
    {
      "inputs": [],
      "name": "feeWallet",
      "outputs": [
        {
          "internalType": "address",
          "name": "",
          "type": "address"
        }
      ],
      "stateMutability": "view",
      "type": "function"
    },
    {
      "inputs": [],
      "name": "getAllNFTInfos",
      "outputs": [
        {
          "components": [
            {
              "internalType": "address",
              "name": "minter",
              "type": "address"
            },
            {
              "internalType": "bytes",
              "name": "publicKey",
              "type": "bytes"
            }
          ],
          "internalType": "struct GoldengNFT.NFTInfo[]",
          "name": "",
          "type": "tuple[]"
        }
      ],
      "stateMutability": "view",
      "type": "function"
    },
    {
      "inputs": [
        {
          "internalType": "uint256",
          "name": "tokenId",
          "type": "uint256"
        }
      ],
      "name": "getApproved",
      "outputs": [
        {
          "internalType": "address",
          "name": "",
          "type": "address"
        }
      ],
      "stateMutability": "view",
      "type": "function"
    },
    {
      "inputs": [],
      "name": "getMintCount",
      "outputs": [
        {
          "internalType": "uint256",
          "name": "",
          "type": "uint256"
        }
      ],
      "stateMutability": "view",
      "type": "function"
    },
    {
      "inputs": [
        {
          "internalType": "address",
          "name": "owner",
          "type": "address"
        },
        {
          "internalType": "address",
          "name": "operator",
          "type": "address"
        }
      ],
      "name": "isApprovedForAll",
      "outputs": [
        {
          "internalType": "bool",
          "name": "",
          "type": "bool"
        }
      ],
      "stateMutability": "view",
      "type": "function"
    },
    {
      "inputs": [
        {
          "internalType": "address",
          "name": "_to",
          "type": "address"
        },
        {
          "internalType": "bytes",
          "name": "_publicKey",
          "type": "bytes"
        }
      ],
      "name": "mintTo",
      "outputs": [],
      "stateMutability": "payable",
      "type": "function"
    },
    {
      "inputs": [],
      "name": "mintingStartTime",
      "outputs": [
        {
          "internalType": "uint256",
          "name": "",
          "type": "uint256"
        }
      ],
      "stateMutability": "view",
      "type": "function"
    },
    {
      "inputs": [],
      "name": "name",
      "outputs": [
        {
          "internalType": "string",
          "name": "",
          "type": "string"
        }
      ],
      "stateMutability": "view",
      "type": "function"
    },
    {
      "inputs": [
        {
          "internalType": "uint256",
          "name": "",
          "type": "uint256"
        }
      ],
      "name": "nftInfoArray",
      "outputs": [
        {
          "internalType": "address",
          "name": "minter",
          "type": "address"
        },
        {
          "internalType": "bytes",
          "name": "publicKey",
          "type": "bytes"
        }
      ],
      "stateMutability": "view",
      "type": "function"
    },
    {
      "inputs": [],
      "name": "owner",
      "outputs": [
        {
          "internalType": "address",
          "name": "",
          "type": "address"
        }
      ],
      "stateMutability": "view",
      "type": "function"
    },
    {
      "inputs": [
        {
          "internalType": "uint256",
          "name": "tokenId",
          "type": "uint256"
        }
      ],
      "name": "ownerOf",
      "outputs": [
        {
          "internalType": "address",
          "name": "",
          "type": "address"
        }
      ],
      "stateMutability": "view",
      "type": "function"
    },
    {
      "inputs": [],
      "name": "renounceOwnership",
      "outputs": [],
      "stateMutability": "nonpayable",
      "type": "function"
    },
    {
      "inputs": [
        {
          "internalType": "address",
          "name": "from",
          "type": "address"
        },
        {
          "internalType": "address",
          "name": "to",
          "type": "address"
        },
        {
          "internalType": "uint256",
          "name": "tokenId",
          "type": "uint256"
        }
      ],
      "name": "safeTransferFrom",
      "outputs": [],
      "stateMutability": "nonpayable",
      "type": "function"
    },
    {
      "inputs": [
        {
          "internalType": "address",
          "name": "from",
          "type": "address"
        },
        {
          "internalType": "address",
          "name": "to",
          "type": "address"
        },
        {
          "internalType": "uint256",
          "name": "tokenId",
          "type": "uint256"
        },
        {
          "internalType": "bytes",
          "name": "data",
          "type": "bytes"
        }
      ],
      "name": "safeTransferFrom",
      "outputs": [],
      "stateMutability": "nonpayable",
      "type": "function"
    },
    {
      "inputs": [
        {
          "internalType": "address",
          "name": "operator",
          "type": "address"
        },
        {
          "internalType": "bool",
          "name": "approved",
          "type": "bool"
        }
      ],
      "name": "setApprovalForAll",
      "outputs": [],
      "stateMutability": "nonpayable",
      "type": "function"
    },
    {
      "inputs": [],
      "name": "storedNFTCount",
      "outputs": [
        {
          "internalType": "uint256",
          "name": "",
          "type": "uint256"
        }
      ],
      "stateMutability": "view",
      "type": "function"
    },
    {
      "inputs": [
        {
          "internalType": "bytes4",
          "name": "interfaceId",
          "type": "bytes4"
        }
      ],
      "name": "supportsInterface",
      "outputs": [
        {
          "internalType": "bool",
          "name": "",
          "type": "bool"
        }
      ],
      "stateMutability": "view",
      "type": "function"
    },
    {
      "inputs": [],
      "name": "symbol",
      "outputs": [
        {
          "internalType": "string",
          "name": "",
          "type": "string"
        }
      ],
      "stateMutability": "view",
      "type": "function"
    },
    {
      "inputs": [
        {
          "internalType": "uint256",
          "name": "tokenId",
          "type": "uint256"
        }
      ],
      "name": "tokenURI",
      "outputs": [
        {
          "internalType": "string",
          "name": "",
          "type": "string"
        }
      ],
      "stateMutability": "view",
      "type": "function"
    },
    {
      "inputs": [
        {
          "internalType": "address",
          "name": "from",
          "type": "address"
        },
        {
          "internalType": "address",
          "name": "to",
          "type": "address"
        },
        {
          "internalType": "uint256",
          "name": "tokenId",
          "type": "uint256"
        }
      ],
      "name": "transferFrom",
      "outputs": [],
      "stateMutability": "nonpayable",
      "type": "function"
    },
    {
      "inputs": [
        {
          "internalType": "address",
          "name": "newOwner",
          "type": "address"
        }
      ],
      "name": "transferOwnership",
      "outputs": [],
      "stateMutability": "nonpayable",
      "type": "function"
    },
    {
      "inputs": [],
      "name": "vault",
      "outputs": [
        {
          "internalType": "contract IVault",
          "name": "",
          "type": "address"
        }
      ],
      "stateMutability": "view",
      "type": "function"
    }
  ],
  "bytecode": "0x60806040523480156200001157600080fd5b50604051620042673803806200426783398181016040528101906200003791906200049f565b6040518060400160405280600781526020017f476f6c64656e47000000000000000000000000000000000000000000000000008152506040518060400160405280600281526020017f47470000000000000000000000000000000000000000000000000000000000008152508160009081620000b4919062000787565b508060019081620000c6919062000787565b505050620000e9620000dd6200019e60201b60201c565b620001a660201b60201c565b600160078190555084600960006101000a81548173ffffffffffffffffffffffffffffffffffffffff021916908373ffffffffffffffffffffffffffffffffffffffff16021790555083600a8190555082600b90816200014a919062000787565b5081600c8190555080600d60006101000a81548173ffffffffffffffffffffffffffffffffffffffff021916908373ffffffffffffffffffffffffffffffffffffffff16021790555050505050506200086e565b600033905090565b6000600660009054906101000a900473ffffffffffffffffffffffffffffffffffffffff16905081600660006101000a81548173ffffffffffffffffffffffffffffffffffffffff021916908373ffffffffffffffffffffffffffffffffffffffff1602179055508173ffffffffffffffffffffffffffffffffffffffff168173ffffffffffffffffffffffffffffffffffffffff167f8be0079c531659141344cd1fd0a4f28419497f9722a3daafe3b4186f6b6457e060405160405180910390a35050565b6000604051905090565b600080fd5b600080fd5b600073ffffffffffffffffffffffffffffffffffffffff82169050919050565b6000620002ad8262000280565b9050919050565b620002bf81620002a0565b8114620002cb57600080fd5b50565b600081519050620002df81620002b4565b92915050565b6000819050919050565b620002fa81620002e5565b81146200030657600080fd5b50565b6000815190506200031a81620002ef565b92915050565b600080fd5b600080fd5b6000601f19601f8301169050919050565b7f4e487b7100000000000000000000000000000000000000000000000000000000600052604160045260246000fd5b62000375826200032a565b810181811067ffffffffffffffff821117156200039757620003966200033b565b5b80604052505050565b6000620003ac6200026c565b9050620003ba82826200036a565b919050565b600067ffffffffffffffff821115620003dd57620003dc6200033b565b5b620003e8826200032a565b9050602081019050919050565b60005b8381101562000415578082015181840152602081019050620003f8565b60008484015250505050565b6000620004386200043284620003bf565b620003a0565b90508281526020810184848401111562000457576200045662000325565b5b62000464848285620003f5565b509392505050565b600082601f83011262000484576200048362000320565b5b81516200049684826020860162000421565b91505092915050565b600080600080600060a08688031215620004be57620004bd62000276565b5b6000620004ce88828901620002ce565b9550506020620004e18882890162000309565b945050604086015167ffffffffffffffff8111156200050557620005046200027b565b5b62000513888289016200046c565b9350506060620005268882890162000309565b92505060806200053988828901620002ce565b9150509295509295909350565b600081519050919050565b7f4e487b7100000000000000000000000000000000000000000000000000000000600052602260045260246000fd5b600060028204905060018216806200059957607f821691505b602082108103620005af57620005ae62000551565b5b50919050565b60008190508160005260206000209050919050565b60006020601f8301049050919050565b600082821b905092915050565b600060088302620006197fffffffffffffffffffffffffffffffffffffffffffffffffffffffffffffffff82620005da565b620006258683620005da565b95508019841693508086168417925050509392505050565b6000819050919050565b600062000668620006626200065c84620002e5565b6200063d565b620002e5565b9050919050565b6000819050919050565b620006848362000647565b6200069c62000693826200066f565b848454620005e7565b825550505050565b600090565b620006b3620006a4565b620006c081848462000679565b505050565b5b81811015620006e857620006dc600082620006a9565b600181019050620006c6565b5050565b601f82111562000737576200070181620005b5565b6200070c84620005ca565b810160208510156200071c578190505b620007346200072b85620005ca565b830182620006c5565b50505b505050565b600082821c905092915050565b60006200075c600019846008026200073c565b1980831691505092915050565b600062000777838362000749565b9150826002028217905092915050565b620007928262000546565b67ffffffffffffffff811115620007ae57620007ad6200033b565b5b620007ba825462000580565b620007c7828285620006ec565b600060209050601f831160018114620007ff5760008415620007ea578287015190505b620007f6858262000769565b86555062000866565b601f1984166200080f86620005b5565b60005b82811015620008395784890151825560018201915060208501945060208101905062000812565b8683101562000859578489015162000855601f89168262000749565b8355505b6001600288020188555050505b505050505050565b6139e9806200087e6000396000f3fe60806040526004361061019c5760003560e01c806381ffdca5116100ec578063ceeff1461161008a578063e985e9c511610064578063e985e9c5146105be578063f25f4b56146105fb578063f2fde38b14610626578063fbfa77cf1461064f5761019c565b8063ceeff1461461053d578063d547cfb714610568578063dfef5f69146105935761019c565b806395d89b41116100c657806395d89b4114610483578063a22cb465146104ae578063b88d4fde146104d7578063c87b56dd146105005761019c565b806381ffdca5146104025780638da5cb5b1461042d5780638fc3b549146104585761019c565b80633d3503d9116101595780636352211e116101335780636352211e1461034657806369e154041461038357806370a08231146103ae578063715018a6146103eb5761019c565b80633d3503d9146102d657806342842e0e146102f257806361bc221a1461031b5761019c565b806301ffc9a7146101a157806306fdde03146101de578063081812fc14610209578063095ea7b31461024657806323b872dd1461026f5780632afe352f14610298575b600080fd5b3480156101ad57600080fd5b506101c860048036038101906101c3919061243d565b61067a565b6040516101d59190612485565b60405180910390f35b3480156101ea57600080fd5b506101f361075c565b6040516102009190612530565b60405180910390f35b34801561021557600080fd5b50610230600480360381019061022b9190612588565b6107ee565b60405161023d91906125f6565b60405180910390f35b34801561025257600080fd5b5061026d6004803603810190610268919061263d565b610834565b005b34801561027b57600080fd5b506102966004803603810190610291919061267d565b61094b565b005b3480156102a457600080fd5b506102bf60048036038101906102ba9190612588565b6109ab565b6040516102cd929190612725565b60405180910390f35b6102f060048036038101906102eb919061288a565b610a7e565b005b3480156102fe57600080fd5b506103196004803603810190610314919061267d565b610d64565b005b34801561032757600080fd5b50610330610d84565b60405161033d91906128f5565b60405180910390f35b34801561035257600080fd5b5061036d60048036038101906103689190612588565b610d8a565b60405161037a91906125f6565b60405180910390f35b34801561038f57600080fd5b50610398610e10565b6040516103a591906128f5565b60405180910390f35b3480156103ba57600080fd5b506103d560048036038101906103d09190612910565b610e16565b6040516103e291906128f5565b60405180910390f35b3480156103f757600080fd5b50610400610ecd565b005b34801561040e57600080fd5b50610417610ee1565b60405161042491906128f5565b60405180910390f35b34801561043957600080fd5b50610442610ee8565b60405161044f91906125f6565b60405180910390f35b34801561046457600080fd5b5061046d610f12565b60405161047a91906128f5565b60405180910390f35b34801561048f57600080fd5b50610498610f1c565b6040516104a59190612530565b60405180910390f35b3480156104ba57600080fd5b506104d560048036038101906104d09190612969565b610fae565b005b3480156104e357600080fd5b506104fe60048036038101906104f991906129a9565b610fc4565b005b34801561050c57600080fd5b5061052760048036038101906105229190612588565b611026565b6040516105349190612530565b60405180910390f35b34801561054957600080fd5b506105526110a4565b60405161055f9190612b84565b60405180910390f35b34801561057457600080fd5b5061057d611256565b60405161058a9190612530565b60405180910390f35b34801561059f57600080fd5b506105a86112e4565b6040516105b591906128f5565b60405180910390f35b3480156105ca57600080fd5b506105e560048036038101906105e09190612ba6565b6112ea565b6040516105f29190612485565b60405180910390f35b34801561060757600080fd5b5061061061137e565b60405161061d91906125f6565b60405180910390f35b34801561063257600080fd5b5061064d60048036038101906106489190612910565b6113a4565b005b34801561065b57600080fd5b50610664611427565b6040516106719190612c45565b60405180910390f35b60007f80ac58cd000000000000000000000000000000000000000000000000000000007bffffffffffffffffffffffffffffffffffffffffffffffffffffffff1916827bffffffffffffffffffffffffffffffffffffffffffffffffffffffff1916148061074557507f5b5e139f000000000000000000000000000000000000000000000000000000007bffffffffffffffffffffffffffffffffffffffffffffffffffffffff1916827bffffffffffffffffffffffffffffffffffffffffffffffffffffffff1916145b8061075557506107548261144d565b5b9050919050565b60606000805461076b90612c8f565b80601f016020809104026020016040519081016040528092919081815260200182805461079790612c8f565b80156107e45780601f106107b9576101008083540402835291602001916107e4565b820191906000526020600020905b8154815290600101906020018083116107c757829003601f168201915b5050505050905090565b60006107f9826114b7565b6004600083815260200190815260200160002060009054906101000a900473ffffffffffffffffffffffffffffffffffffffff169050919050565b600061083f82610d8a565b90508073ffffffffffffffffffffffffffffffffffffffff168373ffffffffffffffffffffffffffffffffffffffff16036108af576040517f08c379a00000000000000000000000000000000000000000000000000000000081526004016108a690612d32565b60405180910390fd5b8073ffffffffffffffffffffffffffffffffffffffff166108ce611502565b73ffffffffffffffffffffffffffffffffffffffff1614806108fd57506108fc816108f7611502565b6112ea565b5b61093c576040517f08c379a000000000000000000000000000000000000000000000000000000000815260040161093390612dc4565b60405180910390fd5b610946838361150a565b505050565b61095c610956611502565b826115c3565b61099b576040517f08c379a000000000000000000000000000000000000000000000000000000000815260040161099290612e56565b60405180910390fd5b6109a6838383611658565b505050565b600e816103e881106109bc57600080fd5b600202016000915090508060000160009054906101000a900473ffffffffffffffffffffffffffffffffffffffff16908060010180546109fb90612c8f565b80601f0160208091040260200160405190810160405280929190818152602001828054610a2790612c8f565b8015610a745780601f10610a4957610100808354040283529160200191610a74565b820191906000526020600020905b815481529060010190602001808311610a5757829003601f168201915b5050505050905082565b610a86611951565b600c54421015610acb576040517f08c379a0000000000000000000000000000000000000000000000000000000008152600401610ac290612ec2565b60405180910390fd5b600a54341015610b10576040517f08c379a0000000000000000000000000000000000000000000000000000000008152600401610b0790612f2e565b60405180910390fd5b60086000815480929190610b2390612f7d565b9190505550610b34826008546119a0565b6103e86107de5411610c8e5760405180604001604052803373ffffffffffffffffffffffffffffffffffffffff16815260200182815250600e6107de546103e88110610b8357610b82612fc5565b5b6002020160008201518160000160006101000a81548173ffffffffffffffffffffffffffffffffffffffff021916908373ffffffffffffffffffffffffffffffffffffffff1602179055506020820151816001019081610be39190613196565b509050506107de6000815480929190610bfb90612f7d565b9190505550600d60009054906101000a900473ffffffffffffffffffffffffffffffffffffffff1673ffffffffffffffffffffffffffffffffffffffff1663b1d17c98836040518263ffffffff1660e01b8152600401610c5b91906125f6565b600060405180830381600087803b158015610c7557600080fd5b505af1158015610c89573d6000803e3d6000fd5b505050505b600a54341115610ced573373ffffffffffffffffffffffffffffffffffffffff166108fc600a5434610cc09190613268565b9081150290604051600060405180830381858888f19350505050158015610ceb573d6000803e3d6000fd5b505b600960009054906101000a900473ffffffffffffffffffffffffffffffffffffffff1673ffffffffffffffffffffffffffffffffffffffff166108fc600a549081150290604051600060405180830381858888f19350505050158015610d57573d6000803e3d6000fd5b50610d606119be565b5050565b610d7f83838360405180602001604052806000815250610fc4565b505050565b60085481565b600080610d96836119c8565b9050600073ffffffffffffffffffffffffffffffffffffffff168173ffffffffffffffffffffffffffffffffffffffff1603610e07576040517f08c379a0000000000000000000000000000000000000000000000000000000008152600401610dfe906132e8565b60405180910390fd5b80915050919050565b600a5481565b60008073ffffffffffffffffffffffffffffffffffffffff168273ffffffffffffffffffffffffffffffffffffffff1603610e86576040517f08c379a0000000000000000000000000000000000000000000000000000000008152600401610e7d9061337a565b60405180910390fd5b600360008373ffffffffffffffffffffffffffffffffffffffff1673ffffffffffffffffffffffffffffffffffffffff168152602001908152602001600020549050919050565b610ed5611a05565b610edf6000611a83565b565b6107de5481565b6000600660009054906101000a900473ffffffffffffffffffffffffffffffffffffffff16905090565b6000600854905090565b606060018054610f2b90612c8f565b80601f0160208091040260200160405190810160405280929190818152602001828054610f5790612c8f565b8015610fa45780601f10610f7957610100808354040283529160200191610fa4565b820191906000526020600020905b815481529060010190602001808311610f8757829003601f168201915b5050505050905090565b610fc0610fb9611502565b8383611b49565b5050565b610fd5610fcf611502565b836115c3565b611014576040517f08c379a000000000000000000000000000000000000000000000000000000000815260040161100b90612e56565b60405180910390fd5b61102084848484611cb5565b50505050565b606061103182611d11565b61107257816040517fed15e6cf00000000000000000000000000000000000000000000000000000000815260040161106991906128f5565b60405180910390fd5b600b61107d83611d52565b60405160200161108e92919061346e565b6040516020818303038152906040529050919050565b60606110ae611a05565b60006107de5467ffffffffffffffff8111156110cd576110cc61275f565b5b60405190808252806020026020018201604052801561110657816020015b6110f36123a1565b8152602001906001900390816110eb5790505b50905060005b6107de5481101561124e57600e816103e8811061112c5761112b612fc5565b5b600202016040518060400160405290816000820160009054906101000a900473ffffffffffffffffffffffffffffffffffffffff1673ffffffffffffffffffffffffffffffffffffffff1673ffffffffffffffffffffffffffffffffffffffff1681526020016001820180546111a190612c8f565b80601f01602080910402602001604051908101604052809291908181526020018280546111cd90612c8f565b801561121a5780601f106111ef5761010080835404028352916020019161121a565b820191906000526020600020905b8154815290600101906020018083116111fd57829003601f168201915b50505050508152505082828151811061123657611235612fc5565b5b6020026020010181905250808060010191505061110c565b508091505090565b600b805461126390612c8f565b80601f016020809104026020016040519081016040528092919081815260200182805461128f90612c8f565b80156112dc5780601f106112b1576101008083540402835291602001916112dc565b820191906000526020600020905b8154815290600101906020018083116112bf57829003601f168201915b505050505081565b600c5481565b6000600560008473ffffffffffffffffffffffffffffffffffffffff1673ffffffffffffffffffffffffffffffffffffffff16815260200190815260200160002060008373ffffffffffffffffffffffffffffffffffffffff1673ffffffffffffffffffffffffffffffffffffffff16815260200190815260200160002060009054906101000a900460ff16905092915050565b600960009054906101000a900473ffffffffffffffffffffffffffffffffffffffff1681565b6113ac611a05565b600073ffffffffffffffffffffffffffffffffffffffff168173ffffffffffffffffffffffffffffffffffffffff160361141b576040517f08c379a000000000000000000000000000000000000000000000000000000000815260040161141290613504565b60405180910390fd5b61142481611a83565b50565b600d60009054906101000a900473ffffffffffffffffffffffffffffffffffffffff1681565b60007f01ffc9a7000000000000000000000000000000000000000000000000000000007bffffffffffffffffffffffffffffffffffffffffffffffffffffffff1916827bffffffffffffffffffffffffffffffffffffffffffffffffffffffff1916149050919050565b6114c081611d11565b6114ff576040517f08c379a00000000000000000000000000000000000000000000000000000000081526004016114f6906132e8565b60405180910390fd5b50565b600033905090565b816004600083815260200190815260200160002060006101000a81548173ffffffffffffffffffffffffffffffffffffffff021916908373ffffffffffffffffffffffffffffffffffffffff160217905550808273ffffffffffffffffffffffffffffffffffffffff1661157d83610d8a565b73ffffffffffffffffffffffffffffffffffffffff167f8c5be1e5ebec7d5bd14f71427d1e84f3dd0314c0f7b2291e5b200ac8c7c3b92560405160405180910390a45050565b6000806115cf83610d8a565b90508073ffffffffffffffffffffffffffffffffffffffff168473ffffffffffffffffffffffffffffffffffffffff161480611611575061161081856112ea565b5b8061164f57508373ffffffffffffffffffffffffffffffffffffffff16611637846107ee565b73ffffffffffffffffffffffffffffffffffffffff16145b91505092915050565b8273ffffffffffffffffffffffffffffffffffffffff1661167882610d8a565b73ffffffffffffffffffffffffffffffffffffffff16146116ce576040517f08c379a00000000000000000000000000000000000000000000000000000000081526004016116c590613596565b60405180910390fd5b600073ffffffffffffffffffffffffffffffffffffffff168273ffffffffffffffffffffffffffffffffffffffff160361173d576040517f08c379a000000000000000000000000000000000000000000000000000000000815260040161173490613628565b60405180910390fd5b61174a8383836001611e20565b8273ffffffffffffffffffffffffffffffffffffffff1661176a82610d8a565b73ffffffffffffffffffffffffffffffffffffffff16146117c0576040517f08c379a00000000000000000000000000000000000000000000000000000000081526004016117b790613596565b60405180910390fd5b6004600082815260200190815260200160002060006101000a81549073ffffffffffffffffffffffffffffffffffffffff02191690556001600360008573ffffffffffffffffffffffffffffffffffffffff1673ffffffffffffffffffffffffffffffffffffffff168152602001908152602001600020600082825403925050819055506001600360008473ffffffffffffffffffffffffffffffffffffffff1673ffffffffffffffffffffffffffffffffffffffff16815260200190815260200160002060008282540192505081905550816002600083815260200190815260200160002060006101000a81548173ffffffffffffffffffffffffffffffffffffffff021916908373ffffffffffffffffffffffffffffffffffffffff160217905550808273ffffffffffffffffffffffffffffffffffffffff168473ffffffffffffffffffffffffffffffffffffffff167fddf252ad1be2c89b69c2b068fc378daa952ba7f163c4a11628f55a4df523b3ef60405160405180910390a461194c8383836001611e26565b505050565b600260075403611996576040517f08c379a000000000000000000000000000000000000000000000000000000000815260040161198d90613694565b60405180910390fd5b6002600781905550565b6119ba828260405180602001604052806000815250611e2c565b5050565b6001600781905550565b60006002600083815260200190815260200160002060009054906101000a900473ffffffffffffffffffffffffffffffffffffffff169050919050565b611a0d611502565b73ffffffffffffffffffffffffffffffffffffffff16611a2b610ee8565b73ffffffffffffffffffffffffffffffffffffffff1614611a81576040517f08c379a0000000000000000000000000000000000000000000000000000000008152600401611a7890613700565b60405180910390fd5b565b6000600660009054906101000a900473ffffffffffffffffffffffffffffffffffffffff16905081600660006101000a81548173ffffffffffffffffffffffffffffffffffffffff021916908373ffffffffffffffffffffffffffffffffffffffff1602179055508173ffffffffffffffffffffffffffffffffffffffff168173ffffffffffffffffffffffffffffffffffffffff167f8be0079c531659141344cd1fd0a4f28419497f9722a3daafe3b4186f6b6457e060405160405180910390a35050565b8173ffffffffffffffffffffffffffffffffffffffff168373ffffffffffffffffffffffffffffffffffffffff1603611bb7576040517f08c379a0000000000000000000000000000000000000000000000000000000008152600401611bae9061376c565b60405180910390fd5b80600560008573ffffffffffffffffffffffffffffffffffffffff1673ffffffffffffffffffffffffffffffffffffffff16815260200190815260200160002060008473ffffffffffffffffffffffffffffffffffffffff1673ffffffffffffffffffffffffffffffffffffffff16815260200190815260200160002060006101000a81548160ff0219169083151502179055508173ffffffffffffffffffffffffffffffffffffffff168373ffffffffffffffffffffffffffffffffffffffff167f17307eab39ab6107e8899845ad3d59bd9653f200f220920489ca2b5937696c3183604051611ca89190612485565b60405180910390a3505050565b611cc0848484611658565b611ccc84848484611e87565b611d0b576040517f08c379a0000000000000000000000000000000000000000000000000000000008152600401611d02906137fe565b60405180910390fd5b50505050565b60008073ffffffffffffffffffffffffffffffffffffffff16611d33836119c8565b73ffffffffffffffffffffffffffffffffffffffff1614159050919050565b606060006001611d618461200e565b01905060008167ffffffffffffffff811115611d8057611d7f61275f565b5b6040519080825280601f01601f191660200182016040528015611db25781602001600182028036833780820191505090505b509050600082602001820190505b600115611e15578080600190039150507f3031323334353637383961626364656600000000000000000000000000000000600a86061a8153600a8581611e0957611e0861381e565b5b04945060008503611dc0575b819350505050919050565b50505050565b50505050565b611e368383612161565b611e436000848484611e87565b611e82576040517f08c379a0000000000000000000000000000000000000000000000000000000008152600401611e79906137fe565b60405180910390fd5b505050565b6000611ea88473ffffffffffffffffffffffffffffffffffffffff1661237e565b15612001578373ffffffffffffffffffffffffffffffffffffffff1663150b7a02611ed1611502565b8786866040518563ffffffff1660e01b8152600401611ef3949392919061384d565b6020604051808303816000875af1925050508015611f2f57506040513d601f19601f82011682018060405250810190611f2c91906138ae565b60015b611fb1573d8060008114611f5f576040519150601f19603f3d011682016040523d82523d6000602084013e611f64565b606091505b506000815103611fa9576040517f08c379a0000000000000000000000000000000000000000000000000000000008152600401611fa0906137fe565b60405180910390fd5b805181602001fd5b63150b7a0260e01b7bffffffffffffffffffffffffffffffffffffffffffffffffffffffff1916817bffffffffffffffffffffffffffffffffffffffffffffffffffffffff191614915050612006565b600190505b949350505050565b600080600090507a184f03e93ff9f4daa797ed6e38ed64bf6a1f010000000000000000831061206c577a184f03e93ff9f4daa797ed6e38ed64bf6a1f01000000000000000083816120625761206161381e565b5b0492506040810190505b6d04ee2d6d415b85acef810000000083106120a9576d04ee2d6d415b85acef8100000000838161209f5761209e61381e565b5b0492506020810190505b662386f26fc1000083106120d857662386f26fc1000083816120ce576120cd61381e565b5b0492506010810190505b6305f5e1008310612101576305f5e10083816120f7576120f661381e565b5b0492506008810190505b612710831061212657612710838161211c5761211b61381e565b5b0492506004810190505b60648310612149576064838161213f5761213e61381e565b5b0492506002810190505b600a8310612158576001810190505b80915050919050565b600073ffffffffffffffffffffffffffffffffffffffff168273ffffffffffffffffffffffffffffffffffffffff16036121d0576040517f08c379a00000000000000000000000000000000000000000000000000000000081526004016121c790613927565b60405180910390fd5b6121d981611d11565b15612219576040517f08c379a000000000000000000000000000000000000000000000000000000000815260040161221090613993565b60405180910390fd5b612227600083836001611e20565b61223081611d11565b15612270576040517f08c379a000000000000000000000000000000000000000000000000000000000815260040161226790613993565b60405180910390fd5b6001600360008473ffffffffffffffffffffffffffffffffffffffff1673ffffffffffffffffffffffffffffffffffffffff16815260200190815260200160002060008282540192505081905550816002600083815260200190815260200160002060006101000a81548173ffffffffffffffffffffffffffffffffffffffff021916908373ffffffffffffffffffffffffffffffffffffffff160217905550808273ffffffffffffffffffffffffffffffffffffffff16600073ffffffffffffffffffffffffffffffffffffffff167fddf252ad1be2c89b69c2b068fc378daa952ba7f163c4a11628f55a4df523b3ef60405160405180910390a461237a600083836001611e26565b5050565b6000808273ffffffffffffffffffffffffffffffffffffffff163b119050919050565b6040518060400160405280600073ffffffffffffffffffffffffffffffffffffffff168152602001606081525090565b6000604051905090565b600080fd5b600080fd5b60007fffffffff0000000000000000000000000000000000000000000000000000000082169050919050565b61241a816123e5565b811461242557600080fd5b50565b60008135905061243781612411565b92915050565b600060208284031215612453576124526123db565b5b600061246184828501612428565b91505092915050565b60008115159050919050565b61247f8161246a565b82525050565b600060208201905061249a6000830184612476565b92915050565b600081519050919050565b600082825260208201905092915050565b60005b838110156124da5780820151818401526020810190506124bf565b60008484015250505050565b6000601f19601f8301169050919050565b6000612502826124a0565b61250c81856124ab565b935061251c8185602086016124bc565b612525816124e6565b840191505092915050565b6000602082019050818103600083015261254a81846124f7565b905092915050565b6000819050919050565b61256581612552565b811461257057600080fd5b50565b6000813590506125828161255c565b92915050565b60006020828403121561259e5761259d6123db565b5b60006125ac84828501612573565b91505092915050565b600073ffffffffffffffffffffffffffffffffffffffff82169050919050565b60006125e0826125b5565b9050919050565b6125f0816125d5565b82525050565b600060208201905061260b60008301846125e7565b92915050565b61261a816125d5565b811461262557600080fd5b50565b60008135905061263781612611565b92915050565b60008060408385031215612654576126536123db565b5b600061266285828601612628565b925050602061267385828601612573565b9150509250929050565b600080600060608486031215612696576126956123db565b5b60006126a486828701612628565b93505060206126b586828701612628565b92505060406126c686828701612573565b9150509250925092565b600081519050919050565b600082825260208201905092915050565b60006126f7826126d0565b61270181856126db565b93506127118185602086016124bc565b61271a816124e6565b840191505092915050565b600060408201905061273a60008301856125e7565b818103602083015261274c81846126ec565b90509392505050565b600080fd5b600080fd5b7f4e487b7100000000000000000000000000000000000000000000000000000000600052604160045260246000fd5b612797826124e6565b810181811067ffffffffffffffff821117156127b6576127b561275f565b5b80604052505050565b60006127c96123d1565b90506127d5828261278e565b919050565b600067ffffffffffffffff8211156127f5576127f461275f565b5b6127fe826124e6565b9050602081019050919050565b82818337600083830152505050565b600061282d612828846127da565b6127bf565b9050828152602081018484840111156128495761284861275a565b5b61285484828561280b565b509392505050565b600082601f83011261287157612870612755565b5b813561288184826020860161281a565b91505092915050565b600080604083850312156128a1576128a06123db565b5b60006128af85828601612628565b925050602083013567ffffffffffffffff8111156128d0576128cf6123e0565b5b6128dc8582860161285c565b9150509250929050565b6128ef81612552565b82525050565b600060208201905061290a60008301846128e6565b92915050565b600060208284031215612926576129256123db565b5b600061293484828501612628565b91505092915050565b6129468161246a565b811461295157600080fd5b50565b6000813590506129638161293d565b92915050565b600080604083850312156129805761297f6123db565b5b600061298e85828601612628565b925050602061299f85828601612954565b9150509250929050565b600080600080608085870312156129c3576129c26123db565b5b60006129d187828801612628565b94505060206129e287828801612628565b93505060406129f387828801612573565b925050606085013567ffffffffffffffff811115612a1457612a136123e0565b5b612a208782880161285c565b91505092959194509250565b600081519050919050565b600082825260208201905092915050565b6000819050602082019050919050565b612a61816125d5565b82525050565b600082825260208201905092915050565b6000612a83826126d0565b612a8d8185612a67565b9350612a9d8185602086016124bc565b612aa6816124e6565b840191505092915050565b6000604083016000830151612ac96000860182612a58565b5060208301518482036020860152612ae18282612a78565b9150508091505092915050565b6000612afa8383612ab1565b905092915050565b6000602082019050919050565b6000612b1a82612a2c565b612b248185612a37565b935083602082028501612b3685612a48565b8060005b85811015612b725784840389528151612b538582612aee565b9450612b5e83612b02565b925060208a01995050600181019050612b3a565b50829750879550505050505092915050565b60006020820190508181036000830152612b9e8184612b0f565b905092915050565b60008060408385031215612bbd57612bbc6123db565b5b6000612bcb85828601612628565b9250506020612bdc85828601612628565b9150509250929050565b6000819050919050565b6000612c0b612c06612c01846125b5565b612be6565b6125b5565b9050919050565b6000612c1d82612bf0565b9050919050565b6000612c2f82612c12565b9050919050565b612c3f81612c24565b82525050565b6000602082019050612c5a6000830184612c36565b92915050565b7f4e487b7100000000000000000000000000000000000000000000000000000000600052602260045260246000fd5b60006002820490506001821680612ca757607f821691505b602082108103612cba57612cb9612c60565b5b50919050565b7f4552433732313a20617070726f76616c20746f2063757272656e74206f776e6560008201527f7200000000000000000000000000000000000000000000000000000000000000602082015250565b6000612d1c6021836124ab565b9150612d2782612cc0565b604082019050919050565b60006020820190508181036000830152612d4b81612d0f565b9050919050565b7f4552433732313a20617070726f76652063616c6c6572206973206e6f7420746f60008201527f6b656e206f776e6572206f7220617070726f76656420666f7220616c6c000000602082015250565b6000612dae603d836124ab565b9150612db982612d52565b604082019050919050565b60006020820190508181036000830152612ddd81612da1565b9050919050565b7f4552433732313a2063616c6c6572206973206e6f7420746f6b656e206f776e6560008201527f72206f7220617070726f76656400000000000000000000000000000000000000602082015250565b6000612e40602d836124ab565b9150612e4b82612de4565b604082019050919050565b60006020820190508181036000830152612e6f81612e33565b9050919050565b7f4d696e74696e6720686173206e6f742073746172746564207965740000000000600082015250565b6000612eac601b836124ab565b9150612eb782612e76565b602082019050919050565b60006020820190508181036000830152612edb81612e9f565b9050919050565b7f496e73756666696369656e742066656500000000000000000000000000000000600082015250565b6000612f186010836124ab565b9150612f2382612ee2565b602082019050919050565b60006020820190508181036000830152612f4781612f0b565b9050919050565b7f4e487b7100000000000000000000000000000000000000000000000000000000600052601160045260246000fd5b6000612f8882612552565b91507fffffffffffffffffffffffffffffffffffffffffffffffffffffffffffffffff8203612fba57612fb9612f4e565b5b600182019050919050565b7f4e487b7100000000000000000000000000000000000000000000000000000000600052603260045260246000fd5b60008190508160005260206000209050919050565b60006020601f8301049050919050565b600082821b905092915050565b6000600883026130567fffffffffffffffffffffffffffffffffffffffffffffffffffffffffffffffff82613019565b6130608683613019565b95508019841693508086168417925050509392505050565b600061309361308e61308984612552565b612be6565b612552565b9050919050565b6000819050919050565b6130ad83613078565b6130c16130b98261309a565b848454613026565b825550505050565b600090565b6130d66130c9565b6130e18184846130a4565b505050565b5b81811015613105576130fa6000826130ce565b6001810190506130e7565b5050565b601f82111561314a5761311b81612ff4565b61312484613009565b81016020851015613133578190505b61314761313f85613009565b8301826130e6565b50505b505050565b600082821c905092915050565b600061316d6000198460080261314f565b1980831691505092915050565b6000613186838361315c565b9150826002028217905092915050565b61319f826126d0565b67ffffffffffffffff8111156131b8576131b761275f565b5b6131c28254612c8f565b6131cd828285613109565b600060209050601f83116001811461320057600084156131ee578287015190505b6131f8858261317a565b865550613260565b601f19841661320e86612ff4565b60005b8281101561323657848901518255600182019150602085019450602081019050613211565b86831015613253578489015161324f601f89168261315c565b8355505b6001600288020188555050505b505050505050565b600061327382612552565b915061327e83612552565b925082820390508181111561329657613295612f4e565b5b92915050565b7f4552433732313a20696e76616c696420746f6b656e2049440000000000000000600082015250565b60006132d26018836124ab565b91506132dd8261329c565b602082019050919050565b60006020820190508181036000830152613301816132c5565b9050919050565b7f4552433732313a2061646472657373207a65726f206973206e6f74206120766160008201527f6c6964206f776e65720000000000000000000000000000000000000000000000602082015250565b60006133646029836124ab565b915061336f82613308565b604082019050919050565b6000602082019050818103600083015261339381613357565b9050919050565b600081905092915050565b60008190508160005260206000209050919050565b600081546133c781612c8f565b6133d1818661339a565b945060018216600081146133ec576001811461340157613434565b60ff1983168652811515820286019350613434565b61340a856133a5565b60005b8381101561342c5781548189015260018201915060208101905061340d565b838801955050505b50505092915050565b6000613448826124a0565b613452818561339a565b93506134628185602086016124bc565b80840191505092915050565b600061347a82856133ba565b9150613486828461343d565b91508190509392505050565b7f4f776e61626c653a206e6577206f776e657220697320746865207a65726f206160008201527f6464726573730000000000000000000000000000000000000000000000000000602082015250565b60006134ee6026836124ab565b91506134f982613492565b604082019050919050565b6000602082019050818103600083015261351d816134e1565b9050919050565b7f4552433732313a207472616e736665722066726f6d20696e636f72726563742060008201527f6f776e6572000000000000000000000000000000000000000000000000000000602082015250565b60006135806025836124ab565b915061358b82613524565b604082019050919050565b600060208201905081810360008301526135af81613573565b9050919050565b7f4552433732313a207472616e7366657220746f20746865207a65726f2061646460008201527f7265737300000000000000000000000000000000000000000000000000000000602082015250565b60006136126024836124ab565b915061361d826135b6565b604082019050919050565b6000602082019050818103600083015261364181613605565b9050919050565b7f5265656e7472616e637947756172643a207265656e7472616e742063616c6c00600082015250565b600061367e601f836124ab565b915061368982613648565b602082019050919050565b600060208201905081810360008301526136ad81613671565b9050919050565b7f4f776e61626c653a2063616c6c6572206973206e6f7420746865206f776e6572600082015250565b60006136ea6020836124ab565b91506136f5826136b4565b602082019050919050565b60006020820190508181036000830152613719816136dd565b9050919050565b7f4552433732313a20617070726f766520746f2063616c6c657200000000000000600082015250565b60006137566019836124ab565b915061376182613720565b602082019050919050565b6000602082019050818103600083015261378581613749565b9050919050565b7f4552433732313a207472616e7366657220746f206e6f6e20455243373231526560008201527f63656976657220696d706c656d656e7465720000000000000000000000000000602082015250565b60006137e86032836124ab565b91506137f38261378c565b604082019050919050565b60006020820190508181036000830152613817816137db565b9050919050565b7f4e487b7100000000000000000000000000000000000000000000000000000000600052601260045260246000fd5b600060808201905061386260008301876125e7565b61386f60208301866125e7565b61387c60408301856128e6565b818103606083015261388e81846126ec565b905095945050505050565b6000815190506138a881612411565b92915050565b6000602082840312156138c4576138c36123db565b5b60006138d284828501613899565b91505092915050565b7f4552433732313a206d696e7420746f20746865207a65726f2061646472657373600082015250565b60006139116020836124ab565b915061391c826138db565b602082019050919050565b6000602082019050818103600083015261394081613904565b9050919050565b7f4552433732313a20746f6b656e20616c7265616479206d696e74656400000000600082015250565b600061397d601c836124ab565b915061398882613947565b602082019050919050565b600060208201905081810360008301526139ac81613970565b905091905056fea26469706673582212205f67f5eb4aa19fba9ed1b6b4f5f676abf4fee88278fb898f4a6b2b3ceb60a88c64736f6c63430008180033",
  "linkReferences": {},
  "deployedLinkReferences": {}
}