{
  "_format": "hh-sol-artifact-1",
  "contractName": "GoldengNFT",
  "sourceName": "contracts/GoldengNFT.sol",
  "abi": [
    {
      "inputs": [
        {
          "internalType": "address",
          "name": "_feeWallet",
          "type": "address"
        },
        {
          "internalType": "uint256",
          "name": "_feeAmount",
          "type": "uint256"
        },
        {
          "internalType": "string",
          "name": "_baseTokenURI",
          "type": "string"
        }
      ],
      "stateMutability": "nonpayable",
      "type": "constructor"
    },
    {
      "inputs": [],
      "name": "ArrayFull",
      "type": "error"
    },
    {
      "inputs": [
        {
          "internalType": "uint256",
          "name": "tokenId",
          "type": "uint256"
        }
      ],
      "name": "InvalidTokenId",
      "type": "error"
    },
    {
      "anonymous": false,
      "inputs": [
        {
          "indexed": true,
          "internalType": "address",
          "name": "owner",
          "type": "address"
        },
        {
          "indexed": true,
          "internalType": "address",
          "name": "approved",
          "type": "address"
        },
        {
          "indexed": true,
          "internalType": "uint256",
          "name": "tokenId",
          "type": "uint256"
        }
      ],
      "name": "Approval",
      "type": "event"
    },
    {
      "anonymous": false,
      "inputs": [
        {
          "indexed": true,
          "internalType": "address",
          "name": "owner",
          "type": "address"
        },
        {
          "indexed": true,
          "internalType": "address",
          "name": "operator",
          "type": "address"
        },
        {
          "indexed": false,
          "internalType": "bool",
          "name": "approved",
          "type": "bool"
        }
      ],
      "name": "ApprovalForAll",
      "type": "event"
    },
    {
      "anonymous": false,
      "inputs": [
        {
          "indexed": true,
          "internalType": "address",
          "name": "previousOwner",
          "type": "address"
        },
        {
          "indexed": true,
          "internalType": "address",
          "name": "newOwner",
          "type": "address"
        }
      ],
      "name": "OwnershipTransferred",
      "type": "event"
    },
    {
      "anonymous": false,
      "inputs": [
        {
          "indexed": true,
          "internalType": "address",
          "name": "from",
          "type": "address"
        },
        {
          "indexed": true,
          "internalType": "address",
          "name": "to",
          "type": "address"
        },
        {
          "indexed": true,
          "internalType": "uint256",
          "name": "tokenId",
          "type": "uint256"
        }
      ],
      "name": "Transfer",
      "type": "event"
    },
    {
      "inputs": [
        {
          "internalType": "address",
          "name": "to",
          "type": "address"
        },
        {
          "internalType": "uint256",
          "name": "tokenId",
          "type": "uint256"
        }
      ],
      "name": "approve",
      "outputs": [],
      "stateMutability": "nonpayable",
      "type": "function"
    },
    {
      "inputs": [
        {
          "internalType": "address",
          "name": "owner",
          "type": "address"
        }
      ],
      "name": "balanceOf",
      "outputs": [
        {
          "internalType": "uint256",
          "name": "",
          "type": "uint256"
        }
      ],
      "stateMutability": "view",
      "type": "function"
    },
    {
      "inputs": [],
      "name": "baseTokenURI",
      "outputs": [
        {
          "internalType": "string",
          "name": "",
          "type": "string"
        }
      ],
      "stateMutability": "view",
      "type": "function"
    },
    {
      "inputs": [],
      "name": "counter",
      "outputs": [
        {
          "internalType": "uint256",
          "name": "",
          "type": "uint256"
        }
      ],
      "stateMutability": "view",
      "type": "function"
    },
    {
      "inputs": [],
      "name": "feeAmount",
      "outputs": [
        {
          "internalType": "uint256",
          "name": "",
          "type": "uint256"
        }
      ],
      "stateMutability": "view",
      "type": "function"
    },
    {
      "inputs": [],
      "name": "feeWallet",
      "outputs": [
        {
          "internalType": "address",
          "name": "",
          "type": "address"
        }
      ],
      "stateMutability": "view",
      "type": "function"
    },
    {
      "inputs": [],
      "name": "getAllNFTInfos",
      "outputs": [
        {
          "components": [
            {
              "internalType": "address",
              "name": "minter",
              "type": "address"
            },
            {
              "internalType": "bytes",
              "name": "publicKey",
              "type": "bytes"
            }
          ],
          "internalType": "struct GoldengNFT.NFTInfo[]",
          "name": "",
          "type": "tuple[]"
        }
      ],
      "stateMutability": "view",
      "type": "function"
    },
    {
      "inputs": [
        {
          "internalType": "uint256",
          "name": "tokenId",
          "type": "uint256"
        }
      ],
      "name": "getApproved",
      "outputs": [
        {
          "internalType": "address",
          "name": "",
          "type": "address"
        }
      ],
      "stateMutability": "view",
      "type": "function"
    },
    {
      "inputs": [],
      "name": "getMintCount",
      "outputs": [
        {
          "internalType": "uint256",
          "name": "",
          "type": "uint256"
        }
      ],
      "stateMutability": "view",
      "type": "function"
    },
    {
      "inputs": [
        {
          "internalType": "uint256",
          "name": "index",
          "type": "uint256"
        }
      ],
      "name": "getNFTInfo",
      "outputs": [
        {
          "components": [
            {
              "internalType": "address",
              "name": "minter",
              "type": "address"
            },
            {
              "internalType": "bytes",
              "name": "publicKey",
              "type": "bytes"
            }
          ],
          "internalType": "struct GoldengNFT.NFTInfo",
          "name": "",
          "type": "tuple"
        }
      ],
      "stateMutability": "view",
      "type": "function"
    },
    {
      "inputs": [
        {
          "internalType": "address",
          "name": "owner",
          "type": "address"
        },
        {
          "internalType": "address",
          "name": "operator",
          "type": "address"
        }
      ],
      "name": "isApprovedForAll",
      "outputs": [
        {
          "internalType": "bool",
          "name": "",
          "type": "bool"
        }
      ],
      "stateMutability": "view",
      "type": "function"
    },
    {
      "inputs": [
        {
          "internalType": "address",
          "name": "_to",
          "type": "address"
        },
        {
          "internalType": "bytes",
          "name": "_publicKey",
          "type": "bytes"
        }
      ],
      "name": "mintTo",
      "outputs": [],
      "stateMutability": "payable",
      "type": "function"
    },
    {
      "inputs": [],
      "name": "name",
      "outputs": [
        {
          "internalType": "string",
          "name": "",
          "type": "string"
        }
      ],
      "stateMutability": "view",
      "type": "function"
    },
    {
      "inputs": [
        {
          "internalType": "uint256",
          "name": "",
          "type": "uint256"
        }
      ],
      "name": "nftInfoArray",
      "outputs": [
        {
          "internalType": "address",
          "name": "minter",
          "type": "address"
        },
        {
          "internalType": "bytes",
          "name": "publicKey",
          "type": "bytes"
        }
      ],
      "stateMutability": "view",
      "type": "function"
    },
    {
      "inputs": [],
      "name": "owner",
      "outputs": [
        {
          "internalType": "address",
          "name": "",
          "type": "address"
        }
      ],
      "stateMutability": "view",
      "type": "function"
    },
    {
      "inputs": [
        {
          "internalType": "uint256",
          "name": "tokenId",
          "type": "uint256"
        }
      ],
      "name": "ownerOf",
      "outputs": [
        {
          "internalType": "address",
          "name": "",
          "type": "address"
        }
      ],
      "stateMutability": "view",
      "type": "function"
    },
    {
      "inputs": [],
      "name": "renounceOwnership",
      "outputs": [],
      "stateMutability": "nonpayable",
      "type": "function"
    },
    {
      "inputs": [
        {
          "internalType": "address",
          "name": "from",
          "type": "address"
        },
        {
          "internalType": "address",
          "name": "to",
          "type": "address"
        },
        {
          "internalType": "uint256",
          "name": "tokenId",
          "type": "uint256"
        }
      ],
      "name": "safeTransferFrom",
      "outputs": [],
      "stateMutability": "nonpayable",
      "type": "function"
    },
    {
      "inputs": [
        {
          "internalType": "address",
          "name": "from",
          "type": "address"
        },
        {
          "internalType": "address",
          "name": "to",
          "type": "address"
        },
        {
          "internalType": "uint256",
          "name": "tokenId",
          "type": "uint256"
        },
        {
          "internalType": "bytes",
          "name": "data",
          "type": "bytes"
        }
      ],
      "name": "safeTransferFrom",
      "outputs": [],
      "stateMutability": "nonpayable",
      "type": "function"
    },
    {
      "inputs": [
        {
          "internalType": "address",
          "name": "operator",
          "type": "address"
        },
        {
          "internalType": "bool",
          "name": "approved",
          "type": "bool"
        }
      ],
      "name": "setApprovalForAll",
      "outputs": [],
      "stateMutability": "nonpayable",
      "type": "function"
    },
    {
      "inputs": [],
      "name": "storedNFTCount",
      "outputs": [
        {
          "internalType": "uint256",
          "name": "",
          "type": "uint256"
        }
      ],
      "stateMutability": "view",
      "type": "function"
    },
    {
      "inputs": [
        {
          "internalType": "bytes4",
          "name": "interfaceId",
          "type": "bytes4"
        }
      ],
      "name": "supportsInterface",
      "outputs": [
        {
          "internalType": "bool",
          "name": "",
          "type": "bool"
        }
      ],
      "stateMutability": "view",
      "type": "function"
    },
    {
      "inputs": [],
      "name": "symbol",
      "outputs": [
        {
          "internalType": "string",
          "name": "",
          "type": "string"
        }
      ],
      "stateMutability": "view",
      "type": "function"
    },
    {
      "inputs": [
        {
          "internalType": "uint256",
          "name": "tokenId",
          "type": "uint256"
        }
      ],
      "name": "tokenURI",
      "outputs": [
        {
          "internalType": "string",
          "name": "",
          "type": "string"
        }
      ],
      "stateMutability": "view",
      "type": "function"
    },
    {
      "inputs": [
        {
          "internalType": "address",
          "name": "from",
          "type": "address"
        },
        {
          "internalType": "address",
          "name": "to",
          "type": "address"
        },
        {
          "internalType": "uint256",
          "name": "tokenId",
          "type": "uint256"
        }
      ],
      "name": "transferFrom",
      "outputs": [],
      "stateMutability": "nonpayable",
      "type": "function"
    },
    {
      "inputs": [
        {
          "internalType": "address",
          "name": "newOwner",
          "type": "address"
        }
      ],
      "name": "transferOwnership",
      "outputs": [],
      "stateMutability": "nonpayable",
      "type": "function"
    }
  ],
  "bytecode": "0x60806040523480156200001157600080fd5b50604051620040cf380380620040cf83398181016040528101906200003791906200044d565b6040518060400160405280600781526020017f476f6c64656e47000000000000000000000000000000000000000000000000008152506040518060400160405280600281526020017f47470000000000000000000000000000000000000000000000000000000000008152508160009081620000b4919062000709565b508060019081620000c6919062000709565b505050620000e9620000dd6200014c60201b60201c565b6200015460201b60201c565b82600860006101000a81548173ffffffffffffffffffffffffffffffffffffffff021916908373ffffffffffffffffffffffffffffffffffffffff1602179055508160098190555080600a908162000142919062000709565b50505050620007f0565b600033905090565b6000600660009054906101000a900473ffffffffffffffffffffffffffffffffffffffff16905081600660006101000a81548173ffffffffffffffffffffffffffffffffffffffff021916908373ffffffffffffffffffffffffffffffffffffffff1602179055508173ffffffffffffffffffffffffffffffffffffffff168173ffffffffffffffffffffffffffffffffffffffff167f8be0079c531659141344cd1fd0a4f28419497f9722a3daafe3b4186f6b6457e060405160405180910390a35050565b6000604051905090565b600080fd5b600080fd5b600073ffffffffffffffffffffffffffffffffffffffff82169050919050565b60006200025b826200022e565b9050919050565b6200026d816200024e565b81146200027957600080fd5b50565b6000815190506200028d8162000262565b92915050565b6000819050919050565b620002a88162000293565b8114620002b457600080fd5b50565b600081519050620002c8816200029d565b92915050565b600080fd5b600080fd5b6000601f19601f8301169050919050565b7f4e487b7100000000000000000000000000000000000000000000000000000000600052604160045260246000fd5b6200032382620002d8565b810181811067ffffffffffffffff82111715620003455762000344620002e9565b5b80604052505050565b60006200035a6200021a565b905062000368828262000318565b919050565b600067ffffffffffffffff8211156200038b576200038a620002e9565b5b6200039682620002d8565b9050602081019050919050565b60005b83811015620003c3578082015181840152602081019050620003a6565b60008484015250505050565b6000620003e6620003e0846200036d565b6200034e565b905082815260208101848484011115620004055762000404620002d3565b5b62000412848285620003a3565b509392505050565b600082601f830112620004325762000431620002ce565b5b815162000444848260208601620003cf565b91505092915050565b60008060006060848603121562000469576200046862000224565b5b600062000479868287016200027c565b93505060206200048c86828701620002b7565b925050604084015167ffffffffffffffff811115620004b057620004af62000229565b5b620004be868287016200041a565b9150509250925092565b600081519050919050565b7f4e487b7100000000000000000000000000000000000000000000000000000000600052602260045260246000fd5b600060028204905060018216806200051b57607f821691505b602082108103620005315762000530620004d3565b5b50919050565b60008190508160005260206000209050919050565b60006020601f8301049050919050565b600082821b905092915050565b6000600883026200059b7fffffffffffffffffffffffffffffffffffffffffffffffffffffffffffffffff826200055c565b620005a786836200055c565b95508019841693508086168417925050509392505050565b6000819050919050565b6000620005ea620005e4620005de8462000293565b620005bf565b62000293565b9050919050565b6000819050919050565b6200060683620005c9565b6200061e6200061582620005f1565b84845462000569565b825550505050565b600090565b6200063562000626565b62000642818484620005fb565b505050565b5b818110156200066a576200065e6000826200062b565b60018101905062000648565b5050565b601f821115620006b957620006838162000537565b6200068e846200054c565b810160208510156200069e578190505b620006b6620006ad856200054c565b83018262000647565b50505b505050565b600082821c905092915050565b6000620006de60001984600802620006be565b1980831691505092915050565b6000620006f98383620006cb565b9150826002028217905092915050565b6200071482620004c8565b67ffffffffffffffff81111562000730576200072f620002e9565b5b6200073c825462000502565b620007498282856200066e565b600060209050601f8311600181146200078157600084156200076c578287015190505b620007788582620006eb565b865550620007e8565b601f198416620007918662000537565b60005b82811015620007bb5784890151825560018201915060208501945060208101905062000794565b86831015620007db5784890151620007d7601f891682620006cb565b8355505b6001600288020188555050505b505050505050565b6138cf80620008006000396000f3fe6080604052600436106101815760003560e01c806381ffdca5116100d1578063c87b56dd1161008a578063d547cfb711610064578063d547cfb71461058a578063e985e9c5146105b5578063f25f4b56146105f2578063f2fde38b1461061d57610181565b8063c87b56dd146104e5578063ceeff14614610522578063d188929f1461054d57610181565b806381ffdca5146103e75780638da5cb5b146104125780638fc3b5491461043d57806395d89b4114610468578063a22cb46514610493578063b88d4fde146104bc57610181565b80633d3503d91161013e5780636352211e116101185780636352211e1461032b57806369e154041461036857806370a0823114610393578063715018a6146103d057610181565b80633d3503d9146102bb57806342842e0e146102d757806361bc221a1461030057610181565b806301ffc9a71461018657806306fdde03146101c3578063081812fc146101ee578063095ea7b31461022b57806323b872dd146102545780632afe352f1461027d575b600080fd5b34801561019257600080fd5b506101ad60048036038101906101a8919061240c565b610646565b6040516101ba9190612454565b60405180910390f35b3480156101cf57600080fd5b506101d8610728565b6040516101e591906124ff565b60405180910390f35b3480156101fa57600080fd5b5061021560048036038101906102109190612557565b6107ba565b60405161022291906125c5565b60405180910390f35b34801561023757600080fd5b50610252600480360381019061024d919061260c565b610800565b005b34801561026057600080fd5b5061027b6004803603810190610276919061264c565b610917565b005b34801561028957600080fd5b506102a4600480360381019061029f9190612557565b610977565b6040516102b29291906126f4565b60405180910390f35b6102d560048036038101906102d09190612859565b610a4a565b005b3480156102e357600080fd5b506102fe60048036038101906102f9919061264c565b610c4e565b005b34801561030c57600080fd5b50610315610c6e565b60405161032291906128c4565b60405180910390f35b34801561033757600080fd5b50610352600480360381019061034d9190612557565b610c74565b60405161035f91906125c5565b60405180910390f35b34801561037457600080fd5b5061037d610cfa565b60405161038a91906128c4565b60405180910390f35b34801561039f57600080fd5b506103ba60048036038101906103b591906128df565b610d00565b6040516103c791906128c4565b60405180910390f35b3480156103dc57600080fd5b506103e5610db7565b005b3480156103f357600080fd5b506103fc610dcb565b60405161040991906128c4565b60405180910390f35b34801561041e57600080fd5b50610427610dd2565b60405161043491906125c5565b60405180910390f35b34801561044957600080fd5b50610452610dfc565b60405161045f91906128c4565b60405180910390f35b34801561047457600080fd5b5061047d610e06565b60405161048a91906124ff565b60405180910390f35b34801561049f57600080fd5b506104ba60048036038101906104b59190612938565b610e98565b005b3480156104c857600080fd5b506104e360048036038101906104de9190612978565b610eae565b005b3480156104f157600080fd5b5061050c60048036038101906105079190612557565b610f10565b60405161051991906124ff565b60405180910390f35b34801561052e57600080fd5b50610537610f8e565b6040516105449190612b53565b60405180910390f35b34801561055957600080fd5b50610574600480360381019061056f9190612557565b611140565b6040516105819190612bb2565b60405180910390f35b34801561059657600080fd5b5061059f6112aa565b6040516105ac91906124ff565b60405180910390f35b3480156105c157600080fd5b506105dc60048036038101906105d79190612bd4565b611338565b6040516105e99190612454565b60405180910390f35b3480156105fe57600080fd5b506106076113cc565b60405161061491906125c5565b60405180910390f35b34801561062957600080fd5b50610644600480360381019061063f91906128df565b6113f2565b005b60007f80ac58cd000000000000000000000000000000000000000000000000000000007bffffffffffffffffffffffffffffffffffffffffffffffffffffffff1916827bffffffffffffffffffffffffffffffffffffffffffffffffffffffff1916148061071157507f5b5e139f000000000000000000000000000000000000000000000000000000007bffffffffffffffffffffffffffffffffffffffffffffffffffffffff1916827bffffffffffffffffffffffffffffffffffffffffffffffffffffffff1916145b80610721575061072082611475565b5b9050919050565b60606000805461073790612c43565b80601f016020809104026020016040519081016040528092919081815260200182805461076390612c43565b80156107b05780601f10610785576101008083540402835291602001916107b0565b820191906000526020600020905b81548152906001019060200180831161079357829003601f168201915b5050505050905090565b60006107c5826114df565b6004600083815260200190815260200160002060009054906101000a900473ffffffffffffffffffffffffffffffffffffffff169050919050565b600061080b82610c74565b90508073ffffffffffffffffffffffffffffffffffffffff168373ffffffffffffffffffffffffffffffffffffffff160361087b576040517f08c379a000000000000000000000000000000000000000000000000000000000815260040161087290612ce6565b60405180910390fd5b8073ffffffffffffffffffffffffffffffffffffffff1661089a61152a565b73ffffffffffffffffffffffffffffffffffffffff1614806108c957506108c8816108c361152a565b611338565b5b610908576040517f08c379a00000000000000000000000000000000000000000000000000000000081526004016108ff90612d78565b60405180910390fd5b6109128383611532565b505050565b61092861092261152a565b826115eb565b610967576040517f08c379a000000000000000000000000000000000000000000000000000000000815260040161095e90612e0a565b60405180910390fd5b610972838383611680565b505050565b600b816103e8811061098857600080fd5b600202016000915090508060000160009054906101000a900473ffffffffffffffffffffffffffffffffffffffff16908060010180546109c790612c43565b80601f01602080910402602001604051908101604052809291908181526020018280546109f390612c43565b8015610a405780601f10610a1557610100808354040283529160200191610a40565b820191906000526020600020905b815481529060010190602001808311610a2357829003601f168201915b5050505050905082565b600954341015610a8f576040517f08c379a0000000000000000000000000000000000000000000000000000000008152600401610a8690612e76565b60405180910390fd5b60076000815480929190610aa290612ec5565b9190505550610ab382600754611979565b6103e86107db5411610b805760405180604001604052803373ffffffffffffffffffffffffffffffffffffffff16815260200182815250600b6107db546103e88110610b0257610b01612f0d565b5b6002020160008201518160000160006101000a81548173ffffffffffffffffffffffffffffffffffffffff021916908373ffffffffffffffffffffffffffffffffffffffff1602179055506020820151816001019081610b6291906130e8565b509050506107db6000815480929190610b7a90612ec5565b91905055505b600954341115610bdf573373ffffffffffffffffffffffffffffffffffffffff166108fc60095434610bb291906131ba565b9081150290604051600060405180830381858888f19350505050158015610bdd573d6000803e3d6000fd5b505b600860009054906101000a900473ffffffffffffffffffffffffffffffffffffffff1673ffffffffffffffffffffffffffffffffffffffff166108fc6009549081150290604051600060405180830381858888f19350505050158015610c49573d6000803e3d6000fd5b505050565b610c6983838360405180602001604052806000815250610eae565b505050565b60075481565b600080610c8083611997565b9050600073ffffffffffffffffffffffffffffffffffffffff168173ffffffffffffffffffffffffffffffffffffffff1603610cf1576040517f08c379a0000000000000000000000000000000000000000000000000000000008152600401610ce89061323a565b60405180910390fd5b80915050919050565b60095481565b60008073ffffffffffffffffffffffffffffffffffffffff168273ffffffffffffffffffffffffffffffffffffffff1603610d70576040517f08c379a0000000000000000000000000000000000000000000000000000000008152600401610d67906132cc565b60405180910390fd5b600360008373ffffffffffffffffffffffffffffffffffffffff1673ffffffffffffffffffffffffffffffffffffffff168152602001908152602001600020549050919050565b610dbf6119d4565b610dc96000611a52565b565b6107db5481565b6000600660009054906101000a900473ffffffffffffffffffffffffffffffffffffffff16905090565b6000600754905090565b606060018054610e1590612c43565b80601f0160208091040260200160405190810160405280929190818152602001828054610e4190612c43565b8015610e8e5780601f10610e6357610100808354040283529160200191610e8e565b820191906000526020600020905b815481529060010190602001808311610e7157829003601f168201915b5050505050905090565b610eaa610ea361152a565b8383611b18565b5050565b610ebf610eb961152a565b836115eb565b610efe576040517f08c379a0000000000000000000000000000000000000000000000000000000008152600401610ef590612e0a565b60405180910390fd5b610f0a84848484611c84565b50505050565b6060610f1b82611ce0565b610f5c57816040517fed15e6cf000000000000000000000000000000000000000000000000000000008152600401610f5391906128c4565b60405180910390fd5b600a610f6783611d21565b604051602001610f789291906133c0565b6040516020818303038152906040529050919050565b6060610f986119d4565b60006107db5467ffffffffffffffff811115610fb757610fb661272e565b5b604051908082528060200260200182016040528015610ff057816020015b610fdd612370565b815260200190600190039081610fd55790505b50905060005b6107db5481101561113857600b816103e8811061101657611015612f0d565b5b600202016040518060400160405290816000820160009054906101000a900473ffffffffffffffffffffffffffffffffffffffff1673ffffffffffffffffffffffffffffffffffffffff1673ffffffffffffffffffffffffffffffffffffffff16815260200160018201805461108b90612c43565b80601f01602080910402602001604051908101604052809291908181526020018280546110b790612c43565b80156111045780601f106110d957610100808354040283529160200191611104565b820191906000526020600020905b8154815290600101906020018083116110e757829003601f168201915b5050505050815250508282815181106111205761111f612f0d565b5b60200260200101819052508080600101915050610ff6565b508091505090565b611148612370565b6111506119d4565b6107db54821061119757816040517fed15e6cf00000000000000000000000000000000000000000000000000000000815260040161118e91906128c4565b60405180910390fd5b600b826103e881106111ac576111ab612f0d565b5b600202016040518060400160405290816000820160009054906101000a900473ffffffffffffffffffffffffffffffffffffffff1673ffffffffffffffffffffffffffffffffffffffff1673ffffffffffffffffffffffffffffffffffffffff16815260200160018201805461122190612c43565b80601f016020809104026020016040519081016040528092919081815260200182805461124d90612c43565b801561129a5780601f1061126f5761010080835404028352916020019161129a565b820191906000526020600020905b81548152906001019060200180831161127d57829003601f168201915b5050505050815250509050919050565b600a80546112b790612c43565b80601f01602080910402602001604051908101604052809291908181526020018280546112e390612c43565b80156113305780601f1061130557610100808354040283529160200191611330565b820191906000526020600020905b81548152906001019060200180831161131357829003601f168201915b505050505081565b6000600560008473ffffffffffffffffffffffffffffffffffffffff1673ffffffffffffffffffffffffffffffffffffffff16815260200190815260200160002060008373ffffffffffffffffffffffffffffffffffffffff1673ffffffffffffffffffffffffffffffffffffffff16815260200190815260200160002060009054906101000a900460ff16905092915050565b600860009054906101000a900473ffffffffffffffffffffffffffffffffffffffff1681565b6113fa6119d4565b600073ffffffffffffffffffffffffffffffffffffffff168173ffffffffffffffffffffffffffffffffffffffff1603611469576040517f08c379a000000000000000000000000000000000000000000000000000000000815260040161146090613456565b60405180910390fd5b61147281611a52565b50565b60007f01ffc9a7000000000000000000000000000000000000000000000000000000007bffffffffffffffffffffffffffffffffffffffffffffffffffffffff1916827bffffffffffffffffffffffffffffffffffffffffffffffffffffffff1916149050919050565b6114e881611ce0565b611527576040517f08c379a000000000000000000000000000000000000000000000000000000000815260040161151e9061323a565b60405180910390fd5b50565b600033905090565b816004600083815260200190815260200160002060006101000a81548173ffffffffffffffffffffffffffffffffffffffff021916908373ffffffffffffffffffffffffffffffffffffffff160217905550808273ffffffffffffffffffffffffffffffffffffffff166115a583610c74565b73ffffffffffffffffffffffffffffffffffffffff167f8c5be1e5ebec7d5bd14f71427d1e84f3dd0314c0f7b2291e5b200ac8c7c3b92560405160405180910390a45050565b6000806115f783610c74565b90508073ffffffffffffffffffffffffffffffffffffffff168473ffffffffffffffffffffffffffffffffffffffff16148061163957506116388185611338565b5b8061167757508373ffffffffffffffffffffffffffffffffffffffff1661165f846107ba565b73ffffffffffffffffffffffffffffffffffffffff16145b91505092915050565b8273ffffffffffffffffffffffffffffffffffffffff166116a082610c74565b73ffffffffffffffffffffffffffffffffffffffff16146116f6576040517f08c379a00000000000000000000000000000000000000000000000000000000081526004016116ed906134e8565b60405180910390fd5b600073ffffffffffffffffffffffffffffffffffffffff168273ffffffffffffffffffffffffffffffffffffffff1603611765576040517f08c379a000000000000000000000000000000000000000000000000000000000815260040161175c9061357a565b60405180910390fd5b6117728383836001611def565b8273ffffffffffffffffffffffffffffffffffffffff1661179282610c74565b73ffffffffffffffffffffffffffffffffffffffff16146117e8576040517f08c379a00000000000000000000000000000000000000000000000000000000081526004016117df906134e8565b60405180910390fd5b6004600082815260200190815260200160002060006101000a81549073ffffffffffffffffffffffffffffffffffffffff02191690556001600360008573ffffffffffffffffffffffffffffffffffffffff1673ffffffffffffffffffffffffffffffffffffffff168152602001908152602001600020600082825403925050819055506001600360008473ffffffffffffffffffffffffffffffffffffffff1673ffffffffffffffffffffffffffffffffffffffff16815260200190815260200160002060008282540192505081905550816002600083815260200190815260200160002060006101000a81548173ffffffffffffffffffffffffffffffffffffffff021916908373ffffffffffffffffffffffffffffffffffffffff160217905550808273ffffffffffffffffffffffffffffffffffffffff168473ffffffffffffffffffffffffffffffffffffffff167fddf252ad1be2c89b69c2b068fc378daa952ba7f163c4a11628f55a4df523b3ef60405160405180910390a46119748383836001611df5565b505050565b611993828260405180602001604052806000815250611dfb565b5050565b60006002600083815260200190815260200160002060009054906101000a900473ffffffffffffffffffffffffffffffffffffffff169050919050565b6119dc61152a565b73ffffffffffffffffffffffffffffffffffffffff166119fa610dd2565b73ffffffffffffffffffffffffffffffffffffffff1614611a50576040517f08c379a0000000000000000000000000000000000000000000000000000000008152600401611a47906135e6565b60405180910390fd5b565b6000600660009054906101000a900473ffffffffffffffffffffffffffffffffffffffff16905081600660006101000a81548173ffffffffffffffffffffffffffffffffffffffff021916908373ffffffffffffffffffffffffffffffffffffffff1602179055508173ffffffffffffffffffffffffffffffffffffffff168173ffffffffffffffffffffffffffffffffffffffff167f8be0079c531659141344cd1fd0a4f28419497f9722a3daafe3b4186f6b6457e060405160405180910390a35050565b8173ffffffffffffffffffffffffffffffffffffffff168373ffffffffffffffffffffffffffffffffffffffff1603611b86576040517f08c379a0000000000000000000000000000000000000000000000000000000008152600401611b7d90613652565b60405180910390fd5b80600560008573ffffffffffffffffffffffffffffffffffffffff1673ffffffffffffffffffffffffffffffffffffffff16815260200190815260200160002060008473ffffffffffffffffffffffffffffffffffffffff1673ffffffffffffffffffffffffffffffffffffffff16815260200190815260200160002060006101000a81548160ff0219169083151502179055508173ffffffffffffffffffffffffffffffffffffffff168373ffffffffffffffffffffffffffffffffffffffff167f17307eab39ab6107e8899845ad3d59bd9653f200f220920489ca2b5937696c3183604051611c779190612454565b60405180910390a3505050565b611c8f848484611680565b611c9b84848484611e56565b611cda576040517f08c379a0000000000000000000000000000000000000000000000000000000008152600401611cd1906136e4565b60405180910390fd5b50505050565b60008073ffffffffffffffffffffffffffffffffffffffff16611d0283611997565b73ffffffffffffffffffffffffffffffffffffffff1614159050919050565b606060006001611d3084611fdd565b01905060008167ffffffffffffffff811115611d4f57611d4e61272e565b5b6040519080825280601f01601f191660200182016040528015611d815781602001600182028036833780820191505090505b509050600082602001820190505b600115611de4578080600190039150507f3031323334353637383961626364656600000000000000000000000000000000600a86061a8153600a8581611dd857611dd7613704565b5b04945060008503611d8f575b819350505050919050565b50505050565b50505050565b611e058383612130565b611e126000848484611e56565b611e51576040517f08c379a0000000000000000000000000000000000000000000000000000000008152600401611e48906136e4565b60405180910390fd5b505050565b6000611e778473ffffffffffffffffffffffffffffffffffffffff1661234d565b15611fd0578373ffffffffffffffffffffffffffffffffffffffff1663150b7a02611ea061152a565b8786866040518563ffffffff1660e01b8152600401611ec29493929190613733565b6020604051808303816000875af1925050508015611efe57506040513d601f19601f82011682018060405250810190611efb9190613794565b60015b611f80573d8060008114611f2e576040519150601f19603f3d011682016040523d82523d6000602084013e611f33565b606091505b506000815103611f78576040517f08c379a0000000000000000000000000000000000000000000000000000000008152600401611f6f906136e4565b60405180910390fd5b805181602001fd5b63150b7a0260e01b7bffffffffffffffffffffffffffffffffffffffffffffffffffffffff1916817bffffffffffffffffffffffffffffffffffffffffffffffffffffffff191614915050611fd5565b600190505b949350505050565b600080600090507a184f03e93ff9f4daa797ed6e38ed64bf6a1f010000000000000000831061203b577a184f03e93ff9f4daa797ed6e38ed64bf6a1f010000000000000000838161203157612030613704565b5b0492506040810190505b6d04ee2d6d415b85acef81000000008310612078576d04ee2d6d415b85acef8100000000838161206e5761206d613704565b5b0492506020810190505b662386f26fc1000083106120a757662386f26fc10000838161209d5761209c613704565b5b0492506010810190505b6305f5e10083106120d0576305f5e10083816120c6576120c5613704565b5b0492506008810190505b61271083106120f55761271083816120eb576120ea613704565b5b0492506004810190505b60648310612118576064838161210e5761210d613704565b5b0492506002810190505b600a8310612127576001810190505b80915050919050565b600073ffffffffffffffffffffffffffffffffffffffff168273ffffffffffffffffffffffffffffffffffffffff160361219f576040517f08c379a00000000000000000000000000000000000000000000000000000000081526004016121969061380d565b60405180910390fd5b6121a881611ce0565b156121e8576040517f08c379a00000000000000000000000000000000000000000000000000000000081526004016121df90613879565b60405180910390fd5b6121f6600083836001611def565b6121ff81611ce0565b1561223f576040517f08c379a000000000000000000000000000000000000000000000000000000000815260040161223690613879565b60405180910390fd5b6001600360008473ffffffffffffffffffffffffffffffffffffffff1673ffffffffffffffffffffffffffffffffffffffff16815260200190815260200160002060008282540192505081905550816002600083815260200190815260200160002060006101000a81548173ffffffffffffffffffffffffffffffffffffffff021916908373ffffffffffffffffffffffffffffffffffffffff160217905550808273ffffffffffffffffffffffffffffffffffffffff16600073ffffffffffffffffffffffffffffffffffffffff167fddf252ad1be2c89b69c2b068fc378daa952ba7f163c4a11628f55a4df523b3ef60405160405180910390a4612349600083836001611df5565b5050565b6000808273ffffffffffffffffffffffffffffffffffffffff163b119050919050565b6040518060400160405280600073ffffffffffffffffffffffffffffffffffffffff168152602001606081525090565b6000604051905090565b600080fd5b600080fd5b60007fffffffff0000000000000000000000000000000000000000000000000000000082169050919050565b6123e9816123b4565b81146123f457600080fd5b50565b600081359050612406816123e0565b92915050565b600060208284031215612422576124216123aa565b5b6000612430848285016123f7565b91505092915050565b60008115159050919050565b61244e81612439565b82525050565b60006020820190506124696000830184612445565b92915050565b600081519050919050565b600082825260208201905092915050565b60005b838110156124a957808201518184015260208101905061248e565b60008484015250505050565b6000601f19601f8301169050919050565b60006124d18261246f565b6124db818561247a565b93506124eb81856020860161248b565b6124f4816124b5565b840191505092915050565b6000602082019050818103600083015261251981846124c6565b905092915050565b6000819050919050565b61253481612521565b811461253f57600080fd5b50565b6000813590506125518161252b565b92915050565b60006020828403121561256d5761256c6123aa565b5b600061257b84828501612542565b91505092915050565b600073ffffffffffffffffffffffffffffffffffffffff82169050919050565b60006125af82612584565b9050919050565b6125bf816125a4565b82525050565b60006020820190506125da60008301846125b6565b92915050565b6125e9816125a4565b81146125f457600080fd5b50565b600081359050612606816125e0565b92915050565b60008060408385031215612623576126226123aa565b5b6000612631858286016125f7565b925050602061264285828601612542565b9150509250929050565b600080600060608486031215612665576126646123aa565b5b6000612673868287016125f7565b9350506020612684868287016125f7565b925050604061269586828701612542565b9150509250925092565b600081519050919050565b600082825260208201905092915050565b60006126c68261269f565b6126d081856126aa565b93506126e081856020860161248b565b6126e9816124b5565b840191505092915050565b600060408201905061270960008301856125b6565b818103602083015261271b81846126bb565b90509392505050565b600080fd5b600080fd5b7f4e487b7100000000000000000000000000000000000000000000000000000000600052604160045260246000fd5b612766826124b5565b810181811067ffffffffffffffff821117156127855761278461272e565b5b80604052505050565b60006127986123a0565b90506127a4828261275d565b919050565b600067ffffffffffffffff8211156127c4576127c361272e565b5b6127cd826124b5565b9050602081019050919050565b82818337600083830152505050565b60006127fc6127f7846127a9565b61278e565b90508281526020810184848401111561281857612817612729565b5b6128238482856127da565b509392505050565b600082601f8301126128405761283f612724565b5b81356128508482602086016127e9565b91505092915050565b600080604083850312156128705761286f6123aa565b5b600061287e858286016125f7565b925050602083013567ffffffffffffffff81111561289f5761289e6123af565b5b6128ab8582860161282b565b9150509250929050565b6128be81612521565b82525050565b60006020820190506128d960008301846128b5565b92915050565b6000602082840312156128f5576128f46123aa565b5b6000612903848285016125f7565b91505092915050565b61291581612439565b811461292057600080fd5b50565b6000813590506129328161290c565b92915050565b6000806040838503121561294f5761294e6123aa565b5b600061295d858286016125f7565b925050602061296e85828601612923565b9150509250929050565b60008060008060808587031215612992576129916123aa565b5b60006129a0878288016125f7565b94505060206129b1878288016125f7565b93505060406129c287828801612542565b925050606085013567ffffffffffffffff8111156129e3576129e26123af565b5b6129ef8782880161282b565b91505092959194509250565b600081519050919050565b600082825260208201905092915050565b6000819050602082019050919050565b612a30816125a4565b82525050565b600082825260208201905092915050565b6000612a528261269f565b612a5c8185612a36565b9350612a6c81856020860161248b565b612a75816124b5565b840191505092915050565b6000604083016000830151612a986000860182612a27565b5060208301518482036020860152612ab08282612a47565b9150508091505092915050565b6000612ac98383612a80565b905092915050565b6000602082019050919050565b6000612ae9826129fb565b612af38185612a06565b935083602082028501612b0585612a17565b8060005b85811015612b415784840389528151612b228582612abd565b9450612b2d83612ad1565b925060208a01995050600181019050612b09565b50829750879550505050505092915050565b60006020820190508181036000830152612b6d8184612ade565b905092915050565b6000604083016000830151612b8d6000860182612a27565b5060208301518482036020860152612ba58282612a47565b9150508091505092915050565b60006020820190508181036000830152612bcc8184612b75565b905092915050565b60008060408385031215612beb57612bea6123aa565b5b6000612bf9858286016125f7565b9250506020612c0a858286016125f7565b9150509250929050565b7f4e487b7100000000000000000000000000000000000000000000000000000000600052602260045260246000fd5b60006002820490506001821680612c5b57607f821691505b602082108103612c6e57612c6d612c14565b5b50919050565b7f4552433732313a20617070726f76616c20746f2063757272656e74206f776e6560008201527f7200000000000000000000000000000000000000000000000000000000000000602082015250565b6000612cd060218361247a565b9150612cdb82612c74565b604082019050919050565b60006020820190508181036000830152612cff81612cc3565b9050919050565b7f4552433732313a20617070726f76652063616c6c6572206973206e6f7420746f60008201527f6b656e206f776e6572206f7220617070726f76656420666f7220616c6c000000602082015250565b6000612d62603d8361247a565b9150612d6d82612d06565b604082019050919050565b60006020820190508181036000830152612d9181612d55565b9050919050565b7f4552433732313a2063616c6c6572206973206e6f7420746f6b656e206f776e6560008201527f72206f7220617070726f76656400000000000000000000000000000000000000602082015250565b6000612df4602d8361247a565b9150612dff82612d98565b604082019050919050565b60006020820190508181036000830152612e2381612de7565b9050919050565b7f496e73756666696369656e742066656500000000000000000000000000000000600082015250565b6000612e6060108361247a565b9150612e6b82612e2a565b602082019050919050565b60006020820190508181036000830152612e8f81612e53565b9050919050565b7f4e487b7100000000000000000000000000000000000000000000000000000000600052601160045260246000fd5b6000612ed082612521565b91507fffffffffffffffffffffffffffffffffffffffffffffffffffffffffffffffff8203612f0257612f01612e96565b5b600182019050919050565b7f4e487b7100000000000000000000000000000000000000000000000000000000600052603260045260246000fd5b60008190508160005260206000209050919050565b60006020601f8301049050919050565b600082821b905092915050565b600060088302612f9e7fffffffffffffffffffffffffffffffffffffffffffffffffffffffffffffffff82612f61565b612fa88683612f61565b95508019841693508086168417925050509392505050565b6000819050919050565b6000612fe5612fe0612fdb84612521565b612fc0565b612521565b9050919050565b6000819050919050565b612fff83612fca565b61301361300b82612fec565b848454612f6e565b825550505050565b600090565b61302861301b565b613033818484612ff6565b505050565b5b818110156130575761304c600082613020565b600181019050613039565b5050565b601f82111561309c5761306d81612f3c565b61307684612f51565b81016020851015613085578190505b61309961309185612f51565b830182613038565b50505b505050565b600082821c905092915050565b60006130bf600019846008026130a1565b1980831691505092915050565b60006130d883836130ae565b9150826002028217905092915050565b6130f18261269f565b67ffffffffffffffff81111561310a5761310961272e565b5b6131148254612c43565b61311f82828561305b565b600060209050601f8311600181146131525760008415613140578287015190505b61314a85826130cc565b8655506131b2565b601f19841661316086612f3c565b60005b8281101561318857848901518255600182019150602085019450602081019050613163565b868310156131a557848901516131a1601f8916826130ae565b8355505b6001600288020188555050505b505050505050565b60006131c582612521565b91506131d083612521565b92508282039050818111156131e8576131e7612e96565b5b92915050565b7f4552433732313a20696e76616c696420746f6b656e2049440000000000000000600082015250565b600061322460188361247a565b915061322f826131ee565b602082019050919050565b6000602082019050818103600083015261325381613217565b9050919050565b7f4552433732313a2061646472657373207a65726f206973206e6f74206120766160008201527f6c6964206f776e65720000000000000000000000000000000000000000000000602082015250565b60006132b660298361247a565b91506132c18261325a565b604082019050919050565b600060208201905081810360008301526132e5816132a9565b9050919050565b600081905092915050565b60008190508160005260206000209050919050565b6000815461331981612c43565b61332381866132ec565b9450600182166000811461333e576001811461335357613386565b60ff1983168652811515820286019350613386565b61335c856132f7565b60005b8381101561337e5781548189015260018201915060208101905061335f565b838801955050505b50505092915050565b600061339a8261246f565b6133a481856132ec565b93506133b481856020860161248b565b80840191505092915050565b60006133cc828561330c565b91506133d8828461338f565b91508190509392505050565b7f4f776e61626c653a206e6577206f776e657220697320746865207a65726f206160008201527f6464726573730000000000000000000000000000000000000000000000000000602082015250565b600061344060268361247a565b915061344b826133e4565b604082019050919050565b6000602082019050818103600083015261346f81613433565b9050919050565b7f4552433732313a207472616e736665722066726f6d20696e636f72726563742060008201527f6f776e6572000000000000000000000000000000000000000000000000000000602082015250565b60006134d260258361247a565b91506134dd82613476565b604082019050919050565b60006020820190508181036000830152613501816134c5565b9050919050565b7f4552433732313a207472616e7366657220746f20746865207a65726f2061646460008201527f7265737300000000000000000000000000000000000000000000000000000000602082015250565b600061356460248361247a565b915061356f82613508565b604082019050919050565b6000602082019050818103600083015261359381613557565b9050919050565b7f4f776e61626c653a2063616c6c6572206973206e6f7420746865206f776e6572600082015250565b60006135d060208361247a565b91506135db8261359a565b602082019050919050565b600060208201905081810360008301526135ff816135c3565b9050919050565b7f4552433732313a20617070726f766520746f2063616c6c657200000000000000600082015250565b600061363c60198361247a565b915061364782613606565b602082019050919050565b6000602082019050818103600083015261366b8161362f565b9050919050565b7f4552433732313a207472616e7366657220746f206e6f6e20455243373231526560008201527f63656976657220696d706c656d656e7465720000000000000000000000000000602082015250565b60006136ce60328361247a565b91506136d982613672565b604082019050919050565b600060208201905081810360008301526136fd816136c1565b9050919050565b7f4e487b7100000000000000000000000000000000000000000000000000000000600052601260045260246000fd5b600060808201905061374860008301876125b6565b61375560208301866125b6565b61376260408301856128b5565b818103606083015261377481846126bb565b905095945050505050565b60008151905061378e816123e0565b92915050565b6000602082840312156137aa576137a96123aa565b5b60006137b88482850161377f565b91505092915050565b7f4552433732313a206d696e7420746f20746865207a65726f2061646472657373600082015250565b60006137f760208361247a565b9150613802826137c1565b602082019050919050565b60006020820190508181036000830152613826816137ea565b9050919050565b7f4552433732313a20746f6b656e20616c7265616479206d696e74656400000000600082015250565b6000613863601c8361247a565b915061386e8261382d565b602082019050919050565b6000602082019050818103600083015261389281613856565b905091905056fea2646970667358221220ef8df3d93c0692328d7f6da326ef27cde0d067d709d0ad5e47e3b99f3769abb564736f6c63430008180033",
  "linkReferences": {},
  "deployedLinkReferences": {}
}