{
    "_format": "hh-sol-artifact-1",
    "contractName": "GoldenStaking",
    "sourceName": "contracts/GoldenStaking.sol",
    "abi": [
        {
            "inputs": [
                {
                    "internalType": "address",
                    "name": "_stakedToken",
                    "type": "address"
                }
            ],
            "stateMutability": "nonpayable",
            "type": "constructor"
        },
        {
            "inputs": [
                {
                    "internalType": "address",
                    "name": "target",
                    "type": "address"
                }
            ],
            "name": "AddressEmptyCode",
            "type": "error"
        },
        {
            "inputs": [
                {
                    "internalType": "address",
                    "name": "account",
                    "type": "address"
                }
            ],
            "name": "AddressInsufficientBalance",
            "type": "error"
        },
        {
            "inputs": [],
            "name": "FailedInnerCall",
            "type": "error"
        },
        {
            "inputs": [],
            "name": "InvalidAmount",
            "type": "error"
        },
        {
            "inputs": [],
            "name": "ReentrancyGuardReentrantCall",
            "type": "error"
        },
        {
            "inputs": [
                {
                    "internalType": "address",
                    "name": "token",
                    "type": "address"
                }
            ],
            "name": "SafeERC20FailedOperation",
            "type": "error"
        },
        {
            "anonymous": false,
            "inputs": [
                {
                    "indexed": true,
                    "internalType": "address",
                    "name": "user",
                    "type": "address"
                },
                {
                    "indexed": false,
                    "internalType": "uint256",
                    "name": "amount",
                    "type": "uint256"
                }
            ],
            "name": "Deposit",
            "type": "event"
        },
        {
            "anonymous": false,
            "inputs": [
                {
                    "indexed": true,
                    "internalType": "address",
                    "name": "user",
                    "type": "address"
                },
                {
                    "indexed": false,
                    "internalType": "uint256",
                    "name": "amount",
                    "type": "uint256"
                }
            ],
            "name": "Withdraw",
            "type": "event"
        },
        {
            "inputs": [
                {
                    "internalType": "uint256",
                    "name": "_amount",
                    "type": "uint256"
                }
            ],
            "name": "deposit",
            "outputs": [],
            "stateMutability": "nonpayable",
            "type": "function"
        },
        {
            "inputs": [],
            "name": "factory",
            "outputs": [
                {
                    "internalType": "address",
                    "name": "",
                    "type": "address"
                }
            ],
            "stateMutability": "view",
            "type": "function"
        },
        {
            "inputs": [
                {
                    "internalType": "address",
                    "name": "",
                    "type": "address"
                }
            ],
            "name": "staked",
            "outputs": [
                {
                    "internalType": "uint256",
                    "name": "amount",
                    "type": "uint256"
                }
            ],
            "stateMutability": "view",
            "type": "function"
        },
        {
            "inputs": [],
            "name": "stakedToken",
            "outputs": [
                {
                    "internalType": "address",
                    "name": "",
                    "type": "address"
                }
            ],
            "stateMutability": "view",
            "type": "function"
        },
        {
            "inputs": [],
            "name": "totalStaked",
            "outputs": [
                {
                    "internalType": "uint256",
                    "name": "",
                    "type": "uint256"
                }
            ],
            "stateMutability": "view",
            "type": "function"
        },
        {
            "inputs": [
                {
                    "internalType": "uint256",
                    "name": "_amount",
                    "type": "uint256"
                }
            ],
            "name": "withdraw",
            "outputs": [],
            "stateMutability": "nonpayable",
            "type": "function"
        }
    ],
    "bytecode": "0x608060405234801561001057600080fd5b50604051610cba380380610cba83398181016040528101906100329190610125565b600160008190555080600460006101000a81548173ffffffffffffffffffffffffffffffffffffffff021916908373ffffffffffffffffffffffffffffffffffffffff16021790555033600360006101000a81548173ffffffffffffffffffffffffffffffffffffffff021916908373ffffffffffffffffffffffffffffffffffffffff16021790555050610152565b600080fd5b600073ffffffffffffffffffffffffffffffffffffffff82169050919050565b60006100f2826100c7565b9050919050565b610102816100e7565b811461010d57600080fd5b50565b60008151905061011f816100f9565b92915050565b60006020828403121561013b5761013a6100c2565b5b600061014984828501610110565b91505092915050565b610b59806101616000396000f3fe608060405234801561001057600080fd5b50600436106100625760003560e01c80632e1a7d4d14610067578063817b1cd21461008357806398807d84146100a1578063b6b55f25146100d1578063c45a0155146100ed578063cc7a262e1461010b575b600080fd5b610081600480360381019061007c9190610833565b610129565b005b61008b6102d0565b604051610098919061086f565b60405180910390f35b6100bb60048036038101906100b691906108e8565b6102d6565b6040516100c8919061086f565b60405180910390f35b6100eb60048036038101906100e69190610833565b6102ee565b005b6100f561040d565b6040516101029190610924565b60405180910390f35b610113610433565b6040516101209190610924565b60405180910390f35b610131610459565b6000600260003373ffffffffffffffffffffffffffffffffffffffff1673ffffffffffffffffffffffffffffffffffffffff168152602001908152602001600020549050818110806101835750600082145b156101ba576040517f2c5211c600000000000000000000000000000000000000000000000000000000815260040160405180910390fd5b81600260003373ffffffffffffffffffffffffffffffffffffffff1673ffffffffffffffffffffffffffffffffffffffff1681526020019081526020016000206000828254610209919061096e565b925050819055508160016000828254610222919061096e565b925050819055506102763383600460009054906101000a900473ffffffffffffffffffffffffffffffffffffffff1673ffffffffffffffffffffffffffffffffffffffff1661049f9092919063ffffffff16565b3373ffffffffffffffffffffffffffffffffffffffff167f884edad9ce6fa2440d8a54cc123490eb96d2768479d49ff9c7366125a9424364836040516102bc919061086f565b60405180910390a2506102cd61051e565b50565b60015481565b60026020528060005260406000206000915090505481565b6102f6610459565b806001600082825461030891906109a2565b9250508190555080600260003373ffffffffffffffffffffffffffffffffffffffff1673ffffffffffffffffffffffffffffffffffffffff168152602001908152602001600020600082825461035e91906109a2565b925050819055506103b4333083600460009054906101000a900473ffffffffffffffffffffffffffffffffffffffff1673ffffffffffffffffffffffffffffffffffffffff16610528909392919063ffffffff16565b3373ffffffffffffffffffffffffffffffffffffffff167fe1fffcc4923d04b559f4d29a8bfc6cda04eb5b0d3c460751c2402c5c5cc9109c826040516103fa919061086f565b60405180910390a261040a61051e565b50565b600360009054906101000a900473ffffffffffffffffffffffffffffffffffffffff1681565b600460009054906101000a900473ffffffffffffffffffffffffffffffffffffffff1681565b600260005403610495576040517f3ee5aeb500000000000000000000000000000000000000000000000000000000815260040160405180910390fd5b6002600081905550565b610519838473ffffffffffffffffffffffffffffffffffffffff1663a9059cbb85856040516024016104d29291906109d6565b604051602081830303815290604052915060e01b6020820180517bffffffffffffffffffffffffffffffffffffffffffffffffffffffff83818316178352505050506105aa565b505050565b6001600081905550565b6105a4848573ffffffffffffffffffffffffffffffffffffffff166323b872dd86868660405160240161055d939291906109ff565b604051602081830303815290604052915060e01b6020820180517bffffffffffffffffffffffffffffffffffffffffffffffffffffffff83818316178352505050506105aa565b50505050565b60006105d5828473ffffffffffffffffffffffffffffffffffffffff1661064190919063ffffffff16565b905060008151141580156105fa5750808060200190518101906105f89190610a6e565b155b1561063c57826040517f5274afe70000000000000000000000000000000000000000000000000000000081526004016106339190610924565b60405180910390fd5b505050565b606061064f83836000610657565b905092915050565b60608147101561069e57306040517fcd7860590000000000000000000000000000000000000000000000000000000081526004016106959190610924565b60405180910390fd5b6000808573ffffffffffffffffffffffffffffffffffffffff1684866040516106c79190610b0c565b60006040518083038185875af1925050503d8060008114610704576040519150601f19603f3d011682016040523d82523d6000602084013e610709565b606091505b5091509150610719868383610724565b925050509392505050565b60608261073957610734826107b3565b6107ab565b60008251148015610761575060008473ffffffffffffffffffffffffffffffffffffffff163b145b156107a357836040517f9996b31500000000000000000000000000000000000000000000000000000000815260040161079a9190610924565b60405180910390fd5b8190506107ac565b5b9392505050565b6000815111156107c65780518082602001fd5b6040517f1425ea4200000000000000000000000000000000000000000000000000000000815260040160405180910390fd5b600080fd5b6000819050919050565b610810816107fd565b811461081b57600080fd5b50565b60008135905061082d81610807565b92915050565b600060208284031215610849576108486107f8565b5b60006108578482850161081e565b91505092915050565b610869816107fd565b82525050565b60006020820190506108846000830184610860565b92915050565b600073ffffffffffffffffffffffffffffffffffffffff82169050919050565b60006108b58261088a565b9050919050565b6108c5816108aa565b81146108d057600080fd5b50565b6000813590506108e2816108bc565b92915050565b6000602082840312156108fe576108fd6107f8565b5b600061090c848285016108d3565b91505092915050565b61091e816108aa565b82525050565b60006020820190506109396000830184610915565b92915050565b7f4e487b7100000000000000000000000000000000000000000000000000000000600052601160045260246000fd5b6000610979826107fd565b9150610984836107fd565b925082820390508181111561099c5761099b61093f565b5b92915050565b60006109ad826107fd565b91506109b8836107fd565b92508282019050808211156109d0576109cf61093f565b5b92915050565b60006040820190506109eb6000830185610915565b6109f86020830184610860565b9392505050565b6000606082019050610a146000830186610915565b610a216020830185610915565b610a2e6040830184610860565b949350505050565b60008115159050919050565b610a4b81610a36565b8114610a5657600080fd5b50565b600081519050610a6881610a42565b92915050565b600060208284031215610a8457610a836107f8565b5b6000610a9284828501610a59565b91505092915050565b600081519050919050565b600081905092915050565b60005b83811015610acf578082015181840152602081019050610ab4565b60008484015250505050565b6000610ae682610a9b565b610af08185610aa6565b9350610b00818560208601610ab1565b80840191505092915050565b6000610b188284610adb565b91508190509291505056fea264697066735822122010997e7e740465972d75128f8a72601086d49dcbecb4ba8f30a0460c35470deb64736f6c63430008160033",
    "linkReferences": {},
    "deployedLinkReferences": {}
}