{
  "_format": "hh-sol-artifact-1",
  "contractName": "MemeCoin",
  "sourceName": "contracts/MemeFactory.sol",
  "abi": [
    {
      "inputs": [
        {
          "internalType": "string",
          "name": "name",
          "type": "string"
        },
        {
          "internalType": "string",
          "name": "symbol",
          "type": "string"
        },
        {
          "internalType": "uint256",
          "name": "maxSupply",
          "type": "uint256"
        },
        {
          "internalType": "address",
          "name": "recipient_tax_tokens",
          "type": "address"
        },
        {
          "internalType": "address",
          "name": "recipient_tokens",
          "type": "address"
        },
        {
          "internalType": "string",
          "name": "token_meme_URI",
          "type": "string"
        },
        {
          "internalType": "uint256",
          "name": "taxRate",
          "type": "uint256"
        }
      ],
      "stateMutability": "nonpayable",
      "type": "constructor"
    },
    {
      "anonymous": false,
      "inputs": [
        {
          "indexed": true,
          "internalType": "address",
          "name": "owner",
          "type": "address"
        },
        {
          "indexed": true,
          "internalType": "address",
          "name": "spender",
          "type": "address"
        },
        {
          "indexed": false,
          "internalType": "uint256",
          "name": "value",
          "type": "uint256"
        }
      ],
      "name": "Approval",
      "type": "event"
    },
    {
      "anonymous": false,
      "inputs": [
        {
          "indexed": true,
          "internalType": "address",
          "name": "previousOwner",
          "type": "address"
        },
        {
          "indexed": true,
          "internalType": "address",
          "name": "newOwner",
          "type": "address"
        }
      ],
      "name": "OwnershipTransferred",
      "type": "event"
    },
    {
      "anonymous": false,
      "inputs": [
        {
          "indexed": true,
          "internalType": "address",
          "name": "from",
          "type": "address"
        },
        {
          "indexed": true,
          "internalType": "address",
          "name": "to",
          "type": "address"
        },
        {
          "indexed": false,
          "internalType": "uint256",
          "name": "value",
          "type": "uint256"
        }
      ],
      "name": "Transfer",
      "type": "event"
    },
    {
      "inputs": [
        {
          "internalType": "address",
          "name": "owner",
          "type": "address"
        },
        {
          "internalType": "address",
          "name": "spender",
          "type": "address"
        }
      ],
      "name": "allowance",
      "outputs": [
        {
          "internalType": "uint256",
          "name": "",
          "type": "uint256"
        }
      ],
      "stateMutability": "view",
      "type": "function"
    },
    {
      "inputs": [
        {
          "internalType": "address",
          "name": "spender",
          "type": "address"
        },
        {
          "internalType": "uint256",
          "name": "amount",
          "type": "uint256"
        }
      ],
      "name": "approve",
      "outputs": [
        {
          "internalType": "bool",
          "name": "",
          "type": "bool"
        }
      ],
      "stateMutability": "nonpayable",
      "type": "function"
    },
    {
      "inputs": [
        {
          "internalType": "address",
          "name": "account",
          "type": "address"
        }
      ],
      "name": "balanceOf",
      "outputs": [
        {
          "internalType": "uint256",
          "name": "",
          "type": "uint256"
        }
      ],
      "stateMutability": "view",
      "type": "function"
    },
    {
      "inputs": [],
      "name": "decimals",
      "outputs": [
        {
          "internalType": "uint8",
          "name": "",
          "type": "uint8"
        }
      ],
      "stateMutability": "view",
      "type": "function"
    },
    {
      "inputs": [
        {
          "internalType": "address",
          "name": "spender",
          "type": "address"
        },
        {
          "internalType": "uint256",
          "name": "subtractedValue",
          "type": "uint256"
        }
      ],
      "name": "decreaseAllowance",
      "outputs": [
        {
          "internalType": "bool",
          "name": "",
          "type": "bool"
        }
      ],
      "stateMutability": "nonpayable",
      "type": "function"
    },
    {
      "inputs": [
        {
          "internalType": "address",
          "name": "spender",
          "type": "address"
        },
        {
          "internalType": "uint256",
          "name": "addedValue",
          "type": "uint256"
        }
      ],
      "name": "increaseAllowance",
      "outputs": [
        {
          "internalType": "bool",
          "name": "",
          "type": "bool"
        }
      ],
      "stateMutability": "nonpayable",
      "type": "function"
    },
    {
      "inputs": [
        {
          "internalType": "uint256",
          "name": "amount",
          "type": "uint256"
        }
      ],
      "name": "mint_tokens",
      "outputs": [],
      "stateMutability": "nonpayable",
      "type": "function"
    },
    {
      "inputs": [],
      "name": "name",
      "outputs": [
        {
          "internalType": "string",
          "name": "",
          "type": "string"
        }
      ],
      "stateMutability": "view",
      "type": "function"
    },
    {
      "inputs": [],
      "name": "owner",
      "outputs": [
        {
          "internalType": "address",
          "name": "",
          "type": "address"
        }
      ],
      "stateMutability": "view",
      "type": "function"
    },
    {
      "inputs": [],
      "name": "renounceOwnership",
      "outputs": [],
      "stateMutability": "nonpayable",
      "type": "function"
    },
    {
      "inputs": [],
      "name": "symbol",
      "outputs": [
        {
          "internalType": "string",
          "name": "",
          "type": "string"
        }
      ],
      "stateMutability": "view",
      "type": "function"
    },
    {
      "inputs": [],
      "name": "tokenURI",
      "outputs": [
        {
          "internalType": "string",
          "name": "",
          "type": "string"
        }
      ],
      "stateMutability": "view",
      "type": "function"
    },
    {
      "inputs": [],
      "name": "totalSupply",
      "outputs": [
        {
          "internalType": "uint256",
          "name": "",
          "type": "uint256"
        }
      ],
      "stateMutability": "view",
      "type": "function"
    },
    {
      "inputs": [
        {
          "internalType": "address",
          "name": "recipient",
          "type": "address"
        },
        {
          "internalType": "uint256",
          "name": "amount",
          "type": "uint256"
        }
      ],
      "name": "transfer",
      "outputs": [
        {
          "internalType": "bool",
          "name": "",
          "type": "bool"
        }
      ],
      "stateMutability": "nonpayable",
      "type": "function"
    },
    {
      "inputs": [
        {
          "internalType": "address",
          "name": "sender",
          "type": "address"
        },
        {
          "internalType": "address",
          "name": "recipient",
          "type": "address"
        },
        {
          "internalType": "uint256",
          "name": "amount",
          "type": "uint256"
        }
      ],
      "name": "transferFrom",
      "outputs": [
        {
          "internalType": "bool",
          "name": "",
          "type": "bool"
        }
      ],
      "stateMutability": "nonpayable",
      "type": "function"
    },
    {
      "inputs": [
        {
          "internalType": "address",
          "name": "newOwner",
          "type": "address"
        }
      ],
      "name": "transferOwnership",
      "outputs": [],
      "stateMutability": "nonpayable",
      "type": "function"
    }
  ],
  "bytecode": "0x60806040523480156200001157600080fd5b50604051620027ba380380620027ba83398181016040528101906200003791906200073c565b868681600390816200004a919062000a8d565b5080600490816200005c919062000a8d565b5050506200007f620000736200014860201b60201c565b6200015060201b60201c565b8060068190555083600760006101000a81548173ffffffffffffffffffffffffffffffffffffffff021916908373ffffffffffffffffffffffffffffffffffffffff16021790555082600860006101000a81548173ffffffffffffffffffffffffffffffffffffffff021916908373ffffffffffffffffffffffffffffffffffffffff160217905550816009908162000119919062000a8d565b506200012b856200021660201b60201c565b6200013b620002b360201b60201c565b5050505050505062000db3565b600033905090565b6000600560009054906101000a900473ffffffffffffffffffffffffffffffffffffffff16905081600560006101000a81548173ffffffffffffffffffffffffffffffffffffffff021916908373ffffffffffffffffffffffffffffffffffffffff1602179055508173ffffffffffffffffffffffffffffffffffffffff168173ffffffffffffffffffffffffffffffffffffffff167f8be0079c531659141344cd1fd0a4f28419497f9722a3daafe3b4186f6b6457e060405160405180910390a35050565b62000226620002d760201b60201c565b6000606460018362000239919062000ba3565b62000245919062000c1d565b90506200027b600860009054906101000a900473ffffffffffffffffffffffffffffffffffffffff16826200036860201b60201c565b620002af600760009054906101000a900473ffffffffffffffffffffffffffffffffffffffff16826200036860201b60201c565b5050565b620002c3620002d760201b60201c565b620002d560006200015060201b60201c565b565b620002e76200014860201b60201c565b73ffffffffffffffffffffffffffffffffffffffff166200030d620004d560201b60201c565b73ffffffffffffffffffffffffffffffffffffffff161462000366576040517f08c379a00000000000000000000000000000000000000000000000000000000081526004016200035d9062000cb6565b60405180910390fd5b565b600073ffffffffffffffffffffffffffffffffffffffff168273ffffffffffffffffffffffffffffffffffffffff1603620003da576040517f08c379a0000000000000000000000000000000000000000000000000000000008152600401620003d19062000d28565b60405180910390fd5b620003ee60008383620004ff60201b60201c565b806002600082825462000402919062000d4a565b92505081905550806000808473ffffffffffffffffffffffffffffffffffffffff1673ffffffffffffffffffffffffffffffffffffffff168152602001908152602001600020600082825401925050819055508173ffffffffffffffffffffffffffffffffffffffff16600073ffffffffffffffffffffffffffffffffffffffff167fddf252ad1be2c89b69c2b068fc378daa952ba7f163c4a11628f55a4df523b3ef83604051620004b5919062000d96565b60405180910390a3620004d1600083836200050460201b60201c565b5050565b6000600560009054906101000a900473ffffffffffffffffffffffffffffffffffffffff16905090565b505050565b505050565b6000604051905090565b600080fd5b600080fd5b600080fd5b600080fd5b6000601f19601f8301169050919050565b7f4e487b7100000000000000000000000000000000000000000000000000000000600052604160045260246000fd5b620005728262000527565b810181811067ffffffffffffffff8211171562000594576200059362000538565b5b80604052505050565b6000620005a962000509565b9050620005b7828262000567565b919050565b600067ffffffffffffffff821115620005da57620005d962000538565b5b620005e58262000527565b9050602081019050919050565b60005b8381101562000612578082015181840152602081019050620005f5565b60008484015250505050565b6000620006356200062f84620005bc565b6200059d565b90508281526020810184848401111562000654576200065362000522565b5b62000661848285620005f2565b509392505050565b600082601f8301126200068157620006806200051d565b5b8151620006938482602086016200061e565b91505092915050565b6000819050919050565b620006b1816200069c565b8114620006bd57600080fd5b50565b600081519050620006d181620006a6565b92915050565b600073ffffffffffffffffffffffffffffffffffffffff82169050919050565b60006200070482620006d7565b9050919050565b6200071681620006f7565b81146200072257600080fd5b50565b60008151905062000736816200070b565b92915050565b600080600080600080600060e0888a0312156200075e576200075d62000513565b5b600088015167ffffffffffffffff8111156200077f576200077e62000518565b5b6200078d8a828b0162000669565b975050602088015167ffffffffffffffff811115620007b157620007b062000518565b5b620007bf8a828b0162000669565b9650506040620007d28a828b01620006c0565b9550506060620007e58a828b0162000725565b9450506080620007f88a828b0162000725565b93505060a088015167ffffffffffffffff8111156200081c576200081b62000518565b5b6200082a8a828b0162000669565b92505060c06200083d8a828b01620006c0565b91505092959891949750929550565b600081519050919050565b7f4e487b7100000000000000000000000000000000000000000000000000000000600052602260045260246000fd5b600060028204905060018216806200089f57607f821691505b602082108103620008b557620008b462000857565b5b50919050565b60008190508160005260206000209050919050565b60006020601f8301049050919050565b600082821b905092915050565b6000600883026200091f7fffffffffffffffffffffffffffffffffffffffffffffffffffffffffffffffff82620008e0565b6200092b8683620008e0565b95508019841693508086168417925050509392505050565b6000819050919050565b60006200096e6200096862000962846200069c565b62000943565b6200069c565b9050919050565b6000819050919050565b6200098a836200094d565b620009a2620009998262000975565b848454620008ed565b825550505050565b600090565b620009b9620009aa565b620009c68184846200097f565b505050565b5b81811015620009ee57620009e2600082620009af565b600181019050620009cc565b5050565b601f82111562000a3d5762000a0781620008bb565b62000a1284620008d0565b8101602085101562000a22578190505b62000a3a62000a3185620008d0565b830182620009cb565b50505b505050565b600082821c905092915050565b600062000a626000198460080262000a42565b1980831691505092915050565b600062000a7d838362000a4f565b9150826002028217905092915050565b62000a98826200084c565b67ffffffffffffffff81111562000ab45762000ab362000538565b5b62000ac0825462000886565b62000acd828285620009f2565b600060209050601f83116001811462000b05576000841562000af0578287015190505b62000afc858262000a6f565b86555062000b6c565b601f19841662000b1586620008bb565b60005b8281101562000b3f5784890151825560018201915060208501945060208101905062000b18565b8683101562000b5f578489015162000b5b601f89168262000a4f565b8355505b6001600288020188555050505b505050505050565b7f4e487b7100000000000000000000000000000000000000000000000000000000600052601160045260246000fd5b600062000bb0826200069c565b915062000bbd836200069c565b925082820262000bcd816200069c565b9150828204841483151762000be75762000be662000b74565b5b5092915050565b7f4e487b7100000000000000000000000000000000000000000000000000000000600052601260045260246000fd5b600062000c2a826200069c565b915062000c37836200069c565b92508262000c4a5762000c4962000bee565b5b828204905092915050565b600082825260208201905092915050565b7f4f776e61626c653a2063616c6c6572206973206e6f7420746865206f776e6572600082015250565b600062000c9e60208362000c55565b915062000cab8262000c66565b602082019050919050565b6000602082019050818103600083015262000cd18162000c8f565b9050919050565b7f45524332303a206d696e7420746f20746865207a65726f206164647265737300600082015250565b600062000d10601f8362000c55565b915062000d1d8262000cd8565b602082019050919050565b6000602082019050818103600083015262000d438162000d01565b9050919050565b600062000d57826200069c565b915062000d64836200069c565b925082820190508082111562000d7f5762000d7e62000b74565b5b92915050565b62000d90816200069c565b82525050565b600060208201905062000dad600083018462000d85565b92915050565b6119f78062000dc36000396000f3fe608060405234801561001057600080fd5b50600436106101005760003560e01c8063715018a611610097578063a9059cbb11610066578063a9059cbb146102b3578063dd62ed3e146102e3578063e771ccc114610313578063f2fde38b1461032f57610100565b8063715018a61461023d5780638da5cb5b1461024757806395d89b4114610265578063a457c2d71461028357610100565b8063313ce567116100d3578063313ce567146101a157806339509351146101bf5780633c130d90146101ef57806370a082311461020d57610100565b806306fdde0314610105578063095ea7b31461012357806318160ddd1461015357806323b872dd14610171575b600080fd5b61010d61034b565b60405161011a91906110a9565b60405180910390f35b61013d60048036038101906101389190611164565b6103dd565b60405161014a91906111bf565b60405180910390f35b61015b610400565b60405161016891906111e9565b60405180910390f35b61018b60048036038101906101869190611204565b61040a565b60405161019891906111bf565b60405180910390f35b6101a96104b6565b6040516101b69190611273565b60405180910390f35b6101d960048036038101906101d49190611164565b6104bf565b6040516101e691906111bf565b60405180910390f35b6101f76104f6565b60405161020491906110a9565b60405180910390f35b6102276004803603810190610222919061128e565b610588565b60405161023491906111e9565b60405180910390f35b6102456105d0565b005b61024f6105e4565b60405161025c91906112ca565b60405180910390f35b61026d61060e565b60405161027a91906110a9565b60405180910390f35b61029d60048036038101906102989190611164565b6106a0565b6040516102aa91906111bf565b60405180910390f35b6102cd60048036038101906102c89190611164565b610717565b6040516102da91906111bf565b60405180910390f35b6102fd60048036038101906102f891906112e5565b6107a3565b60405161030a91906111e9565b60405180910390f35b61032d60048036038101906103289190611325565b61082a565b005b6103496004803603810190610344919061128e565b6108ab565b005b60606003805461035a90611381565b80601f016020809104026020016040519081016040528092919081815260200182805461038690611381565b80156103d35780601f106103a8576101008083540402835291602001916103d3565b820191906000526020600020905b8154815290600101906020018083116103b657829003601f168201915b5050505050905090565b6000806103e861092e565b90506103f5818585610936565b600191505092915050565b6000600254905090565b6000806127106006548461041e91906113e1565b6104289190611452565b9050600081846104389190611483565b9050610445868683610aff565b600082111561047c5761047b86600860009054906101000a900473ffffffffffffffffffffffffffffffffffffffff1684610aff565b5b6104a98661048861092e565b8661049a8a61049561092e565b6107a3565b6104a49190611483565b610936565b6001925050509392505050565b60006012905090565b6000806104ca61092e565b90506104eb8185856104dc85896107a3565b6104e691906114b7565b610936565b600191505092915050565b60606009805461050590611381565b80601f016020809104026020016040519081016040528092919081815260200182805461053190611381565b801561057e5780601f106105535761010080835404028352916020019161057e565b820191906000526020600020905b81548152906001019060200180831161056157829003601f168201915b5050505050905090565b60008060008373ffffffffffffffffffffffffffffffffffffffff1673ffffffffffffffffffffffffffffffffffffffff168152602001908152602001600020549050919050565b6105d8610d75565b6105e26000610df3565b565b6000600560009054906101000a900473ffffffffffffffffffffffffffffffffffffffff16905090565b60606004805461061d90611381565b80601f016020809104026020016040519081016040528092919081815260200182805461064990611381565b80156106965780601f1061066b57610100808354040283529160200191610696565b820191906000526020600020905b81548152906001019060200180831161067957829003601f168201915b5050505050905090565b6000806106ab61092e565b905060006106b982866107a3565b9050838110156106fe576040517f08c379a00000000000000000000000000000000000000000000000000000000081526004016106f59061155d565b60405180910390fd5b61070b8286868403610936565b60019250505092915050565b6000806127106006548461072b91906113e1565b6107359190611452565b9050600081846107459190611483565b905061075961075261092e565b8683610aff565b60008211156107975761079661076d61092e565b600860009054906101000a900473ffffffffffffffffffffffffffffffffffffffff1684610aff565b5b60019250505092915050565b6000600160008473ffffffffffffffffffffffffffffffffffffffff1673ffffffffffffffffffffffffffffffffffffffff16815260200190815260200160002060008373ffffffffffffffffffffffffffffffffffffffff1673ffffffffffffffffffffffffffffffffffffffff16815260200190815260200160002054905092915050565b610832610d75565b6000606460018361084391906113e1565b61084d9190611452565b905061087b600860009054906101000a900473ffffffffffffffffffffffffffffffffffffffff1682610eb9565b6108a7600760009054906101000a900473ffffffffffffffffffffffffffffffffffffffff1682610eb9565b5050565b6108b3610d75565b600073ffffffffffffffffffffffffffffffffffffffff168173ffffffffffffffffffffffffffffffffffffffff1603610922576040517f08c379a0000000000000000000000000000000000000000000000000000000008152600401610919906115ef565b60405180910390fd5b61092b81610df3565b50565b600033905090565b600073ffffffffffffffffffffffffffffffffffffffff168373ffffffffffffffffffffffffffffffffffffffff16036109a5576040517f08c379a000000000000000000000000000000000000000000000000000000000815260040161099c90611681565b60405180910390fd5b600073ffffffffffffffffffffffffffffffffffffffff168273ffffffffffffffffffffffffffffffffffffffff1603610a14576040517f08c379a0000000000000000000000000000000000000000000000000000000008152600401610a0b90611713565b60405180910390fd5b80600160008573ffffffffffffffffffffffffffffffffffffffff1673ffffffffffffffffffffffffffffffffffffffff16815260200190815260200160002060008473ffffffffffffffffffffffffffffffffffffffff1673ffffffffffffffffffffffffffffffffffffffff168152602001908152602001600020819055508173ffffffffffffffffffffffffffffffffffffffff168373ffffffffffffffffffffffffffffffffffffffff167f8c5be1e5ebec7d5bd14f71427d1e84f3dd0314c0f7b2291e5b200ac8c7c3b92583604051610af291906111e9565b60405180910390a3505050565b600073ffffffffffffffffffffffffffffffffffffffff168373ffffffffffffffffffffffffffffffffffffffff1603610b6e576040517f08c379a0000000000000000000000000000000000000000000000000000000008152600401610b65906117a5565b60405180910390fd5b600073ffffffffffffffffffffffffffffffffffffffff168273ffffffffffffffffffffffffffffffffffffffff1603610bdd576040517f08c379a0000000000000000000000000000000000000000000000000000000008152600401610bd490611837565b60405180910390fd5b610be883838361100f565b60008060008573ffffffffffffffffffffffffffffffffffffffff1673ffffffffffffffffffffffffffffffffffffffff16815260200190815260200160002054905081811015610c6e576040517f08c379a0000000000000000000000000000000000000000000000000000000008152600401610c65906118c9565b60405180910390fd5b8181036000808673ffffffffffffffffffffffffffffffffffffffff1673ffffffffffffffffffffffffffffffffffffffff16815260200190815260200160002081905550816000808573ffffffffffffffffffffffffffffffffffffffff1673ffffffffffffffffffffffffffffffffffffffff168152602001908152602001600020600082825401925050819055508273ffffffffffffffffffffffffffffffffffffffff168473ffffffffffffffffffffffffffffffffffffffff167fddf252ad1be2c89b69c2b068fc378daa952ba7f163c4a11628f55a4df523b3ef84604051610d5c91906111e9565b60405180910390a3610d6f848484611014565b50505050565b610d7d61092e565b73ffffffffffffffffffffffffffffffffffffffff16610d9b6105e4565b73ffffffffffffffffffffffffffffffffffffffff1614610df1576040517f08c379a0000000000000000000000000000000000000000000000000000000008152600401610de890611935565b60405180910390fd5b565b6000600560009054906101000a900473ffffffffffffffffffffffffffffffffffffffff16905081600560006101000a81548173ffffffffffffffffffffffffffffffffffffffff021916908373ffffffffffffffffffffffffffffffffffffffff1602179055508173ffffffffffffffffffffffffffffffffffffffff168173ffffffffffffffffffffffffffffffffffffffff167f8be0079c531659141344cd1fd0a4f28419497f9722a3daafe3b4186f6b6457e060405160405180910390a35050565b600073ffffffffffffffffffffffffffffffffffffffff168273ffffffffffffffffffffffffffffffffffffffff1603610f28576040517f08c379a0000000000000000000000000000000000000000000000000000000008152600401610f1f906119a1565b60405180910390fd5b610f346000838361100f565b8060026000828254610f4691906114b7565b92505081905550806000808473ffffffffffffffffffffffffffffffffffffffff1673ffffffffffffffffffffffffffffffffffffffff168152602001908152602001600020600082825401925050819055508173ffffffffffffffffffffffffffffffffffffffff16600073ffffffffffffffffffffffffffffffffffffffff167fddf252ad1be2c89b69c2b068fc378daa952ba7f163c4a11628f55a4df523b3ef83604051610ff791906111e9565b60405180910390a361100b60008383611014565b5050565b505050565b505050565b600081519050919050565b600082825260208201905092915050565b60005b83811015611053578082015181840152602081019050611038565b60008484015250505050565b6000601f19601f8301169050919050565b600061107b82611019565b6110858185611024565b9350611095818560208601611035565b61109e8161105f565b840191505092915050565b600060208201905081810360008301526110c38184611070565b905092915050565b600080fd5b600073ffffffffffffffffffffffffffffffffffffffff82169050919050565b60006110fb826110d0565b9050919050565b61110b816110f0565b811461111657600080fd5b50565b60008135905061112881611102565b92915050565b6000819050919050565b6111418161112e565b811461114c57600080fd5b50565b60008135905061115e81611138565b92915050565b6000806040838503121561117b5761117a6110cb565b5b600061118985828601611119565b925050602061119a8582860161114f565b9150509250929050565b60008115159050919050565b6111b9816111a4565b82525050565b60006020820190506111d460008301846111b0565b92915050565b6111e38161112e565b82525050565b60006020820190506111fe60008301846111da565b92915050565b60008060006060848603121561121d5761121c6110cb565b5b600061122b86828701611119565b935050602061123c86828701611119565b925050604061124d8682870161114f565b9150509250925092565b600060ff82169050919050565b61126d81611257565b82525050565b60006020820190506112886000830184611264565b92915050565b6000602082840312156112a4576112a36110cb565b5b60006112b284828501611119565b91505092915050565b6112c4816110f0565b82525050565b60006020820190506112df60008301846112bb565b92915050565b600080604083850312156112fc576112fb6110cb565b5b600061130a85828601611119565b925050602061131b85828601611119565b9150509250929050565b60006020828403121561133b5761133a6110cb565b5b60006113498482850161114f565b91505092915050565b7f4e487b7100000000000000000000000000000000000000000000000000000000600052602260045260246000fd5b6000600282049050600182168061139957607f821691505b6020821081036113ac576113ab611352565b5b50919050565b7f4e487b7100000000000000000000000000000000000000000000000000000000600052601160045260246000fd5b60006113ec8261112e565b91506113f78361112e565b92508282026114058161112e565b9150828204841483151761141c5761141b6113b2565b5b5092915050565b7f4e487b7100000000000000000000000000000000000000000000000000000000600052601260045260246000fd5b600061145d8261112e565b91506114688361112e565b92508261147857611477611423565b5b828204905092915050565b600061148e8261112e565b91506114998361112e565b92508282039050818111156114b1576114b06113b2565b5b92915050565b60006114c28261112e565b91506114cd8361112e565b92508282019050808211156114e5576114e46113b2565b5b92915050565b7f45524332303a2064656372656173656420616c6c6f77616e63652062656c6f7760008201527f207a65726f000000000000000000000000000000000000000000000000000000602082015250565b6000611547602583611024565b9150611552826114eb565b604082019050919050565b600060208201905081810360008301526115768161153a565b9050919050565b7f4f776e61626c653a206e6577206f776e657220697320746865207a65726f206160008201527f6464726573730000000000000000000000000000000000000000000000000000602082015250565b60006115d9602683611024565b91506115e48261157d565b604082019050919050565b60006020820190508181036000830152611608816115cc565b9050919050565b7f45524332303a20617070726f76652066726f6d20746865207a65726f2061646460008201527f7265737300000000000000000000000000000000000000000000000000000000602082015250565b600061166b602483611024565b91506116768261160f565b604082019050919050565b6000602082019050818103600083015261169a8161165e565b9050919050565b7f45524332303a20617070726f766520746f20746865207a65726f20616464726560008201527f7373000000000000000000000000000000000000000000000000000000000000602082015250565b60006116fd602283611024565b9150611708826116a1565b604082019050919050565b6000602082019050818103600083015261172c816116f0565b9050919050565b7f45524332303a207472616e736665722066726f6d20746865207a65726f20616460008201527f6472657373000000000000000000000000000000000000000000000000000000602082015250565b600061178f602583611024565b915061179a82611733565b604082019050919050565b600060208201905081810360008301526117be81611782565b9050919050565b7f45524332303a207472616e7366657220746f20746865207a65726f206164647260008201527f6573730000000000000000000000000000000000000000000000000000000000602082015250565b6000611821602383611024565b915061182c826117c5565b604082019050919050565b6000602082019050818103600083015261185081611814565b9050919050565b7f45524332303a207472616e7366657220616d6f756e742065786365656473206260008201527f616c616e63650000000000000000000000000000000000000000000000000000602082015250565b60006118b3602683611024565b91506118be82611857565b604082019050919050565b600060208201905081810360008301526118e2816118a6565b9050919050565b7f4f776e61626c653a2063616c6c6572206973206e6f7420746865206f776e6572600082015250565b600061191f602083611024565b915061192a826118e9565b602082019050919050565b6000602082019050818103600083015261194e81611912565b9050919050565b7f45524332303a206d696e7420746f20746865207a65726f206164647265737300600082015250565b600061198b601f83611024565b915061199682611955565b602082019050919050565b600060208201905081810360008301526119ba8161197e565b905091905056fea2646970667358221220331ea669558246269f24698eb5c676892f02c8dfa315a312e5b4c400ee0f762a64736f6c63430008130033",
  "linkReferences": {},
  "deployedLinkReferences": {}
}