{
  "_format": "hh-sol-artifact-1",
  "contractName": "MemeFactory",
  "sourceName": "contracts/MemeFactory.sol",
  "abi": [
    {
      "inputs": [
        {
          "internalType": "address",
          "name": "recipient_tax",
          "type": "address"
        },
        {
          "internalType": "address",
          "name": "whitelistroutercontract",
          "type": "address"
        }
      ],
      "stateMutability": "nonpayable",
      "type": "constructor"
    },
    {
      "anonymous": false,
      "inputs": [
        {
          "indexed": true,
          "internalType": "address",
          "name": "user",
          "type": "address"
        },
        {
          "indexed": true,
          "internalType": "address",
          "name": "tokenAddress",
          "type": "address"
        },
        {
          "indexed": false,
          "internalType": "uint256",
          "name": "ethAmount",
          "type": "uint256"
        }
      ],
      "name": "LiquidityAdded",
      "type": "event"
    },
    {
      "anonymous": false,
      "inputs": [
        {
          "indexed": true,
          "internalType": "address",
          "name": "owner",
          "type": "address"
        },
        {
          "indexed": false,
          "internalType": "address",
          "name": "memeAddress",
          "type": "address"
        }
      ],
      "name": "MemeCreated",
      "type": "event"
    },
    {
      "anonymous": false,
      "inputs": [
        {
          "indexed": true,
          "internalType": "address",
          "name": "previousOwner",
          "type": "address"
        },
        {
          "indexed": true,
          "internalType": "address",
          "name": "newOwner",
          "type": "address"
        }
      ],
      "name": "OwnershipTransferred",
      "type": "event"
    },
    {
      "inputs": [
        {
          "internalType": "uint256",
          "name": "",
          "type": "uint256"
        }
      ],
      "name": "PoolRoutersV2",
      "outputs": [
        {
          "internalType": "address",
          "name": "",
          "type": "address"
        }
      ],
      "stateMutability": "view",
      "type": "function"
    },
    {
      "inputs": [
        {
          "internalType": "address",
          "name": "newRouter",
          "type": "address"
        }
      ],
      "name": "addPoolRouter",
      "outputs": [],
      "stateMutability": "nonpayable",
      "type": "function"
    },
    {
      "inputs": [
        {
          "internalType": "uint256",
          "name": "",
          "type": "uint256"
        }
      ],
      "name": "allMemes",
      "outputs": [
        {
          "internalType": "address",
          "name": "",
          "type": "address"
        }
      ],
      "stateMutability": "view",
      "type": "function"
    },
    {
      "inputs": [
        {
          "internalType": "address",
          "name": "tokenAddress",
          "type": "address"
        }
      ],
      "name": "checkIfMemeCreated",
      "outputs": [
        {
          "internalType": "bool",
          "name": "",
          "type": "bool"
        }
      ],
      "stateMutability": "view",
      "type": "function"
    },
    {
      "inputs": [
        {
          "internalType": "string",
          "name": "name",
          "type": "string"
        },
        {
          "internalType": "string",
          "name": "symbol",
          "type": "string"
        },
        {
          "internalType": "uint256",
          "name": "maxSupply",
          "type": "uint256"
        },
        {
          "internalType": "address",
          "name": "recipient_tokens",
          "type": "address"
        },
        {
          "internalType": "uint256",
          "name": "BasetaxRate",
          "type": "uint256"
        },
        {
          "internalType": "uint256",
          "name": "protectTime",
          "type": "uint256"
        }
      ],
      "name": "createMeme",
      "outputs": [],
      "stateMutability": "nonpayable",
      "type": "function"
    },
    {
      "inputs": [
        {
          "internalType": "address",
          "name": "tokenAddress",
          "type": "address"
        },
        {
          "internalType": "uint256",
          "name": "routerIndex",
          "type": "uint256"
        }
      ],
      "name": "fastAddLiquidity",
      "outputs": [],
      "stateMutability": "payable",
      "type": "function"
    },
    {
      "inputs": [],
      "name": "getMemeCount",
      "outputs": [
        {
          "internalType": "uint256",
          "name": "",
          "type": "uint256"
        }
      ],
      "stateMutability": "view",
      "type": "function"
    },
    {
      "inputs": [
        {
          "internalType": "address",
          "name": "",
          "type": "address"
        }
      ],
      "name": "isMemeCreated",
      "outputs": [
        {
          "internalType": "bool",
          "name": "",
          "type": "bool"
        }
      ],
      "stateMutability": "view",
      "type": "function"
    },
    {
      "inputs": [],
      "name": "owner",
      "outputs": [
        {
          "internalType": "address",
          "name": "",
          "type": "address"
        }
      ],
      "stateMutability": "view",
      "type": "function"
    },
    {
      "inputs": [
        {
          "internalType": "address",
          "name": "token",
          "type": "address"
        },
        {
          "internalType": "uint256",
          "name": "amount",
          "type": "uint256"
        }
      ],
      "name": "receiveERC20",
      "outputs": [],
      "stateMutability": "nonpayable",
      "type": "function"
    },
    {
      "inputs": [
        {
          "internalType": "address",
          "name": "routerToRemove",
          "type": "address"
        }
      ],
      "name": "removePoolRouter",
      "outputs": [],
      "stateMutability": "nonpayable",
      "type": "function"
    },
    {
      "inputs": [],
      "name": "renounceOwnership",
      "outputs": [],
      "stateMutability": "nonpayable",
      "type": "function"
    },
    {
      "inputs": [
        {
          "internalType": "address",
          "name": "newOwner",
          "type": "address"
        }
      ],
      "name": "transferOwnership",
      "outputs": [],
      "stateMutability": "nonpayable",
      "type": "function"
    },
    {
      "inputs": [
        {
          "internalType": "address",
          "name": "newRecipientTax",
          "type": "address"
        }
      ],
      "name": "updateRecipientTax",
      "outputs": [],
      "stateMutability": "nonpayable",
      "type": "function"
    },
    {
      "inputs": [
        {
          "internalType": "address",
          "name": "token",
          "type": "address"
        },
        {
          "internalType": "uint256",
          "name": "amount",
          "type": "uint256"
        }
      ],
      "name": "withdrawERC20",
      "outputs": [],
      "stateMutability": "nonpayable",
      "type": "function"
    },
    {
      "stateMutability": "payable",
      "type": "receive"
    }
  ],
  "bytecode": "0x608060405261dead600560006101000a81548173ffffffffffffffffffffffffffffffffffffffff021916908373ffffffffffffffffffffffffffffffffffffffff1602179055503480156200005457600080fd5b50604051620057f9380380620057f983398181016040528101906200007a9190620002e3565b6200009a6200008e620001ad60201b60201c565b620001b560201b60201c565b6001808190555081600260006101000a81548173ffffffffffffffffffffffffffffffffffffffff021916908373ffffffffffffffffffffffffffffffffffffffff16021790555030600360006101000a81548173ffffffffffffffffffffffffffffffffffffffff021916908373ffffffffffffffffffffffffffffffffffffffff16021790555080600460006101000a81548173ffffffffffffffffffffffffffffffffffffffff021916908373ffffffffffffffffffffffffffffffffffffffff16021790555080600960006101000a81548173ffffffffffffffffffffffffffffffffffffffff021916908373ffffffffffffffffffffffffffffffffffffffff16021790555050506200032a565b600033905090565b60008060009054906101000a900473ffffffffffffffffffffffffffffffffffffffff169050816000806101000a81548173ffffffffffffffffffffffffffffffffffffffff021916908373ffffffffffffffffffffffffffffffffffffffff1602179055508173ffffffffffffffffffffffffffffffffffffffff168173ffffffffffffffffffffffffffffffffffffffff167f8be0079c531659141344cd1fd0a4f28419497f9722a3daafe3b4186f6b6457e060405160405180910390a35050565b600080fd5b600073ffffffffffffffffffffffffffffffffffffffff82169050919050565b6000620002ab826200027e565b9050919050565b620002bd816200029e565b8114620002c957600080fd5b50565b600081519050620002dd81620002b2565b92915050565b60008060408385031215620002fd57620002fc62000279565b5b60006200030d85828601620002cc565b92505060206200032085828601620002cc565b9150509250929050565b6154bf806200033a6000396000f3fe608060405260043610620001035760003560e01c80638da5cb5b1162000097578063ad1506b51162000061578063ad1506b5146200032e578063aed4aab6146200035c578063d6d41ace146200038a578063f2fde38b14620003ce576200010b565b80638da5cb5b146200025c5780639ca9dcab146200028c578063a1db978214620002bc578063ab72da7d14620002ea576200010b565b80632c8131c211620000d95780632c8131c214620001c65780633b9876a114620001f4578063715018a614620002225780638acd074e146200023c576200010b565b8063073397db146200011057806310df79bc14620001545780631d38c4961462000198576200010b565b366200010b57005b600080fd5b3480156200011d57600080fd5b506200013c600480360381019062000136919062001602565b620003fc565b6040516200014b919062001679565b60405180910390f35b3480156200016157600080fd5b506200018060048036038101906200017a9190620016c7565b6200043c565b6040516200018f919062001716565b60405180910390f35b348015620001a557600080fd5b50620001c46004803603810190620001be919062001895565b6200045c565b005b348015620001d357600080fd5b50620001f26004803603810190620001ec9190620016c7565b620006ce565b005b3480156200020157600080fd5b506200022060048036038101906200021a9190620016c7565b6200071c565b005b3480156200022f57600080fd5b506200023a62000922565b005b6200025a60048036038101906200025491906200196f565b62000938565b005b3480156200026957600080fd5b506200027462000e29565b60405162000283919062001679565b60405180910390f35b3480156200029957600080fd5b50620002a462000e52565b604051620002b39190620019c7565b60405180910390f35b348015620002c957600080fd5b50620002e86004803603810190620002e291906200196f565b62000e5f565b005b348015620002f757600080fd5b5062000316600480360381019062000310919062001602565b62000f05565b60405162000325919062001679565b60405180910390f35b3480156200033b57600080fd5b506200035a6004803603810190620003549190620016c7565b62000f45565b005b3480156200036957600080fd5b506200038860048036038101906200038291906200196f565b6200108f565b005b3480156200039757600080fd5b50620003b66004803603810190620003b09190620016c7565b62001119565b604051620003c5919062001716565b60405180910390f35b348015620003db57600080fd5b50620003fa6004803603810190620003f49190620016c7565b6200116f565b005b600781815481106200040d57600080fd5b906000526020600020016000915054906101000a900473ffffffffffffffffffffffffffffffffffffffff1681565b60066020528060005260406000206000915054906101000a900460ff1681565b6064821115620004a3576040517f08c379a00000000000000000000000000000000000000000000000000000000081526004016200049a9062001a45565b60405180910390fd5b670de0b6b3a7640000841015620004f1576040517f08c379a0000000000000000000000000000000000000000000000000000000008152600401620004e89062001add565b60405180910390fd5b63044b7ec88111156200053b576040517f08c379a0000000000000000000000000000000000000000000000000000000008152600401620005329062001b75565b60405180910390fd5b6000868686600260009054906101000a900473ffffffffffffffffffffffffffffffffffffffff16600360009054906101000a900473ffffffffffffffffffffffffffffffffffffffff1688888830600460009054906101000a900473ffffffffffffffffffffffffffffffffffffffff16604051620005bb90620015a5565b620005d09a9998979695949392919062001c0f565b604051809103906000f080158015620005ed573d6000803e3d6000fd5b5090506200061381670de0b6b3a7640000876200060b919062001d2b565b6000620011f9565b8073ffffffffffffffffffffffffffffffffffffffff1663715018a66040518163ffffffff1660e01b8152600401600060405180830381600087803b1580156200065c57600080fd5b505af115801562000671573d6000803e3d6000fd5b505050503373ffffffffffffffffffffffffffffffffffffffff167fa92eec8dad0c149c82f93ac410e601bb03794f96ca5375339bbd0f84d59e23cb82604051620006bd919062001679565b60405180910390a250505050505050565b620006d8620013e1565b80600260006101000a81548173ffffffffffffffffffffffffffffffffffffffff021916908373ffffffffffffffffffffffffffffffffffffffff16021790555050565b62000726620013e1565b6000600880549050905060005b600880549050811015620007d5578273ffffffffffffffffffffffffffffffffffffffff16600882815481106200076f576200076e62001d63565b5b9060005260206000200160009054906101000a900473ffffffffffffffffffffffffffffffffffffffff1673ffffffffffffffffffffffffffffffffffffffff1603620007bf57809150620007d5565b8080620007cc9062001d92565b91505062000733565b50600880549050811062000820576040517f08c379a0000000000000000000000000000000000000000000000000000000008152600401620008179062001e2f565b60405180910390fd5b6008600160088054905062000836919062001e51565b815481106200084a576200084962001d63565b5b9060005260206000200160009054906101000a900473ffffffffffffffffffffffffffffffffffffffff16600882815481106200088c576200088b62001d63565b5b9060005260206000200160006101000a81548173ffffffffffffffffffffffffffffffffffffffff021916908373ffffffffffffffffffffffffffffffffffffffff1602179055506008805480620008e957620008e862001e8c565b5b6001900381819060005260206000200160006101000a81549073ffffffffffffffffffffffffffffffffffffffff021916905590555050565b6200092c620013e1565b6200093662001466565b565b620009426200147e565b66038d7ea4c680003410156200098f576040517f08c379a0000000000000000000000000000000000000000000000000000000008152600401620009869062001f0b565b60405180910390fd5b6000600960009054906101000a900473ffffffffffffffffffffffffffffffffffffffff1673ffffffffffffffffffffffffffffffffffffffff16636b85a83f836040518263ffffffff1660e01b8152600401620009ee9190620019c7565b602060405180830381865afa15801562000a0c573d6000803e3d6000fd5b505050506040513d601f19601f8201168201806040525081019062000a32919062001f44565b9050600081905060008473ffffffffffffffffffffffffffffffffffffffff166370a08231306040518263ffffffff1660e01b815260040162000a76919062001679565b602060405180830381865afa15801562000a94573d6000803e3d6000fd5b505050506040513d601f19601f8201168201806040525081019062000aba919062001f8d565b90506000811162000b02576040517f08c379a000000000000000000000000000000000000000000000000000000000815260040162000af9906200200f565b60405180910390fd5b606481101562000b49576040517f08c379a000000000000000000000000000000000000000000000000000000000815260040162000b409062002081565b60405180910390fd5b600060648262000b5a919062001d2b565b90506000818362000b6c919062001e51565b90506000811162000bb4576040517f08c379a000000000000000000000000000000000000000000000000000000000815260040162000bab90620020f3565b60405180910390fd5b8673ffffffffffffffffffffffffffffffffffffffff1663095ea7b385836040518363ffffffff1660e01b815260040162000bf192919062002115565b6020604051808303816000875af115801562000c11573d6000803e3d6000fd5b505050506040513d601f19601f8201168201806040525081019062000c37919062002173565b508373ffffffffffffffffffffffffffffffffffffffff1663f305d719348984600080600560009054906101000a900473ffffffffffffffffffffffffffffffffffffffff16426040518863ffffffff1660e01b815260040162000ca196959493929190620021f2565b60606040518083038185885af115801562000cc0573d6000803e3d6000fd5b50505050506040513d601f19601f8201168201806040525081019062000ce791906200225f565b5050508673ffffffffffffffffffffffffffffffffffffffff1663a9059cbb33846040518363ffffffff1660e01b815260040162000d2792919062002115565b6020604051808303816000875af115801562000d47573d6000803e3d6000fd5b505050506040513d601f19601f8201168201806040525081019062000d6d919062002173565b62000daf576040517f08c379a000000000000000000000000000000000000000000000000000000000815260040162000da6906200230b565b60405180910390fd5b8673ffffffffffffffffffffffffffffffffffffffff163373ffffffffffffffffffffffffffffffffffffffff167f9d278c56ba6dc86a12eefe6b43112bd6e06648eb4ec0b950ee2d783d40e2acb43460405162000e0e9190620019c7565b60405180910390a3505050505062000e25620014d0565b5050565b60008060009054906101000a900473ffffffffffffffffffffffffffffffffffffffff16905090565b6000600780549050905090565b62000e69620013e1565b62000e736200147e565b8173ffffffffffffffffffffffffffffffffffffffff1663a9059cbb33836040518363ffffffff1660e01b815260040162000eb092919062002115565b6020604051808303816000875af115801562000ed0573d6000803e3d6000fd5b505050506040513d601f19601f8201168201806040525081019062000ef6919062002173565b5062000f01620014d0565b5050565b6008818154811062000f1657600080fd5b906000526020600020016000915054906101000a900473ffffffffffffffffffffffffffffffffffffffff1681565b62000f4f620013e1565b60005b60088054905081101562001028578173ffffffffffffffffffffffffffffffffffffffff166008828154811062000f8e5762000f8d62001d63565b5b9060005260206000200160009054906101000a900473ffffffffffffffffffffffffffffffffffffffff1673ffffffffffffffffffffffffffffffffffffffff160362001012576040517f08c379a000000000000000000000000000000000000000000000000000000000815260040162001009906200237d565b60405180910390fd5b80806200101f9062001d92565b91505062000f52565b506008819080600181540180825580915050600190039060005260206000200160009091909190916101000a81548173ffffffffffffffffffffffffffffffffffffffff021916908373ffffffffffffffffffffffffffffffffffffffff16021790555050565b8173ffffffffffffffffffffffffffffffffffffffff166323b872dd3330846040518463ffffffff1660e01b8152600401620010ce939291906200239f565b6020604051808303816000875af1158015620010ee573d6000803e3d6000fd5b505050506040513d601f19601f8201168201806040525081019062001114919062002173565b505050565b6000600660008373ffffffffffffffffffffffffffffffffffffffff1673ffffffffffffffffffffffffffffffffffffffff16815260200190815260200160002060009054906101000a900460ff169050919050565b62001179620013e1565b600073ffffffffffffffffffffffffffffffffffffffff168173ffffffffffffffffffffffffffffffffffffffff1603620011eb576040517f08c379a0000000000000000000000000000000000000000000000000000000008152600401620011e29062002452565b60405180910390fd5b620011f681620014d9565b50565b6000600960009054906101000a900473ffffffffffffffffffffffffffffffffffffffff1673ffffffffffffffffffffffffffffffffffffffff16636b85a83f836040518263ffffffff1660e01b8152600401620012589190620019c7565b602060405180830381865afa15801562001276573d6000803e3d6000fd5b505050506040513d601f19601f820116820180604052508101906200129c919062001f44565b905060008190508473ffffffffffffffffffffffffffffffffffffffff1663095ea7b382866040518363ffffffff1660e01b8152600401620012e092919062002115565b6020604051808303816000875af115801562001300573d6000803e3d6000fd5b505050506040513d601f19601f8201168201806040525081019062001326919062002173565b508073ffffffffffffffffffffffffffffffffffffffff1663f305d71960038787600080600560009054906101000a900473ffffffffffffffffffffffffffffffffffffffff16426040518863ffffffff1660e01b81526004016200139196959493929190620021f2565b60606040518083038185885af1158015620013b0573d6000803e3d6000fd5b50505050506040513d601f19601f82011682018060405250810190620013d791906200225f565b5050505050505050565b620013eb6200159d565b73ffffffffffffffffffffffffffffffffffffffff166200140b62000e29565b73ffffffffffffffffffffffffffffffffffffffff161462001464576040517f08c379a00000000000000000000000000000000000000000000000000000000081526004016200145b90620024c4565b60405180910390fd5b565b62001470620013e1565b6200147c6000620014d9565b565b600260015403620014c6576040517f08c379a0000000000000000000000000000000000000000000000000000000008152600401620014bd9062002536565b60405180910390fd5b6002600181905550565b60018081905550565b60008060009054906101000a900473ffffffffffffffffffffffffffffffffffffffff169050816000806101000a81548173ffffffffffffffffffffffffffffffffffffffff021916908373ffffffffffffffffffffffffffffffffffffffff1602179055508173ffffffffffffffffffffffffffffffffffffffff168173ffffffffffffffffffffffffffffffffffffffff167f8be0079c531659141344cd1fd0a4f28419497f9722a3daafe3b4186f6b6457e060405160405180910390a35050565b600033905090565b612f31806200255983390190565b6000604051905090565b600080fd5b600080fd5b6000819050919050565b620015dc81620015c7565b8114620015e857600080fd5b50565b600081359050620015fc81620015d1565b92915050565b6000602082840312156200161b576200161a620015bd565b5b60006200162b84828501620015eb565b91505092915050565b600073ffffffffffffffffffffffffffffffffffffffff82169050919050565b6000620016618262001634565b9050919050565b620016738162001654565b82525050565b600060208201905062001690600083018462001668565b92915050565b620016a18162001654565b8114620016ad57600080fd5b50565b600081359050620016c18162001696565b92915050565b600060208284031215620016e057620016df620015bd565b5b6000620016f084828501620016b0565b91505092915050565b60008115159050919050565b6200171081620016f9565b82525050565b60006020820190506200172d600083018462001705565b92915050565b600080fd5b600080fd5b6000601f19601f8301169050919050565b7f4e487b7100000000000000000000000000000000000000000000000000000000600052604160045260246000fd5b62001788826200173d565b810181811067ffffffffffffffff82111715620017aa57620017a96200174e565b5b80604052505050565b6000620017bf620015b3565b9050620017cd82826200177d565b919050565b600067ffffffffffffffff821115620017f057620017ef6200174e565b5b620017fb826200173d565b9050602081019050919050565b82818337600083830152505050565b60006200182e6200182884620017d2565b620017b3565b9050828152602081018484840111156200184d576200184c62001738565b5b6200185a84828562001808565b509392505050565b600082601f8301126200187a576200187962001733565b5b81356200188c84826020860162001817565b91505092915050565b60008060008060008060c08789031215620018b557620018b4620015bd565b5b600087013567ffffffffffffffff811115620018d657620018d5620015c2565b5b620018e489828a0162001862565b965050602087013567ffffffffffffffff811115620019085762001907620015c2565b5b6200191689828a0162001862565b95505060406200192989828a01620015eb565b94505060606200193c89828a01620016b0565b93505060806200194f89828a01620015eb565b92505060a06200196289828a01620015eb565b9150509295509295509295565b60008060408385031215620019895762001988620015bd565b5b60006200199985828601620016b0565b9250506020620019ac85828601620015eb565b9150509250929050565b620019c181620015c7565b82525050565b6000602082019050620019de6000830184620019b6565b92915050565b600082825260208201905092915050565b7f5441585f524154455f4d5553545f42455f4c4553535f5448414e5f3130300000600082015250565b600062001a2d601e83620019e4565b915062001a3a82620019f5565b602082019050919050565b6000602082019050818103600083015262001a608162001a1e565b9050919050565b7f4d41585f535550504c595f53484f554c445f42455f4249474745525f5448414e60008201527f5f31000000000000000000000000000000000000000000000000000000000000602082015250565b600062001ac5602283620019e4565b915062001ad28262001a67565b604082019050919050565b6000602082019050818103600083015262001af88162001ab6565b9050919050565b7f50524f544543545f484f5552535f53484f554c445f42455f4c4553535f54484160008201527f4e5f37325f3035365f3532300000000000000000000000000000000000000000602082015250565b600062001b5d602c83620019e4565b915062001b6a8262001aff565b604082019050919050565b6000602082019050818103600083015262001b908162001b4e565b9050919050565b600081519050919050565b60005b8381101562001bc257808201518184015260208101905062001ba5565b60008484015250505050565b600062001bdb8262001b97565b62001be78185620019e4565b935062001bf981856020860162001ba2565b62001c04816200173d565b840191505092915050565b600061014082019050818103600083015262001c2c818d62001bce565b9050818103602083015262001c42818c62001bce565b905062001c53604083018b620019b6565b62001c62606083018a62001668565b62001c71608083018962001668565b62001c8060a083018862001668565b62001c8f60c0830187620019b6565b62001c9e60e0830186620019b6565b62001cae61010083018562001668565b62001cbe61012083018462001668565b9b9a5050505050505050505050565b7f4e487b7100000000000000000000000000000000000000000000000000000000600052601260045260246000fd5b7f4e487b7100000000000000000000000000000000000000000000000000000000600052601160045260246000fd5b600062001d3882620015c7565b915062001d4583620015c7565b92508262001d585762001d5762001ccd565b5b828204905092915050565b7f4e487b7100000000000000000000000000000000000000000000000000000000600052603260045260246000fd5b600062001d9f82620015c7565b91507fffffffffffffffffffffffffffffffffffffffffffffffffffffffffffffffff820362001dd45762001dd362001cfc565b5b600182019050919050565b7f524f555445525f4e4f545f464f554e4400000000000000000000000000000000600082015250565b600062001e17601083620019e4565b915062001e248262001ddf565b602082019050919050565b6000602082019050818103600083015262001e4a8162001e08565b9050919050565b600062001e5e82620015c7565b915062001e6b83620015c7565b925082820390508181111562001e865762001e8562001cfc565b5b92915050565b7f4e487b7100000000000000000000000000000000000000000000000000000000600052603160045260246000fd5b7f4554485f52455155495245440000000000000000000000000000000000000000600082015250565b600062001ef3600c83620019e4565b915062001f008262001ebb565b602082019050919050565b6000602082019050818103600083015262001f268162001ee4565b9050919050565b60008151905062001f3e8162001696565b92915050565b60006020828403121562001f5d5762001f5c620015bd565b5b600062001f6d8482850162001f2d565b91505092915050565b60008151905062001f8781620015d1565b92915050565b60006020828403121562001fa65762001fa5620015bd565b5b600062001fb68482850162001f76565b91505092915050565b7f4e4f5f544f4b454e535f415641494c41424c4500000000000000000000000000600082015250565b600062001ff7601383620019e4565b9150620020048262001fbf565b602082019050919050565b600060208201905081810360008301526200202a8162001fe8565b9050919050565b7f494e53554646494349454e545f544f4b454e535f464f525f504f4f4c00000000600082015250565b600062002069601c83620019e4565b9150620020768262002031565b602082019050919050565b600060208201905081810360008301526200209c816200205a565b9050919050565b7f4e4f5f544f4b454e535f464f525f4c4951554944495459000000000000000000600082015250565b6000620020db601783620019e4565b9150620020e882620020a3565b602082019050919050565b600060208201905081810360008301526200210e81620020cc565b9050919050565b60006040820190506200212c600083018562001668565b6200213b6020830184620019b6565b9392505050565b6200214d81620016f9565b81146200215957600080fd5b50565b6000815190506200216d8162002142565b92915050565b6000602082840312156200218c576200218b620015bd565b5b60006200219c848285016200215c565b91505092915050565b6000819050919050565b6000819050919050565b6000620021da620021d4620021ce84620021a5565b620021af565b620015c7565b9050919050565b620021ec81620021b9565b82525050565b600060c08201905062002209600083018962001668565b620022186020830188620019b6565b620022276040830187620021e1565b620022366060830186620021e1565b62002245608083018562001668565b6200225460a0830184620019b6565b979650505050505050565b6000806000606084860312156200227b576200227a620015bd565b5b60006200228b8682870162001f76565b93505060206200229e8682870162001f76565b9250506040620022b18682870162001f76565b9150509250925092565b7f5452414e534645525f4641494c45440000000000000000000000000000000000600082015250565b6000620022f3600f83620019e4565b91506200230082620022bb565b602082019050919050565b600060208201905081810360008301526200232681620022e4565b9050919050565b7f524f555445525f414c52454144595f4558495354530000000000000000000000600082015250565b600062002365601583620019e4565b915062002372826200232d565b602082019050919050565b60006020820190508181036000830152620023988162002356565b9050919050565b6000606082019050620023b6600083018662001668565b620023c5602083018562001668565b620023d46040830184620019b6565b949350505050565b7f4f776e61626c653a206e6577206f776e657220697320746865207a65726f206160008201527f6464726573730000000000000000000000000000000000000000000000000000602082015250565b60006200243a602683620019e4565b91506200244782620023dc565b604082019050919050565b600060208201905081810360008301526200246d816200242b565b9050919050565b7f4f776e61626c653a2063616c6c6572206973206e6f7420746865206f776e6572600082015250565b6000620024ac602083620019e4565b9150620024b98262002474565b602082019050919050565b60006020820190508181036000830152620024df816200249d565b9050919050565b7f5265656e7472616e637947756172643a207265656e7472616e742063616c6c00600082015250565b60006200251e601f83620019e4565b91506200252b82620024e6565b602082019050919050565b6000602082019050818103600083015262002551816200250f565b905091905056fe6080604052603c600c553480156200001657600080fd5b5060405162002f3138038062002f3183398181016040528101906200003c919062000847565b898981600390816200004f919062000bbc565b50806004908162000061919062000bbc565b5050506200008462000078620001ff60201b60201c565b6200020760201b60201c565b8360068190555086600760006101000a81548173ffffffffffffffffffffffffffffffffffffffff021916908373ffffffffffffffffffffffffffffffffffffffff16021790555085600860006101000a81548173ffffffffffffffffffffffffffffffffffffffff021916908373ffffffffffffffffffffffffffffffffffffffff16021790555084600960006101000a81548173ffffffffffffffffffffffffffffffffffffffff021916908373ffffffffffffffffffffffffffffffffffffffff16021790555082600a8190555081600d60006101000a81548173ffffffffffffffffffffffffffffffffffffffff021916908373ffffffffffffffffffffffffffffffffffffffff16021790555080600e60006101000a81548173ffffffffffffffffffffffffffffffffffffffff021916908373ffffffffffffffffffffffffffffffffffffffff160217905550620001e888620002cd60201b60201c565b42600b819055505050505050505050505062000ee2565b600033905090565b6000600560009054906101000a900473ffffffffffffffffffffffffffffffffffffffff16905081600560006101000a81548173ffffffffffffffffffffffffffffffffffffffff021916908373ffffffffffffffffffffffffffffffffffffffff1602179055508173ffffffffffffffffffffffffffffffffffffffff168173ffffffffffffffffffffffffffffffffffffffff167f8be0079c531659141344cd1fd0a4f28419497f9722a3daafe3b4186f6b6457e060405160405180910390a35050565b620002dd620003e260201b60201c565b60006064600183620002f0919062000cd2565b620002fc919062000d4c565b90506000670de0b6b3a764000060018462000318919062000cd2565b62000324919062000d4c565b600a8362000333919062000cd2565b6200033f919062000d84565b905062000375600960009054906101000a900473ffffffffffffffffffffffffffffffffffffffff16846200047360201b60201c565b620003a9600760009054906101000a900473ffffffffffffffffffffffffffffffffffffffff16836200047360201b60201c565b620003dd600860009054906101000a900473ffffffffffffffffffffffffffffffffffffffff16826200047360201b60201c565b505050565b620003f2620001ff60201b60201c565b73ffffffffffffffffffffffffffffffffffffffff1662000418620005e060201b60201c565b73ffffffffffffffffffffffffffffffffffffffff161462000471576040517f08c379a0000000000000000000000000000000000000000000000000000000008152600401620004689062000e20565b60405180910390fd5b565b600073ffffffffffffffffffffffffffffffffffffffff168273ffffffffffffffffffffffffffffffffffffffff1603620004e5576040517f08c379a0000000000000000000000000000000000000000000000000000000008152600401620004dc9062000e92565b60405180910390fd5b620004f9600083836200060a60201b60201c565b80600260008282546200050d919062000d84565b92505081905550806000808473ffffffffffffffffffffffffffffffffffffffff1673ffffffffffffffffffffffffffffffffffffffff168152602001908152602001600020600082825401925050819055508173ffffffffffffffffffffffffffffffffffffffff16600073ffffffffffffffffffffffffffffffffffffffff167fddf252ad1be2c89b69c2b068fc378daa952ba7f163c4a11628f55a4df523b3ef83604051620005c0919062000ec5565b60405180910390a3620005dc600083836200060f60201b60201c565b5050565b6000600560009054906101000a900473ffffffffffffffffffffffffffffffffffffffff16905090565b505050565b505050565b6000604051905090565b600080fd5b600080fd5b600080fd5b600080fd5b6000601f19601f8301169050919050565b7f4e487b7100000000000000000000000000000000000000000000000000000000600052604160045260246000fd5b6200067d8262000632565b810181811067ffffffffffffffff821117156200069f576200069e62000643565b5b80604052505050565b6000620006b462000614565b9050620006c2828262000672565b919050565b600067ffffffffffffffff821115620006e557620006e462000643565b5b620006f08262000632565b9050602081019050919050565b60005b838110156200071d57808201518184015260208101905062000700565b60008484015250505050565b6000620007406200073a84620006c7565b620006a8565b9050828152602081018484840111156200075f576200075e6200062d565b5b6200076c848285620006fd565b509392505050565b600082601f8301126200078c576200078b62000628565b5b81516200079e84826020860162000729565b91505092915050565b6000819050919050565b620007bc81620007a7565b8114620007c857600080fd5b50565b600081519050620007dc81620007b1565b92915050565b600073ffffffffffffffffffffffffffffffffffffffff82169050919050565b60006200080f82620007e2565b9050919050565b620008218162000802565b81146200082d57600080fd5b50565b600081519050620008418162000816565b92915050565b6000806000806000806000806000806101408b8d0312156200086e576200086d6200061e565b5b60008b015167ffffffffffffffff8111156200088f576200088e62000623565b5b6200089d8d828e0162000774565b9a505060208b015167ffffffffffffffff811115620008c157620008c062000623565b5b620008cf8d828e0162000774565b9950506040620008e28d828e01620007cb565b9850506060620008f58d828e0162000830565b9750506080620009088d828e0162000830565b96505060a06200091b8d828e0162000830565b95505060c06200092e8d828e01620007cb565b94505060e0620009418d828e01620007cb565b935050610100620009558d828e0162000830565b925050610120620009698d828e0162000830565b9150509295989b9194979a5092959850565b600081519050919050565b7f4e487b7100000000000000000000000000000000000000000000000000000000600052602260045260246000fd5b60006002820490506001821680620009ce57607f821691505b602082108103620009e457620009e362000986565b5b50919050565b60008190508160005260206000209050919050565b60006020601f8301049050919050565b600082821b905092915050565b60006008830262000a4e7fffffffffffffffffffffffffffffffffffffffffffffffffffffffffffffffff8262000a0f565b62000a5a868362000a0f565b95508019841693508086168417925050509392505050565b6000819050919050565b600062000a9d62000a9762000a9184620007a7565b62000a72565b620007a7565b9050919050565b6000819050919050565b62000ab98362000a7c565b62000ad162000ac88262000aa4565b84845462000a1c565b825550505050565b600090565b62000ae862000ad9565b62000af581848462000aae565b505050565b5b8181101562000b1d5762000b1160008262000ade565b60018101905062000afb565b5050565b601f82111562000b6c5762000b3681620009ea565b62000b4184620009ff565b8101602085101562000b51578190505b62000b6962000b6085620009ff565b83018262000afa565b50505b505050565b600082821c905092915050565b600062000b916000198460080262000b71565b1980831691505092915050565b600062000bac838362000b7e565b9150826002028217905092915050565b62000bc7826200097b565b67ffffffffffffffff81111562000be35762000be262000643565b5b62000bef8254620009b5565b62000bfc82828562000b21565b600060209050601f83116001811462000c34576000841562000c1f578287015190505b62000c2b858262000b9e565b86555062000c9b565b601f19841662000c4486620009ea565b60005b8281101562000c6e5784890151825560018201915060208501945060208101905062000c47565b8683101562000c8e578489015162000c8a601f89168262000b7e565b8355505b6001600288020188555050505b505050505050565b7f4e487b7100000000000000000000000000000000000000000000000000000000600052601160045260246000fd5b600062000cdf82620007a7565b915062000cec83620007a7565b925082820262000cfc81620007a7565b9150828204841483151762000d165762000d1562000ca3565b5b5092915050565b7f4e487b7100000000000000000000000000000000000000000000000000000000600052601260045260246000fd5b600062000d5982620007a7565b915062000d6683620007a7565b92508262000d795762000d7862000d1d565b5b828204905092915050565b600062000d9182620007a7565b915062000d9e83620007a7565b925082820190508082111562000db95762000db862000ca3565b5b92915050565b600082825260208201905092915050565b7f4f776e61626c653a2063616c6c6572206973206e6f7420746865206f776e6572600082015250565b600062000e0860208362000dbf565b915062000e158262000dd0565b602082019050919050565b6000602082019050818103600083015262000e3b8162000df9565b9050919050565b7f45524332303a206d696e7420746f20746865207a65726f206164647265737300600082015250565b600062000e7a601f8362000dbf565b915062000e878262000e42565b602082019050919050565b6000602082019050818103600083015262000ead8162000e6b565b9050919050565b62000ebf81620007a7565b82525050565b600060208201905062000edc600083018462000eb4565b92915050565b61203f8062000ef26000396000f3fe608060405234801561001057600080fd5b506004361061012c5760003560e01c80638da5cb5b116100ad578063b353339511610071578063b35333951461034c578063dd62ed3e1461037c578063dd9ecc78146103ac578063f2fde38b146103ca578063f70d9362146103e65761012c565b80638da5cb5b1461029157806395d89b41146102af578063966bd76c146102cd578063a457c2d7146102ec578063a9059cbb1461031c5761012c565b806339509351116100f457806339509351146101eb5780633ed6d42d1461021b5780636c5808011461023957806370a0823114610257578063715018a6146102875761012c565b806306fdde0314610131578063095ea7b31461014f57806318160ddd1461017f57806323b872dd1461019d578063313ce567146101cd575b600080fd5b610139610404565b604051610146919061164d565b60405180910390f35b61016960048036038101906101649190611708565b610496565b6040516101769190611763565b60405180910390f35b6101876104b9565b604051610194919061178d565b60405180910390f35b6101b760048036038101906101b291906117a8565b6104c3565b6040516101c49190611763565b60405180910390f35b6101d5610849565b6040516101e29190611817565b60405180910390f35b61020560048036038101906102009190611708565b610852565b6040516102129190611763565b60405180910390f35b610223610889565b604051610230919061178d565b60405180910390f35b61024161088f565b60405161024e919061178d565b60405180910390f35b610271600480360381019061026c9190611832565b610895565b60405161027e919061178d565b60405180910390f35b61028f6108dd565b005b6102996108f1565b6040516102a6919061186e565b60405180910390f35b6102b761091b565b6040516102c4919061164d565b60405180910390f35b6102d56109ad565b6040516102e3929190611889565b60405180910390f35b61030660048036038101906103019190611708565b6109be565b6040516103139190611763565b60405180910390f35b61033660048036038101906103319190611708565b610a35565b6040516103439190611763565b60405180910390f35b610366600480360381019061036191906118b2565b610da5565b6040516103739190611763565b60405180910390f35b610396600480360381019061039191906118b2565b610eb4565b6040516103a3919061178d565b60405180910390f35b6103b4610f3b565b6040516103c1919061178d565b60405180910390f35b6103e460048036038101906103df9190611832565b610f41565b005b6103ee610fc4565b6040516103fb919061178d565b60405180910390f35b60606003805461041390611921565b80601f016020809104026020016040519081016040528092919081815260200182805461043f90611921565b801561048c5780601f106104615761010080835404028352916020019161048c565b820191906000526020600020905b81548152906001019060200180831161046f57829003601f168201915b5050505050905090565b6000806104a1611028565b90506104ae818585611030565b600191505092915050565b6000600254905090565b6000806000905060008390506000600c54600b54426104e29190611981565b6104ec91906119e4565b90506000610501886104fc611028565b610eb4565b905085811015610546576040517f08c379a000000000000000000000000000000000000000000000000000000000815260040161053d90611a87565b60405180910390fd5b61056388610552611028565b888461055e9190611981565b611030565b600a548210156106e0576105778888610da5565b156105ad57612710610587610fc4565b876105929190611aa7565b61059c91906119e4565b935083866105aa9190611981565b92505b6105b88888856111f9565b8673ffffffffffffffffffffffffffffffffffffffff168873ffffffffffffffffffffffffffffffffffffffff167fddf252ad1be2c89b69c2b068fc378daa952ba7f163c4a11628f55a4df523b3ef85604051610615919061178d565b60405180910390a360008411156106db5761065388600760009054906101000a900473ffffffffffffffffffffffffffffffffffffffff16866111f9565b600760009054906101000a900473ffffffffffffffffffffffffffffffffffffffff1673ffffffffffffffffffffffffffffffffffffffff168873ffffffffffffffffffffffffffffffffffffffff167fddf252ad1be2c89b69c2b068fc378daa952ba7f163c4a11628f55a4df523b3ef866040516106d2919061178d565b60405180910390a35b61083a565b612710600654876106f19190611aa7565b6106fb91906119e4565b935083866107099190611981565b92506107168888856111f9565b8673ffffffffffffffffffffffffffffffffffffffff168873ffffffffffffffffffffffffffffffffffffffff167fddf252ad1be2c89b69c2b068fc378daa952ba7f163c4a11628f55a4df523b3ef85604051610773919061178d565b60405180910390a36000841115610839576107b188600960009054906101000a900473ffffffffffffffffffffffffffffffffffffffff16866111f9565b600960009054906101000a900473ffffffffffffffffffffffffffffffffffffffff1673ffffffffffffffffffffffffffffffffffffffff168873ffffffffffffffffffffffffffffffffffffffff167fddf252ad1be2c89b69c2b068fc378daa952ba7f163c4a11628f55a4df523b3ef86604051610830919061178d565b60405180910390a35b5b60019450505050509392505050565b60006012905090565b60008061085d611028565b905061087e81858561086f8589610eb4565b6108799190611ae9565b611030565b600191505092915050565b600a5481565b600b5481565b60008060008373ffffffffffffffffffffffffffffffffffffffff1673ffffffffffffffffffffffffffffffffffffffff168152602001908152602001600020549050919050565b6108e561146f565b6108ef60006114ed565b565b6000600560009054906101000a900473ffffffffffffffffffffffffffffffffffffffff16905090565b60606004805461092a90611921565b80601f016020809104026020016040519081016040528092919081815260200182805461095690611921565b80156109a35780601f10610978576101008083540402835291602001916109a3565b820191906000526020600020905b81548152906001019060200180831161098657829003601f168201915b5050505050905090565b600080600b54600a54915091509091565b6000806109c9611028565b905060006109d78286610eb4565b905083811015610a1c576040517f08c379a0000000000000000000000000000000000000000000000000000000008152600401610a1390611b8f565b60405180910390fd5b610a298286868403611030565b60019250505092915050565b6000806000905060008390506000600c54600b5442610a549190611981565b610a5e91906119e4565b9050600a54811015610c0057610a7b610a75611028565b87610da5565b15610ab157612710610a8b610fc4565b86610a969190611aa7565b610aa091906119e4565b92508285610aae9190611981565b91505b610ac3610abc611028565b87846111f9565b8573ffffffffffffffffffffffffffffffffffffffff16610ae2611028565b73ffffffffffffffffffffffffffffffffffffffff167fddf252ad1be2c89b69c2b068fc378daa952ba7f163c4a11628f55a4df523b3ef84604051610b27919061178d565b60405180910390a36000831115610bfb57610b6c610b43611028565b600760009054906101000a900473ffffffffffffffffffffffffffffffffffffffff16856111f9565b600760009054906101000a900473ffffffffffffffffffffffffffffffffffffffff1673ffffffffffffffffffffffffffffffffffffffff16610bad611028565b73ffffffffffffffffffffffffffffffffffffffff167fddf252ad1be2c89b69c2b068fc378daa952ba7f163c4a11628f55a4df523b3ef85604051610bf2919061178d565b60405180910390a35b610d98565b61271060065486610c119190611aa7565b610c1b91906119e4565b92508285610c299190611981565b9150610c3d610c36611028565b87846111f9565b600960009054906101000a900473ffffffffffffffffffffffffffffffffffffffff1673ffffffffffffffffffffffffffffffffffffffff16610c7e611028565b73ffffffffffffffffffffffffffffffffffffffff167fddf252ad1be2c89b69c2b068fc378daa952ba7f163c4a11628f55a4df523b3ef85604051610cc3919061178d565b60405180910390a36000831115610d9757610d08610cdf611028565b600960009054906101000a900473ffffffffffffffffffffffffffffffffffffffff16856111f9565b600960009054906101000a900473ffffffffffffffffffffffffffffffffffffffff1673ffffffffffffffffffffffffffffffffffffffff16610d49611028565b73ffffffffffffffffffffffffffffffffffffffff167fddf252ad1be2c89b69c2b068fc378daa952ba7f163c4a11628f55a4df523b3ef85604051610d8e919061178d565b60405180910390a35b5b6001935050505092915050565b6000600d60009054906101000a900473ffffffffffffffffffffffffffffffffffffffff1673ffffffffffffffffffffffffffffffffffffffff168373ffffffffffffffffffffffffffffffffffffffff1603610e055760009050610eae565b600e60009054906101000a900473ffffffffffffffffffffffffffffffffffffffff1673ffffffffffffffffffffffffffffffffffffffff166386b20cf583306040518363ffffffff1660e01b8152600401610e62929190611baf565b602060405180830381865afa925050508015610e9c57506040513d601f19601f82011682018060405250810190610e999190611c04565b60015b610ea95760009050610eae565b809150505b92915050565b6000600160008473ffffffffffffffffffffffffffffffffffffffff1673ffffffffffffffffffffffffffffffffffffffff16815260200190815260200160002060008373ffffffffffffffffffffffffffffffffffffffff1673ffffffffffffffffffffffffffffffffffffffff16815260200190815260200160002054905092915050565b600c5481565b610f4961146f565b600073ffffffffffffffffffffffffffffffffffffffff168173ffffffffffffffffffffffffffffffffffffffff1603610fb8576040517f08c379a0000000000000000000000000000000000000000000000000000000008152600401610faf90611ca3565b60405180910390fd5b610fc1816114ed565b50565b600080600c54600b5442610fd89190611981565b610fe291906119e4565b9050600a5481101561101e57600a5461271082610fff9190611aa7565b61100991906119e4565b6127106110169190611981565b915050611025565b6006549150505b90565b600033905090565b600073ffffffffffffffffffffffffffffffffffffffff168373ffffffffffffffffffffffffffffffffffffffff160361109f576040517f08c379a000000000000000000000000000000000000000000000000000000000815260040161109690611d35565b60405180910390fd5b600073ffffffffffffffffffffffffffffffffffffffff168273ffffffffffffffffffffffffffffffffffffffff160361110e576040517f08c379a000000000000000000000000000000000000000000000000000000000815260040161110590611dc7565b60405180910390fd5b80600160008573ffffffffffffffffffffffffffffffffffffffff1673ffffffffffffffffffffffffffffffffffffffff16815260200190815260200160002060008473ffffffffffffffffffffffffffffffffffffffff1673ffffffffffffffffffffffffffffffffffffffff168152602001908152602001600020819055508173ffffffffffffffffffffffffffffffffffffffff168373ffffffffffffffffffffffffffffffffffffffff167f8c5be1e5ebec7d5bd14f71427d1e84f3dd0314c0f7b2291e5b200ac8c7c3b925836040516111ec919061178d565b60405180910390a3505050565b600073ffffffffffffffffffffffffffffffffffffffff168373ffffffffffffffffffffffffffffffffffffffff1603611268576040517f08c379a000000000000000000000000000000000000000000000000000000000815260040161125f90611e59565b60405180910390fd5b600073ffffffffffffffffffffffffffffffffffffffff168273ffffffffffffffffffffffffffffffffffffffff16036112d7576040517f08c379a00000000000000000000000000000000000000000000000000000000081526004016112ce90611eeb565b60405180910390fd5b6112e28383836115b3565b60008060008573ffffffffffffffffffffffffffffffffffffffff1673ffffffffffffffffffffffffffffffffffffffff16815260200190815260200160002054905081811015611368576040517f08c379a000000000000000000000000000000000000000000000000000000000815260040161135f90611f7d565b60405180910390fd5b8181036000808673ffffffffffffffffffffffffffffffffffffffff1673ffffffffffffffffffffffffffffffffffffffff16815260200190815260200160002081905550816000808573ffffffffffffffffffffffffffffffffffffffff1673ffffffffffffffffffffffffffffffffffffffff168152602001908152602001600020600082825401925050819055508273ffffffffffffffffffffffffffffffffffffffff168473ffffffffffffffffffffffffffffffffffffffff167fddf252ad1be2c89b69c2b068fc378daa952ba7f163c4a11628f55a4df523b3ef84604051611456919061178d565b60405180910390a36114698484846115b8565b50505050565b611477611028565b73ffffffffffffffffffffffffffffffffffffffff166114956108f1565b73ffffffffffffffffffffffffffffffffffffffff16146114eb576040517f08c379a00000000000000000000000000000000000000000000000000000000081526004016114e290611fe9565b60405180910390fd5b565b6000600560009054906101000a900473ffffffffffffffffffffffffffffffffffffffff16905081600560006101000a81548173ffffffffffffffffffffffffffffffffffffffff021916908373ffffffffffffffffffffffffffffffffffffffff1602179055508173ffffffffffffffffffffffffffffffffffffffff168173ffffffffffffffffffffffffffffffffffffffff167f8be0079c531659141344cd1fd0a4f28419497f9722a3daafe3b4186f6b6457e060405160405180910390a35050565b505050565b505050565b600081519050919050565b600082825260208201905092915050565b60005b838110156115f75780820151818401526020810190506115dc565b60008484015250505050565b6000601f19601f8301169050919050565b600061161f826115bd565b61162981856115c8565b93506116398185602086016115d9565b61164281611603565b840191505092915050565b600060208201905081810360008301526116678184611614565b905092915050565b600080fd5b600073ffffffffffffffffffffffffffffffffffffffff82169050919050565b600061169f82611674565b9050919050565b6116af81611694565b81146116ba57600080fd5b50565b6000813590506116cc816116a6565b92915050565b6000819050919050565b6116e5816116d2565b81146116f057600080fd5b50565b600081359050611702816116dc565b92915050565b6000806040838503121561171f5761171e61166f565b5b600061172d858286016116bd565b925050602061173e858286016116f3565b9150509250929050565b60008115159050919050565b61175d81611748565b82525050565b60006020820190506117786000830184611754565b92915050565b611787816116d2565b82525050565b60006020820190506117a2600083018461177e565b92915050565b6000806000606084860312156117c1576117c061166f565b5b60006117cf868287016116bd565b93505060206117e0868287016116bd565b92505060406117f1868287016116f3565b9150509250925092565b600060ff82169050919050565b611811816117fb565b82525050565b600060208201905061182c6000830184611808565b92915050565b6000602082840312156118485761184761166f565b5b6000611856848285016116bd565b91505092915050565b61186881611694565b82525050565b6000602082019050611883600083018461185f565b92915050565b600060408201905061189e600083018561177e565b6118ab602083018461177e565b9392505050565b600080604083850312156118c9576118c861166f565b5b60006118d7858286016116bd565b92505060206118e8858286016116bd565b9150509250929050565b7f4e487b7100000000000000000000000000000000000000000000000000000000600052602260045260246000fd5b6000600282049050600182168061193957607f821691505b60208210810361194c5761194b6118f2565b5b50919050565b7f4e487b7100000000000000000000000000000000000000000000000000000000600052601160045260246000fd5b600061198c826116d2565b9150611997836116d2565b92508282039050818111156119af576119ae611952565b5b92915050565b7f4e487b7100000000000000000000000000000000000000000000000000000000600052601260045260246000fd5b60006119ef826116d2565b91506119fa836116d2565b925082611a0a57611a096119b5565b5b828204905092915050565b7f45524332303a207472616e7366657220616d6f756e742065786365656473206160008201527f6c6c6f77616e6365000000000000000000000000000000000000000000000000602082015250565b6000611a716028836115c8565b9150611a7c82611a15565b604082019050919050565b60006020820190508181036000830152611aa081611a64565b9050919050565b6000611ab2826116d2565b9150611abd836116d2565b9250828202611acb816116d2565b91508282048414831517611ae257611ae1611952565b5b5092915050565b6000611af4826116d2565b9150611aff836116d2565b9250828201905080821115611b1757611b16611952565b5b92915050565b7f45524332303a2064656372656173656420616c6c6f77616e63652062656c6f7760008201527f207a65726f000000000000000000000000000000000000000000000000000000602082015250565b6000611b796025836115c8565b9150611b8482611b1d565b604082019050919050565b60006020820190508181036000830152611ba881611b6c565b9050919050565b6000604082019050611bc4600083018561185f565b611bd1602083018461185f565b9392505050565b611be181611748565b8114611bec57600080fd5b50565b600081519050611bfe81611bd8565b92915050565b600060208284031215611c1a57611c1961166f565b5b6000611c2884828501611bef565b91505092915050565b7f4f776e61626c653a206e6577206f776e657220697320746865207a65726f206160008201527f6464726573730000000000000000000000000000000000000000000000000000602082015250565b6000611c8d6026836115c8565b9150611c9882611c31565b604082019050919050565b60006020820190508181036000830152611cbc81611c80565b9050919050565b7f45524332303a20617070726f76652066726f6d20746865207a65726f2061646460008201527f7265737300000000000000000000000000000000000000000000000000000000602082015250565b6000611d1f6024836115c8565b9150611d2a82611cc3565b604082019050919050565b60006020820190508181036000830152611d4e81611d12565b9050919050565b7f45524332303a20617070726f766520746f20746865207a65726f20616464726560008201527f7373000000000000000000000000000000000000000000000000000000000000602082015250565b6000611db16022836115c8565b9150611dbc82611d55565b604082019050919050565b60006020820190508181036000830152611de081611da4565b9050919050565b7f45524332303a207472616e736665722066726f6d20746865207a65726f20616460008201527f6472657373000000000000000000000000000000000000000000000000000000602082015250565b6000611e436025836115c8565b9150611e4e82611de7565b604082019050919050565b60006020820190508181036000830152611e7281611e36565b9050919050565b7f45524332303a207472616e7366657220746f20746865207a65726f206164647260008201527f6573730000000000000000000000000000000000000000000000000000000000602082015250565b6000611ed56023836115c8565b9150611ee082611e79565b604082019050919050565b60006020820190508181036000830152611f0481611ec8565b9050919050565b7f45524332303a207472616e7366657220616d6f756e742065786365656473206260008201527f616c616e63650000000000000000000000000000000000000000000000000000602082015250565b6000611f676026836115c8565b9150611f7282611f0b565b604082019050919050565b60006020820190508181036000830152611f9681611f5a565b9050919050565b7f4f776e61626c653a2063616c6c6572206973206e6f7420746865206f776e6572600082015250565b6000611fd36020836115c8565b9150611fde82611f9d565b602082019050919050565b6000602082019050818103600083015261200281611fc6565b905091905056fea264697066735822122025ed509d6f1292d3989891010cb6e6fabfa9c442e528c2918c2b48b730cb1a5e64736f6c63430008130033a264697066735822122092df8f6d20e0b57b39d537899a1a5f4f1293b1c04a3cc88d7d10a0c1b3d5715d64736f6c63430008130033",
  "linkReferences": {},
  "deployedLinkReferences": {}
}