{
  "_format": "hh-sol-artifact-1",
  "contractName": "MemeCreator",
  "sourceName": "contracts/MemeCreator.sol",
  "abi": [
    {
      "inputs": [
        {
          "internalType": "address",
          "name": "recipient_tax",
          "type": "address"
        }
      ],
      "stateMutability": "nonpayable",
      "type": "constructor"
    },
    {
      "anonymous": false,
      "inputs": [
        {
          "indexed": true,
          "internalType": "address",
          "name": "owner",
          "type": "address"
        },
        {
          "indexed": false,
          "internalType": "address",
          "name": "memeAddress",
          "type": "address"
        }
      ],
      "name": "MemeCreated",
      "type": "event"
    },
    {
      "inputs": [
        {
          "internalType": "string",
          "name": "name",
          "type": "string"
        },
        {
          "internalType": "string",
          "name": "symbol",
          "type": "string"
        },
        {
          "internalType": "uint256",
          "name": "maxSupply",
          "type": "uint256"
        },
        {
          "internalType": "address",
          "name": "recipient_tokens",
          "type": "address"
        },
        {
          "internalType": "string",
          "name": "token_meme_URI",
          "type": "string"
        },
        {
          "internalType": "uint256",
          "name": "taxRate",
          "type": "uint256"
        }
      ],
      "name": "createMeme",
      "outputs": [],
      "stateMutability": "nonpayable",
      "type": "function"
    }
  ],
  "bytecode": "0x608060405234801561001057600080fd5b50604051612f64380380612f64833981810160405281019061003291906100db565b806000806101000a81548173ffffffffffffffffffffffffffffffffffffffff021916908373ffffffffffffffffffffffffffffffffffffffff16021790555050610108565b600080fd5b600073ffffffffffffffffffffffffffffffffffffffff82169050919050565b60006100a88261007d565b9050919050565b6100b88161009d565b81146100c357600080fd5b50565b6000815190506100d5816100af565b92915050565b6000602082840312156100f1576100f0610078565b5b60006100ff848285016100c6565b91505092915050565b612e4d806101176000396000f3fe60806040523480156200001157600080fd5b50600436106200002e5760003560e01c8063278440751462000033575b600080fd5b6200005160048036038101906200004b91906200038e565b62000053565b005b6000811015801562000066575060648111155b620000a8576040517f08c379a00000000000000000000000000000000000000000000000000000000081526004016200009f906200050e565b60405180910390fd5b600086868660008054906101000a900473ffffffffffffffffffffffffffffffffffffffff16878787604051620000df906200016a565b620000f19796959493929190620005ca565b604051809103906000f0801580156200010e573d6000803e3d6000fd5b5090503373ffffffffffffffffffffffffffffffffffffffff167fa92eec8dad0c149c82f93ac410e601bb03794f96ca5375339bbd0f84d59e23cb826040516200015991906200065c565b60405180910390a250505050505050565b61279e806200067a83390190565b6000604051905090565b600080fd5b600080fd5b600080fd5b600080fd5b6000601f19601f8301169050919050565b7f4e487b7100000000000000000000000000000000000000000000000000000000600052604160045260246000fd5b620001e18262000196565b810181811067ffffffffffffffff82111715620002035762000202620001a7565b5b80604052505050565b60006200021862000178565b9050620002268282620001d6565b919050565b600067ffffffffffffffff821115620002495762000248620001a7565b5b620002548262000196565b9050602081019050919050565b82818337600083830152505050565b60006200028762000281846200022b565b6200020c565b905082815260208101848484011115620002a657620002a562000191565b5b620002b384828562000261565b509392505050565b600082601f830112620002d357620002d26200018c565b5b8135620002e584826020860162000270565b91505092915050565b6000819050919050565b6200030381620002ee565b81146200030f57600080fd5b50565b6000813590506200032381620002f8565b92915050565b600073ffffffffffffffffffffffffffffffffffffffff82169050919050565b6000620003568262000329565b9050919050565b620003688162000349565b81146200037457600080fd5b50565b60008135905062000388816200035d565b92915050565b60008060008060008060c08789031215620003ae57620003ad62000182565b5b600087013567ffffffffffffffff811115620003cf57620003ce62000187565b5b620003dd89828a01620002bb565b965050602087013567ffffffffffffffff81111562000401576200040062000187565b5b6200040f89828a01620002bb565b95505060406200042289828a0162000312565b94505060606200043589828a0162000377565b935050608087013567ffffffffffffffff81111562000459576200045862000187565b5b6200046789828a01620002bb565b92505060a06200047a89828a0162000312565b9150509295509295509295565b600082825260208201905092915050565b7f5461782072617465206d75737420626520706f7373697469766520616e64206c60008201527f657373207468616e203130300000000000000000000000000000000000000000602082015250565b6000620004f6602c8362000487565b9150620005038262000498565b604082019050919050565b600060208201905081810360008301526200052981620004e7565b9050919050565b600081519050919050565b60005b838110156200055b5780820151818401526020810190506200053e565b60008484015250505050565b6000620005748262000530565b62000580818562000487565b9350620005928185602086016200053b565b6200059d8162000196565b840191505092915050565b620005b381620002ee565b82525050565b620005c48162000349565b82525050565b600060e0820190508181036000830152620005e6818a62000567565b90508181036020830152620005fc818962000567565b90506200060d6040830188620005a8565b6200061c6060830187620005b9565b6200062b6080830186620005b9565b81810360a08301526200063f818562000567565b90506200065060c0830184620005a8565b98975050505050505050565b6000602082019050620006736000830184620005b9565b9291505056fe60806040523480156200001157600080fd5b506040516200279e3803806200279e83398181016040528101906200003791906200073e565b868681600390816200004a919062000a8f565b5080600490816200005c919062000a8f565b5050506200007f620000736200014860201b60201c565b6200015060201b60201c565b816006908162000090919062000a8f565b508060078190555083600860006101000a81548173ffffffffffffffffffffffffffffffffffffffff021916908373ffffffffffffffffffffffffffffffffffffffff16021790555082600960006101000a81548173ffffffffffffffffffffffffffffffffffffffff021916908373ffffffffffffffffffffffffffffffffffffffff1602179055506200012b856200021660201b60201c565b6200013b620002a360201b60201c565b5050505050505062000db5565b600033905090565b6000600560009054906101000a900473ffffffffffffffffffffffffffffffffffffffff16905081600560006101000a81548173ffffffffffffffffffffffffffffffffffffffff021916908373ffffffffffffffffffffffffffffffffffffffff1602179055508173ffffffffffffffffffffffffffffffffffffffff168173ffffffffffffffffffffffffffffffffffffffff167f8be0079c531659141344cd1fd0a4f28419497f9722a3daafe3b4186f6b6457e060405160405180910390a35050565b6000606460038362000229919062000ba5565b62000235919062000c1f565b90506200026b600860009054906101000a900473ffffffffffffffffffffffffffffffffffffffff1682620002b560201b60201c565b6200029f600960009054906101000a900473ffffffffffffffffffffffffffffffffffffffff1683620002b560201b60201c565b5050565b620002b36200042260201b60201c565b565b600073ffffffffffffffffffffffffffffffffffffffff168273ffffffffffffffffffffffffffffffffffffffff160362000327576040517f08c379a00000000000000000000000000000000000000000000000000000000081526004016200031e9062000cb8565b60405180910390fd5b6200033b600083836200044660201b60201c565b80600260008282546200034f919062000cda565b92505081905550806000808473ffffffffffffffffffffffffffffffffffffffff1673ffffffffffffffffffffffffffffffffffffffff168152602001908152602001600020600082825401925050819055508173ffffffffffffffffffffffffffffffffffffffff16600073ffffffffffffffffffffffffffffffffffffffff167fddf252ad1be2c89b69c2b068fc378daa952ba7f163c4a11628f55a4df523b3ef8360405162000402919062000d26565b60405180910390a36200041e600083836200044b60201b60201c565b5050565b620004326200045060201b60201c565b6200044460006200015060201b60201c565b565b505050565b505050565b620004606200014860201b60201c565b73ffffffffffffffffffffffffffffffffffffffff1662000486620004e160201b60201c565b73ffffffffffffffffffffffffffffffffffffffff1614620004df576040517f08c379a0000000000000000000000000000000000000000000000000000000008152600401620004d69062000d93565b60405180910390fd5b565b6000600560009054906101000a900473ffffffffffffffffffffffffffffffffffffffff16905090565b6000604051905090565b600080fd5b600080fd5b600080fd5b600080fd5b6000601f19601f8301169050919050565b7f4e487b7100000000000000000000000000000000000000000000000000000000600052604160045260246000fd5b620005748262000529565b810181811067ffffffffffffffff821117156200059657620005956200053a565b5b80604052505050565b6000620005ab6200050b565b9050620005b9828262000569565b919050565b600067ffffffffffffffff821115620005dc57620005db6200053a565b5b620005e78262000529565b9050602081019050919050565b60005b8381101562000614578082015181840152602081019050620005f7565b60008484015250505050565b6000620006376200063184620005be565b6200059f565b90508281526020810184848401111562000656576200065562000524565b5b62000663848285620005f4565b509392505050565b600082601f8301126200068357620006826200051f565b5b81516200069584826020860162000620565b91505092915050565b6000819050919050565b620006b3816200069e565b8114620006bf57600080fd5b50565b600081519050620006d381620006a8565b92915050565b600073ffffffffffffffffffffffffffffffffffffffff82169050919050565b60006200070682620006d9565b9050919050565b6200071881620006f9565b81146200072457600080fd5b50565b60008151905062000738816200070d565b92915050565b600080600080600080600060e0888a03121562000760576200075f62000515565b5b600088015167ffffffffffffffff8111156200078157620007806200051a565b5b6200078f8a828b016200066b565b975050602088015167ffffffffffffffff811115620007b357620007b26200051a565b5b620007c18a828b016200066b565b9650506040620007d48a828b01620006c2565b9550506060620007e78a828b0162000727565b9450506080620007fa8a828b0162000727565b93505060a088015167ffffffffffffffff8111156200081e576200081d6200051a565b5b6200082c8a828b016200066b565b92505060c06200083f8a828b01620006c2565b91505092959891949750929550565b600081519050919050565b7f4e487b7100000000000000000000000000000000000000000000000000000000600052602260045260246000fd5b60006002820490506001821680620008a157607f821691505b602082108103620008b757620008b662000859565b5b50919050565b60008190508160005260206000209050919050565b60006020601f8301049050919050565b600082821b905092915050565b600060088302620009217fffffffffffffffffffffffffffffffffffffffffffffffffffffffffffffffff82620008e2565b6200092d8683620008e2565b95508019841693508086168417925050509392505050565b6000819050919050565b6000620009706200096a62000964846200069e565b62000945565b6200069e565b9050919050565b6000819050919050565b6200098c836200094f565b620009a46200099b8262000977565b848454620008ef565b825550505050565b600090565b620009bb620009ac565b620009c881848462000981565b505050565b5b81811015620009f057620009e4600082620009b1565b600181019050620009ce565b5050565b601f82111562000a3f5762000a0981620008bd565b62000a1484620008d2565b8101602085101562000a24578190505b62000a3c62000a3385620008d2565b830182620009cd565b50505b505050565b600082821c905092915050565b600062000a646000198460080262000a44565b1980831691505092915050565b600062000a7f838362000a51565b9150826002028217905092915050565b62000a9a826200084e565b67ffffffffffffffff81111562000ab65762000ab56200053a565b5b62000ac2825462000888565b62000acf828285620009f4565b600060209050601f83116001811462000b07576000841562000af2578287015190505b62000afe858262000a71565b86555062000b6e565b601f19841662000b1786620008bd565b60005b8281101562000b415784890151825560018201915060208501945060208101905062000b1a565b8683101562000b61578489015162000b5d601f89168262000a51565b8355505b6001600288020188555050505b505050505050565b7f4e487b7100000000000000000000000000000000000000000000000000000000600052601160045260246000fd5b600062000bb2826200069e565b915062000bbf836200069e565b925082820262000bcf816200069e565b9150828204841483151762000be95762000be862000b76565b5b5092915050565b7f4e487b7100000000000000000000000000000000000000000000000000000000600052601260045260246000fd5b600062000c2c826200069e565b915062000c39836200069e565b92508262000c4c5762000c4b62000bf0565b5b828204905092915050565b600082825260208201905092915050565b7f45524332303a206d696e7420746f20746865207a65726f206164647265737300600082015250565b600062000ca0601f8362000c57565b915062000cad8262000c68565b602082019050919050565b6000602082019050818103600083015262000cd38162000c91565b9050919050565b600062000ce7826200069e565b915062000cf4836200069e565b925082820190508082111562000d0f5762000d0e62000b76565b5b92915050565b62000d20816200069e565b82525050565b600060208201905062000d3d600083018462000d15565b92915050565b7f4f776e61626c653a2063616c6c6572206973206e6f7420746865206f776e6572600082015250565b600062000d7b60208362000c57565b915062000d888262000d43565b602082019050919050565b6000602082019050818103600083015262000dae8162000d6c565b9050919050565b6119d98062000dc56000396000f3fe608060405234801561001057600080fd5b50600436106101005760003560e01c8063715018a611610097578063a9059cbb11610066578063a9059cbb146102b3578063dd62ed3e146102e3578063e771ccc114610313578063f2fde38b1461032f57610100565b8063715018a61461023d5780638da5cb5b1461024757806395d89b4114610265578063a457c2d71461028357610100565b8063313ce567116100d3578063313ce567146101a157806339509351146101bf5780633c130d90146101ef57806370a082311461020d57610100565b806306fdde0314610105578063095ea7b31461012357806318160ddd1461015357806323b872dd14610171575b600080fd5b61010d61034b565b60405161011a919061108b565b60405180910390f35b61013d60048036038101906101389190611146565b6103dd565b60405161014a91906111a1565b60405180910390f35b61015b610400565b60405161016891906111cb565b60405180910390f35b61018b600480360381019061018691906111e6565b61040a565b60405161019891906111a1565b60405180910390f35b6101a96104ab565b6040516101b69190611255565b60405180910390f35b6101d960048036038101906101d49190611146565b6104b4565b6040516101e691906111a1565b60405180910390f35b6101f76104eb565b604051610204919061108b565b60405180910390f35b61022760048036038101906102229190611270565b61057d565b60405161023491906111cb565b60405180910390f35b6102456105c5565b005b61024f6105d9565b60405161025c91906112ac565b60405180910390f35b61026d610603565b60405161027a919061108b565b60405180910390f35b61029d60048036038101906102989190611146565b610695565b6040516102aa91906111a1565b60405180910390f35b6102cd60048036038101906102c89190611146565b61070c565b6040516102da91906111a1565b60405180910390f35b6102fd60048036038101906102f891906112c7565b61078d565b60405161030a91906111cb565b60405180910390f35b61032d60048036038101906103289190611307565b610814565b005b61034960048036038101906103449190611270565b61088d565b005b60606003805461035a90611363565b80601f016020809104026020016040519081016040528092919081815260200182805461038690611363565b80156103d35780601f106103a8576101008083540402835291602001916103d3565b820191906000526020600020905b8154815290600101906020018083116103b657829003601f168201915b5050505050905090565b6000806103e8610910565b90506103f5818585610918565b600191505092915050565b6000600254905090565b60008060646007548461041d91906113c3565b6104279190611434565b9050600081846104379190611465565b9050610444868683610ae1565b61047186600960009054906101000a900473ffffffffffffffffffffffffffffffffffffffff1684610ae1565b61049e8661047d610910565b8661048f8a61048a610910565b61078d565b6104999190611465565b610918565b6001925050509392505050565b60006012905090565b6000806104bf610910565b90506104e08185856104d1858961078d565b6104db9190611499565b610918565b600191505092915050565b6060600680546104fa90611363565b80601f016020809104026020016040519081016040528092919081815260200182805461052690611363565b80156105735780601f1061054857610100808354040283529160200191610573565b820191906000526020600020905b81548152906001019060200180831161055657829003601f168201915b5050505050905090565b60008060008373ffffffffffffffffffffffffffffffffffffffff1673ffffffffffffffffffffffffffffffffffffffff168152602001908152602001600020549050919050565b6105cd610d57565b6105d76000610dd5565b565b6000600560009054906101000a900473ffffffffffffffffffffffffffffffffffffffff16905090565b60606004805461061290611363565b80601f016020809104026020016040519081016040528092919081815260200182805461063e90611363565b801561068b5780601f106106605761010080835404028352916020019161068b565b820191906000526020600020905b81548152906001019060200180831161066e57829003601f168201915b5050505050905090565b6000806106a0610910565b905060006106ae828661078d565b9050838110156106f3576040517f08c379a00000000000000000000000000000000000000000000000000000000081526004016106ea9061153f565b60405180910390fd5b6107008286868403610918565b60019250505092915050565b60008060646007548461071f91906113c3565b6107299190611434565b9050600081846107399190611465565b905061074d610746610910565b8683610ae1565b610781610758610910565b600960009054906101000a900473ffffffffffffffffffffffffffffffffffffffff1684610ae1565b60019250505092915050565b6000600160008473ffffffffffffffffffffffffffffffffffffffff1673ffffffffffffffffffffffffffffffffffffffff16815260200190815260200160002060008373ffffffffffffffffffffffffffffffffffffffff1673ffffffffffffffffffffffffffffffffffffffff16815260200190815260200160002054905092915050565b6000606460038361082591906113c3565b61082f9190611434565b905061085d600860009054906101000a900473ffffffffffffffffffffffffffffffffffffffff1682610e9b565b610889600960009054906101000a900473ffffffffffffffffffffffffffffffffffffffff1683610e9b565b5050565b610895610d57565b600073ffffffffffffffffffffffffffffffffffffffff168173ffffffffffffffffffffffffffffffffffffffff1603610904576040517f08c379a00000000000000000000000000000000000000000000000000000000081526004016108fb906115d1565b60405180910390fd5b61090d81610dd5565b50565b600033905090565b600073ffffffffffffffffffffffffffffffffffffffff168373ffffffffffffffffffffffffffffffffffffffff1603610987576040517f08c379a000000000000000000000000000000000000000000000000000000000815260040161097e90611663565b60405180910390fd5b600073ffffffffffffffffffffffffffffffffffffffff168273ffffffffffffffffffffffffffffffffffffffff16036109f6576040517f08c379a00000000000000000000000000000000000000000000000000000000081526004016109ed906116f5565b60405180910390fd5b80600160008573ffffffffffffffffffffffffffffffffffffffff1673ffffffffffffffffffffffffffffffffffffffff16815260200190815260200160002060008473ffffffffffffffffffffffffffffffffffffffff1673ffffffffffffffffffffffffffffffffffffffff168152602001908152602001600020819055508173ffffffffffffffffffffffffffffffffffffffff168373ffffffffffffffffffffffffffffffffffffffff167f8c5be1e5ebec7d5bd14f71427d1e84f3dd0314c0f7b2291e5b200ac8c7c3b92583604051610ad491906111cb565b60405180910390a3505050565b600073ffffffffffffffffffffffffffffffffffffffff168373ffffffffffffffffffffffffffffffffffffffff1603610b50576040517f08c379a0000000000000000000000000000000000000000000000000000000008152600401610b4790611787565b60405180910390fd5b600073ffffffffffffffffffffffffffffffffffffffff168273ffffffffffffffffffffffffffffffffffffffff1603610bbf576040517f08c379a0000000000000000000000000000000000000000000000000000000008152600401610bb690611819565b60405180910390fd5b610bca838383610ff1565b60008060008573ffffffffffffffffffffffffffffffffffffffff1673ffffffffffffffffffffffffffffffffffffffff16815260200190815260200160002054905081811015610c50576040517f08c379a0000000000000000000000000000000000000000000000000000000008152600401610c47906118ab565b60405180910390fd5b8181036000808673ffffffffffffffffffffffffffffffffffffffff1673ffffffffffffffffffffffffffffffffffffffff16815260200190815260200160002081905550816000808573ffffffffffffffffffffffffffffffffffffffff1673ffffffffffffffffffffffffffffffffffffffff168152602001908152602001600020600082825401925050819055508273ffffffffffffffffffffffffffffffffffffffff168473ffffffffffffffffffffffffffffffffffffffff167fddf252ad1be2c89b69c2b068fc378daa952ba7f163c4a11628f55a4df523b3ef84604051610d3e91906111cb565b60405180910390a3610d51848484610ff6565b50505050565b610d5f610910565b73ffffffffffffffffffffffffffffffffffffffff16610d7d6105d9565b73ffffffffffffffffffffffffffffffffffffffff1614610dd3576040517f08c379a0000000000000000000000000000000000000000000000000000000008152600401610dca90611917565b60405180910390fd5b565b6000600560009054906101000a900473ffffffffffffffffffffffffffffffffffffffff16905081600560006101000a81548173ffffffffffffffffffffffffffffffffffffffff021916908373ffffffffffffffffffffffffffffffffffffffff1602179055508173ffffffffffffffffffffffffffffffffffffffff168173ffffffffffffffffffffffffffffffffffffffff167f8be0079c531659141344cd1fd0a4f28419497f9722a3daafe3b4186f6b6457e060405160405180910390a35050565b600073ffffffffffffffffffffffffffffffffffffffff168273ffffffffffffffffffffffffffffffffffffffff1603610f0a576040517f08c379a0000000000000000000000000000000000000000000000000000000008152600401610f0190611983565b60405180910390fd5b610f1660008383610ff1565b8060026000828254610f289190611499565b92505081905550806000808473ffffffffffffffffffffffffffffffffffffffff1673ffffffffffffffffffffffffffffffffffffffff168152602001908152602001600020600082825401925050819055508173ffffffffffffffffffffffffffffffffffffffff16600073ffffffffffffffffffffffffffffffffffffffff167fddf252ad1be2c89b69c2b068fc378daa952ba7f163c4a11628f55a4df523b3ef83604051610fd991906111cb565b60405180910390a3610fed60008383610ff6565b5050565b505050565b505050565b600081519050919050565b600082825260208201905092915050565b60005b8381101561103557808201518184015260208101905061101a565b60008484015250505050565b6000601f19601f8301169050919050565b600061105d82610ffb565b6110678185611006565b9350611077818560208601611017565b61108081611041565b840191505092915050565b600060208201905081810360008301526110a58184611052565b905092915050565b600080fd5b600073ffffffffffffffffffffffffffffffffffffffff82169050919050565b60006110dd826110b2565b9050919050565b6110ed816110d2565b81146110f857600080fd5b50565b60008135905061110a816110e4565b92915050565b6000819050919050565b61112381611110565b811461112e57600080fd5b50565b6000813590506111408161111a565b92915050565b6000806040838503121561115d5761115c6110ad565b5b600061116b858286016110fb565b925050602061117c85828601611131565b9150509250929050565b60008115159050919050565b61119b81611186565b82525050565b60006020820190506111b66000830184611192565b92915050565b6111c581611110565b82525050565b60006020820190506111e060008301846111bc565b92915050565b6000806000606084860312156111ff576111fe6110ad565b5b600061120d868287016110fb565b935050602061121e868287016110fb565b925050604061122f86828701611131565b9150509250925092565b600060ff82169050919050565b61124f81611239565b82525050565b600060208201905061126a6000830184611246565b92915050565b600060208284031215611286576112856110ad565b5b6000611294848285016110fb565b91505092915050565b6112a6816110d2565b82525050565b60006020820190506112c1600083018461129d565b92915050565b600080604083850312156112de576112dd6110ad565b5b60006112ec858286016110fb565b92505060206112fd858286016110fb565b9150509250929050565b60006020828403121561131d5761131c6110ad565b5b600061132b84828501611131565b91505092915050565b7f4e487b7100000000000000000000000000000000000000000000000000000000600052602260045260246000fd5b6000600282049050600182168061137b57607f821691505b60208210810361138e5761138d611334565b5b50919050565b7f4e487b7100000000000000000000000000000000000000000000000000000000600052601160045260246000fd5b60006113ce82611110565b91506113d983611110565b92508282026113e781611110565b915082820484148315176113fe576113fd611394565b5b5092915050565b7f4e487b7100000000000000000000000000000000000000000000000000000000600052601260045260246000fd5b600061143f82611110565b915061144a83611110565b92508261145a57611459611405565b5b828204905092915050565b600061147082611110565b915061147b83611110565b925082820390508181111561149357611492611394565b5b92915050565b60006114a482611110565b91506114af83611110565b92508282019050808211156114c7576114c6611394565b5b92915050565b7f45524332303a2064656372656173656420616c6c6f77616e63652062656c6f7760008201527f207a65726f000000000000000000000000000000000000000000000000000000602082015250565b6000611529602583611006565b9150611534826114cd565b604082019050919050565b600060208201905081810360008301526115588161151c565b9050919050565b7f4f776e61626c653a206e6577206f776e657220697320746865207a65726f206160008201527f6464726573730000000000000000000000000000000000000000000000000000602082015250565b60006115bb602683611006565b91506115c68261155f565b604082019050919050565b600060208201905081810360008301526115ea816115ae565b9050919050565b7f45524332303a20617070726f76652066726f6d20746865207a65726f2061646460008201527f7265737300000000000000000000000000000000000000000000000000000000602082015250565b600061164d602483611006565b9150611658826115f1565b604082019050919050565b6000602082019050818103600083015261167c81611640565b9050919050565b7f45524332303a20617070726f766520746f20746865207a65726f20616464726560008201527f7373000000000000000000000000000000000000000000000000000000000000602082015250565b60006116df602283611006565b91506116ea82611683565b604082019050919050565b6000602082019050818103600083015261170e816116d2565b9050919050565b7f45524332303a207472616e736665722066726f6d20746865207a65726f20616460008201527f6472657373000000000000000000000000000000000000000000000000000000602082015250565b6000611771602583611006565b915061177c82611715565b604082019050919050565b600060208201905081810360008301526117a081611764565b9050919050565b7f45524332303a207472616e7366657220746f20746865207a65726f206164647260008201527f6573730000000000000000000000000000000000000000000000000000000000602082015250565b6000611803602383611006565b915061180e826117a7565b604082019050919050565b60006020820190508181036000830152611832816117f6565b9050919050565b7f45524332303a207472616e7366657220616d6f756e742065786365656473206260008201527f616c616e63650000000000000000000000000000000000000000000000000000602082015250565b6000611895602683611006565b91506118a082611839565b604082019050919050565b600060208201905081810360008301526118c481611888565b9050919050565b7f4f776e61626c653a2063616c6c6572206973206e6f7420746865206f776e6572600082015250565b6000611901602083611006565b915061190c826118cb565b602082019050919050565b60006020820190508181036000830152611930816118f4565b9050919050565b7f45524332303a206d696e7420746f20746865207a65726f206164647265737300600082015250565b600061196d601f83611006565b915061197882611937565b602082019050919050565b6000602082019050818103600083015261199c81611960565b905091905056fea26469706673582212205e98cba494e356b1891352812621460d48f098f7f4df6ae1abe48cfc487454f464736f6c63430008160033a26469706673582212203fcce306e4dbbab8897ad4fc702f27ad852d16dd0e6648e3d86befcbd1709a0a64736f6c63430008160033",
  "linkReferences": {},
  "deployedLinkReferences": {}
}