{
  "_format": "hh-sol-artifact-1",
  "contractName": "MemeFactory",
  "sourceName": "contracts/MemeFactory.sol",
  "abi": [
    {
      "inputs": [
        {
          "internalType": "address",
          "name": "recipient_tax",
          "type": "address"
        },
        {
          "internalType": "address",
          "name": "uniswapV2Router",
          "type": "address"
        },
        {
          "internalType": "address",
          "name": "recipientTokenPools",
          "type": "address"
        },
        {
          "internalType": "address",
          "name": "whitelistrouters",
          "type": "address"
        }
      ],
      "stateMutability": "nonpayable",
      "type": "constructor"
    },
    {
      "anonymous": false,
      "inputs": [
        {
          "indexed": true,
          "internalType": "address",
          "name": "user",
          "type": "address"
        },
        {
          "indexed": true,
          "internalType": "address",
          "name": "tokenAddress",
          "type": "address"
        },
        {
          "indexed": false,
          "internalType": "uint256",
          "name": "ethAmount",
          "type": "uint256"
        }
      ],
      "name": "LiquidityAdded",
      "type": "event"
    },
    {
      "anonymous": false,
      "inputs": [
        {
          "indexed": true,
          "internalType": "address",
          "name": "owner",
          "type": "address"
        },
        {
          "indexed": false,
          "internalType": "address",
          "name": "memeAddress",
          "type": "address"
        }
      ],
      "name": "MemeCreated",
      "type": "event"
    },
    {
      "anonymous": false,
      "inputs": [
        {
          "indexed": true,
          "internalType": "address",
          "name": "previousOwner",
          "type": "address"
        },
        {
          "indexed": true,
          "internalType": "address",
          "name": "newOwner",
          "type": "address"
        }
      ],
      "name": "OwnershipTransferred",
      "type": "event"
    },
    {
      "inputs": [
        {
          "internalType": "uint256",
          "name": "",
          "type": "uint256"
        }
      ],
      "name": "PoolRoutersV2",
      "outputs": [
        {
          "internalType": "address",
          "name": "",
          "type": "address"
        }
      ],
      "stateMutability": "view",
      "type": "function"
    },
    {
      "inputs": [
        {
          "internalType": "address",
          "name": "newRouter",
          "type": "address"
        }
      ],
      "name": "addPoolRouter",
      "outputs": [],
      "stateMutability": "nonpayable",
      "type": "function"
    },
    {
      "inputs": [
        {
          "internalType": "uint256",
          "name": "",
          "type": "uint256"
        }
      ],
      "name": "allMemes",
      "outputs": [
        {
          "internalType": "address",
          "name": "",
          "type": "address"
        }
      ],
      "stateMutability": "view",
      "type": "function"
    },
    {
      "inputs": [
        {
          "internalType": "address",
          "name": "tokenAddress",
          "type": "address"
        }
      ],
      "name": "checkIfMemeCreated",
      "outputs": [
        {
          "internalType": "bool",
          "name": "",
          "type": "bool"
        }
      ],
      "stateMutability": "view",
      "type": "function"
    },
    {
      "inputs": [
        {
          "internalType": "string",
          "name": "name",
          "type": "string"
        },
        {
          "internalType": "string",
          "name": "symbol",
          "type": "string"
        },
        {
          "internalType": "uint256",
          "name": "maxSupply",
          "type": "uint256"
        },
        {
          "internalType": "address",
          "name": "recipient_tokens",
          "type": "address"
        },
        {
          "internalType": "uint256",
          "name": "BasetaxRate",
          "type": "uint256"
        },
        {
          "internalType": "uint256",
          "name": "protectTime",
          "type": "uint256"
        }
      ],
      "name": "createMeme",
      "outputs": [],
      "stateMutability": "nonpayable",
      "type": "function"
    },
    {
      "inputs": [
        {
          "internalType": "address",
          "name": "tokenAddress",
          "type": "address"
        }
      ],
      "name": "fastAddLiquidity",
      "outputs": [],
      "stateMutability": "payable",
      "type": "function"
    },
    {
      "inputs": [],
      "name": "getMemeCount",
      "outputs": [
        {
          "internalType": "uint256",
          "name": "",
          "type": "uint256"
        }
      ],
      "stateMutability": "view",
      "type": "function"
    },
    {
      "inputs": [
        {
          "internalType": "address",
          "name": "",
          "type": "address"
        }
      ],
      "name": "isMemeCreated",
      "outputs": [
        {
          "internalType": "bool",
          "name": "",
          "type": "bool"
        }
      ],
      "stateMutability": "view",
      "type": "function"
    },
    {
      "inputs": [],
      "name": "owner",
      "outputs": [
        {
          "internalType": "address",
          "name": "",
          "type": "address"
        }
      ],
      "stateMutability": "view",
      "type": "function"
    },
    {
      "inputs": [
        {
          "internalType": "address",
          "name": "token",
          "type": "address"
        },
        {
          "internalType": "uint256",
          "name": "amount",
          "type": "uint256"
        }
      ],
      "name": "receiveERC20",
      "outputs": [],
      "stateMutability": "nonpayable",
      "type": "function"
    },
    {
      "inputs": [
        {
          "internalType": "address",
          "name": "routerToRemove",
          "type": "address"
        }
      ],
      "name": "removePoolRouter",
      "outputs": [],
      "stateMutability": "nonpayable",
      "type": "function"
    },
    {
      "inputs": [],
      "name": "renounceOwnership",
      "outputs": [],
      "stateMutability": "nonpayable",
      "type": "function"
    },
    {
      "inputs": [
        {
          "internalType": "address",
          "name": "newOwner",
          "type": "address"
        }
      ],
      "name": "transferOwnership",
      "outputs": [],
      "stateMutability": "nonpayable",
      "type": "function"
    },
    {
      "inputs": [
        {
          "internalType": "address",
          "name": "newRecipientTax",
          "type": "address"
        }
      ],
      "name": "updateRecipientTax",
      "outputs": [],
      "stateMutability": "nonpayable",
      "type": "function"
    },
    {
      "inputs": [
        {
          "internalType": "address",
          "name": "newRecipientTokensPool",
          "type": "address"
        }
      ],
      "name": "updateRecipientTokensPool",
      "outputs": [],
      "stateMutability": "nonpayable",
      "type": "function"
    },
    {
      "inputs": [
        {
          "internalType": "address",
          "name": "token",
          "type": "address"
        },
        {
          "internalType": "uint256",
          "name": "amount",
          "type": "uint256"
        }
      ],
      "name": "withdrawERC20",
      "outputs": [],
      "stateMutability": "nonpayable",
      "type": "function"
    },
    {
      "stateMutability": "payable",
      "type": "receive"
    }
  ],
  "bytecode": "0x608060405261dead600660006101000a81548173ffffffffffffffffffffffffffffffffffffffff021916908373ffffffffffffffffffffffffffffffffffffffff1602179055503480156200005457600080fd5b50604051620051f7380380620051f783398181016040528101906200007a9190620002e5565b6200009a6200008e620001af60201b60201c565b620001b760201b60201c565b6001808190555083600260006101000a81548173ffffffffffffffffffffffffffffffffffffffff021916908373ffffffffffffffffffffffffffffffffffffffff16021790555082600360006101000a81548173ffffffffffffffffffffffffffffffffffffffff021916908373ffffffffffffffffffffffffffffffffffffffff16021790555081600460006101000a81548173ffffffffffffffffffffffffffffffffffffffff021916908373ffffffffffffffffffffffffffffffffffffffff16021790555080600560006101000a81548173ffffffffffffffffffffffffffffffffffffffff021916908373ffffffffffffffffffffffffffffffffffffffff1602179055505050505062000357565b600033905090565b60008060009054906101000a900473ffffffffffffffffffffffffffffffffffffffff169050816000806101000a81548173ffffffffffffffffffffffffffffffffffffffff021916908373ffffffffffffffffffffffffffffffffffffffff1602179055508173ffffffffffffffffffffffffffffffffffffffff168173ffffffffffffffffffffffffffffffffffffffff167f8be0079c531659141344cd1fd0a4f28419497f9722a3daafe3b4186f6b6457e060405160405180910390a35050565b600080fd5b600073ffffffffffffffffffffffffffffffffffffffff82169050919050565b6000620002ad8262000280565b9050919050565b620002bf81620002a0565b8114620002cb57600080fd5b50565b600081519050620002df81620002b4565b92915050565b600080600080608085870312156200030257620003016200027b565b5b60006200031287828801620002ce565b94505060206200032587828801620002ce565b93505060406200033887828801620002ce565b92505060606200034b87828801620002ce565b91505092959194509250565b614e9080620003676000396000f3fe6080604052600436106200010f5760003560e01c80639ca9dcab1162000097578063aed4aab61162000061578063aed4aab61462000368578063d57b18021462000396578063d6d41ace14620003c4578063f2fde38b14620004085762000117565b80639ca9dcab1462000298578063a1db978214620002c8578063ab72da7d14620002f6578063ad1506b5146200033a5762000117565b80633b9876a111620000d95780633b9876a11462000200578063715018a6146200022e5780638da5cb5b14620002485780639b43b66414620002785762000117565b8063073397db146200011c57806310df79bc14620001605780631d38c49614620001a45780632c8131c214620001d25762000117565b366200011757005b600080fd5b3480156200012957600080fd5b50620001486004803603810190620001429190620014f6565b62000436565b6040516200015791906200156d565b60405180910390f35b3480156200016d57600080fd5b506200018c6004803603810190620001869190620015bb565b62000476565b6040516200019b91906200160a565b60405180910390f35b348015620001b157600080fd5b50620001d06004803603810190620001ca919062001789565b62000496565b005b348015620001df57600080fd5b50620001fe6004803603810190620001f89190620015bb565b62000706565b005b3480156200020d57600080fd5b506200022c6004803603810190620002269190620015bb565b62000754565b005b3480156200023b57600080fd5b50620002466200095a565b005b3480156200025557600080fd5b506200026062000970565b6040516200026f91906200156d565b60405180910390f35b620002966004803603810190620002909190620015bb565b62000999565b005b348015620002a557600080fd5b50620002b062000d7d565b604051620002bf919062001874565b60405180910390f35b348015620002d557600080fd5b50620002f46004803603810190620002ee919062001891565b62000d8a565b005b3480156200030357600080fd5b506200032260048036038101906200031c9190620014f6565b62000e30565b6040516200033191906200156d565b60405180910390f35b3480156200034757600080fd5b50620003666004803603810190620003609190620015bb565b62000e70565b005b3480156200037557600080fd5b506200039460048036038101906200038e919062001891565b62000fba565b005b348015620003a357600080fd5b50620003c26004803603810190620003bc9190620015bb565b62001044565b005b348015620003d157600080fd5b50620003f06004803603810190620003ea9190620015bb565b62001092565b604051620003ff91906200160a565b60405180910390f35b3480156200041557600080fd5b506200043460048036038101906200042e9190620015bb565b620010e8565b005b600881815481106200044757600080fd5b906000526020600020016000915054906101000a900473ffffffffffffffffffffffffffffffffffffffff1681565b60076020528060005260406000206000915054906101000a900460ff1681565b6064821115620004dd576040517f08c379a0000000000000000000000000000000000000000000000000000000008152600401620004d49062001939565b60405180910390fd5b670de0b6b3a76400008410156200052b576040517f08c379a00000000000000000000000000000000000000000000000000000000081526004016200052290620019d1565b60405180910390fd5b63044b7ec881111562000575576040517f08c379a00000000000000000000000000000000000000000000000000000000081526004016200056c9062001a69565b60405180910390fd5b6000868686600260009054906101000a900473ffffffffffffffffffffffffffffffffffffffff16600460009054906101000a900473ffffffffffffffffffffffffffffffffffffffff1688888830600560009054906101000a900473ffffffffffffffffffffffffffffffffffffffff16604051620005f59062001499565b6200060a9a9998979695949392919062001b03565b604051809103906000f08015801562000627573d6000803e3d6000fd5b5090506200064b81670de0b6b3a76400008762000645919062001c1f565b62001172565b8073ffffffffffffffffffffffffffffffffffffffff1663715018a66040518163ffffffff1660e01b8152600401600060405180830381600087803b1580156200069457600080fd5b505af1158015620006a9573d6000803e3d6000fd5b505050503373ffffffffffffffffffffffffffffffffffffffff167fa92eec8dad0c149c82f93ac410e601bb03794f96ca5375339bbd0f84d59e23cb82604051620006f591906200156d565b60405180910390a250505050505050565b62000710620012d5565b80600260006101000a81548173ffffffffffffffffffffffffffffffffffffffff021916908373ffffffffffffffffffffffffffffffffffffffff16021790555050565b6200075e620012d5565b6000600980549050905060005b6009805490508110156200080d578273ffffffffffffffffffffffffffffffffffffffff1660098281548110620007a757620007a662001c57565b5b9060005260206000200160009054906101000a900473ffffffffffffffffffffffffffffffffffffffff1673ffffffffffffffffffffffffffffffffffffffff1603620007f7578091506200080d565b8080620008049062001c86565b9150506200076b565b50600980549050811062000858576040517f08c379a00000000000000000000000000000000000000000000000000000000081526004016200084f9062001d23565b60405180910390fd5b600960016009805490506200086e919062001d45565b8154811062000882576200088162001c57565b5b9060005260206000200160009054906101000a900473ffffffffffffffffffffffffffffffffffffffff1660098281548110620008c457620008c362001c57565b5b9060005260206000200160006101000a81548173ffffffffffffffffffffffffffffffffffffffff021916908373ffffffffffffffffffffffffffffffffffffffff160217905550600980548062000921576200092062001d80565b5b6001900381819060005260206000200160006101000a81549073ffffffffffffffffffffffffffffffffffffffff021916905590555050565b62000964620012d5565b6200096e6200135a565b565b60008060009054906101000a900473ffffffffffffffffffffffffffffffffffffffff16905090565b620009a362001372565b66038d7ea4c68000341015620009f0576040517f08c379a0000000000000000000000000000000000000000000000000000000008152600401620009e79062001dff565b60405180910390fd5b6000600360009054906101000a900473ffffffffffffffffffffffffffffffffffffffff16905060008273ffffffffffffffffffffffffffffffffffffffff166370a08231306040518263ffffffff1660e01b815260040162000a5491906200156d565b602060405180830381865afa15801562000a72573d6000803e3d6000fd5b505050506040513d601f19601f8201168201806040525081019062000a98919062001e38565b90506000811162000ae0576040517f08c379a000000000000000000000000000000000000000000000000000000000815260040162000ad79062001eba565b60405180910390fd5b600060648262000af1919062001c1f565b90508082101562000b39576040517f08c379a000000000000000000000000000000000000000000000000000000000815260040162000b309062001f2c565b60405180910390fd5b6000818362000b49919062001d45565b90508473ffffffffffffffffffffffffffffffffffffffff1663095ea7b385836040518363ffffffff1660e01b815260040162000b8892919062001f4e565b6020604051808303816000875af115801562000ba8573d6000803e3d6000fd5b505050506040513d601f19601f8201168201806040525081019062000bce919062001fac565b508373ffffffffffffffffffffffffffffffffffffffff1663f305d719348784600080600660009054906101000a900473ffffffffffffffffffffffffffffffffffffffff16426040518863ffffffff1660e01b815260040162000c38969594939291906200202b565b60606040518083038185885af115801562000c57573d6000803e3d6000fd5b50505050506040513d601f19601f8201168201806040525081019062000c7e919062002098565b5050508473ffffffffffffffffffffffffffffffffffffffff1663a9059cbb33846040518363ffffffff1660e01b815260040162000cbe92919062001f4e565b6020604051808303816000875af115801562000cde573d6000803e3d6000fd5b505050506040513d601f19601f8201168201806040525081019062000d04919062001fac565b508473ffffffffffffffffffffffffffffffffffffffff163373ffffffffffffffffffffffffffffffffffffffff167f9d278c56ba6dc86a12eefe6b43112bd6e06648eb4ec0b950ee2d783d40e2acb43460405162000d64919062001874565b60405180910390a35050505062000d7a620013c4565b50565b6000600880549050905090565b62000d94620012d5565b62000d9e62001372565b8173ffffffffffffffffffffffffffffffffffffffff1663a9059cbb33836040518363ffffffff1660e01b815260040162000ddb92919062001f4e565b6020604051808303816000875af115801562000dfb573d6000803e3d6000fd5b505050506040513d601f19601f8201168201806040525081019062000e21919062001fac565b5062000e2c620013c4565b5050565b6009818154811062000e4157600080fd5b906000526020600020016000915054906101000a900473ffffffffffffffffffffffffffffffffffffffff1681565b62000e7a620012d5565b60005b60098054905081101562000f53578173ffffffffffffffffffffffffffffffffffffffff166009828154811062000eb95762000eb862001c57565b5b9060005260206000200160009054906101000a900473ffffffffffffffffffffffffffffffffffffffff1673ffffffffffffffffffffffffffffffffffffffff160362000f3d576040517f08c379a000000000000000000000000000000000000000000000000000000000815260040162000f349062002144565b60405180910390fd5b808062000f4a9062001c86565b91505062000e7d565b506009819080600181540180825580915050600190039060005260206000200160009091909190916101000a81548173ffffffffffffffffffffffffffffffffffffffff021916908373ffffffffffffffffffffffffffffffffffffffff16021790555050565b8173ffffffffffffffffffffffffffffffffffffffff166323b872dd3330846040518463ffffffff1660e01b815260040162000ff99392919062002166565b6020604051808303816000875af115801562001019573d6000803e3d6000fd5b505050506040513d601f19601f820116820180604052508101906200103f919062001fac565b505050565b6200104e620012d5565b80600460006101000a81548173ffffffffffffffffffffffffffffffffffffffff021916908373ffffffffffffffffffffffffffffffffffffffff16021790555050565b6000600760008373ffffffffffffffffffffffffffffffffffffffff1673ffffffffffffffffffffffffffffffffffffffff16815260200190815260200160002060009054906101000a900460ff169050919050565b620010f2620012d5565b600073ffffffffffffffffffffffffffffffffffffffff168173ffffffffffffffffffffffffffffffffffffffff160362001164576040517f08c379a00000000000000000000000000000000000000000000000000000000081526004016200115b9062002219565b60405180910390fd5b6200116f81620013cd565b50565b6000600360009054906101000a900473ffffffffffffffffffffffffffffffffffffffff1690508273ffffffffffffffffffffffffffffffffffffffff1663095ea7b382846040518363ffffffff1660e01b8152600401620011d692919062001f4e565b6020604051808303816000875af1158015620011f6573d6000803e3d6000fd5b505050506040513d601f19601f820116820180604052508101906200121c919062001fac565b508073ffffffffffffffffffffffffffffffffffffffff1663f305d71960038585600080600660009054906101000a900473ffffffffffffffffffffffffffffffffffffffff16426040518863ffffffff1660e01b815260040162001287969594939291906200202b565b60606040518083038185885af1158015620012a6573d6000803e3d6000fd5b50505050506040513d601f19601f82011682018060405250810190620012cd919062002098565b505050505050565b620012df62001491565b73ffffffffffffffffffffffffffffffffffffffff16620012ff62000970565b73ffffffffffffffffffffffffffffffffffffffff161462001358576040517f08c379a00000000000000000000000000000000000000000000000000000000081526004016200134f906200228b565b60405180910390fd5b565b62001364620012d5565b620013706000620013cd565b565b600260015403620013ba576040517f08c379a0000000000000000000000000000000000000000000000000000000008152600401620013b190620022fd565b60405180910390fd5b6002600181905550565b60018081905550565b60008060009054906101000a900473ffffffffffffffffffffffffffffffffffffffff169050816000806101000a81548173ffffffffffffffffffffffffffffffffffffffff021916908373ffffffffffffffffffffffffffffffffffffffff1602179055508173ffffffffffffffffffffffffffffffffffffffff168173ffffffffffffffffffffffffffffffffffffffff167f8be0079c531659141344cd1fd0a4f28419497f9722a3daafe3b4186f6b6457e060405160405180910390a35050565b600033905090565b612b3b806200232083390190565b6000604051905090565b600080fd5b600080fd5b6000819050919050565b620014d081620014bb565b8114620014dc57600080fd5b50565b600081359050620014f081620014c5565b92915050565b6000602082840312156200150f576200150e620014b1565b5b60006200151f84828501620014df565b91505092915050565b600073ffffffffffffffffffffffffffffffffffffffff82169050919050565b6000620015558262001528565b9050919050565b620015678162001548565b82525050565b60006020820190506200158460008301846200155c565b92915050565b620015958162001548565b8114620015a157600080fd5b50565b600081359050620015b5816200158a565b92915050565b600060208284031215620015d457620015d3620014b1565b5b6000620015e484828501620015a4565b91505092915050565b60008115159050919050565b6200160481620015ed565b82525050565b6000602082019050620016216000830184620015f9565b92915050565b600080fd5b600080fd5b6000601f19601f8301169050919050565b7f4e487b7100000000000000000000000000000000000000000000000000000000600052604160045260246000fd5b6200167c8262001631565b810181811067ffffffffffffffff821117156200169e576200169d62001642565b5b80604052505050565b6000620016b3620014a7565b9050620016c1828262001671565b919050565b600067ffffffffffffffff821115620016e457620016e362001642565b5b620016ef8262001631565b9050602081019050919050565b82818337600083830152505050565b6000620017226200171c84620016c6565b620016a7565b9050828152602081018484840111156200174157620017406200162c565b5b6200174e848285620016fc565b509392505050565b600082601f8301126200176e576200176d62001627565b5b8135620017808482602086016200170b565b91505092915050565b60008060008060008060c08789031215620017a957620017a8620014b1565b5b600087013567ffffffffffffffff811115620017ca57620017c9620014b6565b5b620017d889828a0162001756565b965050602087013567ffffffffffffffff811115620017fc57620017fb620014b6565b5b6200180a89828a0162001756565b95505060406200181d89828a01620014df565b94505060606200183089828a01620015a4565b93505060806200184389828a01620014df565b92505060a06200185689828a01620014df565b9150509295509295509295565b6200186e81620014bb565b82525050565b60006020820190506200188b600083018462001863565b92915050565b60008060408385031215620018ab57620018aa620014b1565b5b6000620018bb85828601620015a4565b9250506020620018ce85828601620014df565b9150509250929050565b600082825260208201905092915050565b7f5441585f524154455f4d5553545f42455f4c4553535f5448414e5f3130300000600082015250565b600062001921601e83620018d8565b91506200192e82620018e9565b602082019050919050565b60006020820190508181036000830152620019548162001912565b9050919050565b7f4d41585f535550504c595f53484f554c445f42455f4249474745525f5448414e60008201527f5f31000000000000000000000000000000000000000000000000000000000000602082015250565b6000620019b9602283620018d8565b9150620019c6826200195b565b604082019050919050565b60006020820190508181036000830152620019ec81620019aa565b9050919050565b7f50524f544543545f484f5552535f53484f554c445f42455f4c4553535f54484160008201527f4e5f373330303000000000000000000000000000000000000000000000000000602082015250565b600062001a51602783620018d8565b915062001a5e82620019f3565b604082019050919050565b6000602082019050818103600083015262001a848162001a42565b9050919050565b600081519050919050565b60005b8381101562001ab657808201518184015260208101905062001a99565b60008484015250505050565b600062001acf8262001a8b565b62001adb8185620018d8565b935062001aed81856020860162001a96565b62001af88162001631565b840191505092915050565b600061014082019050818103600083015262001b20818d62001ac2565b9050818103602083015262001b36818c62001ac2565b905062001b47604083018b62001863565b62001b56606083018a6200155c565b62001b6560808301896200155c565b62001b7460a08301886200155c565b62001b8360c083018762001863565b62001b9260e083018662001863565b62001ba26101008301856200155c565b62001bb26101208301846200155c565b9b9a5050505050505050505050565b7f4e487b7100000000000000000000000000000000000000000000000000000000600052601260045260246000fd5b7f4e487b7100000000000000000000000000000000000000000000000000000000600052601160045260246000fd5b600062001c2c82620014bb565b915062001c3983620014bb565b92508262001c4c5762001c4b62001bc1565b5b828204905092915050565b7f4e487b7100000000000000000000000000000000000000000000000000000000600052603260045260246000fd5b600062001c9382620014bb565b91507fffffffffffffffffffffffffffffffffffffffffffffffffffffffffffffffff820362001cc85762001cc762001bf0565b5b600182019050919050565b7f524f555445525f4e4f545f464f554e4400000000000000000000000000000000600082015250565b600062001d0b601083620018d8565b915062001d188262001cd3565b602082019050919050565b6000602082019050818103600083015262001d3e8162001cfc565b9050919050565b600062001d5282620014bb565b915062001d5f83620014bb565b925082820390508181111562001d7a5762001d7962001bf0565b5b92915050565b7f4e487b7100000000000000000000000000000000000000000000000000000000600052603160045260246000fd5b7f4554485f52455155495245440000000000000000000000000000000000000000600082015250565b600062001de7600c83620018d8565b915062001df48262001daf565b602082019050919050565b6000602082019050818103600083015262001e1a8162001dd8565b9050919050565b60008151905062001e3281620014c5565b92915050565b60006020828403121562001e515762001e50620014b1565b5b600062001e618482850162001e21565b91505092915050565b7f4e4f5f544f4b454e535f415641494c41424c4500000000000000000000000000600082015250565b600062001ea2601383620018d8565b915062001eaf8262001e6a565b602082019050919050565b6000602082019050818103600083015262001ed58162001e93565b9050919050565b7f494e53554646494349454e545f544f4b454e535f464f525f504f4f4c00000000600082015250565b600062001f14601c83620018d8565b915062001f218262001edc565b602082019050919050565b6000602082019050818103600083015262001f478162001f05565b9050919050565b600060408201905062001f6560008301856200155c565b62001f74602083018462001863565b9392505050565b62001f8681620015ed565b811462001f9257600080fd5b50565b60008151905062001fa68162001f7b565b92915050565b60006020828403121562001fc55762001fc4620014b1565b5b600062001fd58482850162001f95565b91505092915050565b6000819050919050565b6000819050919050565b6000620020136200200d620020078462001fde565b62001fe8565b620014bb565b9050919050565b620020258162001ff2565b82525050565b600060c0820190506200204260008301896200155c565b62002051602083018862001863565b6200206060408301876200201a565b6200206f60608301866200201a565b6200207e60808301856200155c565b6200208d60a083018462001863565b979650505050505050565b600080600060608486031215620020b457620020b3620014b1565b5b6000620020c48682870162001e21565b9350506020620020d78682870162001e21565b9250506040620020ea8682870162001e21565b9150509250925092565b7f524f555445525f414c52454144595f4558495354530000000000000000000000600082015250565b60006200212c601583620018d8565b91506200213982620020f4565b602082019050919050565b600060208201905081810360008301526200215f816200211d565b9050919050565b60006060820190506200217d60008301866200155c565b6200218c60208301856200155c565b6200219b604083018462001863565b949350505050565b7f4f776e61626c653a206e6577206f776e657220697320746865207a65726f206160008201527f6464726573730000000000000000000000000000000000000000000000000000602082015250565b600062002201602683620018d8565b91506200220e82620021a3565b604082019050919050565b600060208201905081810360008301526200223481620021f2565b9050919050565b7f4f776e61626c653a2063616c6c6572206973206e6f7420746865206f776e6572600082015250565b600062002273602083620018d8565b915062002280826200223b565b602082019050919050565b60006020820190508181036000830152620022a68162002264565b9050919050565b7f5265656e7472616e637947756172643a207265656e7472616e742063616c6c00600082015250565b6000620022e5601f83620018d8565b9150620022f282620022ad565b602082019050919050565b600060208201905081810360008301526200231881620022d6565b905091905056fe6080604052603c600c553480156200001657600080fd5b5060405162002b3b38038062002b3b83398181016040528101906200003c919062000847565b898981600390816200004f919062000bbc565b50806004908162000061919062000bbc565b5050506200008462000078620001ff60201b60201c565b6200020760201b60201c565b8360068190555086600760006101000a81548173ffffffffffffffffffffffffffffffffffffffff021916908373ffffffffffffffffffffffffffffffffffffffff16021790555085600860006101000a81548173ffffffffffffffffffffffffffffffffffffffff021916908373ffffffffffffffffffffffffffffffffffffffff16021790555084600960006101000a81548173ffffffffffffffffffffffffffffffffffffffff021916908373ffffffffffffffffffffffffffffffffffffffff16021790555082600a8190555081600d60006101000a81548173ffffffffffffffffffffffffffffffffffffffff021916908373ffffffffffffffffffffffffffffffffffffffff16021790555080600e60006101000a81548173ffffffffffffffffffffffffffffffffffffffff021916908373ffffffffffffffffffffffffffffffffffffffff160217905550620001e888620002cd60201b60201c565b42600b819055505050505050505050505062000ee2565b600033905090565b6000600560009054906101000a900473ffffffffffffffffffffffffffffffffffffffff16905081600560006101000a81548173ffffffffffffffffffffffffffffffffffffffff021916908373ffffffffffffffffffffffffffffffffffffffff1602179055508173ffffffffffffffffffffffffffffffffffffffff168173ffffffffffffffffffffffffffffffffffffffff167f8be0079c531659141344cd1fd0a4f28419497f9722a3daafe3b4186f6b6457e060405160405180910390a35050565b620002dd620003e260201b60201c565b60006064600183620002f0919062000cd2565b620002fc919062000d4c565b90506000670de0b6b3a764000060018462000318919062000cd2565b62000324919062000d4c565b600a8362000333919062000cd2565b6200033f919062000d84565b905062000375600960009054906101000a900473ffffffffffffffffffffffffffffffffffffffff16846200047360201b60201c565b620003a9600760009054906101000a900473ffffffffffffffffffffffffffffffffffffffff16836200047360201b60201c565b620003dd600860009054906101000a900473ffffffffffffffffffffffffffffffffffffffff16826200047360201b60201c565b505050565b620003f2620001ff60201b60201c565b73ffffffffffffffffffffffffffffffffffffffff1662000418620005e060201b60201c565b73ffffffffffffffffffffffffffffffffffffffff161462000471576040517f08c379a0000000000000000000000000000000000000000000000000000000008152600401620004689062000e20565b60405180910390fd5b565b600073ffffffffffffffffffffffffffffffffffffffff168273ffffffffffffffffffffffffffffffffffffffff1603620004e5576040517f08c379a0000000000000000000000000000000000000000000000000000000008152600401620004dc9062000e92565b60405180910390fd5b620004f9600083836200060a60201b60201c565b80600260008282546200050d919062000d84565b92505081905550806000808473ffffffffffffffffffffffffffffffffffffffff1673ffffffffffffffffffffffffffffffffffffffff168152602001908152602001600020600082825401925050819055508173ffffffffffffffffffffffffffffffffffffffff16600073ffffffffffffffffffffffffffffffffffffffff167fddf252ad1be2c89b69c2b068fc378daa952ba7f163c4a11628f55a4df523b3ef83604051620005c0919062000ec5565b60405180910390a3620005dc600083836200060f60201b60201c565b5050565b6000600560009054906101000a900473ffffffffffffffffffffffffffffffffffffffff16905090565b505050565b505050565b6000604051905090565b600080fd5b600080fd5b600080fd5b600080fd5b6000601f19601f8301169050919050565b7f4e487b7100000000000000000000000000000000000000000000000000000000600052604160045260246000fd5b6200067d8262000632565b810181811067ffffffffffffffff821117156200069f576200069e62000643565b5b80604052505050565b6000620006b462000614565b9050620006c2828262000672565b919050565b600067ffffffffffffffff821115620006e557620006e462000643565b5b620006f08262000632565b9050602081019050919050565b60005b838110156200071d57808201518184015260208101905062000700565b60008484015250505050565b6000620007406200073a84620006c7565b620006a8565b9050828152602081018484840111156200075f576200075e6200062d565b5b6200076c848285620006fd565b509392505050565b600082601f8301126200078c576200078b62000628565b5b81516200079e84826020860162000729565b91505092915050565b6000819050919050565b620007bc81620007a7565b8114620007c857600080fd5b50565b600081519050620007dc81620007b1565b92915050565b600073ffffffffffffffffffffffffffffffffffffffff82169050919050565b60006200080f82620007e2565b9050919050565b620008218162000802565b81146200082d57600080fd5b50565b600081519050620008418162000816565b92915050565b6000806000806000806000806000806101408b8d0312156200086e576200086d6200061e565b5b60008b015167ffffffffffffffff8111156200088f576200088e62000623565b5b6200089d8d828e0162000774565b9a505060208b015167ffffffffffffffff811115620008c157620008c062000623565b5b620008cf8d828e0162000774565b9950506040620008e28d828e01620007cb565b9850506060620008f58d828e0162000830565b9750506080620009088d828e0162000830565b96505060a06200091b8d828e0162000830565b95505060c06200092e8d828e01620007cb565b94505060e0620009418d828e01620007cb565b935050610100620009558d828e0162000830565b925050610120620009698d828e0162000830565b9150509295989b9194979a5092959850565b600081519050919050565b7f4e487b7100000000000000000000000000000000000000000000000000000000600052602260045260246000fd5b60006002820490506001821680620009ce57607f821691505b602082108103620009e457620009e362000986565b5b50919050565b60008190508160005260206000209050919050565b60006020601f8301049050919050565b600082821b905092915050565b60006008830262000a4e7fffffffffffffffffffffffffffffffffffffffffffffffffffffffffffffffff8262000a0f565b62000a5a868362000a0f565b95508019841693508086168417925050509392505050565b6000819050919050565b600062000a9d62000a9762000a9184620007a7565b62000a72565b620007a7565b9050919050565b6000819050919050565b62000ab98362000a7c565b62000ad162000ac88262000aa4565b84845462000a1c565b825550505050565b600090565b62000ae862000ad9565b62000af581848462000aae565b505050565b5b8181101562000b1d5762000b1160008262000ade565b60018101905062000afb565b5050565b601f82111562000b6c5762000b3681620009ea565b62000b4184620009ff565b8101602085101562000b51578190505b62000b6962000b6085620009ff565b83018262000afa565b50505b505050565b600082821c905092915050565b600062000b916000198460080262000b71565b1980831691505092915050565b600062000bac838362000b7e565b9150826002028217905092915050565b62000bc7826200097b565b67ffffffffffffffff81111562000be35762000be262000643565b5b62000bef8254620009b5565b62000bfc82828562000b21565b600060209050601f83116001811462000c34576000841562000c1f578287015190505b62000c2b858262000b9e565b86555062000c9b565b601f19841662000c4486620009ea565b60005b8281101562000c6e5784890151825560018201915060208501945060208101905062000c47565b8683101562000c8e578489015162000c8a601f89168262000b7e565b8355505b6001600288020188555050505b505050505050565b7f4e487b7100000000000000000000000000000000000000000000000000000000600052601160045260246000fd5b600062000cdf82620007a7565b915062000cec83620007a7565b925082820262000cfc81620007a7565b9150828204841483151762000d165762000d1562000ca3565b5b5092915050565b7f4e487b7100000000000000000000000000000000000000000000000000000000600052601260045260246000fd5b600062000d5982620007a7565b915062000d6683620007a7565b92508262000d795762000d7862000d1d565b5b828204905092915050565b600062000d9182620007a7565b915062000d9e83620007a7565b925082820190508082111562000db95762000db862000ca3565b5b92915050565b600082825260208201905092915050565b7f4f776e61626c653a2063616c6c6572206973206e6f7420746865206f776e6572600082015250565b600062000e0860208362000dbf565b915062000e158262000dd0565b602082019050919050565b6000602082019050818103600083015262000e3b8162000df9565b9050919050565b7f45524332303a206d696e7420746f20746865207a65726f206164647265737300600082015250565b600062000e7a601f8362000dbf565b915062000e878262000e42565b602082019050919050565b6000602082019050818103600083015262000ead8162000e6b565b9050919050565b62000ebf81620007a7565b82525050565b600060208201905062000edc600083018462000eb4565b92915050565b611c498062000ef26000396000f3fe608060405234801561001057600080fd5b506004361061012c5760003560e01c80638da5cb5b116100ad578063b353339511610071578063b35333951461034c578063dd62ed3e1461037c578063dd9ecc78146103ac578063f2fde38b146103ca578063f70d9362146103e65761012c565b80638da5cb5b1461029157806395d89b41146102af578063966bd76c146102cd578063a457c2d7146102ec578063a9059cbb1461031c5761012c565b806339509351116100f457806339509351146101eb5780633ed6d42d1461021b5780636c5808011461023957806370a0823114610257578063715018a6146102875761012c565b806306fdde0314610131578063095ea7b31461014f57806318160ddd1461017f57806323b872dd1461019d578063313ce567146101cd575b600080fd5b610139610404565b6040516101469190611257565b60405180910390f35b61016960048036038101906101649190611312565b610496565b604051610176919061136d565b60405180910390f35b6101876104b9565b6040516101949190611397565b60405180910390f35b6101b760048036038101906101b291906113b2565b6104c3565b6040516101c4919061136d565b60405180910390f35b6101d5610671565b6040516101e29190611421565b60405180910390f35b61020560048036038101906102009190611312565b61067a565b604051610212919061136d565b60405180910390f35b6102236106b1565b6040516102309190611397565b60405180910390f35b6102416106b7565b60405161024e9190611397565b60405180910390f35b610271600480360381019061026c919061143c565b6106bd565b60405161027e9190611397565b60405180910390f35b61028f610705565b005b610299610719565b6040516102a69190611478565b60405180910390f35b6102b7610743565b6040516102c49190611257565b60405180910390f35b6102d56107d5565b6040516102e3929190611493565b60405180910390f35b61030660048036038101906103019190611312565b6107e6565b604051610313919061136d565b60405180910390f35b61033660048036038101906103319190611312565b61085d565b604051610343919061136d565b60405180910390f35b610366600480360381019061036191906114bc565b6109b7565b604051610373919061136d565b60405180910390f35b610396600480360381019061039191906114bc565b610abe565b6040516103a39190611397565b60405180910390f35b6103b4610b45565b6040516103c19190611397565b60405180910390f35b6103e460048036038101906103df919061143c565b610b4b565b005b6103ee610bce565b6040516103fb9190611397565b60405180910390f35b6060600380546104139061152b565b80601f016020809104026020016040519081016040528092919081815260200182805461043f9061152b565b801561048c5780601f106104615761010080835404028352916020019161048c565b820191906000526020600020905b81548152906001019060200180831161046f57829003601f168201915b5050505050905090565b6000806104a1610c32565b90506104ae818585610c3a565b600191505092915050565b6000600254905090565b6000806000905060008390506000600c54600b54426104e2919061158b565b6104ec91906115ee565b90506000610501886104fc610c32565b610abe565b905085811015610546576040517f08c379a000000000000000000000000000000000000000000000000000000000815260040161053d90611691565b60405180910390fd5b61056388610552610c32565b888461055e919061158b565b610c3a565b600a548210156105f45761057788886109b7565b156105ad57612710610587610bce565b8761059291906116b1565b61059c91906115ee565b935083866105aa919061158b565b92505b6105b8888885610e03565b60008411156105ef576105ee88600760009054906101000a900473ffffffffffffffffffffffffffffffffffffffff1686610e03565b5b610662565b6127106006548761060591906116b1565b61060f91906115ee565b9350838661061d919061158b565b925061062a888885610e03565b60008411156106615761066088600960009054906101000a900473ffffffffffffffffffffffffffffffffffffffff1686610e03565b5b5b60019450505050509392505050565b60006012905090565b600080610685610c32565b90506106a68185856106978589610abe565b6106a191906116f3565b610c3a565b600191505092915050565b600a5481565b600b5481565b60008060008373ffffffffffffffffffffffffffffffffffffffff1673ffffffffffffffffffffffffffffffffffffffff168152602001908152602001600020549050919050565b61070d611079565b61071760006110f7565b565b6000600560009054906101000a900473ffffffffffffffffffffffffffffffffffffffff16905090565b6060600480546107529061152b565b80601f016020809104026020016040519081016040528092919081815260200182805461077e9061152b565b80156107cb5780601f106107a0576101008083540402835291602001916107cb565b820191906000526020600020905b8154815290600101906020018083116107ae57829003601f168201915b5050505050905090565b600080600b54600a54915091509091565b6000806107f1610c32565b905060006107ff8286610abe565b905083811015610844576040517f08c379a000000000000000000000000000000000000000000000000000000000815260040161083b90611799565b60405180910390fd5b6108518286868403610c3a565b60019250505092915050565b6000806000905060008390506000600c54600b544261087c919061158b565b61088691906115ee565b9050600a5481101561092e576108a361089d610c32565b876109b7565b156108d9576127106108b3610bce565b866108be91906116b1565b6108c891906115ee565b925082856108d6919061158b565b91505b6108eb6108e4610c32565b8784610e03565b6000831115610929576109286108ff610c32565b600760009054906101000a900473ffffffffffffffffffffffffffffffffffffffff1685610e03565b5b6109aa565b6127106006548661093f91906116b1565b61094991906115ee565b92508285610957919061158b565b915061096b610964610c32565b8784610e03565b60008311156109a9576109a861097f610c32565b600960009054906101000a900473ffffffffffffffffffffffffffffffffffffffff1685610e03565b5b5b6001935050505092915050565b6000600d60009054906101000a900473ffffffffffffffffffffffffffffffffffffffff1673ffffffffffffffffffffffffffffffffffffffff168373ffffffffffffffffffffffffffffffffffffffff1603610a175760009050610ab8565b600e60009054906101000a900473ffffffffffffffffffffffffffffffffffffffff1673ffffffffffffffffffffffffffffffffffffffff166386b20cf583306040518363ffffffff1660e01b8152600401610a749291906117b9565b602060405180830381865afa158015610a91573d6000803e3d6000fd5b505050506040513d601f19601f82011682018060405250810190610ab5919061180e565b90505b92915050565b6000600160008473ffffffffffffffffffffffffffffffffffffffff1673ffffffffffffffffffffffffffffffffffffffff16815260200190815260200160002060008373ffffffffffffffffffffffffffffffffffffffff1673ffffffffffffffffffffffffffffffffffffffff16815260200190815260200160002054905092915050565b600c5481565b610b53611079565b600073ffffffffffffffffffffffffffffffffffffffff168173ffffffffffffffffffffffffffffffffffffffff1603610bc2576040517f08c379a0000000000000000000000000000000000000000000000000000000008152600401610bb9906118ad565b60405180910390fd5b610bcb816110f7565b50565b600080600c54600b5442610be2919061158b565b610bec91906115ee565b9050600a54811015610c2857600a5461271082610c0991906116b1565b610c1391906115ee565b612710610c20919061158b565b915050610c2f565b6006549150505b90565b600033905090565b600073ffffffffffffffffffffffffffffffffffffffff168373ffffffffffffffffffffffffffffffffffffffff1603610ca9576040517f08c379a0000000000000000000000000000000000000000000000000000000008152600401610ca09061193f565b60405180910390fd5b600073ffffffffffffffffffffffffffffffffffffffff168273ffffffffffffffffffffffffffffffffffffffff1603610d18576040517f08c379a0000000000000000000000000000000000000000000000000000000008152600401610d0f906119d1565b60405180910390fd5b80600160008573ffffffffffffffffffffffffffffffffffffffff1673ffffffffffffffffffffffffffffffffffffffff16815260200190815260200160002060008473ffffffffffffffffffffffffffffffffffffffff1673ffffffffffffffffffffffffffffffffffffffff168152602001908152602001600020819055508173ffffffffffffffffffffffffffffffffffffffff168373ffffffffffffffffffffffffffffffffffffffff167f8c5be1e5ebec7d5bd14f71427d1e84f3dd0314c0f7b2291e5b200ac8c7c3b92583604051610df69190611397565b60405180910390a3505050565b600073ffffffffffffffffffffffffffffffffffffffff168373ffffffffffffffffffffffffffffffffffffffff1603610e72576040517f08c379a0000000000000000000000000000000000000000000000000000000008152600401610e6990611a63565b60405180910390fd5b600073ffffffffffffffffffffffffffffffffffffffff168273ffffffffffffffffffffffffffffffffffffffff1603610ee1576040517f08c379a0000000000000000000000000000000000000000000000000000000008152600401610ed890611af5565b60405180910390fd5b610eec8383836111bd565b60008060008573ffffffffffffffffffffffffffffffffffffffff1673ffffffffffffffffffffffffffffffffffffffff16815260200190815260200160002054905081811015610f72576040517f08c379a0000000000000000000000000000000000000000000000000000000008152600401610f6990611b87565b60405180910390fd5b8181036000808673ffffffffffffffffffffffffffffffffffffffff1673ffffffffffffffffffffffffffffffffffffffff16815260200190815260200160002081905550816000808573ffffffffffffffffffffffffffffffffffffffff1673ffffffffffffffffffffffffffffffffffffffff168152602001908152602001600020600082825401925050819055508273ffffffffffffffffffffffffffffffffffffffff168473ffffffffffffffffffffffffffffffffffffffff167fddf252ad1be2c89b69c2b068fc378daa952ba7f163c4a11628f55a4df523b3ef846040516110609190611397565b60405180910390a36110738484846111c2565b50505050565b611081610c32565b73ffffffffffffffffffffffffffffffffffffffff1661109f610719565b73ffffffffffffffffffffffffffffffffffffffff16146110f5576040517f08c379a00000000000000000000000000000000000000000000000000000000081526004016110ec90611bf3565b60405180910390fd5b565b6000600560009054906101000a900473ffffffffffffffffffffffffffffffffffffffff16905081600560006101000a81548173ffffffffffffffffffffffffffffffffffffffff021916908373ffffffffffffffffffffffffffffffffffffffff1602179055508173ffffffffffffffffffffffffffffffffffffffff168173ffffffffffffffffffffffffffffffffffffffff167f8be0079c531659141344cd1fd0a4f28419497f9722a3daafe3b4186f6b6457e060405160405180910390a35050565b505050565b505050565b600081519050919050565b600082825260208201905092915050565b60005b838110156112015780820151818401526020810190506111e6565b60008484015250505050565b6000601f19601f8301169050919050565b6000611229826111c7565b61123381856111d2565b93506112438185602086016111e3565b61124c8161120d565b840191505092915050565b60006020820190508181036000830152611271818461121e565b905092915050565b600080fd5b600073ffffffffffffffffffffffffffffffffffffffff82169050919050565b60006112a98261127e565b9050919050565b6112b98161129e565b81146112c457600080fd5b50565b6000813590506112d6816112b0565b92915050565b6000819050919050565b6112ef816112dc565b81146112fa57600080fd5b50565b60008135905061130c816112e6565b92915050565b6000806040838503121561132957611328611279565b5b6000611337858286016112c7565b9250506020611348858286016112fd565b9150509250929050565b60008115159050919050565b61136781611352565b82525050565b6000602082019050611382600083018461135e565b92915050565b611391816112dc565b82525050565b60006020820190506113ac6000830184611388565b92915050565b6000806000606084860312156113cb576113ca611279565b5b60006113d9868287016112c7565b93505060206113ea868287016112c7565b92505060406113fb868287016112fd565b9150509250925092565b600060ff82169050919050565b61141b81611405565b82525050565b60006020820190506114366000830184611412565b92915050565b60006020828403121561145257611451611279565b5b6000611460848285016112c7565b91505092915050565b6114728161129e565b82525050565b600060208201905061148d6000830184611469565b92915050565b60006040820190506114a86000830185611388565b6114b56020830184611388565b9392505050565b600080604083850312156114d3576114d2611279565b5b60006114e1858286016112c7565b92505060206114f2858286016112c7565b9150509250929050565b7f4e487b7100000000000000000000000000000000000000000000000000000000600052602260045260246000fd5b6000600282049050600182168061154357607f821691505b602082108103611556576115556114fc565b5b50919050565b7f4e487b7100000000000000000000000000000000000000000000000000000000600052601160045260246000fd5b6000611596826112dc565b91506115a1836112dc565b92508282039050818111156115b9576115b861155c565b5b92915050565b7f4e487b7100000000000000000000000000000000000000000000000000000000600052601260045260246000fd5b60006115f9826112dc565b9150611604836112dc565b925082611614576116136115bf565b5b828204905092915050565b7f45524332303a207472616e7366657220616d6f756e742065786365656473206160008201527f6c6c6f77616e6365000000000000000000000000000000000000000000000000602082015250565b600061167b6028836111d2565b91506116868261161f565b604082019050919050565b600060208201905081810360008301526116aa8161166e565b9050919050565b60006116bc826112dc565b91506116c7836112dc565b92508282026116d5816112dc565b915082820484148315176116ec576116eb61155c565b5b5092915050565b60006116fe826112dc565b9150611709836112dc565b92508282019050808211156117215761172061155c565b5b92915050565b7f45524332303a2064656372656173656420616c6c6f77616e63652062656c6f7760008201527f207a65726f000000000000000000000000000000000000000000000000000000602082015250565b60006117836025836111d2565b915061178e82611727565b604082019050919050565b600060208201905081810360008301526117b281611776565b9050919050565b60006040820190506117ce6000830185611469565b6117db6020830184611469565b9392505050565b6117eb81611352565b81146117f657600080fd5b50565b600081519050611808816117e2565b92915050565b60006020828403121561182457611823611279565b5b6000611832848285016117f9565b91505092915050565b7f4f776e61626c653a206e6577206f776e657220697320746865207a65726f206160008201527f6464726573730000000000000000000000000000000000000000000000000000602082015250565b60006118976026836111d2565b91506118a28261183b565b604082019050919050565b600060208201905081810360008301526118c68161188a565b9050919050565b7f45524332303a20617070726f76652066726f6d20746865207a65726f2061646460008201527f7265737300000000000000000000000000000000000000000000000000000000602082015250565b60006119296024836111d2565b9150611934826118cd565b604082019050919050565b600060208201905081810360008301526119588161191c565b9050919050565b7f45524332303a20617070726f766520746f20746865207a65726f20616464726560008201527f7373000000000000000000000000000000000000000000000000000000000000602082015250565b60006119bb6022836111d2565b91506119c68261195f565b604082019050919050565b600060208201905081810360008301526119ea816119ae565b9050919050565b7f45524332303a207472616e736665722066726f6d20746865207a65726f20616460008201527f6472657373000000000000000000000000000000000000000000000000000000602082015250565b6000611a4d6025836111d2565b9150611a58826119f1565b604082019050919050565b60006020820190508181036000830152611a7c81611a40565b9050919050565b7f45524332303a207472616e7366657220746f20746865207a65726f206164647260008201527f6573730000000000000000000000000000000000000000000000000000000000602082015250565b6000611adf6023836111d2565b9150611aea82611a83565b604082019050919050565b60006020820190508181036000830152611b0e81611ad2565b9050919050565b7f45524332303a207472616e7366657220616d6f756e742065786365656473206260008201527f616c616e63650000000000000000000000000000000000000000000000000000602082015250565b6000611b716026836111d2565b9150611b7c82611b15565b604082019050919050565b60006020820190508181036000830152611ba081611b64565b9050919050565b7f4f776e61626c653a2063616c6c6572206973206e6f7420746865206f776e6572600082015250565b6000611bdd6020836111d2565b9150611be882611ba7565b602082019050919050565b60006020820190508181036000830152611c0c81611bd0565b905091905056fea2646970667358221220e780931178c968b0c9205d323ef709975309d763d771e119340e0dbe4ba903a864736f6c63430008130033a26469706673582212205e4e504b6347ba3ce73643a7db5363dac1d978a1f52a7563e833d4e07c39d99064736f6c63430008130033",
  "linkReferences": {},
  "deployedLinkReferences": {}
}