{
  "_format": "hh-sol-artifact-1",
  "contractName": "MemeFactory",
  "sourceName": "contracts/MemeFactory.sol",
  "abi": [
    {
      "inputs": [
        {
          "internalType": "address",
          "name": "recipient_tax",
          "type": "address"
        },
        {
          "internalType": "address",
          "name": "uniswapV2Router",
          "type": "address"
        },
        {
          "internalType": "address",
          "name": "recipientTokenPools",
          "type": "address"
        }
      ],
      "stateMutability": "nonpayable",
      "type": "constructor"
    },
    {
      "anonymous": false,
      "inputs": [
        {
          "indexed": true,
          "internalType": "address",
          "name": "owner",
          "type": "address"
        },
        {
          "indexed": false,
          "internalType": "address",
          "name": "memeAddress",
          "type": "address"
        }
      ],
      "name": "MemeCreated",
      "type": "event"
    },
    {
      "anonymous": false,
      "inputs": [
        {
          "indexed": true,
          "internalType": "address",
          "name": "previousOwner",
          "type": "address"
        },
        {
          "indexed": true,
          "internalType": "address",
          "name": "newOwner",
          "type": "address"
        }
      ],
      "name": "OwnershipTransferred",
      "type": "event"
    },
    {
      "inputs": [
        {
          "internalType": "uint256",
          "name": "",
          "type": "uint256"
        }
      ],
      "name": "allMemes",
      "outputs": [
        {
          "internalType": "address",
          "name": "",
          "type": "address"
        }
      ],
      "stateMutability": "view",
      "type": "function"
    },
    {
      "inputs": [
        {
          "internalType": "address",
          "name": "tokenAddress",
          "type": "address"
        }
      ],
      "name": "checkIfMemeCreated",
      "outputs": [
        {
          "internalType": "bool",
          "name": "",
          "type": "bool"
        }
      ],
      "stateMutability": "view",
      "type": "function"
    },
    {
      "inputs": [
        {
          "internalType": "string",
          "name": "name",
          "type": "string"
        },
        {
          "internalType": "string",
          "name": "symbol",
          "type": "string"
        },
        {
          "internalType": "uint256",
          "name": "maxSupply",
          "type": "uint256"
        },
        {
          "internalType": "address",
          "name": "recipient_tokens",
          "type": "address"
        },
        {
          "internalType": "string",
          "name": "token_meme_URI",
          "type": "string"
        },
        {
          "internalType": "uint256",
          "name": "taxRate",
          "type": "uint256"
        }
      ],
      "name": "createMeme",
      "outputs": [],
      "stateMutability": "nonpayable",
      "type": "function"
    },
    {
      "inputs": [],
      "name": "getMemeCount",
      "outputs": [
        {
          "internalType": "uint256",
          "name": "",
          "type": "uint256"
        }
      ],
      "stateMutability": "view",
      "type": "function"
    },
    {
      "inputs": [
        {
          "internalType": "address",
          "name": "",
          "type": "address"
        }
      ],
      "name": "isMemeCreated",
      "outputs": [
        {
          "internalType": "bool",
          "name": "",
          "type": "bool"
        }
      ],
      "stateMutability": "view",
      "type": "function"
    },
    {
      "inputs": [],
      "name": "owner",
      "outputs": [
        {
          "internalType": "address",
          "name": "",
          "type": "address"
        }
      ],
      "stateMutability": "view",
      "type": "function"
    },
    {
      "inputs": [
        {
          "internalType": "address",
          "name": "token",
          "type": "address"
        },
        {
          "internalType": "uint256",
          "name": "amount",
          "type": "uint256"
        }
      ],
      "name": "receiveERC20",
      "outputs": [],
      "stateMutability": "nonpayable",
      "type": "function"
    },
    {
      "inputs": [],
      "name": "renounceOwnership",
      "outputs": [],
      "stateMutability": "nonpayable",
      "type": "function"
    },
    {
      "inputs": [
        {
          "internalType": "address",
          "name": "newOwner",
          "type": "address"
        }
      ],
      "name": "transferOwnership",
      "outputs": [],
      "stateMutability": "nonpayable",
      "type": "function"
    },
    {
      "inputs": [
        {
          "internalType": "address",
          "name": "newRecipientTax",
          "type": "address"
        }
      ],
      "name": "updateRecipientTax",
      "outputs": [],
      "stateMutability": "nonpayable",
      "type": "function"
    },
    {
      "inputs": [
        {
          "internalType": "address",
          "name": "newRecipientTokensPool",
          "type": "address"
        }
      ],
      "name": "updateRecipientTokensPool",
      "outputs": [],
      "stateMutability": "nonpayable",
      "type": "function"
    },
    {
      "inputs": [
        {
          "internalType": "address",
          "name": "token",
          "type": "address"
        },
        {
          "internalType": "uint256",
          "name": "amount",
          "type": "uint256"
        }
      ],
      "name": "withdrawERC20",
      "outputs": [],
      "stateMutability": "nonpayable",
      "type": "function"
    },
    {
      "stateMutability": "payable",
      "type": "receive"
    }
  ],
  "bytecode": "0x60806040523480156200001157600080fd5b5060405162003cc938038062003cc9833981810160405281019062000037919062000259565b620000576200004b6200012360201b60201c565b6200012b60201b60201c565b82600160006101000a81548173ffffffffffffffffffffffffffffffffffffffff021916908373ffffffffffffffffffffffffffffffffffffffff16021790555081600260006101000a81548173ffffffffffffffffffffffffffffffffffffffff021916908373ffffffffffffffffffffffffffffffffffffffff16021790555080600360006101000a81548173ffffffffffffffffffffffffffffffffffffffff021916908373ffffffffffffffffffffffffffffffffffffffff160217905550505050620002b5565b600033905090565b60008060009054906101000a900473ffffffffffffffffffffffffffffffffffffffff169050816000806101000a81548173ffffffffffffffffffffffffffffffffffffffff021916908373ffffffffffffffffffffffffffffffffffffffff1602179055508173ffffffffffffffffffffffffffffffffffffffff168173ffffffffffffffffffffffffffffffffffffffff167f8be0079c531659141344cd1fd0a4f28419497f9722a3daafe3b4186f6b6457e060405160405180910390a35050565b600080fd5b600073ffffffffffffffffffffffffffffffffffffffff82169050919050565b60006200022182620001f4565b9050919050565b620002338162000214565b81146200023f57600080fd5b50565b600081519050620002538162000228565b92915050565b600080600060608486031215620002755762000274620001ef565b5b6000620002858682870162000242565b9350506020620002988682870162000242565b9250506040620002ab8682870162000242565b9150509250925092565b613a0480620002c56000396000f3fe608060405260043610620000bb5760003560e01c80639ca9dcab116200006d5780639ca9dcab14620001f6578063a1db97821462000226578063aed4aab61462000254578063d57b18021462000282578063d6d41ace14620002b0578063f2fde38b14620002f457620000c3565b8063073397db14620000c857806310df79bc146200010c5780632784407514620001505780632c8131c2146200017e578063715018a614620001ac5780638da5cb5b14620001c657620000c3565b36620000c357005b600080fd5b348015620000d557600080fd5b50620000f46004803603810190620000ee919062000ac9565b62000322565b60405162000103919062000b40565b60405180910390f35b3480156200011957600080fd5b5062000138600480360381019062000132919062000b8e565b62000362565b60405162000147919062000bdd565b60405180910390f35b3480156200015d57600080fd5b506200017c600480360381019062000176919062000d5c565b62000382565b005b3480156200018b57600080fd5b50620001aa6004803603810190620001a4919062000b8e565b620004de565b005b348015620001b957600080fd5b50620001c46200052c565b005b348015620001d357600080fd5b50620001de62000542565b604051620001ed919062000b40565b60405180910390f35b3480156200020357600080fd5b506200020e6200056b565b6040516200021d919062000e66565b60405180910390f35b3480156200023357600080fd5b506200025260048036038101906200024c919062000e83565b62000578565b005b3480156200026157600080fd5b506200028060048036038101906200027a919062000e83565b6200060a565b005b3480156200028f57600080fd5b50620002ae6004803603810190620002a8919062000b8e565b62000694565b005b348015620002bd57600080fd5b50620002dc6004803603810190620002d6919062000b8e565b620006e2565b604051620002eb919062000bdd565b60405180910390f35b3480156200030157600080fd5b506200032060048036038101906200031a919062000b8e565b62000738565b005b600581815481106200033357600080fd5b906000526020600020016000915054906101000a900473ffffffffffffffffffffffffffffffffffffffff1681565b60046020528060005260406000206000915054906101000a900460ff1681565b600081101580156200039657506101f48111155b620003d8576040517f08c379a0000000000000000000000000000000000000000000000000000000008152600401620003cf9062000f51565b60405180910390fd5b6000868686600160009054906101000a900473ffffffffffffffffffffffffffffffffffffffff16600360009054906101000a900473ffffffffffffffffffffffffffffffffffffffff16888888604051620004349062000a6c565b6200044798979695949392919062000feb565b604051809103906000f08015801562000464573d6000803e3d6000fd5b50905062000485816402540be400876200047f9190620010bd565b620007c2565b3373ffffffffffffffffffffffffffffffffffffffff167fa92eec8dad0c149c82f93ac410e601bb03794f96ca5375339bbd0f84d59e23cb82604051620004cd919062000b40565b60405180910390a250505050505050565b620004e862000903565b80600160006101000a81548173ffffffffffffffffffffffffffffffffffffffff021916908373ffffffffffffffffffffffffffffffffffffffff16021790555050565b6200053662000903565b6200054062000988565b565b60008060009054906101000a900473ffffffffffffffffffffffffffffffffffffffff16905090565b6000600580549050905090565b6200058262000903565b8173ffffffffffffffffffffffffffffffffffffffff1663a9059cbb33836040518363ffffffff1660e01b8152600401620005bf929190620010f5565b6020604051808303816000875af1158015620005df573d6000803e3d6000fd5b505050506040513d601f19601f8201168201806040525081019062000605919062001153565b505050565b8173ffffffffffffffffffffffffffffffffffffffff166323b872dd3330846040518463ffffffff1660e01b8152600401620006499392919062001185565b6020604051808303816000875af115801562000669573d6000803e3d6000fd5b505050506040513d601f19601f820116820180604052508101906200068f919062001153565b505050565b6200069e62000903565b80600360006101000a81548173ffffffffffffffffffffffffffffffffffffffff021916908373ffffffffffffffffffffffffffffffffffffffff16021790555050565b6000600460008373ffffffffffffffffffffffffffffffffffffffff1673ffffffffffffffffffffffffffffffffffffffff16815260200190815260200160002060009054906101000a900460ff169050919050565b6200074262000903565b600073ffffffffffffffffffffffffffffffffffffffff168173ffffffffffffffffffffffffffffffffffffffff1603620007b4576040517f08c379a0000000000000000000000000000000000000000000000000000000008152600401620007ab9062001238565b60405180910390fd5b620007bf81620009a0565b50565b6000600260009054906101000a900473ffffffffffffffffffffffffffffffffffffffff1690508273ffffffffffffffffffffffffffffffffffffffff1663095ea7b382846040518363ffffffff1660e01b815260040162000826929190620010f5565b6020604051808303816000875af115801562000846573d6000803e3d6000fd5b505050506040513d601f19601f820116820180604052508101906200086c919062001153565b508073ffffffffffffffffffffffffffffffffffffffff1663f305d7196064858560008033426040518863ffffffff1660e01b8152600401620008b596959493929190620012a7565b60606040518083038185885af1158015620008d4573d6000803e3d6000fd5b50505050506040513d601f19601f82011682018060405250810190620008fb91906200132b565b505050505050565b6200090d62000a64565b73ffffffffffffffffffffffffffffffffffffffff166200092d62000542565b73ffffffffffffffffffffffffffffffffffffffff161462000986576040517f08c379a00000000000000000000000000000000000000000000000000000000081526004016200097d90620013d7565b60405180910390fd5b565b6200099262000903565b6200099e6000620009a0565b565b60008060009054906101000a900473ffffffffffffffffffffffffffffffffffffffff169050816000806101000a81548173ffffffffffffffffffffffffffffffffffffffff021916908373ffffffffffffffffffffffffffffffffffffffff1602179055508173ffffffffffffffffffffffffffffffffffffffff168173ffffffffffffffffffffffffffffffffffffffff167f8be0079c531659141344cd1fd0a4f28419497f9722a3daafe3b4186f6b6457e060405160405180910390a35050565b600033905090565b6125d580620013fa83390190565b6000604051905090565b600080fd5b600080fd5b6000819050919050565b62000aa38162000a8e565b811462000aaf57600080fd5b50565b60008135905062000ac38162000a98565b92915050565b60006020828403121562000ae25762000ae162000a84565b5b600062000af28482850162000ab2565b91505092915050565b600073ffffffffffffffffffffffffffffffffffffffff82169050919050565b600062000b288262000afb565b9050919050565b62000b3a8162000b1b565b82525050565b600060208201905062000b57600083018462000b2f565b92915050565b62000b688162000b1b565b811462000b7457600080fd5b50565b60008135905062000b888162000b5d565b92915050565b60006020828403121562000ba75762000ba662000a84565b5b600062000bb78482850162000b77565b91505092915050565b60008115159050919050565b62000bd78162000bc0565b82525050565b600060208201905062000bf4600083018462000bcc565b92915050565b600080fd5b600080fd5b6000601f19601f8301169050919050565b7f4e487b7100000000000000000000000000000000000000000000000000000000600052604160045260246000fd5b62000c4f8262000c04565b810181811067ffffffffffffffff8211171562000c715762000c7062000c15565b5b80604052505050565b600062000c8662000a7a565b905062000c94828262000c44565b919050565b600067ffffffffffffffff82111562000cb75762000cb662000c15565b5b62000cc28262000c04565b9050602081019050919050565b82818337600083830152505050565b600062000cf562000cef8462000c99565b62000c7a565b90508281526020810184848401111562000d145762000d1362000bff565b5b62000d2184828562000ccf565b509392505050565b600082601f83011262000d415762000d4062000bfa565b5b813562000d5384826020860162000cde565b91505092915050565b60008060008060008060c0878903121562000d7c5762000d7b62000a84565b5b600087013567ffffffffffffffff81111562000d9d5762000d9c62000a89565b5b62000dab89828a0162000d29565b965050602087013567ffffffffffffffff81111562000dcf5762000dce62000a89565b5b62000ddd89828a0162000d29565b955050604062000df089828a0162000ab2565b945050606062000e0389828a0162000b77565b935050608087013567ffffffffffffffff81111562000e275762000e2662000a89565b5b62000e3589828a0162000d29565b92505060a062000e4889828a0162000ab2565b9150509295509295509295565b62000e608162000a8e565b82525050565b600060208201905062000e7d600083018462000e55565b92915050565b6000806040838503121562000e9d5762000e9c62000a84565b5b600062000ead8582860162000b77565b925050602062000ec08582860162000ab2565b9150509250929050565b600082825260208201905092915050565b7f5461782072617465206d75737420626520706f73697469766520616e64206c6560008201527f7373207468616e20353030000000000000000000000000000000000000000000602082015250565b600062000f39602b8362000eca565b915062000f468262000edb565b604082019050919050565b6000602082019050818103600083015262000f6c8162000f2a565b9050919050565b600081519050919050565b60005b8381101562000f9e57808201518184015260208101905062000f81565b60008484015250505050565b600062000fb78262000f73565b62000fc3818562000eca565b935062000fd581856020860162000f7e565b62000fe08162000c04565b840191505092915050565b600061010082019050818103600083015262001008818b62000faa565b905081810360208301526200101e818a62000faa565b90506200102f604083018962000e55565b6200103e606083018862000b2f565b6200104d608083018762000b2f565b6200105c60a083018662000b2f565b81810360c083015262001070818562000faa565b90506200108160e083018462000e55565b9998505050505050505050565b7f4e487b7100000000000000000000000000000000000000000000000000000000600052601260045260246000fd5b6000620010ca8262000a8e565b9150620010d78362000a8e565b925082620010ea57620010e96200108e565b5b828204905092915050565b60006040820190506200110c600083018562000b2f565b6200111b602083018462000e55565b9392505050565b6200112d8162000bc0565b81146200113957600080fd5b50565b6000815190506200114d8162001122565b92915050565b6000602082840312156200116c576200116b62000a84565b5b60006200117c848285016200113c565b91505092915050565b60006060820190506200119c600083018662000b2f565b620011ab602083018562000b2f565b620011ba604083018462000e55565b949350505050565b7f4f776e61626c653a206e6577206f776e657220697320746865207a65726f206160008201527f6464726573730000000000000000000000000000000000000000000000000000602082015250565b60006200122060268362000eca565b91506200122d82620011c2565b604082019050919050565b60006020820190508181036000830152620012538162001211565b9050919050565b6000819050919050565b6000819050919050565b60006200128f6200128962001283846200125a565b62001264565b62000a8e565b9050919050565b620012a1816200126e565b82525050565b600060c082019050620012be600083018962000b2f565b620012cd602083018862000e55565b620012dc604083018762001296565b620012eb606083018662001296565b620012fa608083018562000b2f565b6200130960a083018462000e55565b979650505050505050565b600081519050620013258162000a98565b92915050565b60008060006060848603121562001347576200134662000a84565b5b6000620013578682870162001314565b93505060206200136a8682870162001314565b92505060406200137d8682870162001314565b9150509250925092565b7f4f776e61626c653a2063616c6c6572206973206e6f7420746865206f776e6572600082015250565b6000620013bf60208362000eca565b9150620013cc8262001387565b602082019050919050565b60006020820190508181036000830152620013f281620013b0565b905091905056fe60806040523480156200001157600080fd5b50604051620025d5380380620025d58339818101604052810190620000379190620007d8565b878781600390816200004a919062000b3f565b5080600490816200005c919062000b3f565b5050506200007f620000736200018a60201b60201c565b6200019260201b60201c565b8060068190555084600760006101000a81548173ffffffffffffffffffffffffffffffffffffffff021916908373ffffffffffffffffffffffffffffffffffffffff16021790555083600860006101000a81548173ffffffffffffffffffffffffffffffffffffffff021916908373ffffffffffffffffffffffffffffffffffffffff16021790555082600960006101000a81548173ffffffffffffffffffffffffffffffffffffffff021916908373ffffffffffffffffffffffffffffffffffffffff16021790555081600a90816200015a919062000b3f565b506200016c866200025860201b60201c565b6200017c6200034f60201b60201c565b505050505050505062000e65565b600033905090565b6000600560009054906101000a900473ffffffffffffffffffffffffffffffffffffffff16905081600560006101000a81548173ffffffffffffffffffffffffffffffffffffffff021916908373ffffffffffffffffffffffffffffffffffffffff1602179055508173ffffffffffffffffffffffffffffffffffffffff168173ffffffffffffffffffffffffffffffffffffffff167f8be0079c531659141344cd1fd0a4f28419497f9722a3daafe3b4186f6b6457e060405160405180910390a35050565b620002686200037360201b60201c565b600060646001836200027b919062000c55565b62000287919062000ccf565b905060006402540be400600184620002a0919062000c55565b620002ac919062000ccf565b9050620002e2600960009054906101000a900473ffffffffffffffffffffffffffffffffffffffff16846200040460201b60201c565b62000316600760009054906101000a900473ffffffffffffffffffffffffffffffffffffffff16836200040460201b60201c565b6200034a600860009054906101000a900473ffffffffffffffffffffffffffffffffffffffff16826200040460201b60201c565b505050565b6200035f6200037360201b60201c565b6200037160006200019260201b60201c565b565b620003836200018a60201b60201c565b73ffffffffffffffffffffffffffffffffffffffff16620003a96200057160201b60201c565b73ffffffffffffffffffffffffffffffffffffffff161462000402576040517f08c379a0000000000000000000000000000000000000000000000000000000008152600401620003f99062000d68565b60405180910390fd5b565b600073ffffffffffffffffffffffffffffffffffffffff168273ffffffffffffffffffffffffffffffffffffffff160362000476576040517f08c379a00000000000000000000000000000000000000000000000000000000081526004016200046d9062000dda565b60405180910390fd5b6200048a600083836200059b60201b60201c565b80600260008282546200049e919062000dfc565b92505081905550806000808473ffffffffffffffffffffffffffffffffffffffff1673ffffffffffffffffffffffffffffffffffffffff168152602001908152602001600020600082825401925050819055508173ffffffffffffffffffffffffffffffffffffffff16600073ffffffffffffffffffffffffffffffffffffffff167fddf252ad1be2c89b69c2b068fc378daa952ba7f163c4a11628f55a4df523b3ef8360405162000551919062000e48565b60405180910390a36200056d60008383620005a060201b60201c565b5050565b6000600560009054906101000a900473ffffffffffffffffffffffffffffffffffffffff16905090565b505050565b505050565b6000604051905090565b600080fd5b600080fd5b600080fd5b600080fd5b6000601f19601f8301169050919050565b7f4e487b7100000000000000000000000000000000000000000000000000000000600052604160045260246000fd5b6200060e82620005c3565b810181811067ffffffffffffffff8211171562000630576200062f620005d4565b5b80604052505050565b600062000645620005a5565b905062000653828262000603565b919050565b600067ffffffffffffffff821115620006765762000675620005d4565b5b6200068182620005c3565b9050602081019050919050565b60005b83811015620006ae57808201518184015260208101905062000691565b60008484015250505050565b6000620006d1620006cb8462000658565b62000639565b905082815260208101848484011115620006f057620006ef620005be565b5b620006fd8482856200068e565b509392505050565b600082601f8301126200071d576200071c620005b9565b5b81516200072f848260208601620006ba565b91505092915050565b6000819050919050565b6200074d8162000738565b81146200075957600080fd5b50565b6000815190506200076d8162000742565b92915050565b600073ffffffffffffffffffffffffffffffffffffffff82169050919050565b6000620007a08262000773565b9050919050565b620007b28162000793565b8114620007be57600080fd5b50565b600081519050620007d281620007a7565b92915050565b600080600080600080600080610100898b031215620007fc57620007fb620005af565b5b600089015167ffffffffffffffff8111156200081d576200081c620005b4565b5b6200082b8b828c0162000705565b985050602089015167ffffffffffffffff8111156200084f576200084e620005b4565b5b6200085d8b828c0162000705565b9750506040620008708b828c016200075c565b9650506060620008838b828c01620007c1565b9550506080620008968b828c01620007c1565b94505060a0620008a98b828c01620007c1565b93505060c089015167ffffffffffffffff811115620008cd57620008cc620005b4565b5b620008db8b828c0162000705565b92505060e0620008ee8b828c016200075c565b9150509295985092959890939650565b600081519050919050565b7f4e487b7100000000000000000000000000000000000000000000000000000000600052602260045260246000fd5b600060028204905060018216806200095157607f821691505b60208210810362000967576200096662000909565b5b50919050565b60008190508160005260206000209050919050565b60006020601f8301049050919050565b600082821b905092915050565b600060088302620009d17fffffffffffffffffffffffffffffffffffffffffffffffffffffffffffffffff8262000992565b620009dd868362000992565b95508019841693508086168417925050509392505050565b6000819050919050565b600062000a2062000a1a62000a148462000738565b620009f5565b62000738565b9050919050565b6000819050919050565b62000a3c83620009ff565b62000a5462000a4b8262000a27565b8484546200099f565b825550505050565b600090565b62000a6b62000a5c565b62000a7881848462000a31565b505050565b5b8181101562000aa05762000a9460008262000a61565b60018101905062000a7e565b5050565b601f82111562000aef5762000ab9816200096d565b62000ac48462000982565b8101602085101562000ad4578190505b62000aec62000ae38562000982565b83018262000a7d565b50505b505050565b600082821c905092915050565b600062000b146000198460080262000af4565b1980831691505092915050565b600062000b2f838362000b01565b9150826002028217905092915050565b62000b4a82620008fe565b67ffffffffffffffff81111562000b665762000b65620005d4565b5b62000b72825462000938565b62000b7f82828562000aa4565b600060209050601f83116001811462000bb7576000841562000ba2578287015190505b62000bae858262000b21565b86555062000c1e565b601f19841662000bc7866200096d565b60005b8281101562000bf15784890151825560018201915060208501945060208101905062000bca565b8683101562000c11578489015162000c0d601f89168262000b01565b8355505b6001600288020188555050505b505050505050565b7f4e487b7100000000000000000000000000000000000000000000000000000000600052601160045260246000fd5b600062000c628262000738565b915062000c6f8362000738565b925082820262000c7f8162000738565b9150828204841483151762000c995762000c9862000c26565b5b5092915050565b7f4e487b7100000000000000000000000000000000000000000000000000000000600052601260045260246000fd5b600062000cdc8262000738565b915062000ce98362000738565b92508262000cfc5762000cfb62000ca0565b5b828204905092915050565b600082825260208201905092915050565b7f4f776e61626c653a2063616c6c6572206973206e6f7420746865206f776e6572600082015250565b600062000d5060208362000d07565b915062000d5d8262000d18565b602082019050919050565b6000602082019050818103600083015262000d838162000d41565b9050919050565b7f45524332303a206d696e7420746f20746865207a65726f206164647265737300600082015250565b600062000dc2601f8362000d07565b915062000dcf8262000d8a565b602082019050919050565b6000602082019050818103600083015262000df58162000db3565b9050919050565b600062000e098262000738565b915062000e168362000738565b925082820190508082111562000e315762000e3062000c26565b5b92915050565b62000e428162000738565b82525050565b600060208201905062000e5f600083018462000e37565b92915050565b6117608062000e756000396000f3fe608060405234801561001057600080fd5b50600436106100f55760003560e01c806370a0823111610097578063a457c2d711610066578063a457c2d714610278578063a9059cbb146102a8578063dd62ed3e146102d8578063f2fde38b14610308576100f5565b806370a0823114610202578063715018a6146102325780638da5cb5b1461023c57806395d89b411461025a576100f5565b806323b872dd116100d357806323b872dd14610166578063313ce5671461019657806339509351146101b45780633c130d90146101e4576100f5565b806306fdde03146100fa578063095ea7b31461011857806318160ddd14610148575b600080fd5b610102610324565b60405161010f9190610eab565b60405180910390f35b610132600480360381019061012d9190610f66565b6103b6565b60405161013f9190610fc1565b60405180910390f35b6101506103d9565b60405161015d9190610feb565b60405180910390f35b610180600480360381019061017b9190611006565b6103e3565b60405161018d9190610fc1565b60405180910390f35b61019e61048f565b6040516101ab9190611075565b60405180910390f35b6101ce60048036038101906101c99190610f66565b610498565b6040516101db9190610fc1565b60405180910390f35b6101ec6104cf565b6040516101f99190610eab565b60405180910390f35b61021c60048036038101906102179190611090565b610561565b6040516102299190610feb565b60405180910390f35b61023a6105a9565b005b6102446105bd565b60405161025191906110cc565b60405180910390f35b6102626105e7565b60405161026f9190610eab565b60405180910390f35b610292600480360381019061028d9190610f66565b610679565b60405161029f9190610fc1565b60405180910390f35b6102c260048036038101906102bd9190610f66565b6106f0565b6040516102cf9190610fc1565b60405180910390f35b6102f260048036038101906102ed91906110e7565b61077c565b6040516102ff9190610feb565b60405180910390f35b610322600480360381019061031d9190611090565b610803565b005b60606003805461033390611156565b80601f016020809104026020016040519081016040528092919081815260200182805461035f90611156565b80156103ac5780601f10610381576101008083540402835291602001916103ac565b820191906000526020600020905b81548152906001019060200180831161038f57829003601f168201915b5050505050905090565b6000806103c1610886565b90506103ce81858561088e565b600191505092915050565b6000600254905090565b600080612710600654846103f791906111b6565b6104019190611227565b9050600081846104119190611258565b905061041e868683610a57565b60008211156104555761045486600960009054906101000a900473ffffffffffffffffffffffffffffffffffffffff1684610a57565b5b61048286610461610886565b866104738a61046e610886565b61077c565b61047d9190611258565b61088e565b6001925050509392505050565b60006012905090565b6000806104a3610886565b90506104c48185856104b5858961077c565b6104bf919061128c565b61088e565b600191505092915050565b6060600a80546104de90611156565b80601f016020809104026020016040519081016040528092919081815260200182805461050a90611156565b80156105575780601f1061052c57610100808354040283529160200191610557565b820191906000526020600020905b81548152906001019060200180831161053a57829003601f168201915b5050505050905090565b60008060008373ffffffffffffffffffffffffffffffffffffffff1673ffffffffffffffffffffffffffffffffffffffff168152602001908152602001600020549050919050565b6105b1610ccd565b6105bb6000610d4b565b565b6000600560009054906101000a900473ffffffffffffffffffffffffffffffffffffffff16905090565b6060600480546105f690611156565b80601f016020809104026020016040519081016040528092919081815260200182805461062290611156565b801561066f5780601f106106445761010080835404028352916020019161066f565b820191906000526020600020905b81548152906001019060200180831161065257829003601f168201915b5050505050905090565b600080610684610886565b90506000610692828661077c565b9050838110156106d7576040517f08c379a00000000000000000000000000000000000000000000000000000000081526004016106ce90611332565b60405180910390fd5b6106e4828686840361088e565b60019250505092915050565b6000806127106006548461070491906111b6565b61070e9190611227565b90506000818461071e9190611258565b905061073261072b610886565b8683610a57565b60008211156107705761076f610746610886565b600960009054906101000a900473ffffffffffffffffffffffffffffffffffffffff1684610a57565b5b60019250505092915050565b6000600160008473ffffffffffffffffffffffffffffffffffffffff1673ffffffffffffffffffffffffffffffffffffffff16815260200190815260200160002060008373ffffffffffffffffffffffffffffffffffffffff1673ffffffffffffffffffffffffffffffffffffffff16815260200190815260200160002054905092915050565b61080b610ccd565b600073ffffffffffffffffffffffffffffffffffffffff168173ffffffffffffffffffffffffffffffffffffffff160361087a576040517f08c379a0000000000000000000000000000000000000000000000000000000008152600401610871906113c4565b60405180910390fd5b61088381610d4b565b50565b600033905090565b600073ffffffffffffffffffffffffffffffffffffffff168373ffffffffffffffffffffffffffffffffffffffff16036108fd576040517f08c379a00000000000000000000000000000000000000000000000000000000081526004016108f490611456565b60405180910390fd5b600073ffffffffffffffffffffffffffffffffffffffff168273ffffffffffffffffffffffffffffffffffffffff160361096c576040517f08c379a0000000000000000000000000000000000000000000000000000000008152600401610963906114e8565b60405180910390fd5b80600160008573ffffffffffffffffffffffffffffffffffffffff1673ffffffffffffffffffffffffffffffffffffffff16815260200190815260200160002060008473ffffffffffffffffffffffffffffffffffffffff1673ffffffffffffffffffffffffffffffffffffffff168152602001908152602001600020819055508173ffffffffffffffffffffffffffffffffffffffff168373ffffffffffffffffffffffffffffffffffffffff167f8c5be1e5ebec7d5bd14f71427d1e84f3dd0314c0f7b2291e5b200ac8c7c3b92583604051610a4a9190610feb565b60405180910390a3505050565b600073ffffffffffffffffffffffffffffffffffffffff168373ffffffffffffffffffffffffffffffffffffffff1603610ac6576040517f08c379a0000000000000000000000000000000000000000000000000000000008152600401610abd9061157a565b60405180910390fd5b600073ffffffffffffffffffffffffffffffffffffffff168273ffffffffffffffffffffffffffffffffffffffff1603610b35576040517f08c379a0000000000000000000000000000000000000000000000000000000008152600401610b2c9061160c565b60405180910390fd5b610b40838383610e11565b60008060008573ffffffffffffffffffffffffffffffffffffffff1673ffffffffffffffffffffffffffffffffffffffff16815260200190815260200160002054905081811015610bc6576040517f08c379a0000000000000000000000000000000000000000000000000000000008152600401610bbd9061169e565b60405180910390fd5b8181036000808673ffffffffffffffffffffffffffffffffffffffff1673ffffffffffffffffffffffffffffffffffffffff16815260200190815260200160002081905550816000808573ffffffffffffffffffffffffffffffffffffffff1673ffffffffffffffffffffffffffffffffffffffff168152602001908152602001600020600082825401925050819055508273ffffffffffffffffffffffffffffffffffffffff168473ffffffffffffffffffffffffffffffffffffffff167fddf252ad1be2c89b69c2b068fc378daa952ba7f163c4a11628f55a4df523b3ef84604051610cb49190610feb565b60405180910390a3610cc7848484610e16565b50505050565b610cd5610886565b73ffffffffffffffffffffffffffffffffffffffff16610cf36105bd565b73ffffffffffffffffffffffffffffffffffffffff1614610d49576040517f08c379a0000000000000000000000000000000000000000000000000000000008152600401610d409061170a565b60405180910390fd5b565b6000600560009054906101000a900473ffffffffffffffffffffffffffffffffffffffff16905081600560006101000a81548173ffffffffffffffffffffffffffffffffffffffff021916908373ffffffffffffffffffffffffffffffffffffffff1602179055508173ffffffffffffffffffffffffffffffffffffffff168173ffffffffffffffffffffffffffffffffffffffff167f8be0079c531659141344cd1fd0a4f28419497f9722a3daafe3b4186f6b6457e060405160405180910390a35050565b505050565b505050565b600081519050919050565b600082825260208201905092915050565b60005b83811015610e55578082015181840152602081019050610e3a565b60008484015250505050565b6000601f19601f8301169050919050565b6000610e7d82610e1b565b610e878185610e26565b9350610e97818560208601610e37565b610ea081610e61565b840191505092915050565b60006020820190508181036000830152610ec58184610e72565b905092915050565b600080fd5b600073ffffffffffffffffffffffffffffffffffffffff82169050919050565b6000610efd82610ed2565b9050919050565b610f0d81610ef2565b8114610f1857600080fd5b50565b600081359050610f2a81610f04565b92915050565b6000819050919050565b610f4381610f30565b8114610f4e57600080fd5b50565b600081359050610f6081610f3a565b92915050565b60008060408385031215610f7d57610f7c610ecd565b5b6000610f8b85828601610f1b565b9250506020610f9c85828601610f51565b9150509250929050565b60008115159050919050565b610fbb81610fa6565b82525050565b6000602082019050610fd66000830184610fb2565b92915050565b610fe581610f30565b82525050565b60006020820190506110006000830184610fdc565b92915050565b60008060006060848603121561101f5761101e610ecd565b5b600061102d86828701610f1b565b935050602061103e86828701610f1b565b925050604061104f86828701610f51565b9150509250925092565b600060ff82169050919050565b61106f81611059565b82525050565b600060208201905061108a6000830184611066565b92915050565b6000602082840312156110a6576110a5610ecd565b5b60006110b484828501610f1b565b91505092915050565b6110c681610ef2565b82525050565b60006020820190506110e160008301846110bd565b92915050565b600080604083850312156110fe576110fd610ecd565b5b600061110c85828601610f1b565b925050602061111d85828601610f1b565b9150509250929050565b7f4e487b7100000000000000000000000000000000000000000000000000000000600052602260045260246000fd5b6000600282049050600182168061116e57607f821691505b60208210810361118157611180611127565b5b50919050565b7f4e487b7100000000000000000000000000000000000000000000000000000000600052601160045260246000fd5b60006111c182610f30565b91506111cc83610f30565b92508282026111da81610f30565b915082820484148315176111f1576111f0611187565b5b5092915050565b7f4e487b7100000000000000000000000000000000000000000000000000000000600052601260045260246000fd5b600061123282610f30565b915061123d83610f30565b92508261124d5761124c6111f8565b5b828204905092915050565b600061126382610f30565b915061126e83610f30565b925082820390508181111561128657611285611187565b5b92915050565b600061129782610f30565b91506112a283610f30565b92508282019050808211156112ba576112b9611187565b5b92915050565b7f45524332303a2064656372656173656420616c6c6f77616e63652062656c6f7760008201527f207a65726f000000000000000000000000000000000000000000000000000000602082015250565b600061131c602583610e26565b9150611327826112c0565b604082019050919050565b6000602082019050818103600083015261134b8161130f565b9050919050565b7f4f776e61626c653a206e6577206f776e657220697320746865207a65726f206160008201527f6464726573730000000000000000000000000000000000000000000000000000602082015250565b60006113ae602683610e26565b91506113b982611352565b604082019050919050565b600060208201905081810360008301526113dd816113a1565b9050919050565b7f45524332303a20617070726f76652066726f6d20746865207a65726f2061646460008201527f7265737300000000000000000000000000000000000000000000000000000000602082015250565b6000611440602483610e26565b915061144b826113e4565b604082019050919050565b6000602082019050818103600083015261146f81611433565b9050919050565b7f45524332303a20617070726f766520746f20746865207a65726f20616464726560008201527f7373000000000000000000000000000000000000000000000000000000000000602082015250565b60006114d2602283610e26565b91506114dd82611476565b604082019050919050565b60006020820190508181036000830152611501816114c5565b9050919050565b7f45524332303a207472616e736665722066726f6d20746865207a65726f20616460008201527f6472657373000000000000000000000000000000000000000000000000000000602082015250565b6000611564602583610e26565b915061156f82611508565b604082019050919050565b6000602082019050818103600083015261159381611557565b9050919050565b7f45524332303a207472616e7366657220746f20746865207a65726f206164647260008201527f6573730000000000000000000000000000000000000000000000000000000000602082015250565b60006115f6602383610e26565b91506116018261159a565b604082019050919050565b60006020820190508181036000830152611625816115e9565b9050919050565b7f45524332303a207472616e7366657220616d6f756e742065786365656473206260008201527f616c616e63650000000000000000000000000000000000000000000000000000602082015250565b6000611688602683610e26565b91506116938261162c565b604082019050919050565b600060208201905081810360008301526116b78161167b565b9050919050565b7f4f776e61626c653a2063616c6c6572206973206e6f7420746865206f776e6572600082015250565b60006116f4602083610e26565b91506116ff826116be565b602082019050919050565b60006020820190508181036000830152611723816116e7565b905091905056fea26469706673582212205e280b84f5fb2d1bfa65f84ae5d9bd2d75cf674e81256523233fd2929c540f9b64736f6c63430008180033a26469706673582212206abdfc96e5f1004ba510807a9a462627eb5325bd5ace94edf82f227834970e3764736f6c63430008180033",
  "linkReferences": {},
  "deployedLinkReferences": {}
}