{
  "_format": "hh-sol-artifact-1",
  "contractName": "MemeFactory",
  "sourceName": "contracts/MemeFactory.sol",
  "abi": [
    {
      "inputs": [
        {
          "internalType": "address",
          "name": "recipient_tax",
          "type": "address"
        },
        {
          "internalType": "address",
          "name": "uniswapV2Router",
          "type": "address"
        },
        {
          "internalType": "address",
          "name": "recipientTokenPools",
          "type": "address"
        }
      ],
      "stateMutability": "nonpayable",
      "type": "constructor"
    },
    {
      "anonymous": false,
      "inputs": [
        {
          "indexed": true,
          "internalType": "address",
          "name": "user",
          "type": "address"
        },
        {
          "indexed": true,
          "internalType": "address",
          "name": "tokenAddress",
          "type": "address"
        },
        {
          "indexed": false,
          "internalType": "uint256",
          "name": "ethAmount",
          "type": "uint256"
        }
      ],
      "name": "LiquidityAdded",
      "type": "event"
    },
    {
      "anonymous": false,
      "inputs": [
        {
          "indexed": true,
          "internalType": "address",
          "name": "owner",
          "type": "address"
        },
        {
          "indexed": false,
          "internalType": "address",
          "name": "memeAddress",
          "type": "address"
        }
      ],
      "name": "MemeCreated",
      "type": "event"
    },
    {
      "anonymous": false,
      "inputs": [
        {
          "indexed": true,
          "internalType": "address",
          "name": "previousOwner",
          "type": "address"
        },
        {
          "indexed": true,
          "internalType": "address",
          "name": "newOwner",
          "type": "address"
        }
      ],
      "name": "OwnershipTransferred",
      "type": "event"
    },
    {
      "inputs": [
        {
          "internalType": "uint256",
          "name": "",
          "type": "uint256"
        }
      ],
      "name": "allMemes",
      "outputs": [
        {
          "internalType": "address",
          "name": "",
          "type": "address"
        }
      ],
      "stateMutability": "view",
      "type": "function"
    },
    {
      "inputs": [
        {
          "internalType": "address",
          "name": "tokenAddress",
          "type": "address"
        }
      ],
      "name": "checkIfMemeCreated",
      "outputs": [
        {
          "internalType": "bool",
          "name": "",
          "type": "bool"
        }
      ],
      "stateMutability": "view",
      "type": "function"
    },
    {
      "inputs": [
        {
          "internalType": "string",
          "name": "name",
          "type": "string"
        },
        {
          "internalType": "string",
          "name": "symbol",
          "type": "string"
        },
        {
          "internalType": "uint256",
          "name": "maxSupply",
          "type": "uint256"
        },
        {
          "internalType": "address",
          "name": "recipient_tokens",
          "type": "address"
        },
        {
          "internalType": "string",
          "name": "token_meme_URI",
          "type": "string"
        },
        {
          "internalType": "uint256",
          "name": "taxRate",
          "type": "uint256"
        }
      ],
      "name": "createMeme",
      "outputs": [],
      "stateMutability": "nonpayable",
      "type": "function"
    },
    {
      "inputs": [
        {
          "internalType": "address",
          "name": "tokenAddress",
          "type": "address"
        }
      ],
      "name": "fastAddLiquidity",
      "outputs": [],
      "stateMutability": "payable",
      "type": "function"
    },
    {
      "inputs": [],
      "name": "getMemeCount",
      "outputs": [
        {
          "internalType": "uint256",
          "name": "",
          "type": "uint256"
        }
      ],
      "stateMutability": "view",
      "type": "function"
    },
    {
      "inputs": [
        {
          "internalType": "address",
          "name": "",
          "type": "address"
        }
      ],
      "name": "isMemeCreated",
      "outputs": [
        {
          "internalType": "bool",
          "name": "",
          "type": "bool"
        }
      ],
      "stateMutability": "view",
      "type": "function"
    },
    {
      "inputs": [],
      "name": "owner",
      "outputs": [
        {
          "internalType": "address",
          "name": "",
          "type": "address"
        }
      ],
      "stateMutability": "view",
      "type": "function"
    },
    {
      "inputs": [
        {
          "internalType": "address",
          "name": "token",
          "type": "address"
        },
        {
          "internalType": "uint256",
          "name": "amount",
          "type": "uint256"
        }
      ],
      "name": "receiveERC20",
      "outputs": [],
      "stateMutability": "nonpayable",
      "type": "function"
    },
    {
      "inputs": [],
      "name": "renounceOwnership",
      "outputs": [],
      "stateMutability": "nonpayable",
      "type": "function"
    },
    {
      "inputs": [
        {
          "internalType": "address",
          "name": "newOwner",
          "type": "address"
        }
      ],
      "name": "transferOwnership",
      "outputs": [],
      "stateMutability": "nonpayable",
      "type": "function"
    },
    {
      "inputs": [
        {
          "internalType": "address",
          "name": "newRecipientTax",
          "type": "address"
        }
      ],
      "name": "updateRecipientTax",
      "outputs": [],
      "stateMutability": "nonpayable",
      "type": "function"
    },
    {
      "inputs": [
        {
          "internalType": "address",
          "name": "newRecipientTokensPool",
          "type": "address"
        }
      ],
      "name": "updateRecipientTokensPool",
      "outputs": [],
      "stateMutability": "nonpayable",
      "type": "function"
    },
    {
      "inputs": [
        {
          "internalType": "address",
          "name": "token",
          "type": "address"
        },
        {
          "internalType": "uint256",
          "name": "amount",
          "type": "uint256"
        }
      ],
      "name": "withdrawERC20",
      "outputs": [],
      "stateMutability": "nonpayable",
      "type": "function"
    },
    {
      "stateMutability": "payable",
      "type": "receive"
    }
  ],
  "bytecode": "0x608060405261dead600460006101000a81548173ffffffffffffffffffffffffffffffffffffffff021916908373ffffffffffffffffffffffffffffffffffffffff1602179055503480156200005457600080fd5b50604051620043493803806200434983398181016040528101906200007a91906200029c565b6200009a6200008e6200016660201b60201c565b6200016e60201b60201c565b82600160006101000a81548173ffffffffffffffffffffffffffffffffffffffff021916908373ffffffffffffffffffffffffffffffffffffffff16021790555081600260006101000a81548173ffffffffffffffffffffffffffffffffffffffff021916908373ffffffffffffffffffffffffffffffffffffffff16021790555080600360006101000a81548173ffffffffffffffffffffffffffffffffffffffff021916908373ffffffffffffffffffffffffffffffffffffffff160217905550505050620002f8565b600033905090565b60008060009054906101000a900473ffffffffffffffffffffffffffffffffffffffff169050816000806101000a81548173ffffffffffffffffffffffffffffffffffffffff021916908373ffffffffffffffffffffffffffffffffffffffff1602179055508173ffffffffffffffffffffffffffffffffffffffff168173ffffffffffffffffffffffffffffffffffffffff167f8be0079c531659141344cd1fd0a4f28419497f9722a3daafe3b4186f6b6457e060405160405180910390a35050565b600080fd5b600073ffffffffffffffffffffffffffffffffffffffff82169050919050565b6000620002648262000237565b9050919050565b620002768162000257565b81146200028257600080fd5b50565b60008151905062000296816200026b565b92915050565b600080600060608486031215620002b857620002b762000232565b5b6000620002c88682870162000285565b9350506020620002db8682870162000285565b9250506040620002ee8682870162000285565b9150509250925092565b61404180620003086000396000f3fe608060405260043610620000d95760003560e01c80639b43b664116200008b578063aed4aab61162000061578063aed4aab61462000292578063d57b180214620002c0578063d6d41ace14620002ee578063f2fde38b146200033257620000e1565b80639b43b66414620002145780639ca9dcab1462000234578063a1db9782146200026457620000e1565b8063073397db14620000e657806310df79bc146200012a57806327844075146200016e5780632c8131c2146200019c578063715018a614620001ca5780638da5cb5b14620001e457620000e1565b36620000e157005b600080fd5b348015620000f357600080fd5b506200011260048036038101906200010c919062000f04565b62000360565b60405162000121919062000f7b565b60405180910390f35b3480156200013757600080fd5b5062000156600480360381019062000150919062000fc9565b620003a0565b60405162000165919062001018565b60405180910390f35b3480156200017b57600080fd5b506200019a600480360381019062000194919062001197565b620003c0565b005b348015620001a957600080fd5b50620001c86004803603810190620001c2919062000fc9565b6200056d565b005b348015620001d757600080fd5b50620001e2620005bb565b005b348015620001f157600080fd5b50620001fc620005d1565b6040516200020b919062000f7b565b60405180910390f35b6200023260048036038101906200022c919062000fc9565b620005fa565b005b3480156200024157600080fd5b506200024c62000984565b6040516200025b9190620012a1565b60405180910390f35b3480156200027157600080fd5b506200029060048036038101906200028a9190620012be565b62000991565b005b3480156200029f57600080fd5b50620002be6004803603810190620002b89190620012be565b62000a23565b005b348015620002cd57600080fd5b50620002ec6004803603810190620002e6919062000fc9565b62000aad565b005b348015620002fb57600080fd5b506200031a600480360381019062000314919062000fc9565b62000afb565b60405162000329919062001018565b60405180910390f35b3480156200033f57600080fd5b506200035e600480360381019062000358919062000fc9565b62000b51565b005b600681815481106200037157600080fd5b906000526020600020016000915054906101000a900473ffffffffffffffffffffffffffffffffffffffff1681565b60056020528060005260406000206000915054906101000a900460ff1681565b60008110158015620003d457506101f48111155b62000416576040517f08c379a00000000000000000000000000000000000000000000000000000000081526004016200040d9062001366565b60405180910390fd5b670de0b6b3a764000084101562000464576040517f08c379a00000000000000000000000000000000000000000000000000000000081526004016200045b90620013fe565b60405180910390fd5b6000868686600160009054906101000a900473ffffffffffffffffffffffffffffffffffffffff16600360009054906101000a900473ffffffffffffffffffffffffffffffffffffffff16888888604051620004c09062000ea7565b620004d398979695949392919062001498565b604051809103906000f080158015620004f0573d6000803e3d6000fd5b5090506200051481670de0b6b3a7640000876200050e919062001599565b62000bdb565b3373ffffffffffffffffffffffffffffffffffffffff167fa92eec8dad0c149c82f93ac410e601bb03794f96ca5375339bbd0f84d59e23cb826040516200055c919062000f7b565b60405180910390a250505050505050565b6200057762000d3e565b80600160006101000a81548173ffffffffffffffffffffffffffffffffffffffff021916908373ffffffffffffffffffffffffffffffffffffffff16021790555050565b620005c562000d3e565b620005cf62000dc3565b565b60008060009054906101000a900473ffffffffffffffffffffffffffffffffffffffff16905090565b66038d7ea4c6800034101562000647576040517f08c379a00000000000000000000000000000000000000000000000000000000081526004016200063e9062001621565b60405180910390fd5b6000600260009054906101000a900473ffffffffffffffffffffffffffffffffffffffff16905060008273ffffffffffffffffffffffffffffffffffffffff166370a08231306040518263ffffffff1660e01b8152600401620006ab919062000f7b565b602060405180830381865afa158015620006c9573d6000803e3d6000fd5b505050506040513d601f19601f82011682018060405250810190620006ef91906200165a565b90506000811162000737576040517f08c379a00000000000000000000000000000000000000000000000000000000081526004016200072e90620016dc565b60405180910390fd5b600060648262000748919062001599565b9050600081836200075a9190620016fe565b90508473ffffffffffffffffffffffffffffffffffffffff1663095ea7b385836040518363ffffffff1660e01b81526004016200079992919062001739565b6020604051808303816000875af1158015620007b9573d6000803e3d6000fd5b505050506040513d601f19601f82011682018060405250810190620007df919062001797565b508373ffffffffffffffffffffffffffffffffffffffff1663f305d719348784600080600460009054906101000a900473ffffffffffffffffffffffffffffffffffffffff16426040518863ffffffff1660e01b8152600401620008499695949392919062001816565b60606040518083038185885af115801562000868573d6000803e3d6000fd5b50505050506040513d601f19601f820116820180604052508101906200088f919062001883565b5050508473ffffffffffffffffffffffffffffffffffffffff1663a9059cbb33846040518363ffffffff1660e01b8152600401620008cf92919062001739565b6020604051808303816000875af1158015620008ef573d6000803e3d6000fd5b505050506040513d601f19601f8201168201806040525081019062000915919062001797565b508473ffffffffffffffffffffffffffffffffffffffff163373ffffffffffffffffffffffffffffffffffffffff167f9d278c56ba6dc86a12eefe6b43112bd6e06648eb4ec0b950ee2d783d40e2acb434604051620009759190620012a1565b60405180910390a35050505050565b6000600680549050905090565b6200099b62000d3e565b8173ffffffffffffffffffffffffffffffffffffffff1663a9059cbb33836040518363ffffffff1660e01b8152600401620009d892919062001739565b6020604051808303816000875af1158015620009f8573d6000803e3d6000fd5b505050506040513d601f19601f8201168201806040525081019062000a1e919062001797565b505050565b8173ffffffffffffffffffffffffffffffffffffffff166323b872dd3330846040518463ffffffff1660e01b815260040162000a6293929190620018df565b6020604051808303816000875af115801562000a82573d6000803e3d6000fd5b505050506040513d601f19601f8201168201806040525081019062000aa8919062001797565b505050565b62000ab762000d3e565b80600360006101000a81548173ffffffffffffffffffffffffffffffffffffffff021916908373ffffffffffffffffffffffffffffffffffffffff16021790555050565b6000600560008373ffffffffffffffffffffffffffffffffffffffff1673ffffffffffffffffffffffffffffffffffffffff16815260200190815260200160002060009054906101000a900460ff169050919050565b62000b5b62000d3e565b600073ffffffffffffffffffffffffffffffffffffffff168173ffffffffffffffffffffffffffffffffffffffff160362000bcd576040517f08c379a000000000000000000000000000000000000000000000000000000000815260040162000bc49062001992565b60405180910390fd5b62000bd88162000ddb565b50565b6000600260009054906101000a900473ffffffffffffffffffffffffffffffffffffffff1690508273ffffffffffffffffffffffffffffffffffffffff1663095ea7b382846040518363ffffffff1660e01b815260040162000c3f92919062001739565b6020604051808303816000875af115801562000c5f573d6000803e3d6000fd5b505050506040513d601f19601f8201168201806040525081019062000c85919062001797565b508073ffffffffffffffffffffffffffffffffffffffff1663f305d71960038585600080600460009054906101000a900473ffffffffffffffffffffffffffffffffffffffff16426040518863ffffffff1660e01b815260040162000cf09695949392919062001816565b60606040518083038185885af115801562000d0f573d6000803e3d6000fd5b50505050506040513d601f19601f8201168201806040525081019062000d36919062001883565b505050505050565b62000d4862000e9f565b73ffffffffffffffffffffffffffffffffffffffff1662000d68620005d1565b73ffffffffffffffffffffffffffffffffffffffff161462000dc1576040517f08c379a000000000000000000000000000000000000000000000000000000000815260040162000db89062001a04565b60405180910390fd5b565b62000dcd62000d3e565b62000dd9600062000ddb565b565b60008060009054906101000a900473ffffffffffffffffffffffffffffffffffffffff169050816000806101000a81548173ffffffffffffffffffffffffffffffffffffffff021916908373ffffffffffffffffffffffffffffffffffffffff1602179055508173ffffffffffffffffffffffffffffffffffffffff168173ffffffffffffffffffffffffffffffffffffffff167f8be0079c531659141344cd1fd0a4f28419497f9722a3daafe3b4186f6b6457e060405160405180910390a35050565b600033905090565b6125e58062001a2783390190565b6000604051905090565b600080fd5b600080fd5b6000819050919050565b62000ede8162000ec9565b811462000eea57600080fd5b50565b60008135905062000efe8162000ed3565b92915050565b60006020828403121562000f1d5762000f1c62000ebf565b5b600062000f2d8482850162000eed565b91505092915050565b600073ffffffffffffffffffffffffffffffffffffffff82169050919050565b600062000f638262000f36565b9050919050565b62000f758162000f56565b82525050565b600060208201905062000f92600083018462000f6a565b92915050565b62000fa38162000f56565b811462000faf57600080fd5b50565b60008135905062000fc38162000f98565b92915050565b60006020828403121562000fe25762000fe162000ebf565b5b600062000ff28482850162000fb2565b91505092915050565b60008115159050919050565b620010128162000ffb565b82525050565b60006020820190506200102f600083018462001007565b92915050565b600080fd5b600080fd5b6000601f19601f8301169050919050565b7f4e487b7100000000000000000000000000000000000000000000000000000000600052604160045260246000fd5b6200108a826200103f565b810181811067ffffffffffffffff82111715620010ac57620010ab62001050565b5b80604052505050565b6000620010c162000eb5565b9050620010cf82826200107f565b919050565b600067ffffffffffffffff821115620010f257620010f162001050565b5b620010fd826200103f565b9050602081019050919050565b82818337600083830152505050565b6000620011306200112a84620010d4565b620010b5565b9050828152602081018484840111156200114f576200114e6200103a565b5b6200115c8482856200110a565b509392505050565b600082601f8301126200117c576200117b62001035565b5b81356200118e84826020860162001119565b91505092915050565b60008060008060008060c08789031215620011b757620011b662000ebf565b5b600087013567ffffffffffffffff811115620011d857620011d762000ec4565b5b620011e689828a0162001164565b965050602087013567ffffffffffffffff8111156200120a576200120962000ec4565b5b6200121889828a0162001164565b95505060406200122b89828a0162000eed565b94505060606200123e89828a0162000fb2565b935050608087013567ffffffffffffffff81111562001262576200126162000ec4565b5b6200127089828a0162001164565b92505060a06200128389828a0162000eed565b9150509295509295509295565b6200129b8162000ec9565b82525050565b6000602082019050620012b8600083018462001290565b92915050565b60008060408385031215620012d857620012d762000ebf565b5b6000620012e88582860162000fb2565b9250506020620012fb8582860162000eed565b9150509250929050565b600082825260208201905092915050565b7f5441585f524154455f4d5553545f42455f4c4553535f5448414e5f3530300000600082015250565b60006200134e601e8362001305565b91506200135b8262001316565b602082019050919050565b6000602082019050818103600083015262001381816200133f565b9050919050565b7f4d41585f535550504c595f53484f554c445f42455f4249474745525f5448414e60008201527f5f31000000000000000000000000000000000000000000000000000000000000602082015250565b6000620013e660228362001305565b9150620013f38262001388565b604082019050919050565b600060208201905081810360008301526200141981620013d7565b9050919050565b600081519050919050565b60005b838110156200144b5780820151818401526020810190506200142e565b60008484015250505050565b6000620014648262001420565b62001470818562001305565b9350620014828185602086016200142b565b6200148d816200103f565b840191505092915050565b6000610100820190508181036000830152620014b5818b62001457565b90508181036020830152620014cb818a62001457565b9050620014dc604083018962001290565b620014eb606083018862000f6a565b620014fa608083018762000f6a565b6200150960a083018662000f6a565b81810360c08301526200151d818562001457565b90506200152e60e083018462001290565b9998505050505050505050565b7f4e487b7100000000000000000000000000000000000000000000000000000000600052601260045260246000fd5b7f4e487b7100000000000000000000000000000000000000000000000000000000600052601160045260246000fd5b6000620015a68262000ec9565b9150620015b38362000ec9565b925082620015c657620015c56200153b565b5b828204905092915050565b7f4554485f52455155495245440000000000000000000000000000000000000000600082015250565b600062001609600c8362001305565b91506200161682620015d1565b602082019050919050565b600060208201905081810360008301526200163c81620015fa565b9050919050565b600081519050620016548162000ed3565b92915050565b60006020828403121562001673576200167262000ebf565b5b6000620016838482850162001643565b91505092915050565b7f4e4f5f544f4b454e535f415641494c41424c4500000000000000000000000000600082015250565b6000620016c460138362001305565b9150620016d1826200168c565b602082019050919050565b60006020820190508181036000830152620016f781620016b5565b9050919050565b60006200170b8262000ec9565b9150620017188362000ec9565b92508282039050818111156200173357620017326200156a565b5b92915050565b600060408201905062001750600083018562000f6a565b6200175f602083018462001290565b9392505050565b620017718162000ffb565b81146200177d57600080fd5b50565b600081519050620017918162001766565b92915050565b600060208284031215620017b057620017af62000ebf565b5b6000620017c08482850162001780565b91505092915050565b6000819050919050565b6000819050919050565b6000620017fe620017f8620017f284620017c9565b620017d3565b62000ec9565b9050919050565b6200181081620017dd565b82525050565b600060c0820190506200182d600083018962000f6a565b6200183c602083018862001290565b6200184b604083018762001805565b6200185a606083018662001805565b62001869608083018562000f6a565b6200187860a083018462001290565b979650505050505050565b6000806000606084860312156200189f576200189e62000ebf565b5b6000620018af8682870162001643565b9350506020620018c28682870162001643565b9250506040620018d58682870162001643565b9150509250925092565b6000606082019050620018f6600083018662000f6a565b62001905602083018562000f6a565b62001914604083018462001290565b949350505050565b7f4f776e61626c653a206e6577206f776e657220697320746865207a65726f206160008201527f6464726573730000000000000000000000000000000000000000000000000000602082015250565b60006200197a60268362001305565b915062001987826200191c565b604082019050919050565b60006020820190508181036000830152620019ad816200196b565b9050919050565b7f4f776e61626c653a2063616c6c6572206973206e6f7420746865206f776e6572600082015250565b6000620019ec60208362001305565b9150620019f982620019b4565b602082019050919050565b6000602082019050818103600083015262001a1f81620019dd565b905091905056fe60806040523480156200001157600080fd5b50604051620025e5380380620025e58339818101604052810190620000379190620007e8565b878781600390816200004a919062000b4f565b5080600490816200005c919062000b4f565b5050506200007f620000736200018a60201b60201c565b6200019260201b60201c565b8060068190555084600760006101000a81548173ffffffffffffffffffffffffffffffffffffffff021916908373ffffffffffffffffffffffffffffffffffffffff16021790555083600860006101000a81548173ffffffffffffffffffffffffffffffffffffffff021916908373ffffffffffffffffffffffffffffffffffffffff16021790555082600960006101000a81548173ffffffffffffffffffffffffffffffffffffffff021916908373ffffffffffffffffffffffffffffffffffffffff16021790555081600a90816200015a919062000b4f565b506200016c866200025860201b60201c565b6200017c6200035f60201b60201c565b505050505050505062000e75565b600033905090565b6000600560009054906101000a900473ffffffffffffffffffffffffffffffffffffffff16905081600560006101000a81548173ffffffffffffffffffffffffffffffffffffffff021916908373ffffffffffffffffffffffffffffffffffffffff1602179055508173ffffffffffffffffffffffffffffffffffffffff168173ffffffffffffffffffffffffffffffffffffffff167f8be0079c531659141344cd1fd0a4f28419497f9722a3daafe3b4186f6b6457e060405160405180910390a35050565b620002686200038360201b60201c565b600060646001836200027b919062000c65565b62000287919062000cdf565b90506000670de0b6b3a7640000600184620002a3919062000c65565b620002af919062000cdf565b82620002bc919062000d17565b9050620002f2600960009054906101000a900473ffffffffffffffffffffffffffffffffffffffff16846200041460201b60201c565b62000326600760009054906101000a900473ffffffffffffffffffffffffffffffffffffffff16836200041460201b60201c565b6200035a600860009054906101000a900473ffffffffffffffffffffffffffffffffffffffff16826200041460201b60201c565b505050565b6200036f6200038360201b60201c565b6200038160006200019260201b60201c565b565b620003936200018a60201b60201c565b73ffffffffffffffffffffffffffffffffffffffff16620003b96200058160201b60201c565b73ffffffffffffffffffffffffffffffffffffffff161462000412576040517f08c379a0000000000000000000000000000000000000000000000000000000008152600401620004099062000db3565b60405180910390fd5b565b600073ffffffffffffffffffffffffffffffffffffffff168273ffffffffffffffffffffffffffffffffffffffff160362000486576040517f08c379a00000000000000000000000000000000000000000000000000000000081526004016200047d9062000e25565b60405180910390fd5b6200049a60008383620005ab60201b60201c565b8060026000828254620004ae919062000d17565b92505081905550806000808473ffffffffffffffffffffffffffffffffffffffff1673ffffffffffffffffffffffffffffffffffffffff168152602001908152602001600020600082825401925050819055508173ffffffffffffffffffffffffffffffffffffffff16600073ffffffffffffffffffffffffffffffffffffffff167fddf252ad1be2c89b69c2b068fc378daa952ba7f163c4a11628f55a4df523b3ef8360405162000561919062000e58565b60405180910390a36200057d60008383620005b060201b60201c565b5050565b6000600560009054906101000a900473ffffffffffffffffffffffffffffffffffffffff16905090565b505050565b505050565b6000604051905090565b600080fd5b600080fd5b600080fd5b600080fd5b6000601f19601f8301169050919050565b7f4e487b7100000000000000000000000000000000000000000000000000000000600052604160045260246000fd5b6200061e82620005d3565b810181811067ffffffffffffffff8211171562000640576200063f620005e4565b5b80604052505050565b600062000655620005b5565b905062000663828262000613565b919050565b600067ffffffffffffffff821115620006865762000685620005e4565b5b6200069182620005d3565b9050602081019050919050565b60005b83811015620006be578082015181840152602081019050620006a1565b60008484015250505050565b6000620006e1620006db8462000668565b62000649565b9050828152602081018484840111156200070057620006ff620005ce565b5b6200070d8482856200069e565b509392505050565b600082601f8301126200072d576200072c620005c9565b5b81516200073f848260208601620006ca565b91505092915050565b6000819050919050565b6200075d8162000748565b81146200076957600080fd5b50565b6000815190506200077d8162000752565b92915050565b600073ffffffffffffffffffffffffffffffffffffffff82169050919050565b6000620007b08262000783565b9050919050565b620007c281620007a3565b8114620007ce57600080fd5b50565b600081519050620007e281620007b7565b92915050565b600080600080600080600080610100898b0312156200080c576200080b620005bf565b5b600089015167ffffffffffffffff8111156200082d576200082c620005c4565b5b6200083b8b828c0162000715565b985050602089015167ffffffffffffffff8111156200085f576200085e620005c4565b5b6200086d8b828c0162000715565b9750506040620008808b828c016200076c565b9650506060620008938b828c01620007d1565b9550506080620008a68b828c01620007d1565b94505060a0620008b98b828c01620007d1565b93505060c089015167ffffffffffffffff811115620008dd57620008dc620005c4565b5b620008eb8b828c0162000715565b92505060e0620008fe8b828c016200076c565b9150509295985092959890939650565b600081519050919050565b7f4e487b7100000000000000000000000000000000000000000000000000000000600052602260045260246000fd5b600060028204905060018216806200096157607f821691505b60208210810362000977576200097662000919565b5b50919050565b60008190508160005260206000209050919050565b60006020601f8301049050919050565b600082821b905092915050565b600060088302620009e17fffffffffffffffffffffffffffffffffffffffffffffffffffffffffffffffff82620009a2565b620009ed8683620009a2565b95508019841693508086168417925050509392505050565b6000819050919050565b600062000a3062000a2a62000a248462000748565b62000a05565b62000748565b9050919050565b6000819050919050565b62000a4c8362000a0f565b62000a6462000a5b8262000a37565b848454620009af565b825550505050565b600090565b62000a7b62000a6c565b62000a8881848462000a41565b505050565b5b8181101562000ab05762000aa460008262000a71565b60018101905062000a8e565b5050565b601f82111562000aff5762000ac9816200097d565b62000ad48462000992565b8101602085101562000ae4578190505b62000afc62000af38562000992565b83018262000a8d565b50505b505050565b600082821c905092915050565b600062000b246000198460080262000b04565b1980831691505092915050565b600062000b3f838362000b11565b9150826002028217905092915050565b62000b5a826200090e565b67ffffffffffffffff81111562000b765762000b75620005e4565b5b62000b82825462000948565b62000b8f82828562000ab4565b600060209050601f83116001811462000bc7576000841562000bb2578287015190505b62000bbe858262000b31565b86555062000c2e565b601f19841662000bd7866200097d565b60005b8281101562000c015784890151825560018201915060208501945060208101905062000bda565b8683101562000c21578489015162000c1d601f89168262000b11565b8355505b6001600288020188555050505b505050505050565b7f4e487b7100000000000000000000000000000000000000000000000000000000600052601160045260246000fd5b600062000c728262000748565b915062000c7f8362000748565b925082820262000c8f8162000748565b9150828204841483151762000ca95762000ca862000c36565b5b5092915050565b7f4e487b7100000000000000000000000000000000000000000000000000000000600052601260045260246000fd5b600062000cec8262000748565b915062000cf98362000748565b92508262000d0c5762000d0b62000cb0565b5b828204905092915050565b600062000d248262000748565b915062000d318362000748565b925082820190508082111562000d4c5762000d4b62000c36565b5b92915050565b600082825260208201905092915050565b7f4f776e61626c653a2063616c6c6572206973206e6f7420746865206f776e6572600082015250565b600062000d9b60208362000d52565b915062000da88262000d63565b602082019050919050565b6000602082019050818103600083015262000dce8162000d8c565b9050919050565b7f45524332303a206d696e7420746f20746865207a65726f206164647265737300600082015250565b600062000e0d601f8362000d52565b915062000e1a8262000dd5565b602082019050919050565b6000602082019050818103600083015262000e408162000dfe565b9050919050565b62000e528162000748565b82525050565b600060208201905062000e6f600083018462000e47565b92915050565b6117608062000e856000396000f3fe608060405234801561001057600080fd5b50600436106100f55760003560e01c806370a0823111610097578063a457c2d711610066578063a457c2d714610278578063a9059cbb146102a8578063dd62ed3e146102d8578063f2fde38b14610308576100f5565b806370a0823114610202578063715018a6146102325780638da5cb5b1461023c57806395d89b411461025a576100f5565b806323b872dd116100d357806323b872dd14610166578063313ce5671461019657806339509351146101b45780633c130d90146101e4576100f5565b806306fdde03146100fa578063095ea7b31461011857806318160ddd14610148575b600080fd5b610102610324565b60405161010f9190610eab565b60405180910390f35b610132600480360381019061012d9190610f66565b6103b6565b60405161013f9190610fc1565b60405180910390f35b6101506103d9565b60405161015d9190610feb565b60405180910390f35b610180600480360381019061017b9190611006565b6103e3565b60405161018d9190610fc1565b60405180910390f35b61019e61048f565b6040516101ab9190611075565b60405180910390f35b6101ce60048036038101906101c99190610f66565b610498565b6040516101db9190610fc1565b60405180910390f35b6101ec6104cf565b6040516101f99190610eab565b60405180910390f35b61021c60048036038101906102179190611090565b610561565b6040516102299190610feb565b60405180910390f35b61023a6105a9565b005b6102446105bd565b60405161025191906110cc565b60405180910390f35b6102626105e7565b60405161026f9190610eab565b60405180910390f35b610292600480360381019061028d9190610f66565b610679565b60405161029f9190610fc1565b60405180910390f35b6102c260048036038101906102bd9190610f66565b6106f0565b6040516102cf9190610fc1565b60405180910390f35b6102f260048036038101906102ed91906110e7565b61077c565b6040516102ff9190610feb565b60405180910390f35b610322600480360381019061031d9190611090565b610803565b005b60606003805461033390611156565b80601f016020809104026020016040519081016040528092919081815260200182805461035f90611156565b80156103ac5780601f10610381576101008083540402835291602001916103ac565b820191906000526020600020905b81548152906001019060200180831161038f57829003601f168201915b5050505050905090565b6000806103c1610886565b90506103ce81858561088e565b600191505092915050565b6000600254905090565b600080612710600654846103f791906111b6565b6104019190611227565b9050600081846104119190611258565b905061041e868683610a57565b60008211156104555761045486600960009054906101000a900473ffffffffffffffffffffffffffffffffffffffff1684610a57565b5b61048286610461610886565b866104738a61046e610886565b61077c565b61047d9190611258565b61088e565b6001925050509392505050565b60006012905090565b6000806104a3610886565b90506104c48185856104b5858961077c565b6104bf919061128c565b61088e565b600191505092915050565b6060600a80546104de90611156565b80601f016020809104026020016040519081016040528092919081815260200182805461050a90611156565b80156105575780601f1061052c57610100808354040283529160200191610557565b820191906000526020600020905b81548152906001019060200180831161053a57829003601f168201915b5050505050905090565b60008060008373ffffffffffffffffffffffffffffffffffffffff1673ffffffffffffffffffffffffffffffffffffffff168152602001908152602001600020549050919050565b6105b1610ccd565b6105bb6000610d4b565b565b6000600560009054906101000a900473ffffffffffffffffffffffffffffffffffffffff16905090565b6060600480546105f690611156565b80601f016020809104026020016040519081016040528092919081815260200182805461062290611156565b801561066f5780601f106106445761010080835404028352916020019161066f565b820191906000526020600020905b81548152906001019060200180831161065257829003601f168201915b5050505050905090565b600080610684610886565b90506000610692828661077c565b9050838110156106d7576040517f08c379a00000000000000000000000000000000000000000000000000000000081526004016106ce90611332565b60405180910390fd5b6106e4828686840361088e565b60019250505092915050565b6000806127106006548461070491906111b6565b61070e9190611227565b90506000818461071e9190611258565b905061073261072b610886565b8683610a57565b60008211156107705761076f610746610886565b600960009054906101000a900473ffffffffffffffffffffffffffffffffffffffff1684610a57565b5b60019250505092915050565b6000600160008473ffffffffffffffffffffffffffffffffffffffff1673ffffffffffffffffffffffffffffffffffffffff16815260200190815260200160002060008373ffffffffffffffffffffffffffffffffffffffff1673ffffffffffffffffffffffffffffffffffffffff16815260200190815260200160002054905092915050565b61080b610ccd565b600073ffffffffffffffffffffffffffffffffffffffff168173ffffffffffffffffffffffffffffffffffffffff160361087a576040517f08c379a0000000000000000000000000000000000000000000000000000000008152600401610871906113c4565b60405180910390fd5b61088381610d4b565b50565b600033905090565b600073ffffffffffffffffffffffffffffffffffffffff168373ffffffffffffffffffffffffffffffffffffffff16036108fd576040517f08c379a00000000000000000000000000000000000000000000000000000000081526004016108f490611456565b60405180910390fd5b600073ffffffffffffffffffffffffffffffffffffffff168273ffffffffffffffffffffffffffffffffffffffff160361096c576040517f08c379a0000000000000000000000000000000000000000000000000000000008152600401610963906114e8565b60405180910390fd5b80600160008573ffffffffffffffffffffffffffffffffffffffff1673ffffffffffffffffffffffffffffffffffffffff16815260200190815260200160002060008473ffffffffffffffffffffffffffffffffffffffff1673ffffffffffffffffffffffffffffffffffffffff168152602001908152602001600020819055508173ffffffffffffffffffffffffffffffffffffffff168373ffffffffffffffffffffffffffffffffffffffff167f8c5be1e5ebec7d5bd14f71427d1e84f3dd0314c0f7b2291e5b200ac8c7c3b92583604051610a4a9190610feb565b60405180910390a3505050565b600073ffffffffffffffffffffffffffffffffffffffff168373ffffffffffffffffffffffffffffffffffffffff1603610ac6576040517f08c379a0000000000000000000000000000000000000000000000000000000008152600401610abd9061157a565b60405180910390fd5b600073ffffffffffffffffffffffffffffffffffffffff168273ffffffffffffffffffffffffffffffffffffffff1603610b35576040517f08c379a0000000000000000000000000000000000000000000000000000000008152600401610b2c9061160c565b60405180910390fd5b610b40838383610e11565b60008060008573ffffffffffffffffffffffffffffffffffffffff1673ffffffffffffffffffffffffffffffffffffffff16815260200190815260200160002054905081811015610bc6576040517f08c379a0000000000000000000000000000000000000000000000000000000008152600401610bbd9061169e565b60405180910390fd5b8181036000808673ffffffffffffffffffffffffffffffffffffffff1673ffffffffffffffffffffffffffffffffffffffff16815260200190815260200160002081905550816000808573ffffffffffffffffffffffffffffffffffffffff1673ffffffffffffffffffffffffffffffffffffffff168152602001908152602001600020600082825401925050819055508273ffffffffffffffffffffffffffffffffffffffff168473ffffffffffffffffffffffffffffffffffffffff167fddf252ad1be2c89b69c2b068fc378daa952ba7f163c4a11628f55a4df523b3ef84604051610cb49190610feb565b60405180910390a3610cc7848484610e16565b50505050565b610cd5610886565b73ffffffffffffffffffffffffffffffffffffffff16610cf36105bd565b73ffffffffffffffffffffffffffffffffffffffff1614610d49576040517f08c379a0000000000000000000000000000000000000000000000000000000008152600401610d409061170a565b60405180910390fd5b565b6000600560009054906101000a900473ffffffffffffffffffffffffffffffffffffffff16905081600560006101000a81548173ffffffffffffffffffffffffffffffffffffffff021916908373ffffffffffffffffffffffffffffffffffffffff1602179055508173ffffffffffffffffffffffffffffffffffffffff168173ffffffffffffffffffffffffffffffffffffffff167f8be0079c531659141344cd1fd0a4f28419497f9722a3daafe3b4186f6b6457e060405160405180910390a35050565b505050565b505050565b600081519050919050565b600082825260208201905092915050565b60005b83811015610e55578082015181840152602081019050610e3a565b60008484015250505050565b6000601f19601f8301169050919050565b6000610e7d82610e1b565b610e878185610e26565b9350610e97818560208601610e37565b610ea081610e61565b840191505092915050565b60006020820190508181036000830152610ec58184610e72565b905092915050565b600080fd5b600073ffffffffffffffffffffffffffffffffffffffff82169050919050565b6000610efd82610ed2565b9050919050565b610f0d81610ef2565b8114610f1857600080fd5b50565b600081359050610f2a81610f04565b92915050565b6000819050919050565b610f4381610f30565b8114610f4e57600080fd5b50565b600081359050610f6081610f3a565b92915050565b60008060408385031215610f7d57610f7c610ecd565b5b6000610f8b85828601610f1b565b9250506020610f9c85828601610f51565b9150509250929050565b60008115159050919050565b610fbb81610fa6565b82525050565b6000602082019050610fd66000830184610fb2565b92915050565b610fe581610f30565b82525050565b60006020820190506110006000830184610fdc565b92915050565b60008060006060848603121561101f5761101e610ecd565b5b600061102d86828701610f1b565b935050602061103e86828701610f1b565b925050604061104f86828701610f51565b9150509250925092565b600060ff82169050919050565b61106f81611059565b82525050565b600060208201905061108a6000830184611066565b92915050565b6000602082840312156110a6576110a5610ecd565b5b60006110b484828501610f1b565b91505092915050565b6110c681610ef2565b82525050565b60006020820190506110e160008301846110bd565b92915050565b600080604083850312156110fe576110fd610ecd565b5b600061110c85828601610f1b565b925050602061111d85828601610f1b565b9150509250929050565b7f4e487b7100000000000000000000000000000000000000000000000000000000600052602260045260246000fd5b6000600282049050600182168061116e57607f821691505b60208210810361118157611180611127565b5b50919050565b7f4e487b7100000000000000000000000000000000000000000000000000000000600052601160045260246000fd5b60006111c182610f30565b91506111cc83610f30565b92508282026111da81610f30565b915082820484148315176111f1576111f0611187565b5b5092915050565b7f4e487b7100000000000000000000000000000000000000000000000000000000600052601260045260246000fd5b600061123282610f30565b915061123d83610f30565b92508261124d5761124c6111f8565b5b828204905092915050565b600061126382610f30565b915061126e83610f30565b925082820390508181111561128657611285611187565b5b92915050565b600061129782610f30565b91506112a283610f30565b92508282019050808211156112ba576112b9611187565b5b92915050565b7f45524332303a2064656372656173656420616c6c6f77616e63652062656c6f7760008201527f207a65726f000000000000000000000000000000000000000000000000000000602082015250565b600061131c602583610e26565b9150611327826112c0565b604082019050919050565b6000602082019050818103600083015261134b8161130f565b9050919050565b7f4f776e61626c653a206e6577206f776e657220697320746865207a65726f206160008201527f6464726573730000000000000000000000000000000000000000000000000000602082015250565b60006113ae602683610e26565b91506113b982611352565b604082019050919050565b600060208201905081810360008301526113dd816113a1565b9050919050565b7f45524332303a20617070726f76652066726f6d20746865207a65726f2061646460008201527f7265737300000000000000000000000000000000000000000000000000000000602082015250565b6000611440602483610e26565b915061144b826113e4565b604082019050919050565b6000602082019050818103600083015261146f81611433565b9050919050565b7f45524332303a20617070726f766520746f20746865207a65726f20616464726560008201527f7373000000000000000000000000000000000000000000000000000000000000602082015250565b60006114d2602283610e26565b91506114dd82611476565b604082019050919050565b60006020820190508181036000830152611501816114c5565b9050919050565b7f45524332303a207472616e736665722066726f6d20746865207a65726f20616460008201527f6472657373000000000000000000000000000000000000000000000000000000602082015250565b6000611564602583610e26565b915061156f82611508565b604082019050919050565b6000602082019050818103600083015261159381611557565b9050919050565b7f45524332303a207472616e7366657220746f20746865207a65726f206164647260008201527f6573730000000000000000000000000000000000000000000000000000000000602082015250565b60006115f6602383610e26565b91506116018261159a565b604082019050919050565b60006020820190508181036000830152611625816115e9565b9050919050565b7f45524332303a207472616e7366657220616d6f756e742065786365656473206260008201527f616c616e63650000000000000000000000000000000000000000000000000000602082015250565b6000611688602683610e26565b91506116938261162c565b604082019050919050565b600060208201905081810360008301526116b78161167b565b9050919050565b7f4f776e61626c653a2063616c6c6572206973206e6f7420746865206f776e6572600082015250565b60006116f4602083610e26565b91506116ff826116be565b602082019050919050565b60006020820190508181036000830152611723816116e7565b905091905056fea264697066735822122060827819c73c9609bb9407fcb5d2f9ee8846f978a2f528955943546c4335144764736f6c63430008180033a26469706673582212209b58f5b03c226926c4e6903ad84a1e41135fa2082c69e1c775322c7e8bb9142764736f6c63430008180033",
  "linkReferences": {},
  "deployedLinkReferences": {}
}