{
  "_format": "hh-sol-artifact-1",
  "contractName": "MemeFactory",
  "sourceName": "contracts/MemeFactory.sol",
  "abi": [
    {
      "inputs": [
        {
          "internalType": "address",
          "name": "recipient_tax",
          "type": "address"
        },
        {
          "internalType": "address",
          "name": "uniswapV2Router",
          "type": "address"
        },
        {
          "internalType": "address",
          "name": "uniswapV2Factory",
          "type": "address"
        },
        {
          "internalType": "address",
          "name": "recipientTokenPools",
          "type": "address"
        }
      ],
      "stateMutability": "nonpayable",
      "type": "constructor"
    },
    {
      "anonymous": false,
      "inputs": [
        {
          "indexed": true,
          "internalType": "address",
          "name": "user",
          "type": "address"
        },
        {
          "indexed": true,
          "internalType": "address",
          "name": "tokenAddress",
          "type": "address"
        },
        {
          "indexed": false,
          "internalType": "uint256",
          "name": "ethAmount",
          "type": "uint256"
        }
      ],
      "name": "LiquidityAdded",
      "type": "event"
    },
    {
      "anonymous": false,
      "inputs": [
        {
          "indexed": true,
          "internalType": "address",
          "name": "owner",
          "type": "address"
        },
        {
          "indexed": false,
          "internalType": "address",
          "name": "memeAddress",
          "type": "address"
        }
      ],
      "name": "MemeCreated",
      "type": "event"
    },
    {
      "anonymous": false,
      "inputs": [
        {
          "indexed": true,
          "internalType": "address",
          "name": "previousOwner",
          "type": "address"
        },
        {
          "indexed": true,
          "internalType": "address",
          "name": "newOwner",
          "type": "address"
        }
      ],
      "name": "OwnershipTransferred",
      "type": "event"
    },
    {
      "inputs": [
        {
          "internalType": "uint256",
          "name": "",
          "type": "uint256"
        }
      ],
      "name": "allMemes",
      "outputs": [
        {
          "internalType": "address",
          "name": "",
          "type": "address"
        }
      ],
      "stateMutability": "view",
      "type": "function"
    },
    {
      "inputs": [
        {
          "internalType": "address",
          "name": "tokenAddress",
          "type": "address"
        }
      ],
      "name": "checkIfMemeCreated",
      "outputs": [
        {
          "internalType": "bool",
          "name": "",
          "type": "bool"
        }
      ],
      "stateMutability": "view",
      "type": "function"
    },
    {
      "inputs": [
        {
          "internalType": "string",
          "name": "name",
          "type": "string"
        },
        {
          "internalType": "string",
          "name": "symbol",
          "type": "string"
        },
        {
          "internalType": "uint256",
          "name": "maxSupply",
          "type": "uint256"
        },
        {
          "internalType": "address",
          "name": "recipient_tokens",
          "type": "address"
        },
        {
          "internalType": "uint256",
          "name": "BasetaxRate",
          "type": "uint256"
        },
        {
          "internalType": "uint16",
          "name": "protectHours",
          "type": "uint16"
        }
      ],
      "name": "createMeme",
      "outputs": [],
      "stateMutability": "nonpayable",
      "type": "function"
    },
    {
      "inputs": [
        {
          "internalType": "address",
          "name": "tokenAddress",
          "type": "address"
        }
      ],
      "name": "fastAddLiquidity",
      "outputs": [],
      "stateMutability": "payable",
      "type": "function"
    },
    {
      "inputs": [],
      "name": "getMemeCount",
      "outputs": [
        {
          "internalType": "uint256",
          "name": "",
          "type": "uint256"
        }
      ],
      "stateMutability": "view",
      "type": "function"
    },
    {
      "inputs": [
        {
          "internalType": "address",
          "name": "",
          "type": "address"
        }
      ],
      "name": "isMemeCreated",
      "outputs": [
        {
          "internalType": "bool",
          "name": "",
          "type": "bool"
        }
      ],
      "stateMutability": "view",
      "type": "function"
    },
    {
      "inputs": [],
      "name": "owner",
      "outputs": [
        {
          "internalType": "address",
          "name": "",
          "type": "address"
        }
      ],
      "stateMutability": "view",
      "type": "function"
    },
    {
      "inputs": [
        {
          "internalType": "address",
          "name": "token",
          "type": "address"
        },
        {
          "internalType": "uint256",
          "name": "amount",
          "type": "uint256"
        }
      ],
      "name": "receiveERC20",
      "outputs": [],
      "stateMutability": "nonpayable",
      "type": "function"
    },
    {
      "inputs": [],
      "name": "renounceOwnership",
      "outputs": [],
      "stateMutability": "nonpayable",
      "type": "function"
    },
    {
      "inputs": [
        {
          "internalType": "address",
          "name": "newOwner",
          "type": "address"
        }
      ],
      "name": "transferOwnership",
      "outputs": [],
      "stateMutability": "nonpayable",
      "type": "function"
    },
    {
      "inputs": [
        {
          "internalType": "address",
          "name": "newRecipientTax",
          "type": "address"
        }
      ],
      "name": "updateRecipientTax",
      "outputs": [],
      "stateMutability": "nonpayable",
      "type": "function"
    },
    {
      "inputs": [
        {
          "internalType": "address",
          "name": "newRecipientTokensPool",
          "type": "address"
        }
      ],
      "name": "updateRecipientTokensPool",
      "outputs": [],
      "stateMutability": "nonpayable",
      "type": "function"
    },
    {
      "inputs": [
        {
          "internalType": "address",
          "name": "token",
          "type": "address"
        },
        {
          "internalType": "uint256",
          "name": "amount",
          "type": "uint256"
        }
      ],
      "name": "withdrawERC20",
      "outputs": [],
      "stateMutability": "nonpayable",
      "type": "function"
    },
    {
      "stateMutability": "payable",
      "type": "receive"
    }
  ],
  "bytecode": "0x608060405261dead600560006101000a81548173ffffffffffffffffffffffffffffffffffffffff021916908373ffffffffffffffffffffffffffffffffffffffff1602179055503480156200005457600080fd5b5060405162004bf638038062004bf683398181016040528101906200007a9190620002de565b6200009a6200008e620001a860201b60201c565b620001b060201b60201c565b83600160006101000a81548173ffffffffffffffffffffffffffffffffffffffff021916908373ffffffffffffffffffffffffffffffffffffffff16021790555082600260006101000a81548173ffffffffffffffffffffffffffffffffffffffff021916908373ffffffffffffffffffffffffffffffffffffffff16021790555081600360006101000a81548173ffffffffffffffffffffffffffffffffffffffff021916908373ffffffffffffffffffffffffffffffffffffffff16021790555080600460006101000a81548173ffffffffffffffffffffffffffffffffffffffff021916908373ffffffffffffffffffffffffffffffffffffffff1602179055505050505062000350565b600033905090565b60008060009054906101000a900473ffffffffffffffffffffffffffffffffffffffff169050816000806101000a81548173ffffffffffffffffffffffffffffffffffffffff021916908373ffffffffffffffffffffffffffffffffffffffff1602179055508173ffffffffffffffffffffffffffffffffffffffff168173ffffffffffffffffffffffffffffffffffffffff167f8be0079c531659141344cd1fd0a4f28419497f9722a3daafe3b4186f6b6457e060405160405180910390a35050565b600080fd5b600073ffffffffffffffffffffffffffffffffffffffff82169050919050565b6000620002a68262000279565b9050919050565b620002b88162000299565b8114620002c457600080fd5b50565b600081519050620002d881620002ad565b92915050565b60008060008060808587031215620002fb57620002fa62000274565b5b60006200030b87828801620002c7565b94505060206200031e87828801620002c7565b93505060406200033187828801620002c7565b92505060606200034487828801620002c7565b91505092959194509250565b61489680620003606000396000f3fe608060405260043610620000d95760003560e01c80639b43b664116200008b578063aed4aab61162000061578063aed4aab61462000292578063d57b180214620002c0578063d6d41ace14620002ee578063f2fde38b146200033257620000e1565b80639b43b66414620002145780639ca9dcab1462000234578063a1db9782146200026457620000e1565b8063073397db14620000e657806310df79bc146200012a578063142b1fe9146200016e5780632c8131c2146200019c578063715018a614620001ca5780638da5cb5b14620001e457620000e1565b36620000e157005b600080fd5b348015620000f357600080fd5b506200011260048036038101906200010c9190620010db565b62000360565b60405162000121919062001152565b60405180910390f35b3480156200013757600080fd5b50620001566004803603810190620001509190620011a0565b620003a0565b604051620001659190620011ef565b60405180910390f35b3480156200017b57600080fd5b506200019a6004803603810190620001949190620013ad565b620003c0565b005b348015620001a957600080fd5b50620001c86004803603810190620001c29190620011a0565b6200061f565b005b348015620001d757600080fd5b50620001e26200066d565b005b348015620001f157600080fd5b50620001fc62000683565b6040516200020b919062001152565b60405180910390f35b6200023260048036038101906200022c9190620011a0565b620006ac565b005b3480156200024157600080fd5b506200024c62000a36565b6040516200025b919062001498565b60405180910390f35b3480156200027157600080fd5b506200029060048036038101906200028a9190620014b5565b62000a43565b005b3480156200029f57600080fd5b50620002be6004803603810190620002b89190620014b5565b62000ad5565b005b348015620002cd57600080fd5b50620002ec6004803603810190620002e69190620011a0565b62000b5f565b005b348015620002fb57600080fd5b506200031a6004803603810190620003149190620011a0565b62000bad565b604051620003299190620011ef565b60405180910390f35b3480156200033f57600080fd5b506200035e6004803603810190620003589190620011a0565b62000c03565b005b600781815481106200037157600080fd5b906000526020600020016000915054906101000a900473ffffffffffffffffffffffffffffffffffffffff1681565b60066020528060005260406000206000915054906101000a900460ff1681565b60c882111562000407576040517f08c379a0000000000000000000000000000000000000000000000000000000008152600401620003fe906200155d565b60405180910390fd5b670de0b6b3a764000084101562000455576040517f08c379a00000000000000000000000000000000000000000000000000000000081526004016200044c90620015f5565b60405180910390fd5b621abbc08161ffff161115620004a2576040517f08c379a000000000000000000000000000000000000000000000000000000000815260040162000499906200168d565b60405180910390fd5b6000868686600160009054906101000a900473ffffffffffffffffffffffffffffffffffffffff16600460009054906101000a900473ffffffffffffffffffffffffffffffffffffffff16888888604051620004fe906200107e565b6200051198979695949392919062001738565b604051809103906000f0801580156200052e573d6000803e3d6000fd5b50905060006200055482670de0b6b3a7640000886200054e919062001832565b62000c8d565b90508173ffffffffffffffffffffffffffffffffffffffff1663ce6e585b826040518263ffffffff1660e01b815260040162000591919062001152565b600060405180830381600087803b158015620005ac57600080fd5b505af1158015620005c1573d6000803e3d6000fd5b505050503373ffffffffffffffffffffffffffffffffffffffff167fa92eec8dad0c149c82f93ac410e601bb03794f96ca5375339bbd0f84d59e23cb836040516200060d919062001152565b60405180910390a25050505050505050565b6200062962000f15565b80600160006101000a81548173ffffffffffffffffffffffffffffffffffffffff021916908373ffffffffffffffffffffffffffffffffffffffff16021790555050565b6200067762000f15565b6200068162000f9a565b565b60008060009054906101000a900473ffffffffffffffffffffffffffffffffffffffff16905090565b66038d7ea4c68000341015620006f9576040517f08c379a0000000000000000000000000000000000000000000000000000000008152600401620006f090620018ba565b60405180910390fd5b6000600260009054906101000a900473ffffffffffffffffffffffffffffffffffffffff16905060008273ffffffffffffffffffffffffffffffffffffffff166370a08231306040518263ffffffff1660e01b81526004016200075d919062001152565b602060405180830381865afa1580156200077b573d6000803e3d6000fd5b505050506040513d601f19601f82011682018060405250810190620007a19190620018f3565b905060008111620007e9576040517f08c379a0000000000000000000000000000000000000000000000000000000008152600401620007e09062001975565b60405180910390fd5b6000606482620007fa919062001832565b9050600081836200080c919062001997565b90508473ffffffffffffffffffffffffffffffffffffffff1663095ea7b385836040518363ffffffff1660e01b81526004016200084b929190620019d2565b6020604051808303816000875af11580156200086b573d6000803e3d6000fd5b505050506040513d601f19601f8201168201806040525081019062000891919062001a30565b508373ffffffffffffffffffffffffffffffffffffffff1663f305d719348784600080600560009054906101000a900473ffffffffffffffffffffffffffffffffffffffff16426040518863ffffffff1660e01b8152600401620008fb9695949392919062001aaf565b60606040518083038185885af11580156200091a573d6000803e3d6000fd5b50505050506040513d601f19601f8201168201806040525081019062000941919062001b1c565b5050508473ffffffffffffffffffffffffffffffffffffffff1663a9059cbb33846040518363ffffffff1660e01b815260040162000981929190620019d2565b6020604051808303816000875af1158015620009a1573d6000803e3d6000fd5b505050506040513d601f19601f82011682018060405250810190620009c7919062001a30565b508473ffffffffffffffffffffffffffffffffffffffff163373ffffffffffffffffffffffffffffffffffffffff167f9d278c56ba6dc86a12eefe6b43112bd6e06648eb4ec0b950ee2d783d40e2acb43460405162000a27919062001498565b60405180910390a35050505050565b6000600780549050905090565b62000a4d62000f15565b8173ffffffffffffffffffffffffffffffffffffffff1663a9059cbb33836040518363ffffffff1660e01b815260040162000a8a929190620019d2565b6020604051808303816000875af115801562000aaa573d6000803e3d6000fd5b505050506040513d601f19601f8201168201806040525081019062000ad0919062001a30565b505050565b8173ffffffffffffffffffffffffffffffffffffffff166323b872dd3330846040518463ffffffff1660e01b815260040162000b149392919062001b78565b6020604051808303816000875af115801562000b34573d6000803e3d6000fd5b505050506040513d601f19601f8201168201806040525081019062000b5a919062001a30565b505050565b62000b6962000f15565b80600460006101000a81548173ffffffffffffffffffffffffffffffffffffffff021916908373ffffffffffffffffffffffffffffffffffffffff16021790555050565b6000600660008373ffffffffffffffffffffffffffffffffffffffff1673ffffffffffffffffffffffffffffffffffffffff16815260200190815260200160002060009054906101000a900460ff169050919050565b62000c0d62000f15565b600073ffffffffffffffffffffffffffffffffffffffff168173ffffffffffffffffffffffffffffffffffffffff160362000c7f576040517f08c379a000000000000000000000000000000000000000000000000000000000815260040162000c769062001c2b565b60405180910390fd5b62000c8a8162000fb2565b50565b600080600260009054906101000a900473ffffffffffffffffffffffffffffffffffffffff1690506000600360009054906101000a900473ffffffffffffffffffffffffffffffffffffffff1690508473ffffffffffffffffffffffffffffffffffffffff1663095ea7b383866040518363ffffffff1660e01b815260040162000d19929190620019d2565b6020604051808303816000875af115801562000d39573d6000803e3d6000fd5b505050506040513d601f19601f8201168201806040525081019062000d5f919062001a30565b508173ffffffffffffffffffffffffffffffffffffffff1663f305d71960038787600080600560009054906101000a900473ffffffffffffffffffffffffffffffffffffffff16426040518863ffffffff1660e01b815260040162000dca9695949392919062001aaf565b60606040518083038185885af115801562000de9573d6000803e3d6000fd5b50505050506040513d601f19601f8201168201806040525081019062000e10919062001b1c565b50505060008173ffffffffffffffffffffffffffffffffffffffff1663e6a43905878573ffffffffffffffffffffffffffffffffffffffff1663ad5c46486040518163ffffffff1660e01b8152600401602060405180830381865afa15801562000e7e573d6000803e3d6000fd5b505050506040513d601f19601f8201168201806040525081019062000ea4919062001c64565b6040518363ffffffff1660e01b815260040162000ec392919062001c96565b602060405180830381865afa15801562000ee1573d6000803e3d6000fd5b505050506040513d601f19601f8201168201806040525081019062000f07919062001c64565b905080935050505092915050565b62000f1f62001076565b73ffffffffffffffffffffffffffffffffffffffff1662000f3f62000683565b73ffffffffffffffffffffffffffffffffffffffff161462000f98576040517f08c379a000000000000000000000000000000000000000000000000000000000815260040162000f8f9062001d13565b60405180910390fd5b565b62000fa462000f15565b62000fb0600062000fb2565b565b60008060009054906101000a900473ffffffffffffffffffffffffffffffffffffffff169050816000806101000a81548173ffffffffffffffffffffffffffffffffffffffff021916908373ffffffffffffffffffffffffffffffffffffffff1602179055508173ffffffffffffffffffffffffffffffffffffffff168173ffffffffffffffffffffffffffffffffffffffff167f8be0079c531659141344cd1fd0a4f28419497f9722a3daafe3b4186f6b6457e060405160405180910390a35050565b600033905090565b612b2b8062001d3683390190565b6000604051905090565b600080fd5b600080fd5b6000819050919050565b620010b581620010a0565b8114620010c157600080fd5b50565b600081359050620010d581620010aa565b92915050565b600060208284031215620010f457620010f362001096565b5b60006200110484828501620010c4565b91505092915050565b600073ffffffffffffffffffffffffffffffffffffffff82169050919050565b60006200113a826200110d565b9050919050565b6200114c816200112d565b82525050565b600060208201905062001169600083018462001141565b92915050565b6200117a816200112d565b81146200118657600080fd5b50565b6000813590506200119a816200116f565b92915050565b600060208284031215620011b957620011b862001096565b5b6000620011c98482850162001189565b91505092915050565b60008115159050919050565b620011e981620011d2565b82525050565b6000602082019050620012066000830184620011de565b92915050565b600080fd5b600080fd5b6000601f19601f8301169050919050565b7f4e487b7100000000000000000000000000000000000000000000000000000000600052604160045260246000fd5b620012618262001216565b810181811067ffffffffffffffff8211171562001283576200128262001227565b5b80604052505050565b6000620012986200108c565b9050620012a6828262001256565b919050565b600067ffffffffffffffff821115620012c957620012c862001227565b5b620012d48262001216565b9050602081019050919050565b82818337600083830152505050565b6000620013076200130184620012ab565b6200128c565b90508281526020810184848401111562001326576200132562001211565b5b62001333848285620012e1565b509392505050565b600082601f8301126200135357620013526200120c565b5b813562001365848260208601620012f0565b91505092915050565b600061ffff82169050919050565b62001387816200136e565b81146200139357600080fd5b50565b600081359050620013a7816200137c565b92915050565b60008060008060008060c08789031215620013cd57620013cc62001096565b5b600087013567ffffffffffffffff811115620013ee57620013ed6200109b565b5b620013fc89828a016200133b565b965050602087013567ffffffffffffffff81111562001420576200141f6200109b565b5b6200142e89828a016200133b565b95505060406200144189828a01620010c4565b94505060606200145489828a0162001189565b93505060806200146789828a01620010c4565b92505060a06200147a89828a0162001396565b9150509295509295509295565b6200149281620010a0565b82525050565b6000602082019050620014af600083018462001487565b92915050565b60008060408385031215620014cf57620014ce62001096565b5b6000620014df8582860162001189565b9250506020620014f285828601620010c4565b9150509250929050565b600082825260208201905092915050565b7f5441585f524154455f4d5553545f42455f4c4553535f5448414e5f3130300000600082015250565b600062001545601e83620014fc565b915062001552826200150d565b602082019050919050565b60006020820190508181036000830152620015788162001536565b9050919050565b7f4d41585f535550504c595f53484f554c445f42455f4249474745525f5448414e60008201527f5f31000000000000000000000000000000000000000000000000000000000000602082015250565b6000620015dd602283620014fc565b9150620015ea826200157f565b604082019050919050565b600060208201905081810360008301526200161081620015ce565b9050919050565b7f50524f544543545f484f5552535f53484f554c445f42455f4c4553535f54484160008201527f4e5f373330303000000000000000000000000000000000000000000000000000602082015250565b600062001675602783620014fc565b9150620016828262001617565b604082019050919050565b60006020820190508181036000830152620016a88162001666565b9050919050565b600081519050919050565b60005b83811015620016da578082015181840152602081019050620016bd565b60008484015250505050565b6000620016f382620016af565b620016ff8185620014fc565b935062001711818560208601620016ba565b6200171c8162001216565b840191505092915050565b62001732816200136e565b82525050565b600061010082019050818103600083015262001755818b620016e6565b905081810360208301526200176b818a620016e6565b90506200177c604083018962001487565b6200178b606083018862001141565b6200179a608083018762001141565b620017a960a083018662001141565b620017b860c083018562001487565b620017c760e083018462001727565b9998505050505050505050565b7f4e487b7100000000000000000000000000000000000000000000000000000000600052601260045260246000fd5b7f4e487b7100000000000000000000000000000000000000000000000000000000600052601160045260246000fd5b60006200183f82620010a0565b91506200184c83620010a0565b9250826200185f576200185e620017d4565b5b828204905092915050565b7f4554485f52455155495245440000000000000000000000000000000000000000600082015250565b6000620018a2600c83620014fc565b9150620018af826200186a565b602082019050919050565b60006020820190508181036000830152620018d58162001893565b9050919050565b600081519050620018ed81620010aa565b92915050565b6000602082840312156200190c576200190b62001096565b5b60006200191c84828501620018dc565b91505092915050565b7f4e4f5f544f4b454e535f415641494c41424c4500000000000000000000000000600082015250565b60006200195d601383620014fc565b91506200196a8262001925565b602082019050919050565b6000602082019050818103600083015262001990816200194e565b9050919050565b6000620019a482620010a0565b9150620019b183620010a0565b9250828203905081811115620019cc57620019cb62001803565b5b92915050565b6000604082019050620019e9600083018562001141565b620019f8602083018462001487565b9392505050565b62001a0a81620011d2565b811462001a1657600080fd5b50565b60008151905062001a2a81620019ff565b92915050565b60006020828403121562001a495762001a4862001096565b5b600062001a598482850162001a19565b91505092915050565b6000819050919050565b6000819050919050565b600062001a9762001a9162001a8b8462001a62565b62001a6c565b620010a0565b9050919050565b62001aa98162001a76565b82525050565b600060c08201905062001ac6600083018962001141565b62001ad5602083018862001487565b62001ae4604083018762001a9e565b62001af3606083018662001a9e565b62001b02608083018562001141565b62001b1160a083018462001487565b979650505050505050565b60008060006060848603121562001b385762001b3762001096565b5b600062001b4886828701620018dc565b935050602062001b5b86828701620018dc565b925050604062001b6e86828701620018dc565b9150509250925092565b600060608201905062001b8f600083018662001141565b62001b9e602083018562001141565b62001bad604083018462001487565b949350505050565b7f4f776e61626c653a206e6577206f776e657220697320746865207a65726f206160008201527f6464726573730000000000000000000000000000000000000000000000000000602082015250565b600062001c13602683620014fc565b915062001c208262001bb5565b604082019050919050565b6000602082019050818103600083015262001c468162001c04565b9050919050565b60008151905062001c5e816200116f565b92915050565b60006020828403121562001c7d5762001c7c62001096565b5b600062001c8d8482850162001c4d565b91505092915050565b600060408201905062001cad600083018562001141565b62001cbc602083018462001141565b9392505050565b7f4f776e61626c653a2063616c6c6572206973206e6f7420746865206f776e6572600082015250565b600062001cfb602083620014fc565b915062001d088262001cc3565b602082019050919050565b6000602082019050818103600083015262001d2e8162001cec565b905091905056fe6080604052610e10600b553480156200001757600080fd5b5060405162002b2b38038062002b2b83398181016040528101906200003d919062000819565b8787816003908162000050919062000b61565b50806004908162000062919062000b61565b50505062000085620000796200019260201b60201c565b6200019a60201b60201c565b8160068190555084600760006101000a81548173ffffffffffffffffffffffffffffffffffffffff021916908373ffffffffffffffffffffffffffffffffffffffff16021790555083600860006101000a81548173ffffffffffffffffffffffffffffffffffffffff021916908373ffffffffffffffffffffffffffffffffffffffff16021790555082600960006101000a81548173ffffffffffffffffffffffffffffffffffffffff021916908373ffffffffffffffffffffffffffffffffffffffff16021790555080600960146101000a81548161ffff021916908361ffff1602179055506200017d866200026060201b60201c565b42600a81905550505050505050505062000e87565b600033905090565b6000600560009054906101000a900473ffffffffffffffffffffffffffffffffffffffff16905081600560006101000a81548173ffffffffffffffffffffffffffffffffffffffff021916908373ffffffffffffffffffffffffffffffffffffffff1602179055508173ffffffffffffffffffffffffffffffffffffffff168173ffffffffffffffffffffffffffffffffffffffff167f8be0079c531659141344cd1fd0a4f28419497f9722a3daafe3b4186f6b6457e060405160405180910390a35050565b620002706200037560201b60201c565b6000606460018362000283919062000c77565b6200028f919062000cf1565b90506000670de0b6b3a7640000600184620002ab919062000c77565b620002b7919062000cf1565b600a83620002c6919062000c77565b620002d2919062000d29565b905062000308600960009054906101000a900473ffffffffffffffffffffffffffffffffffffffff16846200040660201b60201c565b6200033c600760009054906101000a900473ffffffffffffffffffffffffffffffffffffffff16836200040660201b60201c565b62000370600860009054906101000a900473ffffffffffffffffffffffffffffffffffffffff16826200040660201b60201c565b505050565b620003856200019260201b60201c565b73ffffffffffffffffffffffffffffffffffffffff16620003ab6200057360201b60201c565b73ffffffffffffffffffffffffffffffffffffffff161462000404576040517f08c379a0000000000000000000000000000000000000000000000000000000008152600401620003fb9062000dc5565b60405180910390fd5b565b600073ffffffffffffffffffffffffffffffffffffffff168273ffffffffffffffffffffffffffffffffffffffff160362000478576040517f08c379a00000000000000000000000000000000000000000000000000000000081526004016200046f9062000e37565b60405180910390fd5b6200048c600083836200059d60201b60201c565b8060026000828254620004a0919062000d29565b92505081905550806000808473ffffffffffffffffffffffffffffffffffffffff1673ffffffffffffffffffffffffffffffffffffffff168152602001908152602001600020600082825401925050819055508173ffffffffffffffffffffffffffffffffffffffff16600073ffffffffffffffffffffffffffffffffffffffff167fddf252ad1be2c89b69c2b068fc378daa952ba7f163c4a11628f55a4df523b3ef8360405162000553919062000e6a565b60405180910390a36200056f60008383620005a260201b60201c565b5050565b6000600560009054906101000a900473ffffffffffffffffffffffffffffffffffffffff16905090565b505050565b505050565b6000604051905090565b600080fd5b600080fd5b600080fd5b600080fd5b6000601f19601f8301169050919050565b7f4e487b7100000000000000000000000000000000000000000000000000000000600052604160045260246000fd5b6200061082620005c5565b810181811067ffffffffffffffff82111715620006325762000631620005d6565b5b80604052505050565b600062000647620005a7565b905062000655828262000605565b919050565b600067ffffffffffffffff821115620006785762000677620005d6565b5b6200068382620005c5565b9050602081019050919050565b60005b83811015620006b057808201518184015260208101905062000693565b60008484015250505050565b6000620006d3620006cd846200065a565b6200063b565b905082815260208101848484011115620006f257620006f1620005c0565b5b620006ff84828562000690565b509392505050565b600082601f8301126200071f576200071e620005bb565b5b815162000731848260208601620006bc565b91505092915050565b6000819050919050565b6200074f816200073a565b81146200075b57600080fd5b50565b6000815190506200076f8162000744565b92915050565b600073ffffffffffffffffffffffffffffffffffffffff82169050919050565b6000620007a28262000775565b9050919050565b620007b48162000795565b8114620007c057600080fd5b50565b600081519050620007d481620007a9565b92915050565b600061ffff82169050919050565b620007f381620007da565b8114620007ff57600080fd5b50565b6000815190506200081381620007e8565b92915050565b600080600080600080600080610100898b0312156200083d576200083c620005b1565b5b600089015167ffffffffffffffff8111156200085e576200085d620005b6565b5b6200086c8b828c0162000707565b985050602089015167ffffffffffffffff81111562000890576200088f620005b6565b5b6200089e8b828c0162000707565b9750506040620008b18b828c016200075e565b9650506060620008c48b828c01620007c3565b9550506080620008d78b828c01620007c3565b94505060a0620008ea8b828c01620007c3565b93505060c0620008fd8b828c016200075e565b92505060e0620009108b828c0162000802565b9150509295985092959890939650565b600081519050919050565b7f4e487b7100000000000000000000000000000000000000000000000000000000600052602260045260246000fd5b600060028204905060018216806200097357607f821691505b6020821081036200098957620009886200092b565b5b50919050565b60008190508160005260206000209050919050565b60006020601f8301049050919050565b600082821b905092915050565b600060088302620009f37fffffffffffffffffffffffffffffffffffffffffffffffffffffffffffffffff82620009b4565b620009ff8683620009b4565b95508019841693508086168417925050509392505050565b6000819050919050565b600062000a4262000a3c62000a36846200073a565b62000a17565b6200073a565b9050919050565b6000819050919050565b62000a5e8362000a21565b62000a7662000a6d8262000a49565b848454620009c1565b825550505050565b600090565b62000a8d62000a7e565b62000a9a81848462000a53565b505050565b5b8181101562000ac25762000ab660008262000a83565b60018101905062000aa0565b5050565b601f82111562000b115762000adb816200098f565b62000ae684620009a4565b8101602085101562000af6578190505b62000b0e62000b0585620009a4565b83018262000a9f565b50505b505050565b600082821c905092915050565b600062000b366000198460080262000b16565b1980831691505092915050565b600062000b51838362000b23565b9150826002028217905092915050565b62000b6c8262000920565b67ffffffffffffffff81111562000b885762000b87620005d6565b5b62000b9482546200095a565b62000ba182828562000ac6565b600060209050601f83116001811462000bd9576000841562000bc4578287015190505b62000bd0858262000b43565b86555062000c40565b601f19841662000be9866200098f565b60005b8281101562000c135784890151825560018201915060208501945060208101905062000bec565b8683101562000c33578489015162000c2f601f89168262000b23565b8355505b6001600288020188555050505b505050505050565b7f4e487b7100000000000000000000000000000000000000000000000000000000600052601160045260246000fd5b600062000c84826200073a565b915062000c91836200073a565b925082820262000ca1816200073a565b9150828204841483151762000cbb5762000cba62000c48565b5b5092915050565b7f4e487b7100000000000000000000000000000000000000000000000000000000600052601260045260246000fd5b600062000cfe826200073a565b915062000d0b836200073a565b92508262000d1e5762000d1d62000cc2565b5b828204905092915050565b600062000d36826200073a565b915062000d43836200073a565b925082820190508082111562000d5e5762000d5d62000c48565b5b92915050565b600082825260208201905092915050565b7f4f776e61626c653a2063616c6c6572206973206e6f7420746865206f776e6572600082015250565b600062000dad60208362000d64565b915062000dba8262000d75565b602082019050919050565b6000602082019050818103600083015262000de08162000d9e565b9050919050565b7f45524332303a206d696e7420746f20746865207a65726f206164647265737300600082015250565b600062000e1f601f8362000d64565b915062000e2c8262000de7565b602082019050919050565b6000602082019050818103600083015262000e528162000e10565b9050919050565b62000e64816200073a565b82525050565b600060208201905062000e81600083018462000e59565b92915050565b611c948062000e976000396000f3fe608060405234801561001057600080fd5b50600436106101375760003560e01c806374d05e3b116100b8578063a9059cbb1161007c578063a9059cbb14610345578063ce6e585b14610375578063dd62ed3e14610391578063e5e31b13146103c1578063f2fde38b146103f1578063f70d93621461040d57610137565b806374d05e3b1461029c5780638da5cb5b146102ba57806395d89b41146102d8578063966bd76c146102f6578063a457c2d71461031557610137565b8063313ce567116100ff578063313ce567146101f657806339509351146102145780636c5808011461024457806370a0823114610262578063715018a61461029257610137565b806306fdde031461013c578063095ea7b31461015a57806318160ddd1461018a5780632200d851146101a857806323b872dd146101c6575b600080fd5b61014461042b565b60405161015191906112ec565b60405180910390f35b610174600480360381019061016f91906113a7565b6104bd565b6040516101819190611402565b60405180910390f35b6101926104e0565b60405161019f919061142c565b60405180910390f35b6101b06104ea565b6040516101bd919061142c565b60405180910390f35b6101e060048036038101906101db9190611447565b6104f0565b6040516101ed9190611402565b60405180910390f35b6101fe6106f3565b60405161020b91906114b6565b60405180910390f35b61022e600480360381019061022991906113a7565b6106fc565b60405161023b9190611402565b60405180910390f35b61024c610733565b604051610259919061142c565b60405180910390f35b61027c600480360381019061027791906114d1565b610739565b604051610289919061142c565b60405180910390f35b61029a610781565b005b6102a4610795565b6040516102b1919061151b565b60405180910390f35b6102c26107a9565b6040516102cf9190611545565b60405180910390f35b6102e06107d3565b6040516102ed91906112ec565b60405180910390f35b6102fe610865565b60405161030c929190611560565b60405180910390f35b61032f600480360381019061032a91906113a7565b610884565b60405161033c9190611402565b60405180910390f35b61035f600480360381019061035a91906113a7565b6108fb565b60405161036c9190611402565b60405180910390f35b61038f600480360381019061038a91906114d1565b610aaa565b005b6103ab60048036038101906103a69190611589565b610b15565b6040516103b8919061142c565b60405180910390f35b6103db60048036038101906103d691906114d1565b610b9c565b6040516103e89190611402565b60405180910390f35b61040b600480360381019061040691906114d1565b610bbc565b005b610415610c3f565b604051610422919061142c565b60405180910390f35b60606003805461043a906115f8565b80601f0160208091040260200160405190810160405280929190818152602001828054610466906115f8565b80156104b35780601f10610488576101008083540402835291602001916104b3565b820191906000526020600020905b81548152906001019060200180831161049657829003601f168201915b5050505050905090565b6000806104c8610cc7565b90506104d5818585610ccf565b600191505092915050565b6000600254905090565b600b5481565b6000806000905060008390506000600b54600a544261050f9190611658565b61051991906116bb565b9050600061052e88610529610cc7565b610b15565b905085811015610573576040517f08c379a000000000000000000000000000000000000000000000000000000000815260040161056a9061175e565b60405180910390fd5b6105908861057f610cc7565b888461058b9190611658565b610ccf565b600c60008973ffffffffffffffffffffffffffffffffffffffff1673ffffffffffffffffffffffffffffffffffffffff16815260200190815260200160002060009054906101000a900460ff161561067657600960149054906101000a900461ffff1661ffff1682101561062f57612710610609610c3f565b87610614919061177e565b61061e91906116bb565b9350838661062c9190611658565b92505b61063a888885610e98565b60008411156106715761067088600760009054906101000a900473ffffffffffffffffffffffffffffffffffffffff1686610e98565b5b6106e4565b61271060065487610687919061177e565b61069191906116bb565b9350838661069f9190611658565b92506106ac888885610e98565b60008411156106e3576106e288600960009054906101000a900473ffffffffffffffffffffffffffffffffffffffff1686610e98565b5b5b60019450505050509392505050565b60006012905090565b600080610707610cc7565b90506107288185856107198589610b15565b61072391906117c0565b610ccf565b600191505092915050565b600a5481565b60008060008373ffffffffffffffffffffffffffffffffffffffff1673ffffffffffffffffffffffffffffffffffffffff168152602001908152602001600020549050919050565b61078961110e565b610793600061118c565b565b600960149054906101000a900461ffff1681565b6000600560009054906101000a900473ffffffffffffffffffffffffffffffffffffffff16905090565b6060600480546107e2906115f8565b80601f016020809104026020016040519081016040528092919081815260200182805461080e906115f8565b801561085b5780601f106108305761010080835404028352916020019161085b565b820191906000526020600020905b81548152906001019060200180831161083e57829003601f168201915b5050505050905090565b600080600a54600960149054906101000a900461ffff16915091509091565b60008061088f610cc7565b9050600061089d8286610b15565b9050838110156108e2576040517f08c379a00000000000000000000000000000000000000000000000000000000081526004016108d990611866565b60405180910390fd5b6108ef8286868403610ccf565b60019250505092915050565b6000806000905060008390506000600b54600a544261091a9190611658565b61092491906116bb565b9050600c6000610932610cc7565b73ffffffffffffffffffffffffffffffffffffffff1673ffffffffffffffffffffffffffffffffffffffff16815260200190815260200160002060009054906101000a900460ff1615610a2157600960149054906101000a900461ffff1661ffff168110156109cc576127106109a6610c3f565b866109b1919061177e565b6109bb91906116bb565b925082856109c99190611658565b91505b6109de6109d7610cc7565b8784610e98565b6000831115610a1c57610a1b6109f2610cc7565b600760009054906101000a900473ffffffffffffffffffffffffffffffffffffffff1685610e98565b5b610a9d565b61271060065486610a32919061177e565b610a3c91906116bb565b92508285610a4a9190611658565b9150610a5e610a57610cc7565b8784610e98565b6000831115610a9c57610a9b610a72610cc7565b600960009054906101000a900473ffffffffffffffffffffffffffffffffffffffff1685610e98565b5b5b6001935050505092915050565b610ab261110e565b6001600c60008373ffffffffffffffffffffffffffffffffffffffff1673ffffffffffffffffffffffffffffffffffffffff16815260200190815260200160002060006101000a81548160ff021916908315150217905550610b12610781565b50565b6000600160008473ffffffffffffffffffffffffffffffffffffffff1673ffffffffffffffffffffffffffffffffffffffff16815260200190815260200160002060008373ffffffffffffffffffffffffffffffffffffffff1673ffffffffffffffffffffffffffffffffffffffff16815260200190815260200160002054905092915050565b600c6020528060005260406000206000915054906101000a900460ff1681565b610bc461110e565b600073ffffffffffffffffffffffffffffffffffffffff168173ffffffffffffffffffffffffffffffffffffffff1603610c33576040517f08c379a0000000000000000000000000000000000000000000000000000000008152600401610c2a906118f8565b60405180910390fd5b610c3c8161118c565b50565b600080600b54600a5442610c539190611658565b610c5d91906116bb565b9050600960149054906101000a900461ffff1661ffff16811015610cbd57600960149054906101000a900461ffff1661ffff1661271082610c9e919061177e565b610ca891906116bb565b612710610cb59190611658565b915050610cc4565b6006549150505b90565b600033905090565b600073ffffffffffffffffffffffffffffffffffffffff168373ffffffffffffffffffffffffffffffffffffffff1603610d3e576040517f08c379a0000000000000000000000000000000000000000000000000000000008152600401610d359061198a565b60405180910390fd5b600073ffffffffffffffffffffffffffffffffffffffff168273ffffffffffffffffffffffffffffffffffffffff1603610dad576040517f08c379a0000000000000000000000000000000000000000000000000000000008152600401610da490611a1c565b60405180910390fd5b80600160008573ffffffffffffffffffffffffffffffffffffffff1673ffffffffffffffffffffffffffffffffffffffff16815260200190815260200160002060008473ffffffffffffffffffffffffffffffffffffffff1673ffffffffffffffffffffffffffffffffffffffff168152602001908152602001600020819055508173ffffffffffffffffffffffffffffffffffffffff168373ffffffffffffffffffffffffffffffffffffffff167f8c5be1e5ebec7d5bd14f71427d1e84f3dd0314c0f7b2291e5b200ac8c7c3b92583604051610e8b919061142c565b60405180910390a3505050565b600073ffffffffffffffffffffffffffffffffffffffff168373ffffffffffffffffffffffffffffffffffffffff1603610f07576040517f08c379a0000000000000000000000000000000000000000000000000000000008152600401610efe90611aae565b60405180910390fd5b600073ffffffffffffffffffffffffffffffffffffffff168273ffffffffffffffffffffffffffffffffffffffff1603610f76576040517f08c379a0000000000000000000000000000000000000000000000000000000008152600401610f6d90611b40565b60405180910390fd5b610f81838383611252565b60008060008573ffffffffffffffffffffffffffffffffffffffff1673ffffffffffffffffffffffffffffffffffffffff16815260200190815260200160002054905081811015611007576040517f08c379a0000000000000000000000000000000000000000000000000000000008152600401610ffe90611bd2565b60405180910390fd5b8181036000808673ffffffffffffffffffffffffffffffffffffffff1673ffffffffffffffffffffffffffffffffffffffff16815260200190815260200160002081905550816000808573ffffffffffffffffffffffffffffffffffffffff1673ffffffffffffffffffffffffffffffffffffffff168152602001908152602001600020600082825401925050819055508273ffffffffffffffffffffffffffffffffffffffff168473ffffffffffffffffffffffffffffffffffffffff167fddf252ad1be2c89b69c2b068fc378daa952ba7f163c4a11628f55a4df523b3ef846040516110f5919061142c565b60405180910390a3611108848484611257565b50505050565b611116610cc7565b73ffffffffffffffffffffffffffffffffffffffff166111346107a9565b73ffffffffffffffffffffffffffffffffffffffff161461118a576040517f08c379a000000000000000000000000000000000000000000000000000000000815260040161118190611c3e565b60405180910390fd5b565b6000600560009054906101000a900473ffffffffffffffffffffffffffffffffffffffff16905081600560006101000a81548173ffffffffffffffffffffffffffffffffffffffff021916908373ffffffffffffffffffffffffffffffffffffffff1602179055508173ffffffffffffffffffffffffffffffffffffffff168173ffffffffffffffffffffffffffffffffffffffff167f8be0079c531659141344cd1fd0a4f28419497f9722a3daafe3b4186f6b6457e060405160405180910390a35050565b505050565b505050565b600081519050919050565b600082825260208201905092915050565b60005b8381101561129657808201518184015260208101905061127b565b60008484015250505050565b6000601f19601f8301169050919050565b60006112be8261125c565b6112c88185611267565b93506112d8818560208601611278565b6112e1816112a2565b840191505092915050565b6000602082019050818103600083015261130681846112b3565b905092915050565b600080fd5b600073ffffffffffffffffffffffffffffffffffffffff82169050919050565b600061133e82611313565b9050919050565b61134e81611333565b811461135957600080fd5b50565b60008135905061136b81611345565b92915050565b6000819050919050565b61138481611371565b811461138f57600080fd5b50565b6000813590506113a18161137b565b92915050565b600080604083850312156113be576113bd61130e565b5b60006113cc8582860161135c565b92505060206113dd85828601611392565b9150509250929050565b60008115159050919050565b6113fc816113e7565b82525050565b600060208201905061141760008301846113f3565b92915050565b61142681611371565b82525050565b6000602082019050611441600083018461141d565b92915050565b6000806000606084860312156114605761145f61130e565b5b600061146e8682870161135c565b935050602061147f8682870161135c565b925050604061149086828701611392565b9150509250925092565b600060ff82169050919050565b6114b08161149a565b82525050565b60006020820190506114cb60008301846114a7565b92915050565b6000602082840312156114e7576114e661130e565b5b60006114f58482850161135c565b91505092915050565b600061ffff82169050919050565b611515816114fe565b82525050565b6000602082019050611530600083018461150c565b92915050565b61153f81611333565b82525050565b600060208201905061155a6000830184611536565b92915050565b6000604082019050611575600083018561141d565b611582602083018461150c565b9392505050565b600080604083850312156115a05761159f61130e565b5b60006115ae8582860161135c565b92505060206115bf8582860161135c565b9150509250929050565b7f4e487b7100000000000000000000000000000000000000000000000000000000600052602260045260246000fd5b6000600282049050600182168061161057607f821691505b602082108103611623576116226115c9565b5b50919050565b7f4e487b7100000000000000000000000000000000000000000000000000000000600052601160045260246000fd5b600061166382611371565b915061166e83611371565b925082820390508181111561168657611685611629565b5b92915050565b7f4e487b7100000000000000000000000000000000000000000000000000000000600052601260045260246000fd5b60006116c682611371565b91506116d183611371565b9250826116e1576116e061168c565b5b828204905092915050565b7f45524332303a207472616e7366657220616d6f756e742065786365656473206160008201527f6c6c6f77616e6365000000000000000000000000000000000000000000000000602082015250565b6000611748602883611267565b9150611753826116ec565b604082019050919050565b600060208201905081810360008301526117778161173b565b9050919050565b600061178982611371565b915061179483611371565b92508282026117a281611371565b915082820484148315176117b9576117b8611629565b5b5092915050565b60006117cb82611371565b91506117d683611371565b92508282019050808211156117ee576117ed611629565b5b92915050565b7f45524332303a2064656372656173656420616c6c6f77616e63652062656c6f7760008201527f207a65726f000000000000000000000000000000000000000000000000000000602082015250565b6000611850602583611267565b915061185b826117f4565b604082019050919050565b6000602082019050818103600083015261187f81611843565b9050919050565b7f4f776e61626c653a206e6577206f776e657220697320746865207a65726f206160008201527f6464726573730000000000000000000000000000000000000000000000000000602082015250565b60006118e2602683611267565b91506118ed82611886565b604082019050919050565b60006020820190508181036000830152611911816118d5565b9050919050565b7f45524332303a20617070726f76652066726f6d20746865207a65726f2061646460008201527f7265737300000000000000000000000000000000000000000000000000000000602082015250565b6000611974602483611267565b915061197f82611918565b604082019050919050565b600060208201905081810360008301526119a381611967565b9050919050565b7f45524332303a20617070726f766520746f20746865207a65726f20616464726560008201527f7373000000000000000000000000000000000000000000000000000000000000602082015250565b6000611a06602283611267565b9150611a11826119aa565b604082019050919050565b60006020820190508181036000830152611a35816119f9565b9050919050565b7f45524332303a207472616e736665722066726f6d20746865207a65726f20616460008201527f6472657373000000000000000000000000000000000000000000000000000000602082015250565b6000611a98602583611267565b9150611aa382611a3c565b604082019050919050565b60006020820190508181036000830152611ac781611a8b565b9050919050565b7f45524332303a207472616e7366657220746f20746865207a65726f206164647260008201527f6573730000000000000000000000000000000000000000000000000000000000602082015250565b6000611b2a602383611267565b9150611b3582611ace565b604082019050919050565b60006020820190508181036000830152611b5981611b1d565b9050919050565b7f45524332303a207472616e7366657220616d6f756e742065786365656473206260008201527f616c616e63650000000000000000000000000000000000000000000000000000602082015250565b6000611bbc602683611267565b9150611bc782611b60565b604082019050919050565b60006020820190508181036000830152611beb81611baf565b9050919050565b7f4f776e61626c653a2063616c6c6572206973206e6f7420746865206f776e6572600082015250565b6000611c28602083611267565b9150611c3382611bf2565b602082019050919050565b60006020820190508181036000830152611c5781611c1b565b905091905056fea264697066735822122050441e9fc2cebd391cd6b3060ca1817b964a8299ff45644e6ec620998e23331e64736f6c63430008180033a2646970667358221220a5579c3316983c48bf3e75830dfe3cfa7e850a4e2d27ad9da95e07ac6f25ca8e64736f6c63430008180033",
  "linkReferences": {},
  "deployedLinkReferences": {}
}