{
  "_format": "hh-sol-artifact-1",
  "contractName": "MemeFactory",
  "sourceName": "contracts/MemeFactory.sol",
  "abi": [
    {
      "inputs": [
        {
          "internalType": "address",
          "name": "recipient_tax",
          "type": "address"
        }
      ],
      "stateMutability": "nonpayable",
      "type": "constructor"
    },
    {
      "anonymous": false,
      "inputs": [
        {
          "indexed": true,
          "internalType": "address",
          "name": "owner",
          "type": "address"
        },
        {
          "indexed": false,
          "internalType": "address",
          "name": "memeAddress",
          "type": "address"
        }
      ],
      "name": "MemeCreated",
      "type": "event"
    },
    {
      "inputs": [
        {
          "internalType": "string",
          "name": "name",
          "type": "string"
        },
        {
          "internalType": "string",
          "name": "symbol",
          "type": "string"
        },
        {
          "internalType": "uint256",
          "name": "maxSupply",
          "type": "uint256"
        },
        {
          "internalType": "address",
          "name": "recipient_tokens",
          "type": "address"
        },
        {
          "internalType": "string",
          "name": "token_meme_URI",
          "type": "string"
        },
        {
          "internalType": "uint256",
          "name": "taxRate",
          "type": "uint256"
        }
      ],
      "name": "createMeme",
      "outputs": [],
      "stateMutability": "nonpayable",
      "type": "function"
    }
  ],
  "bytecode": "0x608060405234801561001057600080fd5b50604051612cea380380612cea833981810160405281019061003291906100db565b806000806101000a81548173ffffffffffffffffffffffffffffffffffffffff021916908373ffffffffffffffffffffffffffffffffffffffff16021790555050610108565b600080fd5b600073ffffffffffffffffffffffffffffffffffffffff82169050919050565b60006100a88261007d565b9050919050565b6100b88161009d565b81146100c357600080fd5b50565b6000815190506100d5816100af565b92915050565b6000602082840312156100f1576100f0610078565b5b60006100ff848285016100c6565b91505092915050565b612bd3806101176000396000f3fe60806040523480156200001157600080fd5b50600436106200002e5760003560e01c8063278440751462000033575b600080fd5b6200005160048036038101906200004b91906200038f565b62000053565b005b600081101580156200006757506101f48111155b620000a9576040517f08c379a0000000000000000000000000000000000000000000000000000000008152600401620000a0906200050f565b60405180910390fd5b600086868660008054906101000a900473ffffffffffffffffffffffffffffffffffffffff16878787604051620000e0906200016b565b620000f29796959493929190620005cb565b604051809103906000f0801580156200010f573d6000803e3d6000fd5b5090503373ffffffffffffffffffffffffffffffffffffffff167fa92eec8dad0c149c82f93ac410e601bb03794f96ca5375339bbd0f84d59e23cb826040516200015a91906200065d565b60405180910390a250505050505050565b612523806200067b83390190565b6000604051905090565b600080fd5b600080fd5b600080fd5b600080fd5b6000601f19601f8301169050919050565b7f4e487b7100000000000000000000000000000000000000000000000000000000600052604160045260246000fd5b620001e28262000197565b810181811067ffffffffffffffff82111715620002045762000203620001a8565b5b80604052505050565b60006200021962000179565b9050620002278282620001d7565b919050565b600067ffffffffffffffff8211156200024a5762000249620001a8565b5b620002558262000197565b9050602081019050919050565b82818337600083830152505050565b60006200028862000282846200022c565b6200020d565b905082815260208101848484011115620002a757620002a662000192565b5b620002b484828562000262565b509392505050565b600082601f830112620002d457620002d36200018d565b5b8135620002e684826020860162000271565b91505092915050565b6000819050919050565b6200030481620002ef565b81146200031057600080fd5b50565b6000813590506200032481620002f9565b92915050565b600073ffffffffffffffffffffffffffffffffffffffff82169050919050565b600062000357826200032a565b9050919050565b62000369816200034a565b81146200037557600080fd5b50565b60008135905062000389816200035e565b92915050565b60008060008060008060c08789031215620003af57620003ae62000183565b5b600087013567ffffffffffffffff811115620003d057620003cf62000188565b5b620003de89828a01620002bc565b965050602087013567ffffffffffffffff81111562000402576200040162000188565b5b6200041089828a01620002bc565b95505060406200042389828a0162000313565b94505060606200043689828a0162000378565b935050608087013567ffffffffffffffff8111156200045a576200045962000188565b5b6200046889828a01620002bc565b92505060a06200047b89828a0162000313565b9150509295509295509295565b600082825260208201905092915050565b7f5461782072617465206d75737420626520706f73697469766520616e64206c6560008201527f7373207468616e20353030000000000000000000000000000000000000000000602082015250565b6000620004f7602b8362000488565b9150620005048262000499565b604082019050919050565b600060208201905081810360008301526200052a81620004e8565b9050919050565b600081519050919050565b60005b838110156200055c5780820151818401526020810190506200053f565b60008484015250505050565b6000620005758262000531565b62000581818562000488565b9350620005938185602086016200053c565b6200059e8162000197565b840191505092915050565b620005b481620002ef565b82525050565b620005c5816200034a565b82525050565b600060e0820190508181036000830152620005e7818a62000568565b90508181036020830152620005fd818962000568565b90506200060e6040830188620005a9565b6200061d6060830187620005ba565b6200062c6080830186620005ba565b81810360a083015262000640818562000568565b90506200065160c0830184620005a9565b98975050505050505050565b6000602082019050620006746000830184620005ba565b9291505056fe60806040523480156200001157600080fd5b50604051620025233803806200252383398181016040528101906200003791906200073c565b868681600390816200004a919062000a8d565b5080600490816200005c919062000a8d565b5050506200007f620000736200014860201b60201c565b6200015060201b60201c565b8060068190555083600760006101000a81548173ffffffffffffffffffffffffffffffffffffffff021916908373ffffffffffffffffffffffffffffffffffffffff16021790555082600860006101000a81548173ffffffffffffffffffffffffffffffffffffffff021916908373ffffffffffffffffffffffffffffffffffffffff160217905550816009908162000119919062000a8d565b506200012b856200021660201b60201c565b6200013b620002b360201b60201c565b5050505050505062000db3565b600033905090565b6000600560009054906101000a900473ffffffffffffffffffffffffffffffffffffffff16905081600560006101000a81548173ffffffffffffffffffffffffffffffffffffffff021916908373ffffffffffffffffffffffffffffffffffffffff1602179055508173ffffffffffffffffffffffffffffffffffffffff168173ffffffffffffffffffffffffffffffffffffffff167f8be0079c531659141344cd1fd0a4f28419497f9722a3daafe3b4186f6b6457e060405160405180910390a35050565b62000226620002d760201b60201c565b6000606460018362000239919062000ba3565b62000245919062000c1d565b90506200027b600860009054906101000a900473ffffffffffffffffffffffffffffffffffffffff16836200036860201b60201c565b620002af600760009054906101000a900473ffffffffffffffffffffffffffffffffffffffff16826200036860201b60201c565b5050565b620002c3620002d760201b60201c565b620002d560006200015060201b60201c565b565b620002e76200014860201b60201c565b73ffffffffffffffffffffffffffffffffffffffff166200030d620004d560201b60201c565b73ffffffffffffffffffffffffffffffffffffffff161462000366576040517f08c379a00000000000000000000000000000000000000000000000000000000081526004016200035d9062000cb6565b60405180910390fd5b565b600073ffffffffffffffffffffffffffffffffffffffff168273ffffffffffffffffffffffffffffffffffffffff1603620003da576040517f08c379a0000000000000000000000000000000000000000000000000000000008152600401620003d19062000d28565b60405180910390fd5b620003ee60008383620004ff60201b60201c565b806002600082825462000402919062000d4a565b92505081905550806000808473ffffffffffffffffffffffffffffffffffffffff1673ffffffffffffffffffffffffffffffffffffffff168152602001908152602001600020600082825401925050819055508173ffffffffffffffffffffffffffffffffffffffff16600073ffffffffffffffffffffffffffffffffffffffff167fddf252ad1be2c89b69c2b068fc378daa952ba7f163c4a11628f55a4df523b3ef83604051620004b5919062000d96565b60405180910390a3620004d1600083836200050460201b60201c565b5050565b6000600560009054906101000a900473ffffffffffffffffffffffffffffffffffffffff16905090565b505050565b505050565b6000604051905090565b600080fd5b600080fd5b600080fd5b600080fd5b6000601f19601f8301169050919050565b7f4e487b7100000000000000000000000000000000000000000000000000000000600052604160045260246000fd5b620005728262000527565b810181811067ffffffffffffffff8211171562000594576200059362000538565b5b80604052505050565b6000620005a962000509565b9050620005b7828262000567565b919050565b600067ffffffffffffffff821115620005da57620005d962000538565b5b620005e58262000527565b9050602081019050919050565b60005b8381101562000612578082015181840152602081019050620005f5565b60008484015250505050565b6000620006356200062f84620005bc565b6200059d565b90508281526020810184848401111562000654576200065362000522565b5b62000661848285620005f2565b509392505050565b600082601f8301126200068157620006806200051d565b5b8151620006938482602086016200061e565b91505092915050565b6000819050919050565b620006b1816200069c565b8114620006bd57600080fd5b50565b600081519050620006d181620006a6565b92915050565b600073ffffffffffffffffffffffffffffffffffffffff82169050919050565b60006200070482620006d7565b9050919050565b6200071681620006f7565b81146200072257600080fd5b50565b60008151905062000736816200070b565b92915050565b600080600080600080600060e0888a0312156200075e576200075d62000513565b5b600088015167ffffffffffffffff8111156200077f576200077e62000518565b5b6200078d8a828b0162000669565b975050602088015167ffffffffffffffff811115620007b157620007b062000518565b5b620007bf8a828b0162000669565b9650506040620007d28a828b01620006c0565b9550506060620007e58a828b0162000725565b9450506080620007f88a828b0162000725565b93505060a088015167ffffffffffffffff8111156200081c576200081b62000518565b5b6200082a8a828b0162000669565b92505060c06200083d8a828b01620006c0565b91505092959891949750929550565b600081519050919050565b7f4e487b7100000000000000000000000000000000000000000000000000000000600052602260045260246000fd5b600060028204905060018216806200089f57607f821691505b602082108103620008b557620008b462000857565b5b50919050565b60008190508160005260206000209050919050565b60006020601f8301049050919050565b600082821b905092915050565b6000600883026200091f7fffffffffffffffffffffffffffffffffffffffffffffffffffffffffffffffff82620008e0565b6200092b8683620008e0565b95508019841693508086168417925050509392505050565b6000819050919050565b60006200096e6200096862000962846200069c565b62000943565b6200069c565b9050919050565b6000819050919050565b6200098a836200094d565b620009a2620009998262000975565b848454620008ed565b825550505050565b600090565b620009b9620009aa565b620009c68184846200097f565b505050565b5b81811015620009ee57620009e2600082620009af565b600181019050620009cc565b5050565b601f82111562000a3d5762000a0781620008bb565b62000a1284620008d0565b8101602085101562000a22578190505b62000a3a62000a3185620008d0565b830182620009cb565b50505b505050565b600082821c905092915050565b600062000a626000198460080262000a42565b1980831691505092915050565b600062000a7d838362000a4f565b9150826002028217905092915050565b62000a98826200084c565b67ffffffffffffffff81111562000ab45762000ab362000538565b5b62000ac0825462000886565b62000acd828285620009f2565b600060209050601f83116001811462000b05576000841562000af0578287015190505b62000afc858262000a6f565b86555062000b6c565b601f19841662000b1586620008bb565b60005b8281101562000b3f5784890151825560018201915060208501945060208101905062000b18565b8683101562000b5f578489015162000b5b601f89168262000a4f565b8355505b6001600288020188555050505b505050505050565b7f4e487b7100000000000000000000000000000000000000000000000000000000600052601160045260246000fd5b600062000bb0826200069c565b915062000bbd836200069c565b925082820262000bcd816200069c565b9150828204841483151762000be75762000be662000b74565b5b5092915050565b7f4e487b7100000000000000000000000000000000000000000000000000000000600052601260045260246000fd5b600062000c2a826200069c565b915062000c37836200069c565b92508262000c4a5762000c4962000bee565b5b828204905092915050565b600082825260208201905092915050565b7f4f776e61626c653a2063616c6c6572206973206e6f7420746865206f776e6572600082015250565b600062000c9e60208362000c55565b915062000cab8262000c66565b602082019050919050565b6000602082019050818103600083015262000cd18162000c8f565b9050919050565b7f45524332303a206d696e7420746f20746865207a65726f206164647265737300600082015250565b600062000d10601f8362000c55565b915062000d1d8262000cd8565b602082019050919050565b6000602082019050818103600083015262000d438162000d01565b9050919050565b600062000d57826200069c565b915062000d64836200069c565b925082820190508082111562000d7f5762000d7e62000b74565b5b92915050565b62000d90816200069c565b82525050565b600060208201905062000dad600083018462000d85565b92915050565b6117608062000dc36000396000f3fe608060405234801561001057600080fd5b50600436106100f55760003560e01c806370a0823111610097578063a457c2d711610066578063a457c2d714610278578063a9059cbb146102a8578063dd62ed3e146102d8578063f2fde38b14610308576100f5565b806370a0823114610202578063715018a6146102325780638da5cb5b1461023c57806395d89b411461025a576100f5565b806323b872dd116100d357806323b872dd14610166578063313ce5671461019657806339509351146101b45780633c130d90146101e4576100f5565b806306fdde03146100fa578063095ea7b31461011857806318160ddd14610148575b600080fd5b610102610324565b60405161010f9190610eab565b60405180910390f35b610132600480360381019061012d9190610f66565b6103b6565b60405161013f9190610fc1565b60405180910390f35b6101506103d9565b60405161015d9190610feb565b60405180910390f35b610180600480360381019061017b9190611006565b6103e3565b60405161018d9190610fc1565b60405180910390f35b61019e61048f565b6040516101ab9190611075565b60405180910390f35b6101ce60048036038101906101c99190610f66565b610498565b6040516101db9190610fc1565b60405180910390f35b6101ec6104cf565b6040516101f99190610eab565b60405180910390f35b61021c60048036038101906102179190611090565b610561565b6040516102299190610feb565b60405180910390f35b61023a6105a9565b005b6102446105bd565b60405161025191906110cc565b60405180910390f35b6102626105e7565b60405161026f9190610eab565b60405180910390f35b610292600480360381019061028d9190610f66565b610679565b60405161029f9190610fc1565b60405180910390f35b6102c260048036038101906102bd9190610f66565b6106f0565b6040516102cf9190610fc1565b60405180910390f35b6102f260048036038101906102ed91906110e7565b61077c565b6040516102ff9190610feb565b60405180910390f35b610322600480360381019061031d9190611090565b610803565b005b60606003805461033390611156565b80601f016020809104026020016040519081016040528092919081815260200182805461035f90611156565b80156103ac5780601f10610381576101008083540402835291602001916103ac565b820191906000526020600020905b81548152906001019060200180831161038f57829003601f168201915b5050505050905090565b6000806103c1610886565b90506103ce81858561088e565b600191505092915050565b6000600254905090565b600080612710600654846103f791906111b6565b6104019190611227565b9050600081846104119190611258565b905061041e868683610a57565b60008211156104555761045486600860009054906101000a900473ffffffffffffffffffffffffffffffffffffffff1684610a57565b5b61048286610461610886565b866104738a61046e610886565b61077c565b61047d9190611258565b61088e565b6001925050509392505050565b60006012905090565b6000806104a3610886565b90506104c48185856104b5858961077c565b6104bf919061128c565b61088e565b600191505092915050565b6060600980546104de90611156565b80601f016020809104026020016040519081016040528092919081815260200182805461050a90611156565b80156105575780601f1061052c57610100808354040283529160200191610557565b820191906000526020600020905b81548152906001019060200180831161053a57829003601f168201915b5050505050905090565b60008060008373ffffffffffffffffffffffffffffffffffffffff1673ffffffffffffffffffffffffffffffffffffffff168152602001908152602001600020549050919050565b6105b1610ccd565b6105bb6000610d4b565b565b6000600560009054906101000a900473ffffffffffffffffffffffffffffffffffffffff16905090565b6060600480546105f690611156565b80601f016020809104026020016040519081016040528092919081815260200182805461062290611156565b801561066f5780601f106106445761010080835404028352916020019161066f565b820191906000526020600020905b81548152906001019060200180831161065257829003601f168201915b5050505050905090565b600080610684610886565b90506000610692828661077c565b9050838110156106d7576040517f08c379a00000000000000000000000000000000000000000000000000000000081526004016106ce90611332565b60405180910390fd5b6106e4828686840361088e565b60019250505092915050565b6000806127106006548461070491906111b6565b61070e9190611227565b90506000818461071e9190611258565b905061073261072b610886565b8683610a57565b60008211156107705761076f610746610886565b600860009054906101000a900473ffffffffffffffffffffffffffffffffffffffff1684610a57565b5b60019250505092915050565b6000600160008473ffffffffffffffffffffffffffffffffffffffff1673ffffffffffffffffffffffffffffffffffffffff16815260200190815260200160002060008373ffffffffffffffffffffffffffffffffffffffff1673ffffffffffffffffffffffffffffffffffffffff16815260200190815260200160002054905092915050565b61080b610ccd565b600073ffffffffffffffffffffffffffffffffffffffff168173ffffffffffffffffffffffffffffffffffffffff160361087a576040517f08c379a0000000000000000000000000000000000000000000000000000000008152600401610871906113c4565b60405180910390fd5b61088381610d4b565b50565b600033905090565b600073ffffffffffffffffffffffffffffffffffffffff168373ffffffffffffffffffffffffffffffffffffffff16036108fd576040517f08c379a00000000000000000000000000000000000000000000000000000000081526004016108f490611456565b60405180910390fd5b600073ffffffffffffffffffffffffffffffffffffffff168273ffffffffffffffffffffffffffffffffffffffff160361096c576040517f08c379a0000000000000000000000000000000000000000000000000000000008152600401610963906114e8565b60405180910390fd5b80600160008573ffffffffffffffffffffffffffffffffffffffff1673ffffffffffffffffffffffffffffffffffffffff16815260200190815260200160002060008473ffffffffffffffffffffffffffffffffffffffff1673ffffffffffffffffffffffffffffffffffffffff168152602001908152602001600020819055508173ffffffffffffffffffffffffffffffffffffffff168373ffffffffffffffffffffffffffffffffffffffff167f8c5be1e5ebec7d5bd14f71427d1e84f3dd0314c0f7b2291e5b200ac8c7c3b92583604051610a4a9190610feb565b60405180910390a3505050565b600073ffffffffffffffffffffffffffffffffffffffff168373ffffffffffffffffffffffffffffffffffffffff1603610ac6576040517f08c379a0000000000000000000000000000000000000000000000000000000008152600401610abd9061157a565b60405180910390fd5b600073ffffffffffffffffffffffffffffffffffffffff168273ffffffffffffffffffffffffffffffffffffffff1603610b35576040517f08c379a0000000000000000000000000000000000000000000000000000000008152600401610b2c9061160c565b60405180910390fd5b610b40838383610e11565b60008060008573ffffffffffffffffffffffffffffffffffffffff1673ffffffffffffffffffffffffffffffffffffffff16815260200190815260200160002054905081811015610bc6576040517f08c379a0000000000000000000000000000000000000000000000000000000008152600401610bbd9061169e565b60405180910390fd5b8181036000808673ffffffffffffffffffffffffffffffffffffffff1673ffffffffffffffffffffffffffffffffffffffff16815260200190815260200160002081905550816000808573ffffffffffffffffffffffffffffffffffffffff1673ffffffffffffffffffffffffffffffffffffffff168152602001908152602001600020600082825401925050819055508273ffffffffffffffffffffffffffffffffffffffff168473ffffffffffffffffffffffffffffffffffffffff167fddf252ad1be2c89b69c2b068fc378daa952ba7f163c4a11628f55a4df523b3ef84604051610cb49190610feb565b60405180910390a3610cc7848484610e16565b50505050565b610cd5610886565b73ffffffffffffffffffffffffffffffffffffffff16610cf36105bd565b73ffffffffffffffffffffffffffffffffffffffff1614610d49576040517f08c379a0000000000000000000000000000000000000000000000000000000008152600401610d409061170a565b60405180910390fd5b565b6000600560009054906101000a900473ffffffffffffffffffffffffffffffffffffffff16905081600560006101000a81548173ffffffffffffffffffffffffffffffffffffffff021916908373ffffffffffffffffffffffffffffffffffffffff1602179055508173ffffffffffffffffffffffffffffffffffffffff168173ffffffffffffffffffffffffffffffffffffffff167f8be0079c531659141344cd1fd0a4f28419497f9722a3daafe3b4186f6b6457e060405160405180910390a35050565b505050565b505050565b600081519050919050565b600082825260208201905092915050565b60005b83811015610e55578082015181840152602081019050610e3a565b60008484015250505050565b6000601f19601f8301169050919050565b6000610e7d82610e1b565b610e878185610e26565b9350610e97818560208601610e37565b610ea081610e61565b840191505092915050565b60006020820190508181036000830152610ec58184610e72565b905092915050565b600080fd5b600073ffffffffffffffffffffffffffffffffffffffff82169050919050565b6000610efd82610ed2565b9050919050565b610f0d81610ef2565b8114610f1857600080fd5b50565b600081359050610f2a81610f04565b92915050565b6000819050919050565b610f4381610f30565b8114610f4e57600080fd5b50565b600081359050610f6081610f3a565b92915050565b60008060408385031215610f7d57610f7c610ecd565b5b6000610f8b85828601610f1b565b9250506020610f9c85828601610f51565b9150509250929050565b60008115159050919050565b610fbb81610fa6565b82525050565b6000602082019050610fd66000830184610fb2565b92915050565b610fe581610f30565b82525050565b60006020820190506110006000830184610fdc565b92915050565b60008060006060848603121561101f5761101e610ecd565b5b600061102d86828701610f1b565b935050602061103e86828701610f1b565b925050604061104f86828701610f51565b9150509250925092565b600060ff82169050919050565b61106f81611059565b82525050565b600060208201905061108a6000830184611066565b92915050565b6000602082840312156110a6576110a5610ecd565b5b60006110b484828501610f1b565b91505092915050565b6110c681610ef2565b82525050565b60006020820190506110e160008301846110bd565b92915050565b600080604083850312156110fe576110fd610ecd565b5b600061110c85828601610f1b565b925050602061111d85828601610f1b565b9150509250929050565b7f4e487b7100000000000000000000000000000000000000000000000000000000600052602260045260246000fd5b6000600282049050600182168061116e57607f821691505b60208210810361118157611180611127565b5b50919050565b7f4e487b7100000000000000000000000000000000000000000000000000000000600052601160045260246000fd5b60006111c182610f30565b91506111cc83610f30565b92508282026111da81610f30565b915082820484148315176111f1576111f0611187565b5b5092915050565b7f4e487b7100000000000000000000000000000000000000000000000000000000600052601260045260246000fd5b600061123282610f30565b915061123d83610f30565b92508261124d5761124c6111f8565b5b828204905092915050565b600061126382610f30565b915061126e83610f30565b925082820390508181111561128657611285611187565b5b92915050565b600061129782610f30565b91506112a283610f30565b92508282019050808211156112ba576112b9611187565b5b92915050565b7f45524332303a2064656372656173656420616c6c6f77616e63652062656c6f7760008201527f207a65726f000000000000000000000000000000000000000000000000000000602082015250565b600061131c602583610e26565b9150611327826112c0565b604082019050919050565b6000602082019050818103600083015261134b8161130f565b9050919050565b7f4f776e61626c653a206e6577206f776e657220697320746865207a65726f206160008201527f6464726573730000000000000000000000000000000000000000000000000000602082015250565b60006113ae602683610e26565b91506113b982611352565b604082019050919050565b600060208201905081810360008301526113dd816113a1565b9050919050565b7f45524332303a20617070726f76652066726f6d20746865207a65726f2061646460008201527f7265737300000000000000000000000000000000000000000000000000000000602082015250565b6000611440602483610e26565b915061144b826113e4565b604082019050919050565b6000602082019050818103600083015261146f81611433565b9050919050565b7f45524332303a20617070726f766520746f20746865207a65726f20616464726560008201527f7373000000000000000000000000000000000000000000000000000000000000602082015250565b60006114d2602283610e26565b91506114dd82611476565b604082019050919050565b60006020820190508181036000830152611501816114c5565b9050919050565b7f45524332303a207472616e736665722066726f6d20746865207a65726f20616460008201527f6472657373000000000000000000000000000000000000000000000000000000602082015250565b6000611564602583610e26565b915061156f82611508565b604082019050919050565b6000602082019050818103600083015261159381611557565b9050919050565b7f45524332303a207472616e7366657220746f20746865207a65726f206164647260008201527f6573730000000000000000000000000000000000000000000000000000000000602082015250565b60006115f6602383610e26565b91506116018261159a565b604082019050919050565b60006020820190508181036000830152611625816115e9565b9050919050565b7f45524332303a207472616e7366657220616d6f756e742065786365656473206260008201527f616c616e63650000000000000000000000000000000000000000000000000000602082015250565b6000611688602683610e26565b91506116938261162c565b604082019050919050565b600060208201905081810360008301526116b78161167b565b9050919050565b7f4f776e61626c653a2063616c6c6572206973206e6f7420746865206f776e6572600082015250565b60006116f4602083610e26565b91506116ff826116be565b602082019050919050565b60006020820190508181036000830152611723816116e7565b905091905056fea264697066735822122091a5d7503b15c3729b59550267defd7a4e51a21b13c8650329bcdbf6cce7de4e64736f6c63430008130033a26469706673582212200c80e5e83a17b22ead36d45ec9a91b55a62b8c4e1ef93eff0b70d3b1c9e3e67264736f6c63430008130033",
  "linkReferences": {},
  "deployedLinkReferences": {}
}