{
  "_format": "hh-sol-artifact-1",
  "contractName": "MemeCreator",
  "sourceName": "contracts/MemeCreator.sol",
  "abi": [
    {
      "anonymous": false,
      "inputs": [
        {
          "indexed": true,
          "internalType": "address",
          "name": "owner",
          "type": "address"
        },
        {
          "indexed": false,
          "internalType": "address",
          "name": "memeAddress",
          "type": "address"
        }
      ],
      "name": "MemeCreated",
      "type": "event"
    },
    {
      "inputs": [
        {
          "internalType": "string",
          "name": "name",
          "type": "string"
        },
        {
          "internalType": "string",
          "name": "symbol",
          "type": "string"
        },
        {
          "internalType": "uint256",
          "name": "maxSupply",
          "type": "uint256"
        },
        {
          "internalType": "address",
          "name": "recipient_tokens",
          "type": "address"
        },
        {
          "internalType": "string",
          "name": "token_meme_URI",
          "type": "string"
        },
        {
          "internalType": "uint8",
          "name": "taxRate",
          "type": "uint8"
        }
      ],
      "name": "createMeme",
      "outputs": [],
      "stateMutability": "nonpayable",
      "type": "function"
    }
  ],
  "bytecode": "0x608060405234801561001057600080fd5b506125fe806100206000396000f3fe60806040523480156200001157600080fd5b50600436106200002e5760003560e01c8063a10041c01462000033575b600080fd5b6200005160048036038101906200004b91906200039f565b62000053565b005b60648160ff1611156200009d576040517f08c379a00000000000000000000000000000000000000000000000000000000081526004016200009490620004f9565b60405180910390fd5b6000868686868686604051620000b3906200013d565b620000c496959493929190620005c6565b604051809103906000f080158015620000e1573d6000803e3d6000fd5b5090503373ffffffffffffffffffffffffffffffffffffffff167fa92eec8dad0c149c82f93ac410e601bb03794f96ca5375339bbd0f84d59e23cb826040516200012c919062000648565b60405180910390a250505050505050565b611f63806200066683390190565b6000604051905090565b600080fd5b600080fd5b600080fd5b600080fd5b6000601f19601f8301169050919050565b7f4e487b7100000000000000000000000000000000000000000000000000000000600052604160045260246000fd5b620001b48262000169565b810181811067ffffffffffffffff82111715620001d657620001d56200017a565b5b80604052505050565b6000620001eb6200014b565b9050620001f98282620001a9565b919050565b600067ffffffffffffffff8211156200021c576200021b6200017a565b5b620002278262000169565b9050602081019050919050565b82818337600083830152505050565b60006200025a6200025484620001fe565b620001df565b90508281526020810184848401111562000279576200027862000164565b5b6200028684828562000234565b509392505050565b600082601f830112620002a657620002a56200015f565b5b8135620002b884826020860162000243565b91505092915050565b6000819050919050565b620002d681620002c1565b8114620002e257600080fd5b50565b600081359050620002f681620002cb565b92915050565b600073ffffffffffffffffffffffffffffffffffffffff82169050919050565b60006200032982620002fc565b9050919050565b6200033b816200031c565b81146200034757600080fd5b50565b6000813590506200035b8162000330565b92915050565b600060ff82169050919050565b620003798162000361565b81146200038557600080fd5b50565b60008135905062000399816200036e565b92915050565b60008060008060008060c08789031215620003bf57620003be62000155565b5b600087013567ffffffffffffffff811115620003e057620003df6200015a565b5b620003ee89828a016200028e565b965050602087013567ffffffffffffffff8111156200041257620004116200015a565b5b6200042089828a016200028e565b95505060406200043389828a01620002e5565b94505060606200044689828a016200034a565b935050608087013567ffffffffffffffff8111156200046a57620004696200015a565b5b6200047889828a016200028e565b92505060a06200048b89828a0162000388565b9150509295509295509295565b600082825260208201905092915050565b7f5461782072617465206d75737420626520706f73736974697665000000000000600082015250565b6000620004e1601a8362000498565b9150620004ee82620004a9565b602082019050919050565b600060208201905081810360008301526200051481620004d2565b9050919050565b600081519050919050565b60005b838110156200054657808201518184015260208101905062000529565b60008484015250505050565b60006200055f826200051b565b6200056b818562000498565b93506200057d81856020860162000526565b620005888162000169565b840191505092915050565b6200059e81620002c1565b82525050565b620005af816200031c565b82525050565b620005c08162000361565b82525050565b600060c0820190508181036000830152620005e2818962000552565b90508181036020830152620005f8818862000552565b905062000609604083018762000593565b620006186060830186620005a4565b81810360808301526200062c818562000552565b90506200063d60a0830184620005b5565b979650505050505050565b60006020820190506200065f6000830184620005a4565b9291505056fe60806040523480156200001157600080fd5b5060405162001f6338038062001f63833981810160405281019062000037919062000767565b33868681600390816200004b919062000aa1565b5080600490816200005d919062000aa1565b505050600073ffffffffffffffffffffffffffffffffffffffff168173ffffffffffffffffffffffffffffffffffffffff1603620000d55760006040517f1e4fbdf7000000000000000000000000000000000000000000000000000000008152600401620000cc919062000b99565b60405180910390fd5b620000e6816200017360201b60201c565b50620000f983856200023960201b60201c565b81600690816200010a919062000aa1565b5080600760006101000a81548160ff021916908360ff16021790555082600760016101000a81548173ffffffffffffffffffffffffffffffffffffffff021916908373ffffffffffffffffffffffffffffffffffffffff16021790555050505050505062000c8b565b6000600560009054906101000a900473ffffffffffffffffffffffffffffffffffffffff16905081600560006101000a81548173ffffffffffffffffffffffffffffffffffffffff021916908373ffffffffffffffffffffffffffffffffffffffff1602179055508173ffffffffffffffffffffffffffffffffffffffff168173ffffffffffffffffffffffffffffffffffffffff167f8be0079c531659141344cd1fd0a4f28419497f9722a3daafe3b4186f6b6457e060405160405180910390a35050565b600073ffffffffffffffffffffffffffffffffffffffff168273ffffffffffffffffffffffffffffffffffffffff1603620002ae5760006040517fec442f05000000000000000000000000000000000000000000000000000000008152600401620002a5919062000b99565b60405180910390fd5b620002c260008383620002c660201b60201c565b5050565b600073ffffffffffffffffffffffffffffffffffffffff168373ffffffffffffffffffffffffffffffffffffffff16036200031c5780600260008282546200030f919062000be5565b92505081905550620003f2565b60008060008573ffffffffffffffffffffffffffffffffffffffff1673ffffffffffffffffffffffffffffffffffffffff16815260200190815260200160002054905081811015620003ab578381836040517fe450d38c000000000000000000000000000000000000000000000000000000008152600401620003a29392919062000c31565b60405180910390fd5b8181036000808673ffffffffffffffffffffffffffffffffffffffff1673ffffffffffffffffffffffffffffffffffffffff16815260200190815260200160002081905550505b600073ffffffffffffffffffffffffffffffffffffffff168273ffffffffffffffffffffffffffffffffffffffff16036200043d57806002600082825403925050819055506200048a565b806000808473ffffffffffffffffffffffffffffffffffffffff1673ffffffffffffffffffffffffffffffffffffffff168152602001908152602001600020600082825401925050819055505b8173ffffffffffffffffffffffffffffffffffffffff168373ffffffffffffffffffffffffffffffffffffffff167fddf252ad1be2c89b69c2b068fc378daa952ba7f163c4a11628f55a4df523b3ef83604051620004e9919062000c6e565b60405180910390a3505050565b6000604051905090565b600080fd5b600080fd5b600080fd5b600080fd5b6000601f19601f8301169050919050565b7f4e487b7100000000000000000000000000000000000000000000000000000000600052604160045260246000fd5b6200055f8262000514565b810181811067ffffffffffffffff8211171562000581576200058062000525565b5b80604052505050565b600062000596620004f6565b9050620005a4828262000554565b919050565b600067ffffffffffffffff821115620005c757620005c662000525565b5b620005d28262000514565b9050602081019050919050565b60005b83811015620005ff578082015181840152602081019050620005e2565b60008484015250505050565b6000620006226200061c84620005a9565b6200058a565b9050828152602081018484840111156200064157620006406200050f565b5b6200064e848285620005df565b509392505050565b600082601f8301126200066e576200066d6200050a565b5b8151620006808482602086016200060b565b91505092915050565b6000819050919050565b6200069e8162000689565b8114620006aa57600080fd5b50565b600081519050620006be8162000693565b92915050565b600073ffffffffffffffffffffffffffffffffffffffff82169050919050565b6000620006f182620006c4565b9050919050565b6200070381620006e4565b81146200070f57600080fd5b50565b6000815190506200072381620006f8565b92915050565b600060ff82169050919050565b620007418162000729565b81146200074d57600080fd5b50565b600081519050620007618162000736565b92915050565b60008060008060008060c0878903121562000787576200078662000500565b5b600087015167ffffffffffffffff811115620007a857620007a762000505565b5b620007b689828a0162000656565b965050602087015167ffffffffffffffff811115620007da57620007d962000505565b5b620007e889828a0162000656565b9550506040620007fb89828a01620006ad565b94505060606200080e89828a0162000712565b935050608087015167ffffffffffffffff81111562000832576200083162000505565b5b6200084089828a0162000656565b92505060a06200085389828a0162000750565b9150509295509295509295565b600081519050919050565b7f4e487b7100000000000000000000000000000000000000000000000000000000600052602260045260246000fd5b60006002820490506001821680620008b357607f821691505b602082108103620008c957620008c86200086b565b5b50919050565b60008190508160005260206000209050919050565b60006020601f8301049050919050565b600082821b905092915050565b600060088302620009337fffffffffffffffffffffffffffffffffffffffffffffffffffffffffffffffff82620008f4565b6200093f8683620008f4565b95508019841693508086168417925050509392505050565b6000819050919050565b6000620009826200097c620009768462000689565b62000957565b62000689565b9050919050565b6000819050919050565b6200099e8362000961565b620009b6620009ad8262000989565b84845462000901565b825550505050565b600090565b620009cd620009be565b620009da81848462000993565b505050565b5b8181101562000a0257620009f6600082620009c3565b600181019050620009e0565b5050565b601f82111562000a515762000a1b81620008cf565b62000a2684620008e4565b8101602085101562000a36578190505b62000a4e62000a4585620008e4565b830182620009df565b50505b505050565b600082821c905092915050565b600062000a766000198460080262000a56565b1980831691505092915050565b600062000a91838362000a63565b9150826002028217905092915050565b62000aac8262000860565b67ffffffffffffffff81111562000ac85762000ac762000525565b5b62000ad482546200089a565b62000ae182828562000a06565b600060209050601f83116001811462000b19576000841562000b04578287015190505b62000b10858262000a83565b86555062000b80565b601f19841662000b2986620008cf565b60005b8281101562000b535784890151825560018201915060208501945060208101905062000b2c565b8683101562000b73578489015162000b6f601f89168262000a63565b8355505b6001600288020188555050505b505050505050565b62000b9381620006e4565b82525050565b600060208201905062000bb0600083018462000b88565b92915050565b7f4e487b7100000000000000000000000000000000000000000000000000000000600052601160045260246000fd5b600062000bf28262000689565b915062000bff8362000689565b925082820190508082111562000c1a5762000c1962000bb6565b5b92915050565b62000c2b8162000689565b82525050565b600060608201905062000c48600083018662000b88565b62000c57602083018562000c20565b62000c66604083018462000c20565b949350505050565b600060208201905062000c85600083018462000c20565b92915050565b6112c88062000c9b6000396000f3fe608060405234801561001057600080fd5b50600436106100cf5760003560e01c806370a082311161008c57806395d89b411161006657806395d89b4114610204578063a9059cbb14610222578063dd62ed3e14610252578063f2fde38b14610282576100cf565b806370a08231146101ac578063715018a6146101dc5780638da5cb5b146101e6576100cf565b806306fdde03146100d4578063095ea7b3146100f257806318160ddd1461012257806323b872dd14610140578063313ce567146101705780633c130d901461018e575b600080fd5b6100dc61029e565b6040516100e99190610e46565b60405180910390f35b61010c60048036038101906101079190610f01565b610330565b6040516101199190610f5c565b60405180910390f35b61012a610353565b6040516101379190610f86565b60405180910390f35b61015a60048036038101906101559190610fa1565b61035d565b6040516101679190610f5c565b60405180910390f35b61017861040e565b6040516101859190611010565b60405180910390f35b610196610417565b6040516101a39190610e46565b60405180910390f35b6101c660048036038101906101c1919061102b565b6104a9565b6040516101d39190610f86565b60405180910390f35b6101e46104f1565b005b6101ee610505565b6040516101fb9190611067565b60405180910390f35b61020c61052f565b6040516102199190610e46565b60405180910390f35b61023c60048036038101906102379190610f01565b6105c1565b6040516102499190610f5c565b60405180910390f35b61026c60048036038101906102679190611082565b610652565b6040516102799190610f86565b60405180910390f35b61029c6004803603810190610297919061102b565b6106d9565b005b6060600380546102ad906110f1565b80601f01602080910402602001604051908101604052809291908181526020018280546102d9906110f1565b80156103265780601f106102fb57610100808354040283529160200191610326565b820191906000526020600020905b81548152906001019060200180831161030957829003601f168201915b5050505050905090565b60008061033b61075f565b9050610348818585610767565b600191505092915050565b6000600254905090565b6000806064600760009054906101000a900460ff1660ff16846103809190611151565b61038a91906111c2565b90506000818461039a91906111f3565b90506103a7868683610779565b6103d486600760019054906101000a900473ffffffffffffffffffffffffffffffffffffffff1684610779565b610401866103e061075f565b866103f28a6103ed61075f565b610652565b6103fc91906111f3565b610767565b6001925050509392505050565b60006012905090565b606060068054610426906110f1565b80601f0160208091040260200160405190810160405280929190818152602001828054610452906110f1565b801561049f5780601f106104745761010080835404028352916020019161049f565b820191906000526020600020905b81548152906001019060200180831161048257829003601f168201915b5050505050905090565b60008060008373ffffffffffffffffffffffffffffffffffffffff1673ffffffffffffffffffffffffffffffffffffffff168152602001908152602001600020549050919050565b6104f961086d565b61050360006108f4565b565b6000600560009054906101000a900473ffffffffffffffffffffffffffffffffffffffff16905090565b60606004805461053e906110f1565b80601f016020809104026020016040519081016040528092919081815260200182805461056a906110f1565b80156105b75780601f1061058c576101008083540402835291602001916105b7565b820191906000526020600020905b81548152906001019060200180831161059a57829003601f168201915b5050505050905090565b6000806064600760009054906101000a900460ff1660ff16846105e49190611151565b6105ee91906111c2565b9050600081846105fe91906111f3565b905061061261060b61075f565b8683610779565b61064661061d61075f565b600760019054906101000a900473ffffffffffffffffffffffffffffffffffffffff1684610779565b60019250505092915050565b6000600160008473ffffffffffffffffffffffffffffffffffffffff1673ffffffffffffffffffffffffffffffffffffffff16815260200190815260200160002060008373ffffffffffffffffffffffffffffffffffffffff1673ffffffffffffffffffffffffffffffffffffffff16815260200190815260200160002054905092915050565b6106e161086d565b600073ffffffffffffffffffffffffffffffffffffffff168173ffffffffffffffffffffffffffffffffffffffff16036107535760006040517f1e4fbdf700000000000000000000000000000000000000000000000000000000815260040161074a9190611067565b60405180910390fd5b61075c816108f4565b50565b600033905090565b61077483838360016109ba565b505050565b600073ffffffffffffffffffffffffffffffffffffffff168373ffffffffffffffffffffffffffffffffffffffff16036107eb5760006040517f96c6fd1e0000000000000000000000000000000000000000000000000000000081526004016107e29190611067565b60405180910390fd5b600073ffffffffffffffffffffffffffffffffffffffff168273ffffffffffffffffffffffffffffffffffffffff160361085d5760006040517fec442f050000000000000000000000000000000000000000000000000000000081526004016108549190611067565b60405180910390fd5b610868838383610b91565b505050565b61087561075f565b73ffffffffffffffffffffffffffffffffffffffff16610893610505565b73ffffffffffffffffffffffffffffffffffffffff16146108f2576108b661075f565b6040517f118cdaa70000000000000000000000000000000000000000000000000000000081526004016108e99190611067565b60405180910390fd5b565b6000600560009054906101000a900473ffffffffffffffffffffffffffffffffffffffff16905081600560006101000a81548173ffffffffffffffffffffffffffffffffffffffff021916908373ffffffffffffffffffffffffffffffffffffffff1602179055508173ffffffffffffffffffffffffffffffffffffffff168173ffffffffffffffffffffffffffffffffffffffff167f8be0079c531659141344cd1fd0a4f28419497f9722a3daafe3b4186f6b6457e060405160405180910390a35050565b600073ffffffffffffffffffffffffffffffffffffffff168473ffffffffffffffffffffffffffffffffffffffff1603610a2c5760006040517fe602df05000000000000000000000000000000000000000000000000000000008152600401610a239190611067565b60405180910390fd5b600073ffffffffffffffffffffffffffffffffffffffff168373ffffffffffffffffffffffffffffffffffffffff1603610a9e5760006040517f94280d62000000000000000000000000000000000000000000000000000000008152600401610a959190611067565b60405180910390fd5b81600160008673ffffffffffffffffffffffffffffffffffffffff1673ffffffffffffffffffffffffffffffffffffffff16815260200190815260200160002060008573ffffffffffffffffffffffffffffffffffffffff1673ffffffffffffffffffffffffffffffffffffffff168152602001908152602001600020819055508015610b8b578273ffffffffffffffffffffffffffffffffffffffff168473ffffffffffffffffffffffffffffffffffffffff167f8c5be1e5ebec7d5bd14f71427d1e84f3dd0314c0f7b2291e5b200ac8c7c3b92584604051610b829190610f86565b60405180910390a35b50505050565b600073ffffffffffffffffffffffffffffffffffffffff168373ffffffffffffffffffffffffffffffffffffffff1603610be3578060026000828254610bd79190611227565b92505081905550610cb6565b60008060008573ffffffffffffffffffffffffffffffffffffffff1673ffffffffffffffffffffffffffffffffffffffff16815260200190815260200160002054905081811015610c6f578381836040517fe450d38c000000000000000000000000000000000000000000000000000000008152600401610c669392919061125b565b60405180910390fd5b8181036000808673ffffffffffffffffffffffffffffffffffffffff1673ffffffffffffffffffffffffffffffffffffffff16815260200190815260200160002081905550505b600073ffffffffffffffffffffffffffffffffffffffff168273ffffffffffffffffffffffffffffffffffffffff1603610cff5780600260008282540392505081905550610d4c565b806000808473ffffffffffffffffffffffffffffffffffffffff1673ffffffffffffffffffffffffffffffffffffffff168152602001908152602001600020600082825401925050819055505b8173ffffffffffffffffffffffffffffffffffffffff168373ffffffffffffffffffffffffffffffffffffffff167fddf252ad1be2c89b69c2b068fc378daa952ba7f163c4a11628f55a4df523b3ef83604051610da99190610f86565b60405180910390a3505050565b600081519050919050565b600082825260208201905092915050565b60005b83811015610df0578082015181840152602081019050610dd5565b60008484015250505050565b6000601f19601f8301169050919050565b6000610e1882610db6565b610e228185610dc1565b9350610e32818560208601610dd2565b610e3b81610dfc565b840191505092915050565b60006020820190508181036000830152610e608184610e0d565b905092915050565b600080fd5b600073ffffffffffffffffffffffffffffffffffffffff82169050919050565b6000610e9882610e6d565b9050919050565b610ea881610e8d565b8114610eb357600080fd5b50565b600081359050610ec581610e9f565b92915050565b6000819050919050565b610ede81610ecb565b8114610ee957600080fd5b50565b600081359050610efb81610ed5565b92915050565b60008060408385031215610f1857610f17610e68565b5b6000610f2685828601610eb6565b9250506020610f3785828601610eec565b9150509250929050565b60008115159050919050565b610f5681610f41565b82525050565b6000602082019050610f716000830184610f4d565b92915050565b610f8081610ecb565b82525050565b6000602082019050610f9b6000830184610f77565b92915050565b600080600060608486031215610fba57610fb9610e68565b5b6000610fc886828701610eb6565b9350506020610fd986828701610eb6565b9250506040610fea86828701610eec565b9150509250925092565b600060ff82169050919050565b61100a81610ff4565b82525050565b60006020820190506110256000830184611001565b92915050565b60006020828403121561104157611040610e68565b5b600061104f84828501610eb6565b91505092915050565b61106181610e8d565b82525050565b600060208201905061107c6000830184611058565b92915050565b6000806040838503121561109957611098610e68565b5b60006110a785828601610eb6565b92505060206110b885828601610eb6565b9150509250929050565b7f4e487b7100000000000000000000000000000000000000000000000000000000600052602260045260246000fd5b6000600282049050600182168061110957607f821691505b60208210810361111c5761111b6110c2565b5b50919050565b7f4e487b7100000000000000000000000000000000000000000000000000000000600052601160045260246000fd5b600061115c82610ecb565b915061116783610ecb565b925082820261117581610ecb565b9150828204841483151761118c5761118b611122565b5b5092915050565b7f4e487b7100000000000000000000000000000000000000000000000000000000600052601260045260246000fd5b60006111cd82610ecb565b91506111d883610ecb565b9250826111e8576111e7611193565b5b828204905092915050565b60006111fe82610ecb565b915061120983610ecb565b925082820390508181111561122157611220611122565b5b92915050565b600061123282610ecb565b915061123d83610ecb565b925082820190508082111561125557611254611122565b5b92915050565b60006060820190506112706000830186611058565b61127d6020830185610f77565b61128a6040830184610f77565b94935050505056fea264697066735822122066ec22b4c6a740e27d15261e96a740958940ec5683efb8eb8b115f8c67cfb8c964736f6c63430008160033a2646970667358221220188bf23449baa481c71b75c7039398c3ff305c825f3b68f7b0af3c7101f5c00464736f6c63430008160033",
  "linkReferences": {},
  "deployedLinkReferences": {}
}