{
  "_format": "hh-sol-artifact-1",
  "contractName": "MemeFactory",
  "sourceName": "contracts/MemeFactory.sol",
  "abi": [
    {
      "inputs": [
        {
          "internalType": "address",
          "name": "recipient_tax",
          "type": "address"
        },
        {
          "internalType": "address",
          "name": "uniswapV2Router",
          "type": "address"
        },
        {
          "internalType": "address",
          "name": "recipientTokenPools",
          "type": "address"
        },
        {
          "internalType": "address",
          "name": "whitelistrouters",
          "type": "address"
        }
      ],
      "stateMutability": "nonpayable",
      "type": "constructor"
    },
    {
      "anonymous": false,
      "inputs": [
        {
          "indexed": true,
          "internalType": "address",
          "name": "user",
          "type": "address"
        },
        {
          "indexed": true,
          "internalType": "address",
          "name": "tokenAddress",
          "type": "address"
        },
        {
          "indexed": false,
          "internalType": "uint256",
          "name": "ethAmount",
          "type": "uint256"
        }
      ],
      "name": "LiquidityAdded",
      "type": "event"
    },
    {
      "anonymous": false,
      "inputs": [
        {
          "indexed": true,
          "internalType": "address",
          "name": "owner",
          "type": "address"
        },
        {
          "indexed": false,
          "internalType": "address",
          "name": "memeAddress",
          "type": "address"
        }
      ],
      "name": "MemeCreated",
      "type": "event"
    },
    {
      "anonymous": false,
      "inputs": [
        {
          "indexed": true,
          "internalType": "address",
          "name": "previousOwner",
          "type": "address"
        },
        {
          "indexed": true,
          "internalType": "address",
          "name": "newOwner",
          "type": "address"
        }
      ],
      "name": "OwnershipTransferred",
      "type": "event"
    },
    {
      "inputs": [
        {
          "internalType": "uint256",
          "name": "",
          "type": "uint256"
        }
      ],
      "name": "PoolRoutersV2",
      "outputs": [
        {
          "internalType": "address",
          "name": "",
          "type": "address"
        }
      ],
      "stateMutability": "view",
      "type": "function"
    },
    {
      "inputs": [
        {
          "internalType": "address",
          "name": "newRouter",
          "type": "address"
        }
      ],
      "name": "addPoolRouter",
      "outputs": [],
      "stateMutability": "nonpayable",
      "type": "function"
    },
    {
      "inputs": [
        {
          "internalType": "uint256",
          "name": "",
          "type": "uint256"
        }
      ],
      "name": "allMemes",
      "outputs": [
        {
          "internalType": "address",
          "name": "",
          "type": "address"
        }
      ],
      "stateMutability": "view",
      "type": "function"
    },
    {
      "inputs": [
        {
          "internalType": "address",
          "name": "tokenAddress",
          "type": "address"
        }
      ],
      "name": "checkIfMemeCreated",
      "outputs": [
        {
          "internalType": "bool",
          "name": "",
          "type": "bool"
        }
      ],
      "stateMutability": "view",
      "type": "function"
    },
    {
      "inputs": [
        {
          "internalType": "string",
          "name": "name",
          "type": "string"
        },
        {
          "internalType": "string",
          "name": "symbol",
          "type": "string"
        },
        {
          "internalType": "uint256",
          "name": "maxSupply",
          "type": "uint256"
        },
        {
          "internalType": "address",
          "name": "recipient_tokens",
          "type": "address"
        },
        {
          "internalType": "uint256",
          "name": "BasetaxRate",
          "type": "uint256"
        },
        {
          "internalType": "uint16",
          "name": "protectHours",
          "type": "uint16"
        }
      ],
      "name": "createMeme",
      "outputs": [],
      "stateMutability": "nonpayable",
      "type": "function"
    },
    {
      "inputs": [
        {
          "internalType": "address",
          "name": "tokenAddress",
          "type": "address"
        }
      ],
      "name": "fastAddLiquidity",
      "outputs": [],
      "stateMutability": "payable",
      "type": "function"
    },
    {
      "inputs": [],
      "name": "getMemeCount",
      "outputs": [
        {
          "internalType": "uint256",
          "name": "",
          "type": "uint256"
        }
      ],
      "stateMutability": "view",
      "type": "function"
    },
    {
      "inputs": [
        {
          "internalType": "address",
          "name": "",
          "type": "address"
        }
      ],
      "name": "isMemeCreated",
      "outputs": [
        {
          "internalType": "bool",
          "name": "",
          "type": "bool"
        }
      ],
      "stateMutability": "view",
      "type": "function"
    },
    {
      "inputs": [],
      "name": "owner",
      "outputs": [
        {
          "internalType": "address",
          "name": "",
          "type": "address"
        }
      ],
      "stateMutability": "view",
      "type": "function"
    },
    {
      "inputs": [
        {
          "internalType": "address",
          "name": "token",
          "type": "address"
        },
        {
          "internalType": "uint256",
          "name": "amount",
          "type": "uint256"
        }
      ],
      "name": "receiveERC20",
      "outputs": [],
      "stateMutability": "nonpayable",
      "type": "function"
    },
    {
      "inputs": [
        {
          "internalType": "address",
          "name": "routerToRemove",
          "type": "address"
        }
      ],
      "name": "removePoolRouter",
      "outputs": [],
      "stateMutability": "nonpayable",
      "type": "function"
    },
    {
      "inputs": [],
      "name": "renounceOwnership",
      "outputs": [],
      "stateMutability": "nonpayable",
      "type": "function"
    },
    {
      "inputs": [
        {
          "internalType": "address",
          "name": "newOwner",
          "type": "address"
        }
      ],
      "name": "transferOwnership",
      "outputs": [],
      "stateMutability": "nonpayable",
      "type": "function"
    },
    {
      "inputs": [
        {
          "internalType": "address",
          "name": "newRecipientTax",
          "type": "address"
        }
      ],
      "name": "updateRecipientTax",
      "outputs": [],
      "stateMutability": "nonpayable",
      "type": "function"
    },
    {
      "inputs": [
        {
          "internalType": "address",
          "name": "newRecipientTokensPool",
          "type": "address"
        }
      ],
      "name": "updateRecipientTokensPool",
      "outputs": [],
      "stateMutability": "nonpayable",
      "type": "function"
    },
    {
      "inputs": [
        {
          "internalType": "address",
          "name": "token",
          "type": "address"
        },
        {
          "internalType": "uint256",
          "name": "amount",
          "type": "uint256"
        }
      ],
      "name": "withdrawERC20",
      "outputs": [],
      "stateMutability": "nonpayable",
      "type": "function"
    },
    {
      "stateMutability": "payable",
      "type": "receive"
    }
  ],
  "bytecode": "0x608060405261dead600660006101000a81548173ffffffffffffffffffffffffffffffffffffffff021916908373ffffffffffffffffffffffffffffffffffffffff1602179055503480156200005457600080fd5b506040516200528b3803806200528b83398181016040528101906200007a9190620002e5565b6200009a6200008e620001af60201b60201c565b620001b760201b60201c565b6001808190555083600260006101000a81548173ffffffffffffffffffffffffffffffffffffffff021916908373ffffffffffffffffffffffffffffffffffffffff16021790555082600360006101000a81548173ffffffffffffffffffffffffffffffffffffffff021916908373ffffffffffffffffffffffffffffffffffffffff16021790555081600460006101000a81548173ffffffffffffffffffffffffffffffffffffffff021916908373ffffffffffffffffffffffffffffffffffffffff16021790555080600560006101000a81548173ffffffffffffffffffffffffffffffffffffffff021916908373ffffffffffffffffffffffffffffffffffffffff1602179055505050505062000357565b600033905090565b60008060009054906101000a900473ffffffffffffffffffffffffffffffffffffffff169050816000806101000a81548173ffffffffffffffffffffffffffffffffffffffff021916908373ffffffffffffffffffffffffffffffffffffffff1602179055508173ffffffffffffffffffffffffffffffffffffffff168173ffffffffffffffffffffffffffffffffffffffff167f8be0079c531659141344cd1fd0a4f28419497f9722a3daafe3b4186f6b6457e060405160405180910390a35050565b600080fd5b600073ffffffffffffffffffffffffffffffffffffffff82169050919050565b6000620002ad8262000280565b9050919050565b620002bf81620002a0565b8114620002cb57600080fd5b50565b600081519050620002df81620002b4565b92915050565b600080600080608085870312156200030257620003016200027b565b5b60006200031287828801620002ce565b94505060206200032587828801620002ce565b93505060406200033887828801620002ce565b92505060606200034b87828801620002ce565b91505092959194509250565b614f2480620003676000396000f3fe6080604052600436106200010f5760003560e01c80639ca9dcab1162000097578063aed4aab61162000061578063aed4aab61462000368578063d57b18021462000396578063d6d41ace14620003c4578063f2fde38b14620004085762000117565b80639ca9dcab1462000298578063a1db978214620002c8578063ab72da7d14620002f6578063ad1506b5146200033a5762000117565b80633b9876a111620000d95780633b9876a11462000200578063715018a6146200022e5780638da5cb5b14620002485780639b43b66414620002785762000117565b8063073397db146200011c57806310df79bc1462000160578063142b1fe914620001a45780632c8131c214620001d25762000117565b366200011757005b600080fd5b3480156200012957600080fd5b50620001486004803603810190620001429190620014f7565b62000436565b6040516200015791906200156e565b60405180910390f35b3480156200016d57600080fd5b506200018c6004803603810190620001869190620015bc565b62000476565b6040516200019b91906200160b565b60405180910390f35b348015620001b157600080fd5b50620001d06004803603810190620001ca9190620017c9565b62000496565b005b348015620001df57600080fd5b50620001fe6004803603810190620001f89190620015bc565b62000707565b005b3480156200020d57600080fd5b506200022c6004803603810190620002269190620015bc565b62000755565b005b3480156200023b57600080fd5b50620002466200095b565b005b3480156200025557600080fd5b506200026062000971565b6040516200026f91906200156e565b60405180910390f35b620002966004803603810190620002909190620015bc565b6200099a565b005b348015620002a557600080fd5b50620002b062000d7e565b604051620002bf9190620018b4565b60405180910390f35b348015620002d557600080fd5b50620002f46004803603810190620002ee9190620018d1565b62000d8b565b005b3480156200030357600080fd5b506200032260048036038101906200031c9190620014f7565b62000e31565b6040516200033191906200156e565b60405180910390f35b3480156200034757600080fd5b50620003666004803603810190620003609190620015bc565b62000e71565b005b3480156200037557600080fd5b506200039460048036038101906200038e9190620018d1565b62000fbb565b005b348015620003a357600080fd5b50620003c26004803603810190620003bc9190620015bc565b62001045565b005b348015620003d157600080fd5b50620003f06004803603810190620003ea9190620015bc565b62001093565b604051620003ff91906200160b565b60405180910390f35b3480156200041557600080fd5b506200043460048036038101906200042e9190620015bc565b620010e9565b005b600881815481106200044757600080fd5b906000526020600020016000915054906101000a900473ffffffffffffffffffffffffffffffffffffffff1681565b60076020528060005260406000206000915054906101000a900460ff1681565b6064821115620004dd576040517f08c379a0000000000000000000000000000000000000000000000000000000008152600401620004d49062001979565b60405180910390fd5b670de0b6b3a76400008410156200052b576040517f08c379a0000000000000000000000000000000000000000000000000000000008152600401620005229062001a11565b60405180910390fd5b621abbc08161ffff16111562000578576040517f08c379a00000000000000000000000000000000000000000000000000000000081526004016200056f9062001aa9565b60405180910390fd5b6000868686600260009054906101000a900473ffffffffffffffffffffffffffffffffffffffff16600460009054906101000a900473ffffffffffffffffffffffffffffffffffffffff16888888600560009054906101000a900473ffffffffffffffffffffffffffffffffffffffff16604051620005f7906200149a565b6200060b9998979695949392919062001b54565b604051809103906000f08015801562000628573d6000803e3d6000fd5b5090506200064c81670de0b6b3a76400008762000646919062001c5f565b62001173565b8073ffffffffffffffffffffffffffffffffffffffff1663715018a66040518163ffffffff1660e01b8152600401600060405180830381600087803b1580156200069557600080fd5b505af1158015620006aa573d6000803e3d6000fd5b505050503373ffffffffffffffffffffffffffffffffffffffff167fa92eec8dad0c149c82f93ac410e601bb03794f96ca5375339bbd0f84d59e23cb82604051620006f691906200156e565b60405180910390a250505050505050565b62000711620012d6565b80600260006101000a81548173ffffffffffffffffffffffffffffffffffffffff021916908373ffffffffffffffffffffffffffffffffffffffff16021790555050565b6200075f620012d6565b6000600980549050905060005b6009805490508110156200080e578273ffffffffffffffffffffffffffffffffffffffff1660098281548110620007a857620007a762001c97565b5b9060005260206000200160009054906101000a900473ffffffffffffffffffffffffffffffffffffffff1673ffffffffffffffffffffffffffffffffffffffff1603620007f8578091506200080e565b8080620008059062001cc6565b9150506200076c565b50600980549050811062000859576040517f08c379a0000000000000000000000000000000000000000000000000000000008152600401620008509062001d63565b60405180910390fd5b600960016009805490506200086f919062001d85565b8154811062000883576200088262001c97565b5b9060005260206000200160009054906101000a900473ffffffffffffffffffffffffffffffffffffffff1660098281548110620008c557620008c462001c97565b5b9060005260206000200160006101000a81548173ffffffffffffffffffffffffffffffffffffffff021916908373ffffffffffffffffffffffffffffffffffffffff160217905550600980548062000922576200092162001dc0565b5b6001900381819060005260206000200160006101000a81549073ffffffffffffffffffffffffffffffffffffffff021916905590555050565b62000965620012d6565b6200096f6200135b565b565b60008060009054906101000a900473ffffffffffffffffffffffffffffffffffffffff16905090565b620009a462001373565b66038d7ea4c68000341015620009f1576040517f08c379a0000000000000000000000000000000000000000000000000000000008152600401620009e89062001e3f565b60405180910390fd5b6000600360009054906101000a900473ffffffffffffffffffffffffffffffffffffffff16905060008273ffffffffffffffffffffffffffffffffffffffff166370a08231306040518263ffffffff1660e01b815260040162000a5591906200156e565b602060405180830381865afa15801562000a73573d6000803e3d6000fd5b505050506040513d601f19601f8201168201806040525081019062000a99919062001e78565b90506000811162000ae1576040517f08c379a000000000000000000000000000000000000000000000000000000000815260040162000ad89062001efa565b60405180910390fd5b600060648262000af2919062001c5f565b90508082101562000b3a576040517f08c379a000000000000000000000000000000000000000000000000000000000815260040162000b319062001f6c565b60405180910390fd5b6000818362000b4a919062001d85565b90508473ffffffffffffffffffffffffffffffffffffffff1663095ea7b385836040518363ffffffff1660e01b815260040162000b8992919062001f8e565b6020604051808303816000875af115801562000ba9573d6000803e3d6000fd5b505050506040513d601f19601f8201168201806040525081019062000bcf919062001fec565b508373ffffffffffffffffffffffffffffffffffffffff1663f305d719348784600080600660009054906101000a900473ffffffffffffffffffffffffffffffffffffffff16426040518863ffffffff1660e01b815260040162000c39969594939291906200206b565b60606040518083038185885af115801562000c58573d6000803e3d6000fd5b50505050506040513d601f19601f8201168201806040525081019062000c7f9190620020d8565b5050508473ffffffffffffffffffffffffffffffffffffffff1663a9059cbb33846040518363ffffffff1660e01b815260040162000cbf92919062001f8e565b6020604051808303816000875af115801562000cdf573d6000803e3d6000fd5b505050506040513d601f19601f8201168201806040525081019062000d05919062001fec565b508473ffffffffffffffffffffffffffffffffffffffff163373ffffffffffffffffffffffffffffffffffffffff167f9d278c56ba6dc86a12eefe6b43112bd6e06648eb4ec0b950ee2d783d40e2acb43460405162000d659190620018b4565b60405180910390a35050505062000d7b620013c5565b50565b6000600880549050905090565b62000d95620012d6565b62000d9f62001373565b8173ffffffffffffffffffffffffffffffffffffffff1663a9059cbb33836040518363ffffffff1660e01b815260040162000ddc92919062001f8e565b6020604051808303816000875af115801562000dfc573d6000803e3d6000fd5b505050506040513d601f19601f8201168201806040525081019062000e22919062001fec565b5062000e2d620013c5565b5050565b6009818154811062000e4257600080fd5b906000526020600020016000915054906101000a900473ffffffffffffffffffffffffffffffffffffffff1681565b62000e7b620012d6565b60005b60098054905081101562000f54578173ffffffffffffffffffffffffffffffffffffffff166009828154811062000eba5762000eb962001c97565b5b9060005260206000200160009054906101000a900473ffffffffffffffffffffffffffffffffffffffff1673ffffffffffffffffffffffffffffffffffffffff160362000f3e576040517f08c379a000000000000000000000000000000000000000000000000000000000815260040162000f359062002184565b60405180910390fd5b808062000f4b9062001cc6565b91505062000e7e565b506009819080600181540180825580915050600190039060005260206000200160009091909190916101000a81548173ffffffffffffffffffffffffffffffffffffffff021916908373ffffffffffffffffffffffffffffffffffffffff16021790555050565b8173ffffffffffffffffffffffffffffffffffffffff166323b872dd3330846040518463ffffffff1660e01b815260040162000ffa93929190620021a6565b6020604051808303816000875af11580156200101a573d6000803e3d6000fd5b505050506040513d601f19601f8201168201806040525081019062001040919062001fec565b505050565b6200104f620012d6565b80600460006101000a81548173ffffffffffffffffffffffffffffffffffffffff021916908373ffffffffffffffffffffffffffffffffffffffff16021790555050565b6000600760008373ffffffffffffffffffffffffffffffffffffffff1673ffffffffffffffffffffffffffffffffffffffff16815260200190815260200160002060009054906101000a900460ff169050919050565b620010f3620012d6565b600073ffffffffffffffffffffffffffffffffffffffff168173ffffffffffffffffffffffffffffffffffffffff160362001165576040517f08c379a00000000000000000000000000000000000000000000000000000000081526004016200115c9062002259565b60405180910390fd5b6200117081620013ce565b50565b6000600360009054906101000a900473ffffffffffffffffffffffffffffffffffffffff1690508273ffffffffffffffffffffffffffffffffffffffff1663095ea7b382846040518363ffffffff1660e01b8152600401620011d792919062001f8e565b6020604051808303816000875af1158015620011f7573d6000803e3d6000fd5b505050506040513d601f19601f820116820180604052508101906200121d919062001fec565b508073ffffffffffffffffffffffffffffffffffffffff1663f305d71960038585600080600660009054906101000a900473ffffffffffffffffffffffffffffffffffffffff16426040518863ffffffff1660e01b815260040162001288969594939291906200206b565b60606040518083038185885af1158015620012a7573d6000803e3d6000fd5b50505050506040513d601f19601f82011682018060405250810190620012ce9190620020d8565b505050505050565b620012e062001492565b73ffffffffffffffffffffffffffffffffffffffff166200130062000971565b73ffffffffffffffffffffffffffffffffffffffff161462001359576040517f08c379a00000000000000000000000000000000000000000000000000000000081526004016200135090620022cb565b60405180910390fd5b565b62001365620012d6565b620013716000620013ce565b565b600260015403620013bb576040517f08c379a0000000000000000000000000000000000000000000000000000000008152600401620013b2906200233d565b60405180910390fd5b6002600181905550565b60018081905550565b60008060009054906101000a900473ffffffffffffffffffffffffffffffffffffffff169050816000806101000a81548173ffffffffffffffffffffffffffffffffffffffff021916908373ffffffffffffffffffffffffffffffffffffffff1602179055508173ffffffffffffffffffffffffffffffffffffffff168173ffffffffffffffffffffffffffffffffffffffff167f8be0079c531659141344cd1fd0a4f28419497f9722a3daafe3b4186f6b6457e060405160405180910390a35050565b600033905090565b612b8f806200236083390190565b6000604051905090565b600080fd5b600080fd5b6000819050919050565b620014d181620014bc565b8114620014dd57600080fd5b50565b600081359050620014f181620014c6565b92915050565b60006020828403121562001510576200150f620014b2565b5b60006200152084828501620014e0565b91505092915050565b600073ffffffffffffffffffffffffffffffffffffffff82169050919050565b6000620015568262001529565b9050919050565b620015688162001549565b82525050565b60006020820190506200158560008301846200155d565b92915050565b620015968162001549565b8114620015a257600080fd5b50565b600081359050620015b6816200158b565b92915050565b600060208284031215620015d557620015d4620014b2565b5b6000620015e584828501620015a5565b91505092915050565b60008115159050919050565b6200160581620015ee565b82525050565b6000602082019050620016226000830184620015fa565b92915050565b600080fd5b600080fd5b6000601f19601f8301169050919050565b7f4e487b7100000000000000000000000000000000000000000000000000000000600052604160045260246000fd5b6200167d8262001632565b810181811067ffffffffffffffff821117156200169f576200169e62001643565b5b80604052505050565b6000620016b4620014a8565b9050620016c2828262001672565b919050565b600067ffffffffffffffff821115620016e557620016e462001643565b5b620016f08262001632565b9050602081019050919050565b82818337600083830152505050565b6000620017236200171d84620016c7565b620016a8565b9050828152602081018484840111156200174257620017416200162d565b5b6200174f848285620016fd565b509392505050565b600082601f8301126200176f576200176e62001628565b5b8135620017818482602086016200170c565b91505092915050565b600061ffff82169050919050565b620017a3816200178a565b8114620017af57600080fd5b50565b600081359050620017c38162001798565b92915050565b60008060008060008060c08789031215620017e957620017e8620014b2565b5b600087013567ffffffffffffffff8111156200180a5762001809620014b7565b5b6200181889828a0162001757565b965050602087013567ffffffffffffffff8111156200183c576200183b620014b7565b5b6200184a89828a0162001757565b95505060406200185d89828a01620014e0565b94505060606200187089828a01620015a5565b93505060806200188389828a01620014e0565b92505060a06200189689828a01620017b2565b9150509295509295509295565b620018ae81620014bc565b82525050565b6000602082019050620018cb6000830184620018a3565b92915050565b60008060408385031215620018eb57620018ea620014b2565b5b6000620018fb85828601620015a5565b92505060206200190e85828601620014e0565b9150509250929050565b600082825260208201905092915050565b7f5441585f524154455f4d5553545f42455f4c4553535f5448414e5f3130300000600082015250565b600062001961601e8362001918565b91506200196e8262001929565b602082019050919050565b60006020820190508181036000830152620019948162001952565b9050919050565b7f4d41585f535550504c595f53484f554c445f42455f4249474745525f5448414e60008201527f5f31000000000000000000000000000000000000000000000000000000000000602082015250565b6000620019f960228362001918565b915062001a06826200199b565b604082019050919050565b6000602082019050818103600083015262001a2c81620019ea565b9050919050565b7f50524f544543545f484f5552535f53484f554c445f42455f4c4553535f54484160008201527f4e5f373330303000000000000000000000000000000000000000000000000000602082015250565b600062001a9160278362001918565b915062001a9e8262001a33565b604082019050919050565b6000602082019050818103600083015262001ac48162001a82565b9050919050565b600081519050919050565b60005b8381101562001af657808201518184015260208101905062001ad9565b60008484015250505050565b600062001b0f8262001acb565b62001b1b818562001918565b935062001b2d81856020860162001ad6565b62001b388162001632565b840191505092915050565b62001b4e816200178a565b82525050565b600061012082019050818103600083015262001b71818c62001b02565b9050818103602083015262001b87818b62001b02565b905062001b98604083018a620018a3565b62001ba760608301896200155d565b62001bb660808301886200155d565b62001bc560a08301876200155d565b62001bd460c0830186620018a3565b62001be360e083018562001b43565b62001bf36101008301846200155d565b9a9950505050505050505050565b7f4e487b7100000000000000000000000000000000000000000000000000000000600052601260045260246000fd5b7f4e487b7100000000000000000000000000000000000000000000000000000000600052601160045260246000fd5b600062001c6c82620014bc565b915062001c7983620014bc565b92508262001c8c5762001c8b62001c01565b5b828204905092915050565b7f4e487b7100000000000000000000000000000000000000000000000000000000600052603260045260246000fd5b600062001cd382620014bc565b91507fffffffffffffffffffffffffffffffffffffffffffffffffffffffffffffffff820362001d085762001d0762001c30565b5b600182019050919050565b7f524f555445525f4e4f545f464f554e4400000000000000000000000000000000600082015250565b600062001d4b60108362001918565b915062001d588262001d13565b602082019050919050565b6000602082019050818103600083015262001d7e8162001d3c565b9050919050565b600062001d9282620014bc565b915062001d9f83620014bc565b925082820390508181111562001dba5762001db962001c30565b5b92915050565b7f4e487b7100000000000000000000000000000000000000000000000000000000600052603160045260246000fd5b7f4554485f52455155495245440000000000000000000000000000000000000000600082015250565b600062001e27600c8362001918565b915062001e348262001def565b602082019050919050565b6000602082019050818103600083015262001e5a8162001e18565b9050919050565b60008151905062001e7281620014c6565b92915050565b60006020828403121562001e915762001e90620014b2565b5b600062001ea18482850162001e61565b91505092915050565b7f4e4f5f544f4b454e535f415641494c41424c4500000000000000000000000000600082015250565b600062001ee260138362001918565b915062001eef8262001eaa565b602082019050919050565b6000602082019050818103600083015262001f158162001ed3565b9050919050565b7f494e53554646494349454e545f544f4b454e535f464f525f504f4f4c00000000600082015250565b600062001f54601c8362001918565b915062001f618262001f1c565b602082019050919050565b6000602082019050818103600083015262001f878162001f45565b9050919050565b600060408201905062001fa560008301856200155d565b62001fb46020830184620018a3565b9392505050565b62001fc681620015ee565b811462001fd257600080fd5b50565b60008151905062001fe68162001fbb565b92915050565b600060208284031215620020055762002004620014b2565b5b6000620020158482850162001fd5565b91505092915050565b6000819050919050565b6000819050919050565b6000620020536200204d62002047846200201e565b62002028565b620014bc565b9050919050565b620020658162002032565b82525050565b600060c0820190506200208260008301896200155d565b620020916020830188620018a3565b620020a060408301876200205a565b620020af60608301866200205a565b620020be60808301856200155d565b620020cd60a0830184620018a3565b979650505050505050565b600080600060608486031215620020f457620020f3620014b2565b5b6000620021048682870162001e61565b9350506020620021178682870162001e61565b92505060406200212a8682870162001e61565b9150509250925092565b7f524f555445525f414c52454144595f4558495354530000000000000000000000600082015250565b60006200216c60158362001918565b9150620021798262002134565b602082019050919050565b600060208201905081810360008301526200219f816200215d565b9050919050565b6000606082019050620021bd60008301866200155d565b620021cc60208301856200155d565b620021db6040830184620018a3565b949350505050565b7f4f776e61626c653a206e6577206f776e657220697320746865207a65726f206160008201527f6464726573730000000000000000000000000000000000000000000000000000602082015250565b60006200224160268362001918565b91506200224e82620021e3565b604082019050919050565b60006020820190508181036000830152620022748162002232565b9050919050565b7f4f776e61626c653a2063616c6c6572206973206e6f7420746865206f776e6572600082015250565b6000620022b360208362001918565b9150620022c0826200227b565b602082019050919050565b60006020820190508181036000830152620022e681620022a4565b9050919050565b7f5265656e7472616e637947756172643a207265656e7472616e742063616c6c00600082015250565b600062002325601f8362001918565b91506200233282620022ed565b602082019050919050565b60006020820190508181036000830152620023588162002316565b905091905056fe6080604052603c600b553480156200001657600080fd5b5060405162002b8f38038062002b8f83398181016040528101906200003c919062000862565b888881600390816200004f919062000bc0565b50806004908162000061919062000bc0565b5050506200008462000078620001db60201b60201c565b620001e360201b60201c565b8260068190555085600760006101000a81548173ffffffffffffffffffffffffffffffffffffffff021916908373ffffffffffffffffffffffffffffffffffffffff16021790555084600860006101000a81548173ffffffffffffffffffffffffffffffffffffffff021916908373ffffffffffffffffffffffffffffffffffffffff16021790555083600960006101000a81548173ffffffffffffffffffffffffffffffffffffffff021916908373ffffffffffffffffffffffffffffffffffffffff1602179055508161ffff16600960146101000a81548163ffffffff021916908363ffffffff16021790555080600c60006101000a81548173ffffffffffffffffffffffffffffffffffffffff021916908373ffffffffffffffffffffffffffffffffffffffff160217905550620001c587620002a960201b60201c565b42600a8190555050505050505050505062000ee6565b600033905090565b6000600560009054906101000a900473ffffffffffffffffffffffffffffffffffffffff16905081600560006101000a81548173ffffffffffffffffffffffffffffffffffffffff021916908373ffffffffffffffffffffffffffffffffffffffff1602179055508173ffffffffffffffffffffffffffffffffffffffff168173ffffffffffffffffffffffffffffffffffffffff167f8be0079c531659141344cd1fd0a4f28419497f9722a3daafe3b4186f6b6457e060405160405180910390a35050565b620002b9620003be60201b60201c565b60006064600183620002cc919062000cd6565b620002d8919062000d50565b90506000670de0b6b3a7640000600184620002f4919062000cd6565b62000300919062000d50565b600a836200030f919062000cd6565b6200031b919062000d88565b905062000351600960009054906101000a900473ffffffffffffffffffffffffffffffffffffffff16846200044f60201b60201c565b62000385600760009054906101000a900473ffffffffffffffffffffffffffffffffffffffff16836200044f60201b60201c565b620003b9600860009054906101000a900473ffffffffffffffffffffffffffffffffffffffff16826200044f60201b60201c565b505050565b620003ce620001db60201b60201c565b73ffffffffffffffffffffffffffffffffffffffff16620003f4620005bc60201b60201c565b73ffffffffffffffffffffffffffffffffffffffff16146200044d576040517f08c379a0000000000000000000000000000000000000000000000000000000008152600401620004449062000e24565b60405180910390fd5b565b600073ffffffffffffffffffffffffffffffffffffffff168273ffffffffffffffffffffffffffffffffffffffff1603620004c1576040517f08c379a0000000000000000000000000000000000000000000000000000000008152600401620004b89062000e96565b60405180910390fd5b620004d560008383620005e660201b60201c565b8060026000828254620004e9919062000d88565b92505081905550806000808473ffffffffffffffffffffffffffffffffffffffff1673ffffffffffffffffffffffffffffffffffffffff168152602001908152602001600020600082825401925050819055508173ffffffffffffffffffffffffffffffffffffffff16600073ffffffffffffffffffffffffffffffffffffffff167fddf252ad1be2c89b69c2b068fc378daa952ba7f163c4a11628f55a4df523b3ef836040516200059c919062000ec9565b60405180910390a3620005b860008383620005eb60201b60201c565b5050565b6000600560009054906101000a900473ffffffffffffffffffffffffffffffffffffffff16905090565b505050565b505050565b6000604051905090565b600080fd5b600080fd5b600080fd5b600080fd5b6000601f19601f8301169050919050565b7f4e487b7100000000000000000000000000000000000000000000000000000000600052604160045260246000fd5b62000659826200060e565b810181811067ffffffffffffffff821117156200067b576200067a6200061f565b5b80604052505050565b600062000690620005f0565b90506200069e82826200064e565b919050565b600067ffffffffffffffff821115620006c157620006c06200061f565b5b620006cc826200060e565b9050602081019050919050565b60005b83811015620006f9578082015181840152602081019050620006dc565b60008484015250505050565b60006200071c6200071684620006a3565b62000684565b9050828152602081018484840111156200073b576200073a62000609565b5b62000748848285620006d9565b509392505050565b600082601f83011262000768576200076762000604565b5b81516200077a84826020860162000705565b91505092915050565b6000819050919050565b620007988162000783565b8114620007a457600080fd5b50565b600081519050620007b8816200078d565b92915050565b600073ffffffffffffffffffffffffffffffffffffffff82169050919050565b6000620007eb82620007be565b9050919050565b620007fd81620007de565b81146200080957600080fd5b50565b6000815190506200081d81620007f2565b92915050565b600061ffff82169050919050565b6200083c8162000823565b81146200084857600080fd5b50565b6000815190506200085c8162000831565b92915050565b60008060008060008060008060006101208a8c031215620008885762000887620005fa565b5b60008a015167ffffffffffffffff811115620008a957620008a8620005ff565b5b620008b78c828d0162000750565b99505060208a015167ffffffffffffffff811115620008db57620008da620005ff565b5b620008e98c828d0162000750565b9850506040620008fc8c828d01620007a7565b97505060606200090f8c828d016200080c565b9650506080620009228c828d016200080c565b95505060a0620009358c828d016200080c565b94505060c0620009488c828d01620007a7565b93505060e06200095b8c828d016200084b565b9250506101006200096f8c828d016200080c565b9150509295985092959850929598565b600081519050919050565b7f4e487b7100000000000000000000000000000000000000000000000000000000600052602260045260246000fd5b60006002820490506001821680620009d257607f821691505b602082108103620009e857620009e76200098a565b5b50919050565b60008190508160005260206000209050919050565b60006020601f8301049050919050565b600082821b905092915050565b60006008830262000a527fffffffffffffffffffffffffffffffffffffffffffffffffffffffffffffffff8262000a13565b62000a5e868362000a13565b95508019841693508086168417925050509392505050565b6000819050919050565b600062000aa162000a9b62000a958462000783565b62000a76565b62000783565b9050919050565b6000819050919050565b62000abd8362000a80565b62000ad562000acc8262000aa8565b84845462000a20565b825550505050565b600090565b62000aec62000add565b62000af981848462000ab2565b505050565b5b8181101562000b215762000b1560008262000ae2565b60018101905062000aff565b5050565b601f82111562000b705762000b3a81620009ee565b62000b458462000a03565b8101602085101562000b55578190505b62000b6d62000b648562000a03565b83018262000afe565b50505b505050565b600082821c905092915050565b600062000b956000198460080262000b75565b1980831691505092915050565b600062000bb0838362000b82565b9150826002028217905092915050565b62000bcb826200097f565b67ffffffffffffffff81111562000be75762000be66200061f565b5b62000bf38254620009b9565b62000c0082828562000b25565b600060209050601f83116001811462000c38576000841562000c23578287015190505b62000c2f858262000ba2565b86555062000c9f565b601f19841662000c4886620009ee565b60005b8281101562000c725784890151825560018201915060208501945060208101905062000c4b565b8683101562000c92578489015162000c8e601f89168262000b82565b8355505b6001600288020188555050505b505050505050565b7f4e487b7100000000000000000000000000000000000000000000000000000000600052601160045260246000fd5b600062000ce38262000783565b915062000cf08362000783565b925082820262000d008162000783565b9150828204841483151762000d1a5762000d1962000ca7565b5b5092915050565b7f4e487b7100000000000000000000000000000000000000000000000000000000600052601260045260246000fd5b600062000d5d8262000783565b915062000d6a8362000783565b92508262000d7d5762000d7c62000d21565b5b828204905092915050565b600062000d958262000783565b915062000da28362000783565b925082820190508082111562000dbd5762000dbc62000ca7565b5b92915050565b600082825260208201905092915050565b7f4f776e61626c653a2063616c6c6572206973206e6f7420746865206f776e6572600082015250565b600062000e0c60208362000dc3565b915062000e198262000dd4565b602082019050919050565b6000602082019050818103600083015262000e3f8162000dfd565b9050919050565b7f45524332303a206d696e7420746f20746865207a65726f206164647265737300600082015250565b600062000e7e601f8362000dc3565b915062000e8b8262000e46565b602082019050919050565b6000602082019050818103600083015262000eb18162000e6f565b9050919050565b62000ec38162000783565b82525050565b600060208201905062000ee0600083018462000eb8565b92915050565b611c998062000ef66000396000f3fe608060405234801561001057600080fd5b506004361061012c5760003560e01c8063715018a6116100ad578063a9059cbb11610071578063a9059cbb1461034c578063dd62ed3e1461037c578063dd9ecc78146103ac578063f2fde38b146103ca578063f70d9362146103e65761012c565b8063715018a6146102b75780638da5cb5b146102c157806395d89b41146102df578063966bd76c146102fd578063a457c2d71461031c5761012c565b8063313ce567116100f4578063313ce567146101fd578063395093511461021b5780633ed6d42d1461024b5780636c5808011461026957806370a08231146102875761012c565b806306fdde0314610131578063095ea7b31461014f57806310b4c1551461017f57806318160ddd146101af57806323b872dd146101cd575b600080fd5b610139610404565b604051610146919061126d565b60405180910390f35b61016960048036038101906101649190611328565b610496565b6040516101769190611383565b60405180910390f35b6101996004803603810190610194919061139e565b6104b9565b6040516101a69190611383565b60405180910390f35b6101b7610560565b6040516101c491906113da565b60405180910390f35b6101e760048036038101906101e291906113f5565b61056a565b6040516101f49190611383565b60405180910390f35b61020561072d565b6040516102129190611464565b60405180910390f35b61023560048036038101906102309190611328565b610736565b6040516102429190611383565b60405180910390f35b61025361076d565b604051610260919061149e565b60405180910390f35b610271610783565b60405161027e91906113da565b60405180910390f35b6102a1600480360381019061029c919061139e565b610789565b6040516102ae91906113da565b60405180910390f35b6102bf6107d1565b005b6102c96107e5565b6040516102d691906114c8565b60405180910390f35b6102e761080f565b6040516102f4919061126d565b60405180910390f35b6103056108a1565b6040516103139291906114e3565b60405180910390f35b61033660048036038101906103319190611328565b6108c2565b6040516103439190611383565b60405180910390f35b61036660048036038101906103619190611328565b610939565b6040516103739190611383565b60405180910390f35b6103966004803603810190610391919061150c565b610aa8565b6040516103a391906113da565b60405180910390f35b6103b4610b2f565b6040516103c191906113da565b60405180910390f35b6103e460048036038101906103df919061139e565b610b35565b005b6103ee610bb8565b6040516103fb91906113da565b60405180910390f35b6060600380546104139061157b565b80601f016020809104026020016040519081016040528092919081815260200182805461043f9061157b565b801561048c5780601f106104615761010080835404028352916020019161048c565b820191906000526020600020905b81548152906001019060200180831161046f57829003601f168201915b5050505050905090565b6000806104a1610c48565b90506104ae818585610c50565b600191505092915050565b6000600c60009054906101000a900473ffffffffffffffffffffffffffffffffffffffff1673ffffffffffffffffffffffffffffffffffffffff166386b20cf583306040518363ffffffff1660e01b81526004016105189291906115ac565b602060405180830381865afa158015610535573d6000803e3d6000fd5b505050506040513d601f19601f820116820180604052508101906105599190611601565b9050919050565b6000600254905090565b6000806000905060008390506000600b54600a5442610589919061165d565b61059391906116c0565b905060006105a8886105a3610c48565b610aa8565b9050858110156105ed576040517f08c379a00000000000000000000000000000000000000000000000000000000081526004016105e490611763565b60405180910390fd5b61060a886105f9610c48565b8884610605919061165d565b610c50565b600960149054906101000a900463ffffffff1663ffffffff168210156106b057610633886104b9565b1561066957612710610643610bb8565b8761064e9190611783565b61065891906116c0565b93508386610666919061165d565b92505b610674888885610e19565b60008411156106ab576106aa88600760009054906101000a900473ffffffffffffffffffffffffffffffffffffffff1686610e19565b5b61071e565b612710600654876106c19190611783565b6106cb91906116c0565b935083866106d9919061165d565b92506106e6888885610e19565b600084111561071d5761071c88600960009054906101000a900473ffffffffffffffffffffffffffffffffffffffff1686610e19565b5b5b60019450505050509392505050565b60006012905090565b600080610741610c48565b90506107628185856107538589610aa8565b61075d91906117c5565b610c50565b600191505092915050565b600960149054906101000a900463ffffffff1681565b600a5481565b60008060008373ffffffffffffffffffffffffffffffffffffffff1673ffffffffffffffffffffffffffffffffffffffff168152602001908152602001600020549050919050565b6107d961108f565b6107e3600061110d565b565b6000600560009054906101000a900473ffffffffffffffffffffffffffffffffffffffff16905090565b60606004805461081e9061157b565b80601f016020809104026020016040519081016040528092919081815260200182805461084a9061157b565b80156108975780601f1061086c57610100808354040283529160200191610897565b820191906000526020600020905b81548152906001019060200180831161087a57829003601f168201915b5050505050905090565b600080600a54600960149054906101000a900463ffffffff16915091509091565b6000806108cd610c48565b905060006108db8286610aa8565b905083811015610920576040517f08c379a00000000000000000000000000000000000000000000000000000000081526004016109179061186b565b60405180910390fd5b61092d8286868403610c50565b60019250505092915050565b6000806000905060008390506000600b54600a5442610958919061165d565b61096291906116c0565b9050600960149054906101000a900463ffffffff1663ffffffff16811015610a1f5761099461098f610c48565b6104b9565b156109ca576127106109a4610bb8565b866109af9190611783565b6109b991906116c0565b925082856109c7919061165d565b91505b6109dc6109d5610c48565b8784610e19565b6000831115610a1a57610a196109f0610c48565b600760009054906101000a900473ffffffffffffffffffffffffffffffffffffffff1685610e19565b5b610a9b565b61271060065486610a309190611783565b610a3a91906116c0565b92508285610a48919061165d565b9150610a5c610a55610c48565b8784610e19565b6000831115610a9a57610a99610a70610c48565b600960009054906101000a900473ffffffffffffffffffffffffffffffffffffffff1685610e19565b5b5b6001935050505092915050565b6000600160008473ffffffffffffffffffffffffffffffffffffffff1673ffffffffffffffffffffffffffffffffffffffff16815260200190815260200160002060008373ffffffffffffffffffffffffffffffffffffffff1673ffffffffffffffffffffffffffffffffffffffff16815260200190815260200160002054905092915050565b600b5481565b610b3d61108f565b600073ffffffffffffffffffffffffffffffffffffffff168173ffffffffffffffffffffffffffffffffffffffff1603610bac576040517f08c379a0000000000000000000000000000000000000000000000000000000008152600401610ba3906118fd565b60405180910390fd5b610bb58161110d565b50565b600080600b54600a5442610bcc919061165d565b610bd691906116c0565b9050600960149054906101000a900463ffffffff1663ffffffff16811015610c3e57600960149054906101000a900463ffffffff1663ffffffff1661271082610c1f9190611783565b610c2991906116c0565b612710610c36919061165d565b915050610c45565b6006549150505b90565b600033905090565b600073ffffffffffffffffffffffffffffffffffffffff168373ffffffffffffffffffffffffffffffffffffffff1603610cbf576040517f08c379a0000000000000000000000000000000000000000000000000000000008152600401610cb69061198f565b60405180910390fd5b600073ffffffffffffffffffffffffffffffffffffffff168273ffffffffffffffffffffffffffffffffffffffff1603610d2e576040517f08c379a0000000000000000000000000000000000000000000000000000000008152600401610d2590611a21565b60405180910390fd5b80600160008573ffffffffffffffffffffffffffffffffffffffff1673ffffffffffffffffffffffffffffffffffffffff16815260200190815260200160002060008473ffffffffffffffffffffffffffffffffffffffff1673ffffffffffffffffffffffffffffffffffffffff168152602001908152602001600020819055508173ffffffffffffffffffffffffffffffffffffffff168373ffffffffffffffffffffffffffffffffffffffff167f8c5be1e5ebec7d5bd14f71427d1e84f3dd0314c0f7b2291e5b200ac8c7c3b92583604051610e0c91906113da565b60405180910390a3505050565b600073ffffffffffffffffffffffffffffffffffffffff168373ffffffffffffffffffffffffffffffffffffffff1603610e88576040517f08c379a0000000000000000000000000000000000000000000000000000000008152600401610e7f90611ab3565b60405180910390fd5b600073ffffffffffffffffffffffffffffffffffffffff168273ffffffffffffffffffffffffffffffffffffffff1603610ef7576040517f08c379a0000000000000000000000000000000000000000000000000000000008152600401610eee90611b45565b60405180910390fd5b610f028383836111d3565b60008060008573ffffffffffffffffffffffffffffffffffffffff1673ffffffffffffffffffffffffffffffffffffffff16815260200190815260200160002054905081811015610f88576040517f08c379a0000000000000000000000000000000000000000000000000000000008152600401610f7f90611bd7565b60405180910390fd5b8181036000808673ffffffffffffffffffffffffffffffffffffffff1673ffffffffffffffffffffffffffffffffffffffff16815260200190815260200160002081905550816000808573ffffffffffffffffffffffffffffffffffffffff1673ffffffffffffffffffffffffffffffffffffffff168152602001908152602001600020600082825401925050819055508273ffffffffffffffffffffffffffffffffffffffff168473ffffffffffffffffffffffffffffffffffffffff167fddf252ad1be2c89b69c2b068fc378daa952ba7f163c4a11628f55a4df523b3ef8460405161107691906113da565b60405180910390a36110898484846111d8565b50505050565b611097610c48565b73ffffffffffffffffffffffffffffffffffffffff166110b56107e5565b73ffffffffffffffffffffffffffffffffffffffff161461110b576040517f08c379a000000000000000000000000000000000000000000000000000000000815260040161110290611c43565b60405180910390fd5b565b6000600560009054906101000a900473ffffffffffffffffffffffffffffffffffffffff16905081600560006101000a81548173ffffffffffffffffffffffffffffffffffffffff021916908373ffffffffffffffffffffffffffffffffffffffff1602179055508173ffffffffffffffffffffffffffffffffffffffff168173ffffffffffffffffffffffffffffffffffffffff167f8be0079c531659141344cd1fd0a4f28419497f9722a3daafe3b4186f6b6457e060405160405180910390a35050565b505050565b505050565b600081519050919050565b600082825260208201905092915050565b60005b838110156112175780820151818401526020810190506111fc565b60008484015250505050565b6000601f19601f8301169050919050565b600061123f826111dd565b61124981856111e8565b93506112598185602086016111f9565b61126281611223565b840191505092915050565b600060208201905081810360008301526112878184611234565b905092915050565b600080fd5b600073ffffffffffffffffffffffffffffffffffffffff82169050919050565b60006112bf82611294565b9050919050565b6112cf816112b4565b81146112da57600080fd5b50565b6000813590506112ec816112c6565b92915050565b6000819050919050565b611305816112f2565b811461131057600080fd5b50565b600081359050611322816112fc565b92915050565b6000806040838503121561133f5761133e61128f565b5b600061134d858286016112dd565b925050602061135e85828601611313565b9150509250929050565b60008115159050919050565b61137d81611368565b82525050565b60006020820190506113986000830184611374565b92915050565b6000602082840312156113b4576113b361128f565b5b60006113c2848285016112dd565b91505092915050565b6113d4816112f2565b82525050565b60006020820190506113ef60008301846113cb565b92915050565b60008060006060848603121561140e5761140d61128f565b5b600061141c868287016112dd565b935050602061142d868287016112dd565b925050604061143e86828701611313565b9150509250925092565b600060ff82169050919050565b61145e81611448565b82525050565b60006020820190506114796000830184611455565b92915050565b600063ffffffff82169050919050565b6114988161147f565b82525050565b60006020820190506114b3600083018461148f565b92915050565b6114c2816112b4565b82525050565b60006020820190506114dd60008301846114b9565b92915050565b60006040820190506114f860008301856113cb565b611505602083018461148f565b9392505050565b600080604083850312156115235761152261128f565b5b6000611531858286016112dd565b9250506020611542858286016112dd565b9150509250929050565b7f4e487b7100000000000000000000000000000000000000000000000000000000600052602260045260246000fd5b6000600282049050600182168061159357607f821691505b6020821081036115a6576115a561154c565b5b50919050565b60006040820190506115c160008301856114b9565b6115ce60208301846114b9565b9392505050565b6115de81611368565b81146115e957600080fd5b50565b6000815190506115fb816115d5565b92915050565b6000602082840312156116175761161661128f565b5b6000611625848285016115ec565b91505092915050565b7f4e487b7100000000000000000000000000000000000000000000000000000000600052601160045260246000fd5b6000611668826112f2565b9150611673836112f2565b925082820390508181111561168b5761168a61162e565b5b92915050565b7f4e487b7100000000000000000000000000000000000000000000000000000000600052601260045260246000fd5b60006116cb826112f2565b91506116d6836112f2565b9250826116e6576116e5611691565b5b828204905092915050565b7f45524332303a207472616e7366657220616d6f756e742065786365656473206160008201527f6c6c6f77616e6365000000000000000000000000000000000000000000000000602082015250565b600061174d6028836111e8565b9150611758826116f1565b604082019050919050565b6000602082019050818103600083015261177c81611740565b9050919050565b600061178e826112f2565b9150611799836112f2565b92508282026117a7816112f2565b915082820484148315176117be576117bd61162e565b5b5092915050565b60006117d0826112f2565b91506117db836112f2565b92508282019050808211156117f3576117f261162e565b5b92915050565b7f45524332303a2064656372656173656420616c6c6f77616e63652062656c6f7760008201527f207a65726f000000000000000000000000000000000000000000000000000000602082015250565b60006118556025836111e8565b9150611860826117f9565b604082019050919050565b6000602082019050818103600083015261188481611848565b9050919050565b7f4f776e61626c653a206e6577206f776e657220697320746865207a65726f206160008201527f6464726573730000000000000000000000000000000000000000000000000000602082015250565b60006118e76026836111e8565b91506118f28261188b565b604082019050919050565b60006020820190508181036000830152611916816118da565b9050919050565b7f45524332303a20617070726f76652066726f6d20746865207a65726f2061646460008201527f7265737300000000000000000000000000000000000000000000000000000000602082015250565b60006119796024836111e8565b91506119848261191d565b604082019050919050565b600060208201905081810360008301526119a88161196c565b9050919050565b7f45524332303a20617070726f766520746f20746865207a65726f20616464726560008201527f7373000000000000000000000000000000000000000000000000000000000000602082015250565b6000611a0b6022836111e8565b9150611a16826119af565b604082019050919050565b60006020820190508181036000830152611a3a816119fe565b9050919050565b7f45524332303a207472616e736665722066726f6d20746865207a65726f20616460008201527f6472657373000000000000000000000000000000000000000000000000000000602082015250565b6000611a9d6025836111e8565b9150611aa882611a41565b604082019050919050565b60006020820190508181036000830152611acc81611a90565b9050919050565b7f45524332303a207472616e7366657220746f20746865207a65726f206164647260008201527f6573730000000000000000000000000000000000000000000000000000000000602082015250565b6000611b2f6023836111e8565b9150611b3a82611ad3565b604082019050919050565b60006020820190508181036000830152611b5e81611b22565b9050919050565b7f45524332303a207472616e7366657220616d6f756e742065786365656473206260008201527f616c616e63650000000000000000000000000000000000000000000000000000602082015250565b6000611bc16026836111e8565b9150611bcc82611b65565b604082019050919050565b60006020820190508181036000830152611bf081611bb4565b9050919050565b7f4f776e61626c653a2063616c6c6572206973206e6f7420746865206f776e6572600082015250565b6000611c2d6020836111e8565b9150611c3882611bf7565b602082019050919050565b60006020820190508181036000830152611c5c81611c20565b905091905056fea2646970667358221220d94c996ed40e27eac23c86faaec7b8f5a4769652f6905c48e1954a435c16ba5564736f6c63430008130033a26469706673582212205e7d14da0b2586cffb09cbd2311c1067ddcf43ea7123cf720d2b6d62542858ea64736f6c63430008130033",
  "linkReferences": {},
  "deployedLinkReferences": {}
}