{
  "_format": "hh-sol-artifact-1",
  "contractName": "RouterWhitelist",
  "sourceName": "contracts/RouterWhitelist.sol",
  "abi": [
    {
      "anonymous": false,
      "inputs": [
        {
          "indexed": true,
          "internalType": "address",
          "name": "previousOwner",
          "type": "address"
        },
        {
          "indexed": true,
          "internalType": "address",
          "name": "newOwner",
          "type": "address"
        }
      ],
      "name": "OwnershipTransferred",
      "type": "event"
    },
    {
      "inputs": [
        {
          "internalType": "address",
          "name": "TxAddress",
          "type": "address"
        },
        {
          "internalType": "address",
          "name": "meme",
          "type": "address"
        }
      ],
      "name": "CheckPoolPair",
      "outputs": [
        {
          "internalType": "bool",
          "name": "",
          "type": "bool"
        }
      ],
      "stateMutability": "view",
      "type": "function"
    },
    {
      "inputs": [
        {
          "internalType": "uint256",
          "name": "",
          "type": "uint256"
        }
      ],
      "name": "PoolRoutersV2",
      "outputs": [
        {
          "internalType": "address",
          "name": "",
          "type": "address"
        }
      ],
      "stateMutability": "view",
      "type": "function"
    },
    {
      "inputs": [
        {
          "internalType": "address",
          "name": "newRouter",
          "type": "address"
        }
      ],
      "name": "addPoolRouter",
      "outputs": [],
      "stateMutability": "nonpayable",
      "type": "function"
    },
    {
      "inputs": [],
      "name": "getPoolRouters",
      "outputs": [
        {
          "internalType": "address[]",
          "name": "",
          "type": "address[]"
        }
      ],
      "stateMutability": "view",
      "type": "function"
    },
    {
      "inputs": [],
      "name": "owner",
      "outputs": [
        {
          "internalType": "address",
          "name": "",
          "type": "address"
        }
      ],
      "stateMutability": "view",
      "type": "function"
    },
    {
      "inputs": [
        {
          "internalType": "address",
          "name": "routerToRemove",
          "type": "address"
        }
      ],
      "name": "removePoolRouter",
      "outputs": [],
      "stateMutability": "nonpayable",
      "type": "function"
    },
    {
      "inputs": [],
      "name": "renounceOwnership",
      "outputs": [],
      "stateMutability": "nonpayable",
      "type": "function"
    },
    {
      "inputs": [
        {
          "internalType": "address",
          "name": "newOwner",
          "type": "address"
        }
      ],
      "name": "transferOwnership",
      "outputs": [],
      "stateMutability": "nonpayable",
      "type": "function"
    }
  ],
  "bytecode": "0x608060405234801561001057600080fd5b5061002d61002261003260201b60201c565b61003a60201b60201c565b6100fe565b600033905090565b60008060009054906101000a900473ffffffffffffffffffffffffffffffffffffffff169050816000806101000a81548173ffffffffffffffffffffffffffffffffffffffff021916908373ffffffffffffffffffffffffffffffffffffffff1602179055508173ffffffffffffffffffffffffffffffffffffffff168173ffffffffffffffffffffffffffffffffffffffff167f8be0079c531659141344cd1fd0a4f28419497f9722a3daafe3b4186f6b6457e060405160405180910390a35050565b6110328061010d6000396000f3fe608060405234801561001057600080fd5b50600436106100885760003560e01c80638da5cb5b1161005b5780638da5cb5b14610101578063ab72da7d1461011f578063ad1506b51461014f578063f2fde38b1461016b57610088565b80633b9876a11461008d578063428d97f3146100a9578063715018a6146100c757806386b20cf5146100d1575b600080fd5b6100a760048036038101906100a29190610a91565b610187565b005b6100b1610372565b6040516100be9190610b7c565b60405180910390f35b6100cf610400565b005b6100eb60048036038101906100e69190610b9e565b610414565b6040516100f89190610bf9565b60405180910390f35b6101096106bb565b6040516101169190610c23565b60405180910390f35b61013960048036038101906101349190610c74565b6106e4565b6040516101469190610c23565b60405180910390f35b61016960048036038101906101649190610a91565b610723565b005b61018560048036038101906101809190610a91565b610861565b005b61018f6108e4565b6000600180549050905060005b600180549050811015610235578273ffffffffffffffffffffffffffffffffffffffff16600182815481106101d4576101d3610ca1565b5b9060005260206000200160009054906101000a900473ffffffffffffffffffffffffffffffffffffffff1673ffffffffffffffffffffffffffffffffffffffff160361022257809150610235565b808061022d90610cff565b91505061019c565b50600180549050811061027d576040517f08c379a000000000000000000000000000000000000000000000000000000000815260040161027490610da4565b60405180910390fd5b600180808054905061028f9190610dc4565b815481106102a05761029f610ca1565b5b9060005260206000200160009054906101000a900473ffffffffffffffffffffffffffffffffffffffff16600182815481106102df576102de610ca1565b5b9060005260206000200160006101000a81548173ffffffffffffffffffffffffffffffffffffffff021916908373ffffffffffffffffffffffffffffffffffffffff160217905550600180548061033957610338610df8565b5b6001900381819060005260206000200160006101000a81549073ffffffffffffffffffffffffffffffffffffffff021916905590555050565b606060018054806020026020016040519081016040528092919081815260200182805480156103f657602002820191906000526020600020905b8160009054906101000a900473ffffffffffffffffffffffffffffffffffffffff1673ffffffffffffffffffffffffffffffffffffffff16815260200190600101908083116103ac575b5050505050905090565b6104086108e4565b6104126000610962565b565b600080600090505b6001805490508110156106af5760006001828154811061043f5761043e610ca1565b5b9060005260206000200160009054906101000a900473ffffffffffffffffffffffffffffffffffffffff1690508073ffffffffffffffffffffffffffffffffffffffff1663c45a01556040518163ffffffff1660e01b8152600401602060405180830381865afa9250505080156104d457506040513d601f19601f820116820180604052508101906104d19190610e3c565b60015b6104de575061069c565b8173ffffffffffffffffffffffffffffffffffffffff1663ad5c46486040518163ffffffff1660e01b8152600401602060405180830381865afa92505050801561054657506040513d601f19601f820116820180604052508101906105439190610e3c565b60015b61055157505061069c565b60008173ffffffffffffffffffffffffffffffffffffffff168773ffffffffffffffffffffffffffffffffffffffff161061058c578161058e565b865b905060008273ffffffffffffffffffffffffffffffffffffffff168873ffffffffffffffffffffffffffffffffffffffff16106105cb57876105cd565b825b90508373ffffffffffffffffffffffffffffffffffffffff1663e6a4390583836040518363ffffffff1660e01b815260040161060a929190610e69565b602060405180830381865afa92505050801561064457506040513d601f19601f820116820180604052508101906106419190610e3c565b60015b61065257505050505061069c565b8973ffffffffffffffffffffffffffffffffffffffff168173ffffffffffffffffffffffffffffffffffffffff16036106955760019750505050505050506106b5565b5050505050505b80806106a790610cff565b91505061041c565b50600090505b92915050565b60008060009054906101000a900473ffffffffffffffffffffffffffffffffffffffff16905090565b600181815481106106f457600080fd5b906000526020600020016000915054906101000a900473ffffffffffffffffffffffffffffffffffffffff1681565b61072b6108e4565b60005b6001805490508110156107fa578173ffffffffffffffffffffffffffffffffffffffff166001828154811061076657610765610ca1565b5b9060005260206000200160009054906101000a900473ffffffffffffffffffffffffffffffffffffffff1673ffffffffffffffffffffffffffffffffffffffff16036107e7576040517f08c379a00000000000000000000000000000000000000000000000000000000081526004016107de90610ede565b60405180910390fd5b80806107f290610cff565b91505061072e565b506001819080600181540180825580915050600190039060005260206000200160009091909190916101000a81548173ffffffffffffffffffffffffffffffffffffffff021916908373ffffffffffffffffffffffffffffffffffffffff16021790555050565b6108696108e4565b600073ffffffffffffffffffffffffffffffffffffffff168173ffffffffffffffffffffffffffffffffffffffff16036108d8576040517f08c379a00000000000000000000000000000000000000000000000000000000081526004016108cf90610f70565b60405180910390fd5b6108e181610962565b50565b6108ec610a26565b73ffffffffffffffffffffffffffffffffffffffff1661090a6106bb565b73ffffffffffffffffffffffffffffffffffffffff1614610960576040517f08c379a000000000000000000000000000000000000000000000000000000000815260040161095790610fdc565b60405180910390fd5b565b60008060009054906101000a900473ffffffffffffffffffffffffffffffffffffffff169050816000806101000a81548173ffffffffffffffffffffffffffffffffffffffff021916908373ffffffffffffffffffffffffffffffffffffffff1602179055508173ffffffffffffffffffffffffffffffffffffffff168173ffffffffffffffffffffffffffffffffffffffff167f8be0079c531659141344cd1fd0a4f28419497f9722a3daafe3b4186f6b6457e060405160405180910390a35050565b600033905090565b600080fd5b600073ffffffffffffffffffffffffffffffffffffffff82169050919050565b6000610a5e82610a33565b9050919050565b610a6e81610a53565b8114610a7957600080fd5b50565b600081359050610a8b81610a65565b92915050565b600060208284031215610aa757610aa6610a2e565b5b6000610ab584828501610a7c565b91505092915050565b600081519050919050565b600082825260208201905092915050565b6000819050602082019050919050565b610af381610a53565b82525050565b6000610b058383610aea565b60208301905092915050565b6000602082019050919050565b6000610b2982610abe565b610b338185610ac9565b9350610b3e83610ada565b8060005b83811015610b6f578151610b568882610af9565b9750610b6183610b11565b925050600181019050610b42565b5085935050505092915050565b60006020820190508181036000830152610b968184610b1e565b905092915050565b60008060408385031215610bb557610bb4610a2e565b5b6000610bc385828601610a7c565b9250506020610bd485828601610a7c565b9150509250929050565b60008115159050919050565b610bf381610bde565b82525050565b6000602082019050610c0e6000830184610bea565b92915050565b610c1d81610a53565b82525050565b6000602082019050610c386000830184610c14565b92915050565b6000819050919050565b610c5181610c3e565b8114610c5c57600080fd5b50565b600081359050610c6e81610c48565b92915050565b600060208284031215610c8a57610c89610a2e565b5b6000610c9884828501610c5f565b91505092915050565b7f4e487b7100000000000000000000000000000000000000000000000000000000600052603260045260246000fd5b7f4e487b7100000000000000000000000000000000000000000000000000000000600052601160045260246000fd5b6000610d0a82610c3e565b91507fffffffffffffffffffffffffffffffffffffffffffffffffffffffffffffffff8203610d3c57610d3b610cd0565b5b600182019050919050565b600082825260208201905092915050565b7f524f555445525f4e4f545f464f554e4400000000000000000000000000000000600082015250565b6000610d8e601083610d47565b9150610d9982610d58565b602082019050919050565b60006020820190508181036000830152610dbd81610d81565b9050919050565b6000610dcf82610c3e565b9150610dda83610c3e565b9250828203905081811115610df257610df1610cd0565b5b92915050565b7f4e487b7100000000000000000000000000000000000000000000000000000000600052603160045260246000fd5b600081519050610e3681610a65565b92915050565b600060208284031215610e5257610e51610a2e565b5b6000610e6084828501610e27565b91505092915050565b6000604082019050610e7e6000830185610c14565b610e8b6020830184610c14565b9392505050565b7f524f555445525f414c52454144595f4558495354530000000000000000000000600082015250565b6000610ec8601583610d47565b9150610ed382610e92565b602082019050919050565b60006020820190508181036000830152610ef781610ebb565b9050919050565b7f4f776e61626c653a206e6577206f776e657220697320746865207a65726f206160008201527f6464726573730000000000000000000000000000000000000000000000000000602082015250565b6000610f5a602683610d47565b9150610f6582610efe565b604082019050919050565b60006020820190508181036000830152610f8981610f4d565b9050919050565b7f4f776e61626c653a2063616c6c6572206973206e6f7420746865206f776e6572600082015250565b6000610fc6602083610d47565b9150610fd182610f90565b602082019050919050565b60006020820190508181036000830152610ff581610fb9565b905091905056fea2646970667358221220ab0921c3e4168556b4fb0dd0d195a804dca699386d00f8c3f3e9aea3ae6a461164736f6c63430008130033",
  "linkReferences": {},
  "deployedLinkReferences": {}
}