{
  "_format": "hh-sol-artifact-1",
  "contractName": "RouterWhitelist",
  "sourceName": "contracts/RouterWhitelist.sol",
  "abi": [
    {
      "anonymous": false,
      "inputs": [
        {
          "indexed": true,
          "internalType": "address",
          "name": "previousOwner",
          "type": "address"
        },
        {
          "indexed": true,
          "internalType": "address",
          "name": "newOwner",
          "type": "address"
        }
      ],
      "name": "OwnershipTransferred",
      "type": "event"
    },
    {
      "inputs": [
        {
          "internalType": "address",
          "name": "TxAddress",
          "type": "address"
        },
        {
          "internalType": "address",
          "name": "meme",
          "type": "address"
        }
      ],
      "name": "CheckPoolPair",
      "outputs": [
        {
          "internalType": "bool",
          "name": "",
          "type": "bool"
        }
      ],
      "stateMutability": "view",
      "type": "function"
    },
    {
      "inputs": [
        {
          "internalType": "uint256",
          "name": "",
          "type": "uint256"
        }
      ],
      "name": "PoolRoutersV2",
      "outputs": [
        {
          "internalType": "address",
          "name": "",
          "type": "address"
        }
      ],
      "stateMutability": "view",
      "type": "function"
    },
    {
      "inputs": [
        {
          "internalType": "address",
          "name": "newRouter",
          "type": "address"
        }
      ],
      "name": "addPoolRouter",
      "outputs": [],
      "stateMutability": "nonpayable",
      "type": "function"
    },
    {
      "inputs": [
        {
          "internalType": "uint256",
          "name": "index",
          "type": "uint256"
        }
      ],
      "name": "getPoolRouterAt",
      "outputs": [
        {
          "internalType": "address",
          "name": "",
          "type": "address"
        }
      ],
      "stateMutability": "view",
      "type": "function"
    },
    {
      "inputs": [],
      "name": "getPoolRouters",
      "outputs": [
        {
          "internalType": "address[]",
          "name": "",
          "type": "address[]"
        }
      ],
      "stateMutability": "view",
      "type": "function"
    },
    {
      "inputs": [],
      "name": "owner",
      "outputs": [
        {
          "internalType": "address",
          "name": "",
          "type": "address"
        }
      ],
      "stateMutability": "view",
      "type": "function"
    },
    {
      "inputs": [
        {
          "internalType": "address",
          "name": "routerToRemove",
          "type": "address"
        }
      ],
      "name": "removePoolRouter",
      "outputs": [],
      "stateMutability": "nonpayable",
      "type": "function"
    },
    {
      "inputs": [],
      "name": "renounceOwnership",
      "outputs": [],
      "stateMutability": "nonpayable",
      "type": "function"
    },
    {
      "inputs": [
        {
          "internalType": "address",
          "name": "newOwner",
          "type": "address"
        }
      ],
      "name": "transferOwnership",
      "outputs": [],
      "stateMutability": "nonpayable",
      "type": "function"
    }
  ],
  "bytecode": "0x608060405234801561001057600080fd5b5061002d61002261003260201b60201c565b61003a60201b60201c565b6100fe565b600033905090565b60008060009054906101000a900473ffffffffffffffffffffffffffffffffffffffff169050816000806101000a81548173ffffffffffffffffffffffffffffffffffffffff021916908373ffffffffffffffffffffffffffffffffffffffff1602179055508173ffffffffffffffffffffffffffffffffffffffff168173ffffffffffffffffffffffffffffffffffffffff167f8be0079c531659141344cd1fd0a4f28419497f9722a3daafe3b4186f6b6457e060405160405180910390a35050565b6114078061010d6000396000f3fe608060405234801561001057600080fd5b50600436106100935760003560e01c806386b20cf51161006657806386b20cf51461010c5780638da5cb5b1461013c578063ab72da7d1461015a578063ad1506b51461018a578063f2fde38b146101a657610093565b80633b9876a114610098578063428d97f3146100b45780636b85a83f146100d2578063715018a614610102575b600080fd5b6100b260048036038101906100ad9190610d22565b6101c2565b005b6100bc610403565b6040516100c99190610e0d565b60405180910390f35b6100ec60048036038101906100e79190610e65565b610491565b6040516100f99190610ea1565b60405180910390f35b61010a610520565b005b61012660048036038101906101219190610ebc565b610534565b6040516101339190610f17565b60405180910390f35b6101446107db565b6040516101519190610ea1565b60405180910390f35b610174600480360381019061016f9190610e65565b610804565b6040516101819190610ea1565b60405180910390f35b6101a4600480360381019061019f9190610d22565b610843565b005b6101c060048036038101906101bb9190610d22565b610a38565b005b6101ca610abb565b6000600180549050905060005b600180549050811015610270578273ffffffffffffffffffffffffffffffffffffffff166001828154811061020f5761020e610f32565b5b9060005260206000200160009054906101000a900473ffffffffffffffffffffffffffffffffffffffff1673ffffffffffffffffffffffffffffffffffffffff160361025d57809150610270565b808061026890610f90565b9150506101d7565b5060018054905081106102b8576040517f08c379a00000000000000000000000000000000000000000000000000000000081526004016102af90611035565b60405180910390fd5b6000600180805490506102cb9190611055565b67ffffffffffffffff8111156102e4576102e3611089565b5b6040519080825280602002602001820160405280156103125781602001602082028036833780820191505090505b50905060005b6001805490508110156103e6578281146103d357600181815481106103405761033f610f32565b5b9060005260206000200160009054906101000a900473ffffffffffffffffffffffffffffffffffffffff1682848310610385576001836103809190611055565b610387565b825b8151811061039857610397610f32565b5b602002602001019073ffffffffffffffffffffffffffffffffffffffff16908173ffffffffffffffffffffffffffffffffffffffff16815250505b80806103de90610f90565b915050610318565b5080600190805190602001906103fd929190610c18565b50505050565b6060600180548060200260200160405190810160405280929190818152602001828054801561048757602002820191906000526020600020905b8160009054906101000a900473ffffffffffffffffffffffffffffffffffffffff1673ffffffffffffffffffffffffffffffffffffffff168152602001906001019080831161043d575b5050505050905090565b600060018054905082106104da576040517f08c379a00000000000000000000000000000000000000000000000000000000081526004016104d190611104565b60405180910390fd5b600182815481106104ee576104ed610f32565b5b9060005260206000200160009054906101000a900473ffffffffffffffffffffffffffffffffffffffff169050919050565b610528610abb565b6105326000610b39565b565b600080600090505b6001805490508110156107cf5760006001828154811061055f5761055e610f32565b5b9060005260206000200160009054906101000a900473ffffffffffffffffffffffffffffffffffffffff1690508073ffffffffffffffffffffffffffffffffffffffff1663c45a01556040518163ffffffff1660e01b8152600401602060405180830381865afa9250505080156105f457506040513d601f19601f820116820180604052508101906105f19190611139565b60015b6105fe57506107bc565b8173ffffffffffffffffffffffffffffffffffffffff1663ad5c46486040518163ffffffff1660e01b8152600401602060405180830381865afa92505050801561066657506040513d601f19601f820116820180604052508101906106639190611139565b60015b6106715750506107bc565b60008173ffffffffffffffffffffffffffffffffffffffff168773ffffffffffffffffffffffffffffffffffffffff16106106ac57816106ae565b865b905060008273ffffffffffffffffffffffffffffffffffffffff168873ffffffffffffffffffffffffffffffffffffffff16106106eb57876106ed565b825b90508373ffffffffffffffffffffffffffffffffffffffff1663e6a4390583836040518363ffffffff1660e01b815260040161072a929190611166565b602060405180830381865afa92505050801561076457506040513d601f19601f820116820180604052508101906107619190611139565b60015b6107725750505050506107bc565b8973ffffffffffffffffffffffffffffffffffffffff168173ffffffffffffffffffffffffffffffffffffffff16036107b55760019750505050505050506107d5565b5050505050505b80806107c790610f90565b91505061053c565b50600090505b92915050565b60008060009054906101000a900473ffffffffffffffffffffffffffffffffffffffff16905090565b6001818154811061081457600080fd5b906000526020600020016000915054906101000a900473ffffffffffffffffffffffffffffffffffffffff1681565b61084b610abb565b600073ffffffffffffffffffffffffffffffffffffffff168173ffffffffffffffffffffffffffffffffffffffff16036108ba576040517f08c379a00000000000000000000000000000000000000000000000000000000081526004016108b1906111db565b60405180910390fd5b6108c381610bfd565b610902576040517f08c379a00000000000000000000000000000000000000000000000000000000081526004016108f990611247565b60405180910390fd5b60005b6001805490508110156109d1578173ffffffffffffffffffffffffffffffffffffffff166001828154811061093d5761093c610f32565b5b9060005260206000200160009054906101000a900473ffffffffffffffffffffffffffffffffffffffff1673ffffffffffffffffffffffffffffffffffffffff16036109be576040517f08c379a00000000000000000000000000000000000000000000000000000000081526004016109b5906112b3565b60405180910390fd5b80806109c990610f90565b915050610905565b506001819080600181540180825580915050600190039060005260206000200160009091909190916101000a81548173ffffffffffffffffffffffffffffffffffffffff021916908373ffffffffffffffffffffffffffffffffffffffff16021790555050565b610a40610abb565b600073ffffffffffffffffffffffffffffffffffffffff168173ffffffffffffffffffffffffffffffffffffffff1603610aaf576040517f08c379a0000000000000000000000000000000000000000000000000000000008152600401610aa690611345565b60405180910390fd5b610ab881610b39565b50565b610ac3610c10565b73ffffffffffffffffffffffffffffffffffffffff16610ae16107db565b73ffffffffffffffffffffffffffffffffffffffff1614610b37576040517f08c379a0000000000000000000000000000000000000000000000000000000008152600401610b2e906113b1565b60405180910390fd5b565b60008060009054906101000a900473ffffffffffffffffffffffffffffffffffffffff169050816000806101000a81548173ffffffffffffffffffffffffffffffffffffffff021916908373ffffffffffffffffffffffffffffffffffffffff1602179055508173ffffffffffffffffffffffffffffffffffffffff168173ffffffffffffffffffffffffffffffffffffffff167f8be0079c531659141344cd1fd0a4f28419497f9722a3daafe3b4186f6b6457e060405160405180910390a35050565b600080823b905060008111915050919050565b600033905090565b828054828255906000526020600020908101928215610c91579160200282015b82811115610c905782518260006101000a81548173ffffffffffffffffffffffffffffffffffffffff021916908373ffffffffffffffffffffffffffffffffffffffff16021790555091602001919060010190610c38565b5b509050610c9e9190610ca2565b5090565b5b80821115610cbb576000816000905550600101610ca3565b5090565b600080fd5b600073ffffffffffffffffffffffffffffffffffffffff82169050919050565b6000610cef82610cc4565b9050919050565b610cff81610ce4565b8114610d0a57600080fd5b50565b600081359050610d1c81610cf6565b92915050565b600060208284031215610d3857610d37610cbf565b5b6000610d4684828501610d0d565b91505092915050565b600081519050919050565b600082825260208201905092915050565b6000819050602082019050919050565b610d8481610ce4565b82525050565b6000610d968383610d7b565b60208301905092915050565b6000602082019050919050565b6000610dba82610d4f565b610dc48185610d5a565b9350610dcf83610d6b565b8060005b83811015610e00578151610de78882610d8a565b9750610df283610da2565b925050600181019050610dd3565b5085935050505092915050565b60006020820190508181036000830152610e278184610daf565b905092915050565b6000819050919050565b610e4281610e2f565b8114610e4d57600080fd5b50565b600081359050610e5f81610e39565b92915050565b600060208284031215610e7b57610e7a610cbf565b5b6000610e8984828501610e50565b91505092915050565b610e9b81610ce4565b82525050565b6000602082019050610eb66000830184610e92565b92915050565b60008060408385031215610ed357610ed2610cbf565b5b6000610ee185828601610d0d565b9250506020610ef285828601610d0d565b9150509250929050565b60008115159050919050565b610f1181610efc565b82525050565b6000602082019050610f2c6000830184610f08565b92915050565b7f4e487b7100000000000000000000000000000000000000000000000000000000600052603260045260246000fd5b7f4e487b7100000000000000000000000000000000000000000000000000000000600052601160045260246000fd5b6000610f9b82610e2f565b91507fffffffffffffffffffffffffffffffffffffffffffffffffffffffffffffffff8203610fcd57610fcc610f61565b5b600182019050919050565b600082825260208201905092915050565b7f524f555445525f4e4f545f464f554e4400000000000000000000000000000000600082015250565b600061101f601083610fd8565b915061102a82610fe9565b602082019050919050565b6000602082019050818103600083015261104e81611012565b9050919050565b600061106082610e2f565b915061106b83610e2f565b925082820390508181111561108357611082610f61565b5b92915050565b7f4e487b7100000000000000000000000000000000000000000000000000000000600052604160045260246000fd5b7f494e4445585f4f55545f4f465f424f554e445300000000000000000000000000600082015250565b60006110ee601383610fd8565b91506110f9826110b8565b602082019050919050565b6000602082019050818103600083015261111d816110e1565b9050919050565b60008151905061113381610cf6565b92915050565b60006020828403121561114f5761114e610cbf565b5b600061115d84828501611124565b91505092915050565b600060408201905061117b6000830185610e92565b6111886020830184610e92565b9392505050565b7f494e56414c49445f414444524553530000000000000000000000000000000000600082015250565b60006111c5600f83610fd8565b91506111d08261118f565b602082019050919050565b600060208201905081810360008301526111f4816111b8565b9050919050565b7f414444524553535f49535f4e4f545f415f434f4e545241435400000000000000600082015250565b6000611231601983610fd8565b915061123c826111fb565b602082019050919050565b6000602082019050818103600083015261126081611224565b9050919050565b7f524f555445525f414c52454144595f4558495354530000000000000000000000600082015250565b600061129d601583610fd8565b91506112a882611267565b602082019050919050565b600060208201905081810360008301526112cc81611290565b9050919050565b7f4f776e61626c653a206e6577206f776e657220697320746865207a65726f206160008201527f6464726573730000000000000000000000000000000000000000000000000000602082015250565b600061132f602683610fd8565b915061133a826112d3565b604082019050919050565b6000602082019050818103600083015261135e81611322565b9050919050565b7f4f776e61626c653a2063616c6c6572206973206e6f7420746865206f776e6572600082015250565b600061139b602083610fd8565b91506113a682611365565b602082019050919050565b600060208201905081810360008301526113ca8161138e565b905091905056fea264697066735822122097ef18ce49d8d7d4ab41e16f52bcea28b2af7b073426ee0232ba276c4f46ba0d64736f6c63430008130033",
  "linkReferences": {},
  "deployedLinkReferences": {}
}