{
  "_format": "hh-sol-artifact-1",
  "contractName": "Vault",
  "sourceName": "contracts/Vault.sol",
  "abi": [
    {
      "inputs": [],
      "stateMutability": "nonpayable",
      "type": "constructor"
    },
    {
      "anonymous": false,
      "inputs": [
        {
          "indexed": true,
          "internalType": "address",
          "name": "sender",
          "type": "address"
        },
        {
          "indexed": false,
          "internalType": "uint256",
          "name": "amount",
          "type": "uint256"
        }
      ],
      "name": "EtherDeposited",
      "type": "event"
    },
    {
      "anonymous": false,
      "inputs": [
        {
          "indexed": true,
          "internalType": "address",
          "name": "previousOwner",
          "type": "address"
        },
        {
          "indexed": true,
          "internalType": "address",
          "name": "newOwner",
          "type": "address"
        }
      ],
      "name": "OwnershipTransferred",
      "type": "event"
    },
    {
      "anonymous": false,
      "inputs": [
        {
          "indexed": true,
          "internalType": "address",
          "name": "recipient",
          "type": "address"
        },
        {
          "indexed": false,
          "internalType": "address",
          "name": "tokenAddress",
          "type": "address"
        },
        {
          "indexed": false,
          "internalType": "uint256",
          "name": "amount",
          "type": "uint256"
        }
      ],
      "name": "TokensDistributed",
      "type": "event"
    },
    {
      "inputs": [
        {
          "internalType": "address",
          "name": "_tokenAddress",
          "type": "address"
        },
        {
          "internalType": "uint256",
          "name": "_amountPerMint",
          "type": "uint256"
        }
      ],
      "name": "addToken",
      "outputs": [],
      "stateMutability": "nonpayable",
      "type": "function"
    },
    {
      "inputs": [
        {
          "internalType": "address",
          "name": "",
          "type": "address"
        }
      ],
      "name": "authorizedContracts",
      "outputs": [
        {
          "internalType": "bool",
          "name": "",
          "type": "bool"
        }
      ],
      "stateMutability": "view",
      "type": "function"
    },
    {
      "inputs": [
        {
          "internalType": "address",
          "name": "recipient",
          "type": "address"
        }
      ],
      "name": "distributeTokens",
      "outputs": [],
      "stateMutability": "nonpayable",
      "type": "function"
    },
    {
      "inputs": [],
      "name": "getTokensDetails",
      "outputs": [
        {
          "internalType": "address[]",
          "name": "tokenAddressesList",
          "type": "address[]"
        },
        {
          "internalType": "uint256[]",
          "name": "amountsPerMint",
          "type": "uint256[]"
        }
      ],
      "stateMutability": "view",
      "type": "function"
    },
    {
      "inputs": [],
      "name": "owner",
      "outputs": [
        {
          "internalType": "address",
          "name": "",
          "type": "address"
        }
      ],
      "stateMutability": "view",
      "type": "function"
    },
    {
      "inputs": [
        {
          "internalType": "address",
          "name": "_tokenAddress",
          "type": "address"
        }
      ],
      "name": "removeToken",
      "outputs": [],
      "stateMutability": "nonpayable",
      "type": "function"
    },
    {
      "inputs": [],
      "name": "renounceOwnership",
      "outputs": [],
      "stateMutability": "nonpayable",
      "type": "function"
    },
    {
      "inputs": [
        {
          "internalType": "address",
          "name": "_contractAddress",
          "type": "address"
        },
        {
          "internalType": "bool",
          "name": "_isAuthorized",
          "type": "bool"
        }
      ],
      "name": "setAdminAuthorization",
      "outputs": [],
      "stateMutability": "nonpayable",
      "type": "function"
    },
    {
      "inputs": [
        {
          "internalType": "uint256",
          "name": "",
          "type": "uint256"
        }
      ],
      "name": "tokenAddresses",
      "outputs": [
        {
          "internalType": "address",
          "name": "",
          "type": "address"
        }
      ],
      "stateMutability": "view",
      "type": "function"
    },
    {
      "inputs": [
        {
          "internalType": "address",
          "name": "",
          "type": "address"
        }
      ],
      "name": "tokens",
      "outputs": [
        {
          "internalType": "contract IERC20",
          "name": "token",
          "type": "address"
        },
        {
          "internalType": "uint256",
          "name": "amountPerMint",
          "type": "uint256"
        }
      ],
      "stateMutability": "view",
      "type": "function"
    },
    {
      "inputs": [
        {
          "internalType": "address",
          "name": "newOwner",
          "type": "address"
        }
      ],
      "name": "transferOwnership",
      "outputs": [],
      "stateMutability": "nonpayable",
      "type": "function"
    },
    {
      "stateMutability": "payable",
      "type": "receive"
    }
  ],
  "bytecode": "0x608060405234801561001057600080fd5b5061002d61002261003960201b60201c565b61004160201b60201c565b60018081905550610105565b600033905090565b60008060009054906101000a900473ffffffffffffffffffffffffffffffffffffffff169050816000806101000a81548173ffffffffffffffffffffffffffffffffffffffff021916908373ffffffffffffffffffffffffffffffffffffffff1602179055508173ffffffffffffffffffffffffffffffffffffffff168173ffffffffffffffffffffffffffffffffffffffff167f8be0079c531659141344cd1fd0a4f28419497f9722a3daafe3b4186f6b6457e060405160405180910390a35050565b611971806101146000396000f3fe6080604052600436106100a05760003560e01c8063b1d17c9811610064578063b1d17c98146101ba578063cee42cce146101e3578063d5b9221b1461020c578063e486033914610249578063e5df8b8414610287578063f2fde38b146102c4576100f5565b806339c5a6a4146100fa5780635fa7b58414610126578063715018a61461014f5780638da5cb5b14610166578063af81c5b914610191576100f5565b366100f5573373ffffffffffffffffffffffffffffffffffffffff167f939e51ac2fd009b158d6344f7e68a83d8d18d9b0cc88cf514aac6aaa9cad2a18346040516100eb919061106e565b60405180910390a2005b600080fd5b34801561010657600080fd5b5061010f6102ed565b60405161011d929190611237565b60405180910390f35b34801561013257600080fd5b5061014d6004803603810190610148919061129f565b6104a8565b005b34801561015b57600080fd5b5061016461077c565b005b34801561017257600080fd5b5061017b610790565b60405161018891906112db565b60405180910390f35b34801561019d57600080fd5b506101b860048036038101906101b39190611322565b6107b9565b005b3480156101c657600080fd5b506101e160048036038101906101dc919061129f565b6109c9565b005b3480156101ef57600080fd5b5061020a6004803603810190610205919061139a565b610d2a565b005b34801561021857600080fd5b50610233600480360381019061022e919061129f565b610d8d565b60405161024091906113e9565b60405180910390f35b34801561025557600080fd5b50610270600480360381019061026b919061129f565b610dad565b60405161027e929190611463565b60405180910390f35b34801561029357600080fd5b506102ae60048036038101906102a9919061148c565b610df1565b6040516102bb91906112db565b60405180910390f35b3480156102d057600080fd5b506102eb60048036038101906102e6919061129f565b610e30565b005b606080600060038054905090508067ffffffffffffffff811115610314576103136114b9565b5b6040519080825280602002602001820160405280156103425781602001602082028036833780820191505090505b5092508067ffffffffffffffff81111561035f5761035e6114b9565b5b60405190808252806020026020018201604052801561038d5781602001602082028036833780820191505090505b50915060005b818110156104a2576000600382815481106103b1576103b06114e8565b5b9060005260206000200160009054906101000a900473ffffffffffffffffffffffffffffffffffffffff1690506000600260008373ffffffffffffffffffffffffffffffffffffffff1673ffffffffffffffffffffffffffffffffffffffff168152602001908152602001600020905081868481518110610435576104346114e8565b5b602002602001019073ffffffffffffffffffffffffffffffffffffffff16908173ffffffffffffffffffffffffffffffffffffffff16815250508060010154858481518110610487576104866114e8565b5b60200260200101818152505050508080600101915050610393565b50509091565b6104b0610eb3565b600073ffffffffffffffffffffffffffffffffffffffff16600260008373ffffffffffffffffffffffffffffffffffffffff1673ffffffffffffffffffffffffffffffffffffffff16815260200190815260200160002060000160009054906101000a900473ffffffffffffffffffffffffffffffffffffffff1673ffffffffffffffffffffffffffffffffffffffff1603610581576040517f08c379a000000000000000000000000000000000000000000000000000000000815260040161057890611574565b60405180910390fd5b600260008273ffffffffffffffffffffffffffffffffffffffff1673ffffffffffffffffffffffffffffffffffffffff168152602001908152602001600020600080820160006101000a81549073ffffffffffffffffffffffffffffffffffffffff02191690556001820160009055505060005b600380549050811015610778578173ffffffffffffffffffffffffffffffffffffffff166003828154811061062d5761062c6114e8565b5b9060005260206000200160009054906101000a900473ffffffffffffffffffffffffffffffffffffffff1673ffffffffffffffffffffffffffffffffffffffff160361076b576003600160038054905061068791906115c3565b81548110610698576106976114e8565b5b9060005260206000200160009054906101000a900473ffffffffffffffffffffffffffffffffffffffff16600382815481106106d7576106d66114e8565b5b9060005260206000200160006101000a81548173ffffffffffffffffffffffffffffffffffffffff021916908373ffffffffffffffffffffffffffffffffffffffff1602179055506003805480610731576107306115f7565b5b6001900381819060005260206000200160006101000a81549073ffffffffffffffffffffffffffffffffffffffff02191690559055610778565b80806001019150506105f5565b5050565b610784610eb3565b61078e6000610f31565b565b60008060009054906101000a900473ffffffffffffffffffffffffffffffffffffffff16905090565b6107c1610eb3565b600073ffffffffffffffffffffffffffffffffffffffff16600260008473ffffffffffffffffffffffffffffffffffffffff1673ffffffffffffffffffffffffffffffffffffffff16815260200190815260200160002060000160009054906101000a900473ffffffffffffffffffffffffffffffffffffffff1673ffffffffffffffffffffffffffffffffffffffff160361097d5760405180604001604052808373ffffffffffffffffffffffffffffffffffffffff16815260200182815250600260008473ffffffffffffffffffffffffffffffffffffffff1673ffffffffffffffffffffffffffffffffffffffff16815260200190815260200160002060008201518160000160006101000a81548173ffffffffffffffffffffffffffffffffffffffff021916908373ffffffffffffffffffffffffffffffffffffffff160217905550602082015181600101559050506003829080600181540180825580915050600190039060005260206000200160009091909190916101000a81548173ffffffffffffffffffffffffffffffffffffffff021916908373ffffffffffffffffffffffffffffffffffffffff1602179055506109c5565b80600260008473ffffffffffffffffffffffffffffffffffffffff1673ffffffffffffffffffffffffffffffffffffffff168152602001908152602001600020600101819055505b5050565b6109d1610ff5565b600460003373ffffffffffffffffffffffffffffffffffffffff1673ffffffffffffffffffffffffffffffffffffffff16815260200190815260200160002060009054906101000a900460ff1680610a5b5750610a2c610790565b73ffffffffffffffffffffffffffffffffffffffff163373ffffffffffffffffffffffffffffffffffffffff16145b610a9a576040517f08c379a0000000000000000000000000000000000000000000000000000000008152600401610a9190611672565b60405180910390fd5b60005b600380549050811015610d1e57600060038281548110610ac057610abf6114e8565b5b9060005260206000200160009054906101000a900473ffffffffffffffffffffffffffffffffffffffff1690506000600260008373ffffffffffffffffffffffffffffffffffffffff1673ffffffffffffffffffffffffffffffffffffffff168152602001908152602001600020905080600101548160000160009054906101000a900473ffffffffffffffffffffffffffffffffffffffff1673ffffffffffffffffffffffffffffffffffffffff166370a08231306040518263ffffffff1660e01b8152600401610b9291906112db565b602060405180830381865afa158015610baf573d6000803e3d6000fd5b505050506040513d601f19601f82011682018060405250810190610bd391906116a7565b1015610c14576040517f08c379a0000000000000000000000000000000000000000000000000000000008152600401610c0b90611746565b60405180910390fd5b8060000160009054906101000a900473ffffffffffffffffffffffffffffffffffffffff1673ffffffffffffffffffffffffffffffffffffffff1663a9059cbb8583600101546040518363ffffffff1660e01b8152600401610c77929190611766565b6020604051808303816000875af1158015610c96573d6000803e3d6000fd5b505050506040513d601f19601f82011682018060405250810190610cba91906117a4565b508373ffffffffffffffffffffffffffffffffffffffff167f3c814279fb91e60473ba2885e11916204b1d6e338708a2c22cca659f28a92896838360010154604051610d07929190611766565b60405180910390a250508080600101915050610a9d565b50610d27611044565b50565b610d32610eb3565b80600460008473ffffffffffffffffffffffffffffffffffffffff1673ffffffffffffffffffffffffffffffffffffffff16815260200190815260200160002060006101000a81548160ff0219169083151502179055505050565b60046020528060005260406000206000915054906101000a900460ff1681565b60026020528060005260406000206000915090508060000160009054906101000a900473ffffffffffffffffffffffffffffffffffffffff16908060010154905082565b60038181548110610e0157600080fd5b906000526020600020016000915054906101000a900473ffffffffffffffffffffffffffffffffffffffff1681565b610e38610eb3565b600073ffffffffffffffffffffffffffffffffffffffff168173ffffffffffffffffffffffffffffffffffffffff1603610ea7576040517f08c379a0000000000000000000000000000000000000000000000000000000008152600401610e9e90611843565b60405180910390fd5b610eb081610f31565b50565b610ebb61104d565b73ffffffffffffffffffffffffffffffffffffffff16610ed9610790565b73ffffffffffffffffffffffffffffffffffffffff1614610f2f576040517f08c379a0000000000000000000000000000000000000000000000000000000008152600401610f26906118af565b60405180910390fd5b565b60008060009054906101000a900473ffffffffffffffffffffffffffffffffffffffff169050816000806101000a81548173ffffffffffffffffffffffffffffffffffffffff021916908373ffffffffffffffffffffffffffffffffffffffff1602179055508173ffffffffffffffffffffffffffffffffffffffff168173ffffffffffffffffffffffffffffffffffffffff167f8be0079c531659141344cd1fd0a4f28419497f9722a3daafe3b4186f6b6457e060405160405180910390a35050565b60026001540361103a576040517f08c379a00000000000000000000000000000000000000000000000000000000081526004016110319061191b565b60405180910390fd5b6002600181905550565b60018081905550565b600033905090565b6000819050919050565b61106881611055565b82525050565b6000602082019050611083600083018461105f565b92915050565b600081519050919050565b600082825260208201905092915050565b6000819050602082019050919050565b600073ffffffffffffffffffffffffffffffffffffffff82169050919050565b60006110e0826110b5565b9050919050565b6110f0816110d5565b82525050565b600061110283836110e7565b60208301905092915050565b6000602082019050919050565b600061112682611089565b6111308185611094565b935061113b836110a5565b8060005b8381101561116c57815161115388826110f6565b975061115e8361110e565b92505060018101905061113f565b5085935050505092915050565b600081519050919050565b600082825260208201905092915050565b6000819050602082019050919050565b6111ae81611055565b82525050565b60006111c083836111a5565b60208301905092915050565b6000602082019050919050565b60006111e482611179565b6111ee8185611184565b93506111f983611195565b8060005b8381101561122a57815161121188826111b4565b975061121c836111cc565b9250506001810190506111fd565b5085935050505092915050565b60006040820190508181036000830152611251818561111b565b9050818103602083015261126581846111d9565b90509392505050565b600080fd5b61127c816110d5565b811461128757600080fd5b50565b60008135905061129981611273565b92915050565b6000602082840312156112b5576112b461126e565b5b60006112c38482850161128a565b91505092915050565b6112d5816110d5565b82525050565b60006020820190506112f060008301846112cc565b92915050565b6112ff81611055565b811461130a57600080fd5b50565b60008135905061131c816112f6565b92915050565b600080604083850312156113395761133861126e565b5b60006113478582860161128a565b92505060206113588582860161130d565b9150509250929050565b60008115159050919050565b61137781611362565b811461138257600080fd5b50565b6000813590506113948161136e565b92915050565b600080604083850312156113b1576113b061126e565b5b60006113bf8582860161128a565b92505060206113d085828601611385565b9150509250929050565b6113e381611362565b82525050565b60006020820190506113fe60008301846113da565b92915050565b6000819050919050565b600061142961142461141f846110b5565b611404565b6110b5565b9050919050565b600061143b8261140e565b9050919050565b600061144d82611430565b9050919050565b61145d81611442565b82525050565b60006040820190506114786000830185611454565b611485602083018461105f565b9392505050565b6000602082840312156114a2576114a161126e565b5b60006114b08482850161130d565b91505092915050565b7f4e487b7100000000000000000000000000000000000000000000000000000000600052604160045260246000fd5b7f4e487b7100000000000000000000000000000000000000000000000000000000600052603260045260246000fd5b600082825260208201905092915050565b7f546f6b656e206e6f207265676973747261646f00000000000000000000000000600082015250565b600061155e601383611517565b915061156982611528565b602082019050919050565b6000602082019050818103600083015261158d81611551565b9050919050565b7f4e487b7100000000000000000000000000000000000000000000000000000000600052601160045260246000fd5b60006115ce82611055565b91506115d983611055565b92508282039050818111156115f1576115f0611594565b5b92915050565b7f4e487b7100000000000000000000000000000000000000000000000000000000600052603160045260246000fd5b7f5661756c743a204e6f206175746f72697a61646f000000000000000000000000600082015250565b600061165c601483611517565b915061166782611626565b602082019050919050565b6000602082019050818103600083015261168b8161164f565b9050919050565b6000815190506116a1816112f6565b92915050565b6000602082840312156116bd576116bc61126e565b5b60006116cb84828501611692565b91505092915050565b7f5661756c743a204e6f2068617920737566696369656e74657320746f6b656e7360008201527f2070617261206469737472696275697200000000000000000000000000000000602082015250565b6000611730603083611517565b915061173b826116d4565b604082019050919050565b6000602082019050818103600083015261175f81611723565b9050919050565b600060408201905061177b60008301856112cc565b611788602083018461105f565b9392505050565b60008151905061179e8161136e565b92915050565b6000602082840312156117ba576117b961126e565b5b60006117c88482850161178f565b91505092915050565b7f4f776e61626c653a206e6577206f776e657220697320746865207a65726f206160008201527f6464726573730000000000000000000000000000000000000000000000000000602082015250565b600061182d602683611517565b9150611838826117d1565b604082019050919050565b6000602082019050818103600083015261185c81611820565b9050919050565b7f4f776e61626c653a2063616c6c6572206973206e6f7420746865206f776e6572600082015250565b6000611899602083611517565b91506118a482611863565b602082019050919050565b600060208201905081810360008301526118c88161188c565b9050919050565b7f5265656e7472616e637947756172643a207265656e7472616e742063616c6c00600082015250565b6000611905601f83611517565b9150611910826118cf565b602082019050919050565b60006020820190508181036000830152611934816118f8565b905091905056fea2646970667358221220976cc318dca09372f2a32c5e2bd43d86e1ba82bc6d4ab280bb86b55e013fb7a764736f6c63430008180033",
  "linkReferences": {},
  "deployedLinkReferences": {}
}